:100000000C94EB020C94110E0C94EA0D0C94130357
:100010000C9413030C9413030C94110A0C94130303
:100020000C9413030C9413030C9413030C941303F8
:100030000C9413030C9413030C9413030C941303E8
:100040000C94A00D0C9413030C9435130C940F1303
:100050000C9413030C9413030C9413030C941303C8
:100060000C94380E0C94130307634236B79BD8A741
:100070001A39685618AEBAAB558C1D3CB7CC5763CD
:10008000BD6DEDFD753EF6177231BF000000803F7B
:1000900008000000BE922449123EABAAAA2ABECD97
:1000A000CCCC4C3E00000080BEABAAAAAA3E000009
:1000B0000000BF000000803F000000000008417801
:1000C000D3BB4387D1133D190E3CC3BD4282AD2B38
:1000D0003E68EC8276BED98FE1A93E4C80EFFFBE30
:1000E00001C4FF7F3F000000000054534D3A494EC9
:1000F00049540A002154534D3A494E49543A5453F5
:1001000050204641494C0A0054534D3A494E4954F7
:100110003A545350204F4B0A0054534D3A465041E5
:10012000520A002154534D3A465041523A4E4F2004
:100130005245504C590A002154534D3A46504152B1
:100140003A4641494C0A0054534D3A465041523ABE
:100150004F4B0A0054534D3A49443A5245510A0014
:1001600054534D3A49440A002154534D3A49443AB4
:100170004641494C0A0054534D3A49443A4F4B0AC0
:100180000054534D3A55504C0A002154534D3A55A2
:10019000504C3A4641494C0A0054534D3A55504C44
:1001A0003A444757432C4F3D25642C4E3D25640A65
:1001B0000054534D3A55504C3A4F4B0A0054534D4E
:1001C0003A52454144593A49443D25642C504152E4
:1001D0003D25642C4449533D25640A002154534D68
:1001E0003A52454144593A55504C204641494C2CCD
:1001F000534E500A0054534D3A4641494C3A5044EC
:10020000540A0054534D3A4641494C3A434E543DEA
:1002100025640A0054534D3A4641494C3A52452D03
:10022000494E49540A004D434F3A50494D3A4E4FBA
:100230004445205245473D25640A00215453463A1F
:100240004D53473A52454C204D53472C4E52455042
:100250000A005453463A4D53473A42430A00545316
:10026000463A4D53473A41434B0A00215453463ACC
:100270004D53473A504F4E4720524543562C494E16
:100280004143544956450A005453463A4D53473A60
:10029000504F4E4720524543562C48503D25640A46
:1002A000005453463A4D53473A50494E4745442C23
:1002B00049443D25642C48503D25640A002154538F
:1002C000463A4D53473A4650415220494E414354D5
:1002D0004956450A005453463A4D53473A46504111
:1002E00052204F4B2C49443D25642C443D25640A43
:1002F000005453463A4D53473A41434B20524551DF
:100300000A00215453463A4D53473A505645522C11
:1003100025643D25640A00215453463A4D53473A1B
:100320004C454E2C2564213D25640A005453463A21
:100330004D53473A524541442C25642D25642D25C3
:10034000642C733D25642C633D25642C743D256429
:100350002C70743D25642C6C3D25642C73673D2501
:10036000643A25730A005453463A5755523A4D534E
:100370003D256C750A004D434F3A42474E3A494E6F
:100380004954204F4B2C5453503D25640A004D4393
:100390004F3A42474E3A5354500A004D434F3A4267
:1003A000474E3A4246520A004D434F3A42474E3A70
:1003B000494E4954204E4F44452C43503D524E4ED9
:1003C0004E412D2D2C5645523D322E312E310A00F4
:1003D0000000000800020100000304070000000004
:1003E00000000000214D434F3A534E443A4E4F44D3
:1003F00045204E4F54205245470A0000000000257A
:100400000028002B0000000000240027002A000420
:1004100004040404040404020202020202030303AB
:1004200003030301020408102040800102040810A5
:10043000200102040810205453463A5349443A4FCD
:100440004B2C49443D25640A00215453463A5349F4
:10045000443A4641494C2C49443D25640A002573E1
:100460005453463A4D53473A53454E442C25642D38
:1004700025642D25642D25642C733D25642C633D56
:1004800025642C743D25642C70743D25642C6C3DD2
:1004900025642C73673D25642C66743D25642C739C
:1004A000743D25733A25730A00215453463A525439
:1004B000453A46504152204143544956450A00218D
:1004C0005453463A534E443A544E520A004D434F09
:1004D0003A5245473A5245510A0000407A10F35AC1
:1004E00000A0724E18090010A5D4E80000E8764874
:1004F000170000E40B54020000CA9A3B000000E120
:10050000F505000080969800000040420F000000B2
:10051000A08601000000102700000000E803000092
:1005200000006400000000000A000000000001005C
:10053000000000002C76D888DC674F0823DFC1DF7D
:10054000AE59E1B1B796E5E3E453C63AE651997680
:1005500096E8E6C28426EB898C9B62ED407C6FFCBA
:10056000EFBC9C9F40F2BAA56FA5F490055A2AF7FC
:100570005C936B6CF9676DC11BFCE0E40D47FEF505
:1005800020E6B500D0ED902E03009435770500806D
:10059000841E080000204E0A000000C80C333333CC
:1005A000330F986E12831141EF8D2114893BE6556C
:1005B00016CFFEE6DB18D1844B381BF77C1D901D4F
:1005C000A4BBE424203284725E228100C9F124ECB1
:1005D000A1E53D27211711241FBECFEFD8E0DEBFD4
:1005E000CDBF12E0A0E0B1E0EEE4F4E402C005907B
:1005F0000D92A430B107D9F724E0A4E0B2E001C025
:100600001D92AE36B207E1F712E0CBEED2E004C0A5
:100610002197FE010E94C017CA3ED107C9F70E9468
:100620005B160C9425220C9400000F931F930E94DC
:10063000D00A00910702109108022091090230911E
:100640000A02601B710B820B930B1F910F9108958F
:100650009C0180910502909106028217930751F048
:1006600090910F029F7190930F0230930602209396
:10067000050205C080910F02805E80930F02E09119
:100680000502F09106020190F081E02D309709F00B
:1006900009950E94D00A6093070270930802809324
:1006A000090290930A020895EF92FF920F931F930D
:1006B000CF93DF93CDB7DEB7C857D1090FB6F89403
:1006C000DEBF0FBECDBF8E010F571F4FF801E19067
:1006D000F1908F010E94D00AAB01BC012AE08CECA2
:1006E00092E00E94EA1168EC71E08CEC92E00E94CA
:1006F0000D139801A70168E770E0CE0101960E94F2
:10070000561BBE016F5F7F4F8CEC92E00E940D1371
:100710008CEC92E00E943110C858DF4F0FB6F8946D
:10072000DEBF0FBECDBFDF91CF911F910F91FF9024
:10073000EF9008952F923F924F925F926F927F9227
:100740008F929F92AF92BF92CF92DF92EF92FF92E1
:100750000F931F93CF93DF93CDB7DEB72C970FB6D0
:10076000F894DEBF0FBECDBFE0910502F091060206
:100770000280F381E02D309709F0099580910F02F6
:1007800084FB222720F9298784FF59C386E0D82ECD
:1007900090E0E92E90E0F92E9E012F5F3F4F3C83C1
:1007A0002B8320EA822E26E8922EAA24A394B12C31
:1007B00034EB432E3BE2532E31E1632E712C21E0CA
:1007C00041E060E070E087E10E94451480FD37C39E
:1007D000DA94DD2009F433C3E114F10421F081E05F
:1007E00090E00E94000021E041E060E070E080E6DF
:1007F0000E944514C82E30E2381720F482EE0E9481
:100800009514C12C21E04C2D65E374E081E60E9433
:10081000451460E487E20E94771480913804282F01
:100820002695269526952A3108F029E182FD03C0F8
:1008300077E0720F01C070E28091390487708D8378
:1008400010913A040091360420903504309037041A
:1008500085E394E02A877C870E94B5102A85422F81
:1008600050E09F938F938091380482FB882780F912
:100870001F928F931F922F938091390482958695B2
:1008800087701F928F931F921F931F922D812F931A
:1008900080913B041F928F931F923F921F922F9241
:1008A0001F920F93ACE2B3E0BF93AF934A875B878D
:1008B0000E9454030FB6F894DEBF0FBECDBF7C85F7
:1008C0004A855B85C71679F0E114F10429F08CE6BE
:1008D00090E00E9400007C851F927F931F92CF9230
:1008E00087E193E017C020913804822F8370823013
:1008F000E1F0E114F10421F08DE690E00E940000A7
:100900001F9282E08F938091380483701F928F939F
:1009100082E093E09F938F930E9454030F900F9077
:100920000F900F900F900F904ACF80911002806827
:10093000809310028091C902381259C0822F869587
:10094000869586958A3108F089E138E0839FC00159
:1009500011242770822B80933804FA01EB5CFB4F43
:1009600017828091390483FF21C081EF92E09F9329
:100970008F930E94540381E2E5E3F4E0A4E1B4E044
:1009800001900D928A95E1F780911804877F80612C
:10099000809318048091C902809315040093160473
:1009A00084E194E00E9493150F900F909091390488
:1009B00094FD0BC02D81233081F480913A0421EF06
:1009C000280F233008F055C0FACEAEE5B2E0BF9351
:1009D000AF930E9454030F900F9020E030E0232B40
:1009E00009F4EDCE85E394E00E940000E8CE3FEFED
:1009F000331236C0A2E5B2E0BF93AF930E94540316
:100A00000F900F902D81233031F580910F0282FFDE
:100A100003C0173009F4D3CE183009F4D0CE143106
:100A200009F0CDCE8091CA022812C9CE0E94D00A08
:100A30007370882799270E94CA131091CA0225E172
:100A400043E06FEF802F0E945F10612F0E9404141B
:100A50000E949B14B4CE8091CA022812B0CEBDCFA2
:100A6000ABE3B2E0BF93AF930E9454030F900F909B
:100A7000A6CE143029F40E9452110E941A169FCE5D
:100A8000183011F510910F0210FF1BC00E94521177
:100A90008F3F09F494CE8F5F8F3F09F490CE9091F1
:100AA000CB02891708F08BCE11FD89CE8093CB0243
:100AB0000093CA021F928F931F920F9385ED92E0CD
:100AC00029CF8DEB92E030C01831C1F40E94521151
:100AD0001F928F931F920F9381EA92E09F938F93BF
:100AE0000E94540329E143E06FEF802F0E945F10C2
:100AF00061E00E9404140E949B1410CF1931B9F4D4
:100B000080910F0283FF0EC0877F80930F020E94A7
:100B10005211809311021F928F9388E892E09F9365
:100B20008F933CC08BE692E09F938F939DCF209153
:100B30003604211180C18D3099F480E090E0892B3A
:100B400021F08BE090E00E94000098E088E10FB671
:100B5000F894A895809360000FBE90936000FFCF3B
:100B60008B3119F50E94521191E0811101C090E082
:100B70008091950290FB80F980939502E114F10435
:100B800021F08AE090E00E9400008091950281703F
:100B90001F928F93A6E2B2E0BF93AF930E945403DB
:100BA0000F900F900F900F900ACE8630A9F490917D
:100BB0003C04992329F081E09D3419F080E001C0C4
:100BC00089858093940241E050E063E071E084E91C
:100BD00092E00E94AA21F3CD833119F40E94A2155C
:100BE000EECD8231F1F40E9415036D837E838F83F5
:100BF000988726E143E06FEF80E00E945F10FC01E0
:100C000084818F71806A848383818770806283830B
:100C10008D819E81AF81B88587839087A187B287B8
:100C2000DAC0813001F5A0E0B0E0AB2B09F4C7CD0C
:100C3000929596959770953049F460913C04709127
:100C40003D0480913E0490913F040AC0911105C07B
:100C50008CE394E00E94BC1A03C060E070E0CB011A
:100C60000E940000ACCD8A3009F4A9CD8C3109F086
:100C7000B4CE80913C04823509F4A1CD8635B1F51E
:100C80008EE480937C0066E470E080E090E00E9457
:100C9000CA1380917A00806480937A0080917A00F0
:100CA00086FDFCCF20907800309079002CE143E065
:100CB0006FEF80E00E945F108C01FC0184818F71D6
:100CC000806684838381877080618383910140E0A3
:100CD00050E0C301B2010E94CC21D80118963C9388
:100CE0002E931797C8010E94931569CD863409F099
:100CF00052C0F8948FEF86BB10928500109284004A
:100D00001092800010928200909160002DE088E1A6
:100D10000FB6F894A895809360000FBE20936000F2
:100D200080916000806480936000A89585E0809346
:100D300081008091600087FFFCCF10928100A89510
:100D40008091600088618093600090936000789447
:100D500020908400309085002CE143E06FEF80E02C
:100D60000E945F108C01FC0184818F7180668483F6
:100D70008381877080618383C101A0E0B0E0BC0102
:100D8000CD014BE0660F771F881F991F4A95D1F759
:100D9000A5019401A0CF8D3401F500916A04109152
:100DA0006B040115110511F40EE614E02CE143E08B
:100DB0006FEF80E00E945F10FC0184818F7180667C
:100DC000848383818770806183838B819C81801B76
:100DD000910B90878783CF0186CF853409F0EFCCC4
:100DE0002CE143E06FEF80E00E945F1067E571E067
:100DF0000E9410140E94931500E010E06FEFC801EC
:100E00000E94BA210F5F1F4F0D39B1E01B07B1F7E8
:100E100080E090E0892B21F08BE090E00E940000C0
:100E200098E088E10FB6F894A895809360000FBE13
:100E300090936000FFCF8A3109F0CFCDC0CC2C96C3
:100E40000FB6F894DEBF0FBECDBFDF91CF911F91DB
:100E50000F91FF90EF90DF90CF90BF90AF909F9059
:100E60008F907F906F905F904F903F902F9008955C
:100E70000F931F930E9415032091100220772037B3
:100E800029F000E117E220E030E004C000E61AEEAD
:100E900020E030E0061717072807390770F484E1CF
:100EA00092E09F938F930E9454030F900F908CE1D8
:100EB00091E01F910F910C9428031F910F910895B9
:100EC00080911002982F9077903759F0982F929533
:100ED0009F709F5F97709295907F8F78892B8093FA
:100EE000100280911002829587701F928F9383E089
:100EF00092E09F938F930E94540380910F028B7F07
:100F00008F7E80930F020F900F900F900F9080E0D4
:100F100090E0892B21F087E690E00E94000085EFA9
:100F200091E09F938F930E94540329980F900F9004
:100F30006CE080E20C947714809110028F70863000
:100F400060F08CED91E09F938F930E9454030F907B
:100F50000F9088E191E00C94280308958091CB02D2
:100F60001F928F938091CA021F928F938091C90222
:100F70001F928F938DEB91E09F938F930E94540368
:100F800080910F02846080930F028091100280781C
:100F900080931002E0911202F09113028DB79EB778
:100FA00008960FB6F8949EBF0FBE8DBF309709F01C
:100FB00009940895809111028F3F79F10E94D00A1F
:100FC00060930B0270930C0280930D0290930E02BB
:100FD00081EB91E09F938F930E94540390911102B3
:100FE0008091CB020F900F909817A1F01F929F93C2
:100FF0001F928F9389E991E09F938F930E945403EE
:10100000809111028093CB020F900F900F900F9060
:101010000F900F9084E191E025C00E941503613D7F
:1010200077408105910500F180910F02803618F418
:1010300080E191E017C08AE891E09F938F930E942E
:10104000540380910F02877F80930F020F900F90BF
:1010500080E090E0892B21F08AE690E00E94000079
:1010600088E191E00C942803089581E891E09F9332
:101070008F930E9454030F900F9080E090E0892B93
:1010800021F088E090E00E9400008FEF8093110231
:1010900080910F02886080930F0228E143E06FEF98
:1010A00080E00E945F1061E00E9404140C949B1485
:1010B0008091C9028F3F99F086E791E09F938F93CB
:1010C0000E9454030F900F9080E090E0892B21F054
:1010D00087E090E00E94000080E191E020C00E9443
:1010E0001503613D774081059105D8F080910F028D
:1010F000803618F48CE091E012C088E691E09F936E
:101100008F930E9454030F900F9080E090E0892B02
:1011100021F089E690E00E94000088E091E00C94C4
:101120002803089580E691E09F938F930E945403D3
:101130000F900F908091C9028F3FE1F480E090E022
:10114000892B21F086E090E00E94000084E591E088
:101150009F938F930E94540323E043E06FEF80E05E
:101160000E945F1068E871E00E9410140F900F90C9
:101170000C949B1408950E941503613D77408105EE
:10118000910520F480910F0281FF08958091CA0299
:101190008F3FC1F087E491E09F938F930E945403A7
:1011A00080910F028E7F80930F020F900F9080E04E
:1011B00090E0892B21F085E090E00E9400008CE017
:1011C00091E021C080910F02803658F483E291E0D3
:1011D0009F938F930E9454030F900F9088E191E0AA
:1011E00012C087E391E09F938F930E9454030F9066
:1011F0000F9080E090E0892B21F088E690E00E943B
:10120000000088E091E00C94280389E191E09F932D
:101210008F930E9454030F900F9080E090E0892BF1
:1012200021F084E090E00E94000080910F02897F0D
:10123000816080930F028FEF8093CB028093CA026C
:1012400027E043E06FEF0E945F1068E871E00E94C2
:1012500010140C949B14CF93219A229ACFB7F89430
:1012600080910402811124C0E9E1F4E08491EDE26F
:10127000F4E09491E82FF0E0EE0FFF1FEB5FFB4FDF
:10128000A591B491EC91E92321F461E08AE00E94F8
:1012900067138AE00E946E108CB580618CBD8CB59E
:1012A00080648CBD8DE00E946E108BE00E946E10F9
:1012B000809104028F5F80930402CFBF29982A9AFD
:1012C0006EE080E20E94771465E070E080E090E0DC
:1012D0000E94CA1363E083E20E9477146FE584E200
:1012E0000E9477146CE485E20E94771467E286E23C
:1012F0000E94771463E780E50E94771466E08DE32F
:101300000E94771421E041E060E070E086E00E94F6
:101310004514C82F21E041E060E070E085E00E94C4
:1013200045148C3409F049C0C73209F046C062E068
:1013300082E20E94771460E081E20E94771463E009
:101340008CE30E9477148FEF8093030120E045E047
:1013500063E071E08BE20E94451420E045E063E029
:1013600071E08AE20E94451420E045E063E071E00C
:1013700080E30E94451482EE0E94951481EE0E9443
:10138000951460E787E20E94771488E091E09F93CC
:101390008F930E94540380910F02806180930F020B
:1013A0008091C9020F900F908F3FC1F00E941A16D2
:1013B000811114C088E091E013C084EF90E09F9306
:1013C0008F930E9454030F900F9080E090E0892B40
:1013D00089F387E690E00E940000ECCF88E191E07D
:1013E000CF910C9428038AEE90E09F938F930E94F4
:1013F0005403EFE0F2E08081877F8F7E808310923C
:101400000B0210920C0210920D0210920E020F901D
:101410000F9043E050E060E070E089EC92E00C94C3
:101420009A211F920F920FB60F9211240F900FBEA8
:101430000F901F901895089585ED8093BC008091C2
:10144000BC0084FDFCCF10926502089540913F02DC
:10145000262F30E0240F311D21323105DCF420919C
:1014600065022430C9F4FC0180E090E0861758F44E
:1014700030913F022191DC01A35EBD4FA30FB11D4E
:101480002C930196F3CF80913F02680F60933F0247
:1014900080E0089581E0089582E0089508958FEF37
:1014A0009FEF08958FEF9FEF089580911C0290E0C9
:1014B0009195819591090895CF93DF9300D0CDB791
:1014C000DEB7CB01642F49835A830E94260A4981E3
:1014D000842F5A81952F0F900F90DF91CF9108950F
:1014E000CF93DF931F92CDB7DEB7698361E0CE0162
:1014F00001960E94260A81E090E00F90DF91CF9143
:1015000008952BE043E06FEF80E00E945F106AE5F2
:1015100071E00E9410140E9493152CE043E06FEFDD
:1015200080E00E945F106EE571E00E9410140E943E
:1015300093156EE181E00E94651166E182E00E94F0
:1015400065116EE183E00E94651162E671E08CEC4A
:1015500092E00C940D133FB7F89480919002909113
:101560009102A0919202B091930226B5A89B05C06A
:101570002F3F19F00196A11DB11D3FBFBA2FA92F12
:10158000982F8827820F911DA11DB11DBC01CD018F
:1015900042E0660F771F881F991F4A95D1F708957B
:1015A0002FB7F89460918C0270918D0280918E0219
:1015B00090918F022FBF08950F931F93CF93DF93C6
:1015C000C9E6D3E01092AD031092AE031092AF03C0
:1015D0001092B0031A821B821C821D8260ED77E09C
:1015E00080E090E00E94CA130BEA13E08CEC92E0DA
:1015F000F801918380830E948D100E94D00A6A8333
:101600007B838C839D8367E771E0F8018081918102
:101610000E940D136AE070E080E090E00E94CA131F
:1016200081E08E8B87E00E946E1061E087E00E946F
:10163000671369E871E08CEC92E00E94D51166E8CE
:1016400071E08CEC92E0DF91CF911F910F910C949F
:10165000D5116F927F928F929F92AF92BF92CF924D
:10166000DF92EF92FF920F931F93CF93DF9300D0FF
:1016700000D0CDB7DEB70E94D00A672B682B692B4C
:1016800041F40E94D00A623071058105910508F489
:101690000FC10E94D00A60931802709319028093C0
:1016A0001A0290931B02C0901402D0901502E09091
:1016B0001602F09017026C157D058E059F0540F40B
:1016C0006093140270931502809316029093170290
:1016D000C0901402D0901502E0901602F09017020C
:1016E0009B01AC012C193D094E095F0969017A0182
:1016F0003AEFC316D104E104F10408F4D9C06093B1
:10170000140270931502809316029093170284EFCF
:1017100091E0A0E0B0E08093770390937803A093EA
:101720007903B0937A0310927B0310927C0310929A
:101730007D0310927E0380916F0390917003A091BE
:101740007103B09172038093730390937403A09319
:101750007503B09376030E94D00A60936F03709371
:10176000700380937103909372030E94D00A609378
:101770006B0370936C0380936D0390936E030E94D0
:10178000D00A6B017C0169E971E08091AB03909113
:10179000AC030E940D132AE041E050E060E070E0ED
:1017A0008091AB039091AC030E94EA1160EA71E072
:1017B0008091AB039091AC030E940D132AE0B70116
:1017C000A6018091AB039091AC030E94EA1162EAFA
:1017D00071E08091AB039091AC030E940D13809156
:1017E0006F0390917003A0917103B0917203B701E0
:1017F000A601481B590B6A0B7B0B2AE08091AB03B7
:101800009091AC030E94EA1162EA71E08091AB030F
:101810009091AC030E940D1340916F03509170039F
:1018200060917103709172038091730390917403BE
:10183000A0917503B0917603481B590B6A0B7B0B83
:101840002AE08091AB039091AC030E94EA1164EA14
:1018500071E08091AB039091AC030E940D130E9444
:10186000D00AAB01BC012AE08091AB039091AC039C
:101870000E94EA110091AB031091AC0366EA71E09B
:10188000C8010E94D51166E871E0C8010E94D51117
:1018900062E070E080E090E00E94CA130E94D00AEB
:1018A00060936F037093700380937103909372033E
:1018B0008FE00E94B313BC01990F880B990B0E9413
:1018C0007D206B017C016DEA71E08CEC92E00E945E
:1018D0000D1342E0C701B6010E94331266E871E0C1
:1018E0008CEC92E00E94D51105E010E0812C912C47
:1018F00054018EE00E94B313BC01990F880B990B21
:101900000E947D209B01AC01C501B4010E94C71754
:101910004B015C0162E370E080E090E00E94CA133A
:101920000150110931F720E030E040EA50E4C501F0
:10193000B4010E94331820E030E040EA50E40E94F5
:10194000DC2020E030E040E85AE30E94DC204B013C
:101950005C0124EA30E74DED5FE30E94DB1887FF6E
:101960002CC02091240130912501409126015091F5
:101970002701C501B4010E94C617209128013091AA
:10198000290140912A0150912B010E943318209186
:1019900020013091210140912201509123010E94A8
:1019A000C7179B01AC0160E070E080E291E40E9407
:1019B000E0180E94A5183B0103C066246A94762CA7
:1019C00064EB71E08CEC92E00E940D1342E0C501E3
:1019D000B4010E9433126DEB71E08CEC92E00E9436
:1019E0000D136AEC71E08CEC92E00E940D134FEF46
:1019F0006416740639F46FEC71E08CEC92E00E948E
:101A00000D131EC0A301072C000C660B770B77FF8C
:101A100012C08DE249835A836B837C830E949411A8
:101A200049815A816B817C81709560955095419573
:101A30005F4F6F4F7F4F2AE08CEC92E00E94EA11DB
:101A400064ED71E08CEC92E00E940D1368ED71E0A2
:101A50008CEC92E00E940D130E94D00AAB01BC01F5
:101A60002AE08CEC92E00E94EA1167E871E08CECCD
:101A700092E00E940D138091F60387708862809334
:101A8000F6038091F703806E8093F7038092FA0348
:101A90009092FB03A092FC03B092FD0312E010931E
:101AA000FE0383EF93E00E947B118091B403877063
:101AB00088628093B4038091B503806E8093B503F0
:101AC000C092B803D092B903E092BA03F092BB037C
:101AD0001093BC0381EB93E00E947B118091D603AD
:101AE0008F7180648093D6038091D5038770806165
:101AF0008093D5037092DA036092D90382ED93E06C
:101B00000E947B1167E871E08CEC92E00E940D135B
:101B100060E177E280E090E00F900F900F900F90DF
:101B2000DF91CF911F910F91FF90EF90DF90CF90B9
:101B3000BF90AF909F908F907F906F900C94CA133E
:101B40001F920F920FB60F9211242F933F938F93F2
:101B50009F93AF93BF9380918C0290918D02A0913F
:101B60008E02B0918F0230918B0223E0230F2D372C
:101B700020F40196A11DB11D05C026E8230F029691
:101B8000A11DB11D20938B0280938C0290938D0236
:101B9000A0938E02B0938F02809190029091910257
:101BA000A0919202B09193020196A11DB11D809364
:101BB000900290939102A0939202B0939302BF91EE
:101BC000AF919F918F913F912F910F900FBE0F90EA
:101BD0001F9018951F920F920FB60F9211242F93FA
:101BE0003F934F935F936F937F938F939F93AF93A5
:101BF000BF93EF93FF93E0912E01F0912F01099590
:101C0000FF91EF91BF91AF919F918F917F916F91D4
:101C10005F914F913F912F910F900FBE0F901F90AA
:101C200018951F920F920FB60F9211242F933F9386
:101C30004F935F936F937F938F939F93AF93BF93D4
:101C4000EF93FF93E0912C01F0912D010995FF9105
:101C5000EF91BF91AF919F918F917F916F915F9124
:101C60004F913F912F910F900FBE0F901F9018959D
:101C70001F920F920FB60F9211242F933F934F9301
:101C80005F936F937F938F939F93AF93BF93EF93E4
:101C9000FF938091B900887F803609F49CC068F575
:101CA000883209F45BC090F4803109F454C038F4F0
:101CB000882309F4F6C0883009F44DC0F6C0883195
:101CC00009F44CC0803209F45DC0EFC0803409F4DF
:101CD00068C048F4803309F455C0883309F0E5C082
:101CE00080936402D8C0803509F44FC0883509F468
:101CF0005DC0883409F0D9C0D6C0883909F4C7C09E
:101D0000A8F4883709F467C038F4883609F463C04A
:101D1000803709F460C0C9C0883809F4B8C0803978
:101D200009F45FC0803809F0C0C05BC0803B09F493
:101D300086C038F4803A09F466C0883A09F47FC056
:101D4000B4C0803C09F4A7C0883C09F4A4C0883B17
:101D500009F48AC0AAC080918A0210C090918902B9
:101D600080918802981770F5E091890281E08E0FCA
:101D700080938902F0E0E859FD4F80818093BB0099
:101D800085EC86C0809364028EC0E091890281E078
:101D90008E0F809389028091BB00F0E0E859FD4FDF
:101DA000808390918902809188026EC0E0918902BF
:101DB00081E08E0F809389028091BB00F0E0E859AA
:101DC000FD4F80838091670281116DC081E0809317
:101DD000660284EA61C083E0809365021092630228
:101DE000CFCF80916302803208F051C0E09163024E
:101DF00081E08E0F809363028091BB00F0E0ED5B89
:101E0000FD4F8083BDCF85EC8093BC0010926502AE
:101E100080916302803230F4E0916302F0E0ED5B88
:101E2000FD4F10826091630270E0E0914102F091F9
:101E3000420283E492E009951092630236C084E086
:101E4000809365021092400210923F02E0913D02A1
:101E5000F0913E02099580913F02811105C081E019
:101E600080933F0210921D02E091400281E08E0FAC
:101E700080934002F0E0E35EFD4F80818093BB00E1
:101E80009091400280913F02981708F479CF85E83D
:101E90008093BC000AC085EC8093BC001092650260
:101EA00004C0109264020E941C0AFF91EF91BF913E
:101EB000AF919F918F917F916F915F914F913F91E2
:101EC0002F910F900FBE0F901F901895CF92DF9219
:101ED000EF92FF920F931F93CF93DF936C017A01E0
:101EE0008B01C0E0D0E0CE15DF0589F0D8016D91FF
:101EF0008D01D601ED91FC910190F081E02DC6019C
:101F00000995892B11F47E0102C02196ECCFC701FF
:101F1000DF91CF911F910F91FF90EF90DF90CF90C5
:101F20000895FC01918D828D981761F0828DDF01FB
:101F3000A80FB11D5D968C91928D9F5F9F73928FBC
:101F400090E008958FEF9FEF0895FC01918D828DB1
:101F5000981731F0828DE80FF11D858D90E008957E
:101F60008FEF9FEF0895FC01918D228D892F90E0D6
:101F7000805C9F4F821B91098F73992708958CEC89
:101F800092E00E94B30F21E0892B09F420E0822F18
:101F90000895FC01848DDF01A80FB11DA35ABF4F26
:101FA0002C91848D90E001968F739927848FA68958
:101FB000B7892C93A089B1898C9180648C93938D7F
:101FC000848D981306C00288F389E02D80818F7D6F
:101FD00080830895EF92FF920F931F93CF93DF9327
:101FE000EC0181E0888F9B8D8C8D981305C0E8896A
:101FF000F989808185FD24C0F62E0B8D10E00F5FDE
:102000001F4F0F731127E02E8C8DE8120CC00FB6F6
:1020100007FCFACFE889F989808185FFF5CFCE01E9
:102020000E94C90FF1CF8B8DFE01E80FF11DE35A1D
:10203000FF4FF0820B8FEA89FB898081806207C0A5
:10204000EE89FF896083E889F989808180648083D3
:1020500081E090E0DF91CF911F910F91FF90EF9081
:102060000895CF93DF93EC01888D8823C9F0EA8926
:10207000FB89808185FD05C0A889B9898C9186FD81
:102080000FC00FB607FCF5CF808185FFF2CFA8897E
:10209000B9898C9185FFEDCFCE010E94C90FE7CFA2
:1020A000DF91CF91089580E090E0892B29F00E9484
:1020B000BF0F81110C94000008950E946A1AE4E198
:1020C000F4E09091C90291838283668325834770EF
:1020D0008481807E482B4483CF01089590E0FC01E9
:1020E000ED5DFB4F2491FC01E15FFB4F8491882360
:1020F00099F090E0880F991FFC01EB5FFB4FA591D1
:10210000B491FC01E550FC4F859194918FB7F89400
:10211000EC91E22BEC938FBF0895ECECF2E0A089F8
:10212000B18982E08C93A485B5851C92A685B7857C
:1021300080E18C93108EA489B58986E08C93A28966
:10214000B3898C9180618C93A289B3898C918860CA
:102150008C93A289B3898C9180688C930288F389CF
:10216000E02D80818F7D808308950F931F93CF93FF
:10217000DF93EC018C8182958695877091F44B8179
:1021800046954695469550E0BE01695F7F4F86E9CA
:1021900092E00E946F1AEB81E695E695E695F0E0F5
:1021A00077C0813031F48F814AE066E972E090E0D7
:1021B00007C0823041F44AE066E972E08F81988579
:1021C0000E94E31A68C0833041F44AE066E972E095
:1021D0008F8198850E943C1B5EC0843051F46F81D2
:1021E000788589859A852AE046E952E00E94EE1AB0
:1021F00052C0853051F46F81788589859A852AE0AF
:1022000046E952E00E941A1B46C0873071F42B85C4
:10221000293008F028E06F81788589859A8506E95C
:1022200012E042E00E947E1A36C08630A1F520E01E
:10223000EB81E695E695E6952E1738F5E22FF0E06E
:10224000AF01440F551FDA01AA56BD4FEC0FFD1F19
:102250008781082E000C990B34E0959587953A9567
:10226000E1F78F708A3010F4805D01C0895C8C9337
:10227000DA01A956BD4F87818F708A3010F4805DD6
:1022800001C0895C8C932F5FD3CFF0E0EE0FFF1F6E
:10229000EA56FD4F108286E992E0DF91CF911F91BF
:1022A0000F910895809139048295869587708130C9
:1022B00019F480913C040895811105C08CE394E0E9
:1022C0000E949E1A089580E00895CF93DF93262FF1
:1022D0008F3F19F0C8E8D1E002C0CBEED1E040E07A
:1022E000682F80E00E945F10BE010E941014DF91F1
:1022F000CF910C949315FC018091C9028183948144
:10230000907F916094838091950280FF03C0CF01FC
:102310000C94931584EE93E09F938F930E94540343
:102320000F900F9080E00895E091CC02F091CD02E3
:102330000190F081E02D682F8CEC92E00994CF920F
:10234000DF92EF92FF92CF93DF93D82F0E94D00AB3
:102350006B017C0181E0D11180E080933A04C0E000
:102360000E94D00AAB01BC014C195D096E097F09BE
:10237000403D57406105710580F4C1110EC0A8951C
:102380000E949A03909139049770933049F7C1E005
:1023900080913A048D13E3CFE3CF8C2FDF91CF915F
:1023A000FF90EF90DF90CF9008956115710579F05F
:1023B000FB0101900020E9F73197AF01461B570B55
:1023C000DC01ED91FC910280F381E02D099480E025
:1023D00090E008954F925F926F927F92EF92FF92FA
:1023E0000F931F93CF93DF93CDB7DEB7A1970FB6AF
:1023F000F894DEBF0FBECDBF7C01FA01CB0119A25C
:10240000223008F42AE08E010F5D1F4F422E512C1E
:10241000612C712CBF01A30192010E94CC21F90112
:10242000CA01015011096A3014F4605D01C0695C91
:10243000D8016C93232B242B252B61F7B801C701FE
:102440000E94D511A1960FB6F894DEBF0FBECDBF86
:10245000DF91CF911F910F91FF90EF907F906F9040
:102460005F904F9008954F925F926F927F928F92FC
:102470009F92AF92BF92CF92DF92EF92FF926B0149
:102480007C01B42E9B01AC010E943019882319F005
:1024900061EF71E027C026013701E89477F82FEF4C
:1024A0003FEF4FE75FE7C301B2010E94301981118E
:1024B0000DC02FEF3FEF4FE75FE7C301B2010E946E
:1024C000762018161CF465EF71E00CC02FEF3FEF7B
:1024D0004FE75FE4C701B6010E94DB18181694F4B9
:1024E00069EF71E08CEC92E0FF90EF90DF90CF907D
:1024F000BF90AF909F908F907F906F905F904F9024
:102500000C94D5112FEF3FEF4FE75FECC701B601F9
:102510000E94762087FDE4CF20E030E0A901C701CA
:10252000B6010E94762087FF09C08DE20E949411B7
:102530004C01F7FAF094F7F8F09402C0812C912C3A
:10254000A12C60E070E080E09FE3AB1441F020E05C
:1025500030E040E251E40E943318A394F6CF9B018F
:10256000AC01C701B6010E94C7172B013C010E94B4
:10257000AC186B017C010E947B209B01AC01C30164
:10258000B2010E94C6172B013C012AE0B701A60147
:102590008CEC92E00E94EA117C01E80CF91CBB2053
:1025A00029F08EE20E949411E80EF91EDB2CDD204A
:1025B00031F120E030E040E251E4C301B2010E9479
:1025C000DC202B013C010E94AC184B01A12CB12C4A
:1025D0002AE0B501A4018CEC92E00E94EA11E80E19
:1025E000F91EC501B4010E947B209B01AC01C3010F
:1025F000B2010E94C6172B013C01DA94D8CFC70163
:10260000FF90EF90DF90CF90BF90AF909F908F9012
:102610007F906F905F904F9008950C94D5111F920A
:102620000F920FB60F9211242F933F934F935F9306
:102630006F937F938F939F93AF93BF93EF93FF938A
:102640008CEC92E00E94C90FFF91EF91BF91AF9186
:102650009F918F917F916F915F914F913F912F91BA
:102660000F900FBE0F901F9018951F920F920FB6EC
:102670000F9211242F938F939F93EF93FF93E091E9
:10268000DC02F091DD028081E091E202F091E30250
:1026900082FD12C090818091E5028F5F8F7320913F
:1026A000E602821751F0E091E502F0E0E453FD4FBD
:1026B000958F8093E50201C08081FF91EF919F91FA
:1026C0008F912F910F900FBE0F901F90189590E053
:1026D000FC01E053FC4F3491FC01ED5DFB4F249174
:1026E000FC01E15FFB4FE491EE2309F43BC033238F
:1026F00039F1333091F038F43130A9F0323001F54E
:1027000084B58F7D12C0373091F03830A1F034306D
:10271000B9F4809180008F7D03C0809180008F7715
:10272000809380000DC084B58F7784BD09C08091EF
:10273000B0008F7703C08091B0008F7D8093B00090
:10274000F0E0EE0FFF1FE550FC4FA591B4918FB75D
:10275000F894EC91611103C020952E2301C02E2B1B
:102760002C938FBF08958E3008F08E508770806450
:1027700080937C0080917A00806480937A008091BD
:102780007A0086FDFCCF809178002091790090E05E
:10279000922B08958F929F92AF92BF92CF92DF9229
:1027A000EF92FF926B017C010E94AB0A4B015C012E
:1027B000C114D104E104F104F1F00E94AB0ADC0180
:1027C000CB0188199909AA09BB09883E9340A10544
:1027D000B10570F321E0C21AD108E108F10888EED2
:1027E000880E83E0981EA11CB11CC114D104E10421
:1027F000F10419F7DDCFFF90EF90DF90CF90BF90FD
:10280000AF909F908F900895FC01838187708860BE
:10281000838384818F71806284836783CF0108956D
:102820000F931F93CF93DF93EC016115710561F056
:10283000FB0101900020E9F73197E61BF70BE93126
:10284000F10518F0E9E101C0E0E00E2F10E0C80149
:1028500023E0880F991F2A95E1F79B819770892BB8
:102860008B838C818F718C83EE2329F0A801CE019C
:1028700007960E946F1AFE01E00FF11F1782CE012A
:10288000DF91CF911F910F91089591E59CBD91E04B
:102890009DBD2A98E3E2F0E03197F1F78EBD00008C
:1028A0000DB407FEFDCF8EB5FB019FEF4150C8F080
:1028B000222361F09EBD00000DB407FEFDCF8EB552
:1028C0006115710599F380833196F0CFDF01119680
:1028D00080818EBD00000DB407FEFDCF8EB5FD01D9
:1028E000E5CF2A9AE3E2F0E03197F1F70895CF932C
:1028F000DF931F92CDB7DEB7698320E041E0BE01D0
:102900006F5F7F4F0E9445140F90DF91CF91089524
:102910006FE080E20E947714609130016F3F19F000
:102920008AE20E947714299A089520E040E060E04E
:1029300070E00C944514AF92BF92CF92DF92EF9269
:10294000FF920F931F93CF93DF93EC018A819091B5
:102950000F0290FF0CC08F3F79F089EA94E09F93BB
:102960008F930E9454030F900F9010E0D0C08F3FC0
:1029700019F00091CA0201C00FEF8091C90288834B
:102980004B8142FD06C046954695469517E0140FCB
:1029900001C010E280E090E0892B21F080E090E01F
:1029A0000E940000299883E092E00197F1F76EE021
:1029B00080E20E9477148BE891E00197F1F7602F95
:1029C0008AE20E947714602F80E30E94771481EEE0
:1029D0000E9495140F3F11F080EA01C080EB412F57
:1029E000113208F040E220E0BE010E944514299A0D
:1029F000E12CF12C8FEF0E949514182F807321F495
:102A000081E0E81AF108B1F7299860E387E20E94B3
:102A1000771414FF03C081EE0E9495140E9488145D
:102A200015FB112710F981E00F3F09F080E0182B0A
:102A3000CE010E94B510111103C0EDEFF1E002C00C
:102A4000E7E5F1E0609110026F702B8122FBAA2470
:102A5000A0F8322F3695369536952C81B22EB29449
:102A6000B69447E0B422CD802770DE80EA80A02FA4
:102A7000B0E0F8807981111103C042E052E002C059
:102A800048E851E09F938F93FF93EF931F926F93CA
:102A90001F92AF921F923F931F92BF921F92CF92AD
:102AA0001F922F931F92DF921F92EF92BF93AF93CB
:102AB0001F92FF921F927F935F934F938EE594E056
:102AC0009F938F930E9454038DB79EB74E960FB677
:102AD000F8949EBF0FBE8DBF8091CA02081317C025
:102AE000111110C080E090E0892B21F085E690E084
:102AF0000E9400008091100291E0980F9F70807FEB
:102B0000892B03C080911002807F80931002812F57
:102B1000DF91CF911F910F91FF90EF90DF90CF90B9
:102B2000BF90AF90089520910F0222FD0C949B144A
:102B30008FEB94E09F938F930E9454030F900F901C
:102B400080E00895CF9380E090E0892B21F08CE025
:102B500090E00E9400002FE043E06FEF80E00E94D1
:102B60005F1068E871E00E9410148091170487706C
:102B7000806180931704809118048F71806C80931A
:102B8000180481E080931B0410921C0484E194E0FB
:102B90000E9493158FE00E949F1161E18FEF0E94C8
:102BA0006511C091CA0226E043E06FEF80E00E9409
:102BB0005F106C2F0E9404140E94931586E00E94FF
:102BC0009F11CF910C94810ACF938091950281FD42
:102BD0002FC00E94A2158DEC94E09F938F930E94CA
:102BE00054030F900F9080E090E0892B21F089E052
:102BF00090E00E9400008091950281608093950290
:102C0000C4E02AE143E06FEF80E00E945F1062E0E1
:102C10000E9404140E9493158BE10E949F11811160
:102C200002C0C15071F78091950282608093950235
:102C3000CF910895CF93C82F8FEF8C0F8E3F08F55B
:102C4000C093C902C093300163E082E20E9477140E
:102C500061E081E20E9477140E9488146C2F80E06A
:102C600090E00E94BA211F92CF9387E394E09F9354
:102C70008F930E9454030F900F900F900F9081E05C
:102C800018C01F92CF9389E494E09F938F930E9482
:102C900054030F900F900F900F9080E090E0892BDD
:102CA00021F08EE690E00E9400008FEF8093C90231
:102CB00080E0CF910895789484B5826084BD84B516
:102CC000816084BD85B5826085BD85B5816085BD27
:102CD00080916E00816080936E00109281008091DF
:102CE0008100826080938100809181008160809367
:102CF0008100809180008160809380008091B1008C
:102D000084608093B1008091B00081608093B000B6
:102D100080917A00846080937A0080917A0082604A
:102D200080937A0080917A00816080937A0080910C
:102D30007A00806880937A001092C100A89580E0A4
:102D400090E0892B11F00E9400000E948D1088EA0B
:102D500093E09F938F930E945403809195028D7FFF
:102D6000809395020F900F9080E090E0892B51F0B6
:102D70008BE993E09F938F930E9454030E9400007D
:102D80000F900F9041E050E063E071E084E992E041
:102D90000E949A216FEF81E090E00E94BA21809119
:102DA00010028F7880931002109206021092050292
:102DB0008CE191E00E94280384EE95E19093130248
:102DC000809312021F921F921F921F9286E693E039
:102DD0009F938F930E9454030E94D00A0F900F90EC
:102DE0000F900F900F900F900E94D00A0E949A03AC
:102DF000A89580910F0282FFF7CF8EE893E09F9312
:102E00008F930E9454030E94DC0A0F900F908091D0
:102E10000F0282FB882780F91F928F9386E793E049
:102E20009F938F930E945403A8950F900F900F903B
:102E30000F90A8950E949A030E94290B0E9453109C
:102E4000F8CFCF93ECECF2E01382128288EE93E09D
:102E5000A0E0B0E084839583A683B7832BE331E0C1
:102E60003183208325EC30E03587248724EC30E063
:102E70003787268720EC30E0318B208B21EC30E047
:102E8000338B228B22EC30E0358B248B26EC30E028
:102E9000378B268B118E128E138E148EE9E6F3E09B
:102EA000168217821086118612861386148615865E
:102EB00016861786108A118A128A138A148A158A2E
:102EC000E6E5F4E01382128284839583A683B783B8
:102ED0008BE491E09183808385E394E00E94AB17BB
:102EE00084E194E00E94AB1785E89BEEA1E5BFE387
:102EF0008093660490936704A0936804B093690478
:102F000080EF99E2A6E1BFEB8093620490936304A3
:102F1000A0936404B093650483EF93E00E94AB1721
:102F2000E3EFF3E081E08683C6E2C58382ED93E0C0
:102F30000E94AB17E2EDF3E082E0868385E28583B1
:102F400081EB93E00E94AB17E1EBF3E083E0868333
:102F5000C583CF910895CF93DF93FC011082118236
:102F60001282148215821682DC0117968AE1ED0125
:102F700019928A95E9F782E08383DF91CF910895D2
:102F8000EE0FFF1F0590F491E02D09945058BB27D8
:102F9000AA270E94DE170C9460210E94522138F06B
:102FA0000E94592120F039F49F3F19F426F40C9423
:102FB0004F210EF4E095E7FB0C944921E92F0E9484
:102FC000712158F3BA17620773078407950720F039
:102FD00079F4A6F50C9493210EF4E0950B2EBA2FFC
:102FE000A02D0B01B90190010C01CA01A00111240F
:102FF000FF27591B99F0593F50F4503E68F11A16BB
:10300000F040A22F232F342F4427585FF3CF46954B
:1030100037952795A795F0405395C9F77EF41F166D
:10302000BA0B620B730B840BBAF09150A1F0FF0F37
:10303000BB1F661F771F881FC2F70EC0BA0F621F23
:10304000731F841F48F4879577956795B795F79513
:103050009E3F08F0B0CF9395880F08F09927EE0FA8
:103060009795879508950E9447180C9460210E94B7
:10307000592158F00E94522140F029F45F3F29F075
:103080000C94492151110C9494210C944F210E94CD
:10309000712168F39923B1F3552391F3951B550BD7
:1030A000BB27AA2762177307840738F09F5F5F4F1B
:1030B000220F331F441FAA1FA9F335D00E2E3AF05A
:1030C000E0E832D091505040E695001CCAF72BD072
:1030D000FE2F29D0660F771F881FBB1F26173707C3
:1030E0004807AB07B0E809F0BB0B802DBF01FF27F5
:1030F00093585F4F3AF09E3F510578F00C94492168
:103100000C9494215F3FE4F3983ED4F38695779531
:103110006795B795F7959F5FC9F7880F911D9695AD
:10312000879597F90895E1E0660F771F881FBB1F09
:10313000621773078407BA0720F0621B730B840BB6
:10314000BA0BEE1F88F7E09508950E94AC186894BA
:10315000B1110C94942108950E94792188F09F5711
:1031600098F0B92F9927B751B0F0E1F0660F771FAB
:10317000881F991F1AF0BA95C9F714C0B13091F0A1
:103180000E949321B1E008950C949321672F782F2A
:103190008827B85F39F0B93FCCF386957795679566
:1031A000B395D9F73EF490958095709561957F4FD2
:1031B0008F4F9F4F08950E94B82008F48FEF089515
:1031C000FA01EE0FFF1F309621053105A1F16115BF
:1031D000710561F48038BFE39B0749F1689490382A
:1031E000810561F08038BFEF9B0741F099234AF5D4
:1031F000FF3FE1053105210519F1E8940894E795B1
:10320000D901AA2329F4AB2FBE2FF85FD0F310C049
:10321000FF5F70F4A695E0F7F73950F019F0FF3A28
:1032200038F49F779F930DD00F9007FC9058089526
:1032300046F00C944F2160E070E080E89FE3089531
:103240004FE79F775F934F933F932F930E94E0192F
:103250002F913F914F915F910E94DC200C943D197A
:103260000E94B820880B990B089529F416F00C944D
:1032700049210C9493210C944F210E947921A8F3A9
:103280009638A0F707F80F92E8942BE33AEA48EB58
:103290005FE70E94F2200F920F920F924DB75EB738
:1032A0000F920E94281AE8E6F0E00E946F194F91F1
:1032B0005F91EF91FF91E595EE1FFF1F49F0FE57DB
:1032C000E0684427EE0F441FFA95E1F74195550B4E
:1032D0000E94A2190F9007FE0C9496190895DF938F
:1032E000CF931F930F93FF92EF92DF927B018C019C
:1032F000689406C0DA2EEF010E94EF20FE01E894E8
:10330000A5912591359145915591A6F3EF010E9424
:10331000DE17FE019701A801DA9469F7DF90EF90BC
:10332000FF900F911F91CF91DF9108959B01AC0108
:1033300060E070E080E89FE30C9433180C9449211E
:103340000C945C1A0E947921D8F39923C9F3940F45
:10335000511DA3F39150504094F059F0882332F05E
:10336000660F771F881F91505040C1F79E3F51054F
:103370002CF7880F911D9695879597F908955F3FD3
:10338000ACF0983E9CF0BB27869577956795B795EE
:1033900008F4B1609395C1F7BB0F58F711F460FFC3
:1033A000E8CF6F5F7F4F8F4F9F4FE3CF0C949421F7
:1033B00016F00C945C1A0C944F2168940C944921DB
:1033C0000E947921A8F39923C1F3AEF3DF93CF9341
:1033D0001F930F93FF92C92FDD2788232AF021978F
:1033E000660F771F881FDAF720E030E040E85FEBD8
:1033F0009FE3883920F0803E38F021968F770E9435
:10340000C717E0E9F0E004C00E94C717EDEBF0E059
:103410000E946F198B01BE01EC01FB2E6F577109E1
:103420007595771F880B990B0E947D2028E132E764
:1034300041E35FE30E94EF20AF2D9801AE01FF90C2
:103440000F911F91CF91DF910E94DE170C946021A4
:10345000FA01DC01AA0FBB1F9B01AC01BF5728F486
:10346000222733274427507820C0B75190F4AB2F40
:103470000024469537952795011CA395D2F300208B
:1034800071F0220F331F441FB395DAF30ED00C9462
:10349000C61761307105A0E88A07B94630F49B0170
:1034A000AC016627772788279078309621F0208313
:1034B00031834283538308959F3F31F0915020F42C
:1034C000879577956795B795880F911D9695879500
:1034D00097F9089581E090E0F8940C942522FB017F
:1034E000DC014150504048F001900D920020C9F796
:1034F00001C01D9241505040E0F70895EF920F93A4
:103500001F93CF93DF93E80147FD02C034E001C071
:1035100034E1E42F440FFF0BF7FF03C0F195E19571
:10352000F109E32E022F2E2FAE010E94541DCE0171
:10353000DF91CF911F910F91EF900895FC018827A3
:103540009927E89421912032E9F3293010F02E30A8
:10355000C8F32B3241F02D3239F4689404C00E9434
:10356000121B820F911D219120532A30C0F31EF4AB
:10357000909581959F4F08951F93FC019927882767
:10358000BC01E89411911032E9F3193010F01E30AB
:10359000C8F31B3251F01D3249F4689406C00E94F2
:1035A000FD1A610F711D811D911D119110531A306B
:1035B000B0F33EF490958095709561957F4F8F4F55
:1035C0009F4F1F910895BB274A3031F4992322F46D
:1035D000BDE2909581959F4F0C943D1BBB272A30EF
:1035E00051F4992342F4BDE29095809570956195D0
:1035F0007F4F8F4F9F4F0C941B1B592F482F372FF6
:10360000262F660F771F881F991F660F771F881F49
:10361000991F620F731F841F951F660F771F881FE6
:10362000991F08957AE0979F902D879F802D910D87
:1036300011240895BB27FA01A62F62177105810591
:103640009105330B30FB66F0AA27660F771F881FA2
:10365000991FAA1FA21710F0A21B63953850A9F753
:10366000A05DAA3308F0A95DA19336F7B111B1931B
:103670001082CA010C94D01FBB27FB015527AA2733
:10368000880F991FAA1FA41710F0A41B83955051EF
:10369000B9F7A05DAA3308F0A95DA193009779F767
:1036A000B111B1931192CB010C94D01FAEE0B0E0F8
:1036B000ECE5FBE10C94FC218C01CA014EE04C834B
:1036C0001A83098377FF02C060E070E8FB0131973D
:1036D000FE83ED83A901BC01CE0101960E94821BED
:1036E0004D815E8157FD0AC02F81388542175307EF
:1036F0000CF49A01F801E20FF31F10822E96E4E019
:103700000C941822ACE0B0E0E8E8FBE10C94EE2168
:103710007C016B018A01FC0117821682838181FF83
:10372000BDC1CE0101964C01F7019381F60193FDD5
:10373000859193FF81916F01882309F4ABC1853294
:1037400039F493FD859193FF81916F01853229F4BE
:10375000B70190E00E94E01FE7CF512C312C20E010
:103760002032A0F48B3269F030F4803259F0833289
:1037700069F420612CC08D3239F0803339F4216036
:1037800026C02260246023C0286021C027FD27C0F6
:1037900030ED380F3A3078F426FF06C0FAE05F9E2D
:1037A000300D1124532E13C08AE0389E300D1124A1
:1037B000332E20620CC08E3221F426FD6BC12064B2
:1037C00006C08C3611F4206802C0883641F4F60138
:1037D00093FD859193FF81916F018111C1CF982F46
:1037E0009F7D9554933028F40C5F1F4FFFE3F983BE
:1037F0000DC0833631F0833771F0833509F05BC03B
:1038000022C0F801808189830E5F1F4F44244394B6
:10381000512C540115C03801F2E06F0E711CF801F3
:10382000A080B18026FF03C0652D70E002C06FEF5D
:103830007FEFC5012C870E94C51F2C0183012C85B9
:103840002F77222E17C03801F2E06F0E711CF8019D
:10385000A080B18026FF03C0652D70E002C06FEF2D
:103860007FEFC5012C870E94BA1F2C012C85206890
:10387000222E830123FC1BC0832D90E0481659069D
:10388000B0F4B70180E290E00E94E01F3A94F4CFD8
:10389000F50127FC859127FE81915F01B70190E03A
:1038A0000E94E01F31103A94F1E04F1A5108411480
:1038B000510471F7E5C0843611F0893639F5F80105
:1038C00027FF07C060817181828193810C5F1F4F48
:1038D00008C060817181072E000C880B990B0E5F68
:1038E0001F4F2F76722E97FF09C090958095709587
:1038F00061957F4F8F4F9F4F2068722E2AE030E0F6
:10390000A4010E941820A82EA81844C0853729F4C5
:103910002F7EB22E2AE030E025C0F22FF97FBF2E95
:103920008F36C1F018F4883579F0B4C0803719F0BB
:10393000883721F0AFC02F2F2061B22EB4FE0DC00A
:103940008B2D8460B82E09C024FF0AC09F2F96607B
:10395000B92E06C028E030E005C020E130E002C00A
:1039600020E132E0F801B7FE07C0608171818281F9
:1039700093810C5F1F4F06C06081718180E090E0F1
:103980000E5F1F4FA4010E941820A82EA818FB2D1F
:10399000FF777F2E76FE0BC0372D3E7FA51450F4A7
:1039A00074FE0AC072FC08C0372D3E7E05C0BA2CDA
:1039B000372D03C0BA2C01C0B52C34FF0DC0FE0159
:1039C000EA0DF11D8081803311F4397E09C032FF88
:1039D00006C0B394B39404C0832F867809F0B394DF
:1039E00033FD13C030FF06C05A2CB31418F4530C27
:1039F0005B18B32CB31468F4B70180E290E03C8705
:103A00000E94E01FB3943C85F5CFB31410F43B182B
:103A100001C0312C34FF12C0B70180E390E03C8735
:103A20000E94E01F3C8532FF17C031FD03C088E7CC
:103A300090E002C088E590E0B7010CC0832F867843
:103A400059F031FF02C08BE201C080E237FD8DE208
:103A5000B70190E00E94E01FA51438F4B70180E39D
:103A600090E00E94E01F5A94F7CFAA94F401EA0D67
:103A7000F11D8081B70190E00E94E01FA110F5CFF9
:103A8000332009F451CEB70180E290E00E94E01F9C
:103A90003A94F6CFF7018681978102C08FEF9FEFAE
:103AA0002C96E2E10C940A224F925F926F927F92E1
:103AB0009F92AF92BF92CF92DF92EF92FF920F93BD
:103AC0001F93CF93DF93CDB7DEB729970FB6F89446
:103AD000DEBF0FBECDBF6A01122FB02E2BE3201721
:103AE00020F0FF24F394F00E02C0BCE3FB2E0F2D58
:103AF00027E0AE014F5F5F4F0E94E21EAC0189815B
:103B0000982F9970913031F0E1FC06C0E0FE06C0BC
:103B100090E205C09DE203C09BE201C090E0EE2D63
:103B2000E07183FF3CC0911102C083E001C084E0DA
:103B3000811718F4212F281B01C020E0E1110BC0D0
:103B4000F601822F30E2882319F031938150FBCFA8
:103B5000C20ED11C20E0992329F0D6019C93F601D6
:103B600031966F01C6010396E2FE0AC03EE4D6011B
:103B70003C9341E411964C93119712963C9306C0E6
:103B80003EE6F601308341E641833283FC01322F69
:103B900040E2332309F442C041933150FACF82FF0F
:103BA00044C0911102C083E001C084E0811718F481
:103BB000212F281B01C020E0E1110BC0F601822F4C
:103BC00030E2882319F031938150FBCFC20ED11C13
:103BD00020E0992329F0D6019C93F60131966F01DC
:103BE000C6010396E2FE0BC039E4D6013C933EE4E5
:103BF00011963C93119736E412963C9307C039E630
:103C0000F60130833EE6318336E63283FC01322F03
:103C100040E2332319F041933150FBCFFC01E20F16
:103C2000F11D10828EEF9FEFB7C0F1E0911101C03E
:103C3000F0E06F2F70E01416150624F49A012F5F40
:103C40003F4F02C021E030E0260F371FBB2029F094
:103C50006B2D70E06F5F7F4F02C060E070E0260F59
:103C6000371F612F70E0261737071CF4121B212F16
:103C700001C020E03E2D387159F4D601322F60E2A8
:103C8000332319F06D933150FBCFC20ED11C20E0CD
:103C9000FF2331F0D6019C93B6016F5F7F4F6B011C
:103CA000E1110BC0F601922F30E3992319F0319303
:103CB0009150FBCFC20ED11C20E09F2D940F3A8172
:103CC000782F7071A72E84FF03C0313309F491500F
:103CD000191624F4993018F098E001C091E0E42F0F
:103CE000852F57FF02C0E0E080E06E2F782FE0E0E4
:103CF000F0E0AEE29A2E3A01691A71082A01461ADA
:103D0000570A0B2D10E01195019511096F3F8FEFA8
:103D1000780729F4D6019C92C60101966C014617DA
:103D2000570784F0661677066CF47F01E40CF51CE7
:103D3000A1E0B0E0AC0FBD1FEA0EFB1ED70111964B
:103D4000BC9002C090E3B92E615071093196C60152
:103D500001967C016017710724F0D601BC926C01BA
:103D6000D5CF6417750741F4363320F4353321F489
:103D7000A11002C081E3B82EF601B082F701822FB4
:103D800090E2882319F091938150FBCFF701E20F65
:103D9000F11D108280E090E029960FB6F894DEBF06
:103DA0000FBECDBFDF91CF911F910F91FF90EF908C
:103DB000DF90CF90BF90AF909F907F906F905F907B
:103DC0004F900895283008F027E03327DA01990F43
:103DD000311D87FD916000966105710539F43260EF
:103DE0002E5F3D9330E32A95E1F708959F3F30F031
:103DF00080387105610509F03C5F3C5F3D9391306F
:103E000008F08068911DDF93CF931F930F93FF926B
:103E1000EF92192F987F9695E92F96959695E90F31
:103E2000FF27EC5CFA4F99273327EE24FF24A701E4
:103E3000E70105900894079428F4360FE71EF81E52
:103E4000491F511D660F771F881F991F0694A1F700
:103E50000590079428F4E70EF81E491F561FC11D50
:103E6000770F881F991F661F0694A1F70590079486
:103E700028F4F80E491F561FC71FD11D880F991F20
:103E8000661F771F0694A1F70590079420F4490F49
:103E9000561FC71FD81F990F661F771F881F0694CC
:103EA000A9F784911095177041F0D695C79557954D
:103EB0004795F794E7941A95C1F7EAEDF4E0689412
:103EC0001590159135916591959105907FE27395C7
:103ED000E118F10A430B560BC90BD009C0F7E10CEE
:103EE000F11E431F561FC91FD01D7EF4703311F4FD
:103EF0008A95E6CFE894015030F0080F0AF40027C5
:103F0000021708F4202F2395022F7A3328F079E343
:103F10007D932A95E9F710C07D932A9589F606943A
:103F200097956795379517951794E118F10A430B04
:103F3000560BC90BD00998F023957E9173957A336F
:103F400008F070E37C932013B8F77E9170617D9345
:103F500030F0839571E37D9370E32A95E1F71124A6
:103F6000EF90FF900F911F91CF91DF91992787FDDF
:103F700090950895FC010590615070400110D8F7AC
:103F8000809590958E0F9F1F0895FC0161507040A1
:103F900001900110D8F7809590958E0F9F1F08957E
:103FA000DC01FC01672F71917723E1F7329704C0A0
:103FB0007C916D9370836291AE17BF07C8F308952B
:103FC0000F931F93CF93DF93FB01238121FD03C048
:103FD0008FEF9FEF28C022FF16C0468157812481B2
:103FE00035814217530744F4A081B1819D012F5FB1
:103FF0003F4F318320838C93268137812F5F3F4F42
:104000003783268310C0EB01092F182F0084F18518
:10401000E02D0995892BE1F68E819F8101969F8382
:104020008E83812F902FDF91CF911F910F91089553
:10403000FA01AA27283051F1203181F1E8946F93D9
:104040006E7F6E5F7F4F8F4F9F4FAF4FB1E03ED07F
:10405000B4E03CD0670F781F891F9A1FA11D680F1D
:10406000791F8A1F911DA11D6A0F711D811D911D50
:10407000A11D20D009F468943F912AE0269F1124C5
:104080003019305D3193DEF6CF010895462F477029
:10409000405D4193B3E00FD0C9F7F6CF462F4F7084
:1040A000405D4A3318F0495D31FD4052419302D0E2
:1040B000A9F7EACFB4E0A695979587957795679588
:1040C000BA95C9F700976105710508959B01AC0188
:1040D0000A2E06945795479537952795BA95C9F7AF
:1040E000620F731F841F951FA01D08950E94B820A2
:1040F00008F481E00895E89409C097FB3EF4909598
:104100008095709561957F4F8F4F9F4F9923A9F0B0
:10411000F92F96E9BB279395F6958795779567953F
:10412000B795F111F8CFFAF4BB0F11F460FF1BC083
:104130006F5F7F4F8F4F9F4F16C0882311F096E916
:1041400011C0772321F09EE8872F762F05C06623C4
:1041500071F096E8862F70E060E02AF09A95660F7D
:10416000771F881FDAF7880F9695879597F9089536
:10417000990F0008550FAA0BE0E8FEEF1616170678
:10418000E807F907C0F012161306E407F50798F0E0
:10419000621B730B840B950B39F40A2661F0232BF9
:1041A000242B252B21F408950A2609F4A140A69575
:1041B0008FEF811D811D08950E94EF200C946021D6
:1041C0000E94522138F00E94592120F0952311F0CD
:1041D0000C9449210C944F2111240C9494210E9499
:1041E000712170F3959FC1F3950F50E0551F629FA9
:1041F000F001729FBB27F00DB11D639FAA27F00D40
:10420000B11DAA1F649F6627B00DA11D661F829F66
:104210002227B00DA11D621F739FB00DA11D621F4B
:10422000839FA00D611D221F749F3327A00D611D68
:10423000231F849F600D211D822F762F6A2F11244A
:104240009F5750409AF0F1F088234AF0EE0FFF1F7D
:10425000BB1F661F771F881F91505040A9F79E3FD4
:10426000510580F00C9449210C9494215F3FE4F3B4
:10427000983ED4F3869577956795B795F795E7952A
:104280009F5FC1F7FE2B880F911D9695879597F933
:10429000089597F99F6780E870E060E008959FEFC8
:1042A00080EC089500240A941616170618060906CD
:1042B000089500240A94121613061406050608959C
:1042C000092E0394000C11F4882352F0BB0F40F424
:1042D000BF2B11F460FF04C06F5F7F4F8F4F9F4F64
:1042E000089557FD9058440F551F59F05F3F71F0E6
:1042F0004795880F97FB991F61F09F3F79F087954D
:104300000895121613061406551FF2CF4695F1DFD5
:1043100008C0161617061806991FF1CF8695710565
:10432000610508940895E894BB2766277727CB0199
:1043300097F90895DC01CB01FC01F999FECF06C085
:10434000F2BDE1BDF89A319600B40D924150504053
:10435000B8F70895DC01A40FB51F4150504048F054
:10436000CB01840F951F2E910E94BB2141505040DC
:10437000D0F70895262FF999FECF92BD81BDF89A06
:10438000019700B4021639F01FBA20BD0FB6F89499
:10439000FA9AF99A0FBE0895A1E21A2EAA1BBB1B26
:1043A000FD010DC0AA1FBB1FEE1FFF1FA217B30701
:1043B000E407F50720F0A21BB30BE40BF50B661F17
:1043C000771F881F991F1A9469F7609570958095DB
:1043D00090959B01AC01BD01CF0108952F923F92B2
:1043E0004F925F926F927F928F929F92AF92BF9205
:1043F000CF92DF92EF92FF920F931F93CF93DF93B1
:10440000CDB7DEB7CA1BDB0B0FB6F894DEBF0FBE0D
:10441000CDBF09942A88398848885F846E847D845A
:104420008C849B84AA84B984C884DF80EE80FD805C
:104430000C811B81AA81B981CE0FD11D0FB6F894D2
:0E444000DEBF0FBECDBFED010895F894FFCF93
:10444E00FFFFFF00FCE1A8A8600738079208580894
:10445E003508DA07AE079C070509BB08F3092B09D7
:10446E002B872640A470DD3FE85412C01B0A1B0A9E
:10447E00FF00006E04800000000000EA0F660FB31C
:10448E000F910FA50F311000000000700A5C0A5545
:10449E000A520A4F0A4E0A4F4B00434F3200312E3A
:1044AE0035004D472D3831312044656D6F73747270
:1044BE006174696F6E0A00564D4450565F317C31FF
:1044CE005F564D4450560D0A00506F77657220733B
:1044DE00656E736F72204F6E00564D4450455F00EF
:1044EE003A323A007C005F564D4450450054636F9B
:1044FE006D703A0053454E303135393A0056202012
:10450E0020202020202020202000434F323A003C43
:10451E003430300070706D00202020202020205478
:10452E00696D6520706F696E743A00322E312E31CE
:10453E00006E616E00696E66006F7666004E4143D6
:04454E004B002100FD
:00000001FF
