:100000000C9409030C94870F0C94600F0C9431032B
:100010000C9431030C9431030C94620A0C94310358
:100020000C9431030C9431030C9431030C94310380
:100030000C9431030C9431030C9431030C94310370
:100040000C94160F0C9431030C94B9160C9493165F
:100050000C9431030C9431030C9431030C94310350
:100060000C94AE0F0C94310307634236B79BD8A7AC
:100070001A39685618AEBAAB558C1D3CB7CC5763CD
:10008000BD6DEDFD753EF6177231BF000000803F7B
:1000900008000000BE922449123EABAAAA2ABECD97
:1000A000CCCC4C3E00000080BEABAAAAAA3E000009
:1000B0000000BF000000803F000000000008417801
:1000C000D3BB4387D1133D190E3CC3BD4282AD2B38
:1000D0003E68EC8276BED98FE1A93E4C80EFFFBE30
:1000E00001C4FF7F3F000000000054534D3A494EC9
:1000F00049540A002154534D3A494E49543A5453F5
:1001000050204641494C0A0054534D3A494E4954F7
:100110003A545350204F4B0A0054534D3A465041E5
:10012000520A002154534D3A465041523A4E4F2004
:100130005245504C590A002154534D3A46504152B1
:100140003A4641494C0A0054534D3A465041523ABE
:100150004F4B0A0054534D3A49443A5245510A0014
:1001600054534D3A49440A002154534D3A49443AB4
:100170004641494C0A0054534D3A49443A4F4B0AC0
:100180000054534D3A55504C0A002154534D3A55A2
:10019000504C3A4641494C0A0054534D3A55504C44
:1001A0003A444757432C4F3D25642C4E3D25640A65
:1001B0000054534D3A55504C3A4F4B0A0054534D4E
:1001C0003A52454144593A49443D25642C504152E4
:1001D0003D25642C4449533D25640A002154534D68
:1001E0003A52454144593A55504C204641494C2CCD
:1001F000534E500A0054534D3A4641494C3A5044EC
:10020000540A0054534D3A4641494C3A434E543DEA
:1002100025640A0054534D3A4641494C3A52452D03
:10022000494E49540A004D434F3A50494D3A4E4FBA
:100230004445205245473D25640A00215453463A1F
:100240004D53473A52454C204D53472C4E52455042
:100250000A005453463A4D53473A42430A00545316
:10026000463A4D53473A41434B0A00215453463ACC
:100270004D53473A504F4E4720524543562C494E16
:100280004143544956450A005453463A4D53473A60
:10029000504F4E4720524543562C48503D25640A46
:1002A000005453463A4D53473A50494E4745442C23
:1002B00049443D25642C48503D25640A002154538F
:1002C000463A4D53473A4650415220494E414354D5
:1002D0004956450A005453463A4D53473A46504111
:1002E00052204F4B2C49443D25642C443D25640A43
:1002F000005453463A4D53473A41434B20524551DF
:100300000A00215453463A4D53473A505645522C11
:1003100025643D25640A00215453463A4D53473A1B
:100320004C454E2C2564213D25640A005453463A21
:100330004D53473A524541442C25642D25642D25C3
:10034000642C733D25642C633D25642C743D256429
:100350002C70743D25642C6C3D25642C73673D2501
:10036000643A25730A005453463A5349443A4F4B72
:100370002C49443D25640A00215453463A534944CC
:100380003A4641494C2C49443D25640A000000008E
:100390000800020100000304070000000000000044
:1003A0000025735453463A4D53473A53454E442C17
:1003B00025642D25642D25642D25642C733D25642D
:1003C0002C633D25642C743D25642C70743D25649C
:1003D0002C6C3D25642C73673D25642C66743D258B
:1003E000642C73743D25733A25730A0021545346D7
:1003F0003A5254453A465041522041435449564599
:100400000A00215453463A534E443A544E520A007D
:100410004D434F3A5245473A5245510A00545346CC
:100420003A5755523A4D533D256C750A004D434F8E
:100430003A42474E3A494E4954204F4B2C54535060
:100440003D25640A004D434F3A42474E3A535450BB
:100450000A004D434F3A42474E3A4246520A004D37
:10046000434F3A42474E3A494E4954204E4F444535
:100470002C43503D524E4E4E412D2D2C5645523D53
:10048000322E312E310A00214D434F3A534E443A19
:100490004E4F4445204E4F54205245470A0000001D
:1004A0000000250028002B00000000002400270089
:1004B0002A000404040404040404020202020202E6
:1004C0000303030303030102040810204080010218
:1004D000040810200102040810204E414E494E49E4
:1004E0005459494E46CDCCCC3D0AD7233C17B7D101
:1004F0003877CC2B329595E6241FB14F0A000020A7
:10050000410000C84200401C4620BCBE4CCA1B0E25
:100510005AAEC59D7400407A10F35A00A0724E186E
:10052000090010A5D4E80000E87648170000E40BA5
:1005300054020000CA9A3B000000E1F5050000806B
:10054000969800000040420F000000A086010000C5
:1005500000102700000000E8030000000064000015
:100560000000000A00000000000100000000002C54
:1005700076D888DC674F0823DFC1DFAE59E1B1B719
:1005800096E5E3E453C63AE651997696E8E6C284E6
:1005900026EB898C9B62ED407C6FFCEFBC9C9F40FE
:1005A000F2BAA56FA5F490055A2AF75C936B6CF923
:1005B000676DC11BFCE0E40D47FEF520E6B500D0F9
:1005C000ED902E0300943577050080841E0800000E
:1005D000204E0A000000C80C333333330F986E12DC
:1005E000831141EF8D2114893BE65516CFFEE6DBE2
:1005F00018D1844B381BF77C1D901DA4BBE424202C
:100600003284725E228100C9F124ECA1E53D27000D
:10061000F91711241FBECFEFD8E0DEBFCDBF12E027
:10062000A0E0B1E0E6E5F9E402C005900D92A23841
:10063000B107D9F724E0A2E8B2E001C01D92AC3EB8
:10064000B207E1F713E0C9E0D3E004C02197FE014F
:100650000E94BF18C830D107C9F70E94EB160C944E
:10066000A9240C9400000F931F930E94AF0D0091DA
:100670001103109112032091130330911403601B96
:10068000710B820B930B1F910F9108959C01809128
:100690000F03909110038217930751F09091190363
:1006A0009F71909319033093100320930F0305C09B
:1006B00080911903805E80931903E0910F03F091FC
:1006C00010030190F081E02D309709F009950E9408
:1006D000AF0D6093110370931203809313039093F3
:1006E00014030895EF92FF920F931F93CF93DF931C
:1006F000CDB7DEB7C857D1090FB6F894DEBF0FBE2D
:10070000CDBF8E010F571F4FF801E190F1908F017F
:100710000E94AF0D4AE00E94CA1488EE91E00E9448
:100720000B159801A70168E770E0CE0101960E94C1
:10073000591CCE0101960E940B1586E593E00E949C
:10074000AA13C858DF4F0FB6F894DEBF0FBECDBF57
:10075000DF91CF911F910F91FF90EF900895CF936C
:10076000C82F8FEF8C0F8E3F08F5C0935303C093B3
:100770002D0163E082E20E944F1161E081E20E945C
:100780004F110E9460116C2F80E090E00E9446247F
:100790001F92CF9386E693E09F938F930E947203FC
:1007A0000F900F900F900F9081E018C01F92CF9381
:1007B00088E793E09F938F930E9472030F900F90AE
:1007C0000F900F9080E090E0892B21F08EE690E072
:1007D0000E9400008FEF8093530380E0CF91089533
:1007E0002F923F924F925F926F927F928F929F9241
:1007F000AF92BF92CF92DF92EF92FF920F931F932F
:10080000CF93DF93CDB7DEB72C970FB6F894DEBF4A
:100810000FBECDBFE0910F03F09110030280F38172
:10082000E02D309709F009958091190384FB222768
:1008300020F9298784FF54C386E0D82E90E0E92E62
:1008400090E0F92E9E012F5F3F4F3C832B8320EADF
:10085000822E26E8922EAA24A394B12C34EB432EA8
:100860003BE2532E31E1632E712C21E041E060E048
:1008700070E087E10E941D1180FD32C3DA94DD2013
:1008800009F42EC3E114F10421F081E090E00E940C
:10089000000021E041E060E070E080E60E941D1170
:1008A000C82E30E2381720F482EE0E946D11C12C60
:1008B00021E04C2D68E974E081E60E941D1160E49E
:1008C00087E20E944F1180919B04282F2695269540
:1008D00026952A3108F029E182FD03C077E0720FE6
:1008E00001C070E280919C0487708D8310919D04FB
:1008F000009199042090980430909A0488E994E03B
:100900002A877C870E94FA132A85422F50E09F9302
:100910008F9380919B0482FB882780F91F928F938D
:100920001F922F9380919C048295869587701F92C9
:100930008F931F921F931F922D812F9380919E045E
:100940001F928F931F923F921F922F921F920F938D
:10095000ACE2B3E0BF93AF934A875B870E94720318
:100960000FB6F894DEBF0FBECDBF7C854A855B8590
:10097000C71679F0E114F10429F08CE690E00E94AA
:1009800000007C851F927F931F92CF9287E193E0B6
:1009900017C020919B04822F83708230E1F0E11414
:1009A000F10421F08DE690E00E9400001F9282E0A9
:1009B0008F9380919B0483701F928F9382E093E0CA
:1009C0009F938F930E9472030F900F900F900F9040
:1009D0000F900F904ACF80911A03806880931A037A
:1009E00080915303381254C0822F86958695869540
:1009F0008A3108F089E138E0839FC0011124277013
:100A0000822B80939B04FA01E856FB4F178280915A
:100A10009C0483FF21C081EF92E09F938F930E94FB
:100A2000720381E2E8E9F4E0A7E7B4E001900D92F7
:100A30008A95E1F780917B04877F806180937B04B6
:100A400080915303809378040093790487E794E0BE
:100A50000E946B120F900F9090919C0494FD0BC01C
:100A60002D81233081F480919D0421EF280F2330C4
:100A700008F050C0FACEAEE5B2E0BF93AF930E944B
:100A800072030F900F9088E994E00E94310BEDCE35
:100A9000FFEF3F1236C0A2E5B2E0BF93AF930E94D2
:100AA00072030F900F902D81233031F5809119033F
:100AB00082FF03C0173009F4D8CE183009F4D5CE20
:100AC000143109F0D2CE809154032812CECE0E9468
:100AD000AF0D7370882799270E94750D10915403EC
:100AE00025E143E06FEF802F0E94CC13612F0E941D
:100AF000DC100E947311B9CE809154032812B5CE38
:100B0000C2CFABE3B2E0BF93AF930E9472030F90EA
:100B10000F90ABCE143029F40E9497140E94AF03BB
:100B2000A4CE183021F51091190310FF1BC00E94AC
:100B300097148F3F09F499CE8F5F8F3F09F495CEBC
:100B400090915503891708F090CE11FD8ECE8093B9
:100B50005503009354031F928F931F920F9385EDBB
:100B600092E02ECF8DEB92E09F938F93CECF1831F2
:100B7000C1F40E9497141F928F931F920F9381EAE2
:100B800092E09F938F930E94720329E143E06FEFFD
:100B9000802F0E94CC1361E00E94DC100E94731130
:100BA00013CF1931A9F48091190383FF0EC0877FF9
:100BB000809319030E94971480931B031F928F93B5
:100BC00088E892E09F938F933AC0ABE6B2E09BCF68
:100BD00020919904211180C18D3099F480E090E03A
:100BE000892B21F08BE090E00E94000098E088E1E2
:100BF0000FB6F894A895809360000FBE90936000A4
:100C0000FFCF8B3119F50E94971491E0811101C03B
:100C100090E080911F0390FB80F980931F03E11403
:100C2000F10421F08AE090E00E94000080911F030F
:100C300081701F928F93A6E2B2E0BF93AF930E94A0
:100C400072030F900F900F900F900FCE8630A9F483
:100C500090919F04992329F081E09D3419F080E060
:100C600001C0898580931E0341E050E063E071E09C
:100C70008EE193E00E943624F8CD833119F40E946E
:100C8000B412F3CD8231F1F40E9433036D837E837D
:100C90008F83988726E143E06FEF80E00E94CC13BA
:100CA000FC0184818F71806A848383818770806274
:100CB00083838D819E81AF81B88587839087A1874B
:100CC000B287DAC0813001F5A0E0B0E0AB2B09F4C7
:100CD000CCCD929596959770953049F460919F048C
:100CE0007091A0048091A1049091A2040AC0911176
:100CF00005C08FE994E00E94BF1B03C060E070E074
:100D0000CB010E940000B1CD8A3009F4AECD8C3108
:100D100009F0B9CE80919F04823509F4A6CD8635BD
:100D2000B1F58EE480937C0066E470E080E090E0B2
:100D30000E94750D80917A00806480937A00809182
:100D40007A0086FDFCCF20907800309079002CE16D
:100D500043E06FEF80E00E94CC138C01FC018481A2
:100D60008F71806684838381877080618383910122
:100D700040E050E0C301B2010E948218D8011896E9
:100D80003C932E931797C8010E946B126ECD863448
:100D900009F052C0F8948FEF86BB10928500109234
:100DA00084001092800010928200909160002DE0EB
:100DB00088E10FB6F894A895809360000FBE209349
:100DC000600080916000806480936000A89585E059
:100DD000809381008091600087FFFCCF109281009A
:100DE000A895809160008861809360009093600076
:100DF000789420908400309085002CE143E06FEFE0
:100E000080E00E94CC138C01FC0184818F7180668C
:100E100084838381877080618383C101A0E0B0E017
:100E2000BC01CD014BE0660F771F881F991F4A95C3
:100E3000D1F7A5019401A0CF8D3401F50091E6040E
:100E40001091E7040115110511F40CEE14E02CE1EA
:100E500043E06FEF80E00E94CC13FC0184818F712E
:100E60008066848383818770806183838B819C818A
:100E7000801B910B90878783CF0186CF853409F043
:100E8000F4CC2CE143E06FEF80E00E94CC1368E5E6
:100E900071E00E94E8100E946B1200E010E06FEF1A
:100EA000C8010E9446240F5F1F4F0D39B1E01B0798
:100EB000B1F780E090E0892B21F08BE090E00E9478
:100EC000000098E088E10FB6F894A8958093600040
:100ED0000FBE90936000FFCF8A3109F0D4CDC5CC0E
:100EE0002C960FB6F894DEBF0FBECDBFDF91CF9129
:100EF0001F910F91FF90EF90DF90CF90BF90AF9038
:100F00009F908F907F906F905F904F903F902F9029
:100F100008950F931F930E94330320911A032077A3
:100F2000203729F000E117E220E030E004C000E6BD
:100F30001AEE20E030E0061717072807390770F48B
:100F400084E192E09F938F930E9472030F900F9021
:100F50008EE291E01F910F910C9446031F910F9127
:100F6000089580911A03982F9077903759F0982F11
:100F700092959F709F5F97709295907F8F78892B45
:100F800080931A0380911A03829587701F928F9322
:100F900083E092E09F938F930E94720380911903E4
:100FA0008B7F8F7E809319030F900F900F900F907F
:100FB00080E090E0892B21F087E690E00E9400001D
:100FC00085EF91E09F938F930E94720329980F9071
:100FD0000F906CE080E20C944F1180911A038F7097
:100FE000863060F08CED91E09F938F930E947203A6
:100FF0000F900F9088E191E00C9446030895809142
:1010000055031F928F93809154031F928F93809169
:1010100053031F928F938DEB91E09F938F930E94C8
:1010200072038091190384608093190380911A03DD
:10103000807880931A03E0911C03F0911D038DB713
:101040009EB708960FB6F8949EBF0FBE8DBF30971F
:1010500009F00994089580911B038F3F79F10E9454
:10106000AF0D60931503709316038093170390934D
:10107000180381EB91E09F938F930E9472039091EC
:101080001B03809155030F900F909817A1F01F92AA
:101090009F931F928F9389E991E09F938F930E9472
:1010A000720380911B03809355030F900F900F9054
:1010B0000F900F900F9084E191E025C00E943303C0
:1010C000613D77408105910500F1809119038036DB
:1010D00018F480E191E017C08AE891E09F938F9324
:1010E0000E94720380911903877F809319030F90E8
:1010F0000F9080E090E0892B21F08AE690E00E943A
:10110000000088E191E00C944603089581E891E0A5
:101110009F938F930E9472030F900F9080E090E056
:10112000892B21F088E090E00E9400008FEF8093EF
:101130001B038091190388608093190328E143E021
:101140006FEF80E00E94CC1361E00E94DC100C94F1
:101150007311809153038F3F99F086E791E09F933D
:101160008F930E9472030F900F9080E090E0892B84
:1011700021F087E090E00E94000080E191E020C033
:101180000E943303613D774081059105D8F080913D
:101190001903803618F48CE091E012C088E691E0E3
:1011A0009F938F930E9472030F900F9080E090E0C6
:1011B000892B21F089E690E00E94000088E091E010
:1011C0000C944603089580E691E09F938F930E94CC
:1011D00072030F900F90809153038F3FE1F480E0F2
:1011E00090E0892B21F086E090E00E94000084E5E9
:1011F00091E09F938F930E94720323E043E06FEF8F
:1012000080E00E94CC1363ED71E00E94E8100F9023
:101210000F900C94731108950E943303613D774041
:101220008105910520F48091190381FF0895809133
:1012300054038F3FC1F087E491E09F938F930E9406
:101240007203809119038E7F809319030F900F9082
:1012500080E090E0892B21F085E090E00E94000082
:101260008CE091E021C080911903803658F483E22C
:1012700091E09F938F930E9472030F900F9088E1EB
:1012800091E012C087E391E09F938F930E947203D5
:101290000F900F9080E090E0892B21F088E690E09D
:1012A0000E94000088E091E00C94460389E191E0FF
:1012B0009F938F930E9472030F900F9080E090E0B5
:1012C000892B21F084E090E00E94000080911903B6
:1012D000897F8160809319038FEF809355038093FA
:1012E000540327E043E06FEF0E94CC1363ED71E0FD
:1012F0000E94E8100C947311CF93219A229ACFB7D1
:10130000F89480918202811124C0ECEBF4E0849186
:10131000E0EDF4E09491E82FF0E0EE0FFF1FE855C8
:10132000FB4FA591B491EC91E92321F461E08AE0AF
:101330000E94770C8AE00E94DB138CB580618CBD23
:101340008CB580648CBD8DE00E94DB138BE00E9425
:10135000DB13809182028F5F80938202CFBF299836
:101360002A9A6EE080E20E944F1165E070E080E012
:1013700090E00E94750D63E083E20E944F116FE5DB
:1013800084E20E944F116CE485E20E944F1167E2F3
:1013900086E20E944F1163E780E50E944F1166E0EC
:1013A0008DE30E944F1121E041E060E070E086E0B3
:1013B0000E941D11C82F21E041E060E070E085E04F
:1013C0000E941D118C3409F049C0C73209F046C093
:1013D00062E082E20E944F1160E081E20E944F11C0
:1013E00063E08CE30E944F118FEF8093030120E0B4
:1013F00045E063E071E08BE20E941D1120E045E0D2
:1014000063E071E08AE20E941D1120E045E063E0A4
:1014100071E080E30E941D1182EE0E946D1181EE49
:101420000E946D1160E787E20E944F1188E091E011
:101430009F938F930E947203809119038061809320
:101440001903809153030F900F908F3FC1F00E94BA
:10145000AF03811114C088E091E013C084EF90E0E5
:101460009F938F930E9472030F900F9080E090E003
:10147000892B89F387E690E00E940000ECCF88E199
:1014800091E0CF910C9446038AEE90E09F938F9366
:101490000E947203E9E1F3E08081877F8F7E808381
:1014A000109215031092160310921703109218034E
:1014B0000F900F9043E050E060E070E083E593E030
:1014C0000C941E241F920F920FB60F9211240F90AE
:1014D0000FBE0F901F901895FC01918D828D98176B
:1014E00061F0828DDF01A80FB11D5D968C91928D08
:1014F0009F5F9F73928F90E008958FEF9FEF089505
:10150000FC01918D828D981731F0828DE80FF11DCD
:10151000858D90E008958FEF9FEF0895FC01918DE8
:10152000228D892F90E0805C9F4F821B91098F73E1
:101530009927089580E090E0892B29F00E945913A3
:1015400081110C94000008953FB7F89480910B032B
:1015500090910C03A0910D03B0910E0326B5A89BAA
:1015600005C02F3F19F00196A11DB11D3FBFBA2F35
:10157000A92F982F8827820F911DA11DB11DBC0195
:10158000CD0142E0660F771F881F991F4A95D1F75A
:101590000895089585ED8093BC008091BC0084FD82
:1015A000FCCF1092E00208954091BA02262F30E05D
:1015B000240F311D21323105DCF42091E00224306A
:1015C000C9F4FC0180E090E0861758F43091BA022B
:1015D0002191DC01A856BD4FA30FB11D2C9301969C
:1015E000F3CF8091BA02680F6093BA0280E0089549
:1015F00081E0089582E0089508958FEF9FEF0895A8
:101600008FEF9FEF08958091970290E091958195DB
:1016100091090895CF93DF9300D0CDB7DEB7CB010A
:10162000642F49835A830E94D40A4981842F5A81A6
:10163000952F0F900F90DF91CF910895CF93DF9367
:101640001F92CDB7DEB7698361E0CE0101960E949B
:10165000D40A81E090E00F90DF91CF9108950E942D
:10166000691BCF92DF92EF92FF92CF93DF93EC0151
:101670008C81829586958770873029F4CF80D884B5
:10168000E984FA840CC0811107C0CE0107960E943C
:101690009D1B6B017C0103C0C12CD12C76018D8177
:1016A0008931C9F18B3109F46FC0883109F0B5C0B7
:1016B000C0929302D0929402E0929502F092960228
:1016C00020E030E048EC52E4C701B6010E945D23FF
:1016D0000E94A4198EE991E00E9446248091F603AD
:1016E000877088628093F6038091F703806E809301
:1016F000F703C092FA03D092FB03E092FC03F0924E
:10170000FD0382E08093FE0383EF93E00E94FF15C8
:101710008BE591E032C0C0928F02D0929002E092AD
:101720009102F092920220E030E048EC52E4C701CE
:10173000B6010E945D230E94A4198FE991E00E94E6
:1017400046248091F603877088628093F603809127
:10175000F703806E8093F703C092FA03D092FB03E5
:10176000E092FC03F092FD0382E08093FE0383EF9E
:1017700093E00E94FF1585E691E00E940B15C701DA
:10178000B6010E94181649C08C8182958695877093
:10179000823019F44F8158850AC0811106C0CE01EC
:1017A00007960E94A11BAC0102C040E050E028EE69
:1017B00033E0DA010E94A41860938B0270938C02CC
:1017C00080938D0290938E02CA016AE070E00E94BD
:1017D0006E1884EA91E00E94462440918B02509159
:1017E0008C0260918D0270918E028091F7038F714F
:1017F000806A8093F7038091F603877080628093FC
:10180000F6034093FA035093FB036093FC03709339
:10181000FD0383EF93E00E94FF1520918F0230912A
:1018200090024091910250919202609193027091C6
:10183000940280919502909196020E94C51860933F
:101840008702709388028093890290938A022EEF18
:101850003FEF4FEF5FEB0E9432196093830270936A
:101860008402809385029093860280E791E00E9433
:10187000BC148DE891E00E940B156D8170E080E052
:1018800090E04AE00E94CA1485EA91E00E940B159C
:10189000C701B6010E94181680E791E0DF91CF9151
:1018A000FF90EF90DF90CF900C94BC14FC01848DDE
:1018B000DF01A80FB11DA35ABF4F2C91848D90E07A
:1018C00001968F739927848FA689B7892C93A08955
:1018D000B1898C9180648C93938D848D981306C00C
:1018E0000288F389E02D80818F7D8083089590E0C8
:1018F000FC01E357FC4F3491FC01EA53FB4F249168
:10190000FC01EE54FB4FE491EE2309F43BC033237A
:1019100039F1333091F038F43130A9F0323001F53B
:1019200084B58F7D12C0373091F03830A1F034305B
:10193000B9F4809180008F7D03C0809180008F7703
:10194000809380000DC084B58F7784BD09C08091DD
:10195000B0008F7703C08091B0008F7D8093B0007E
:10196000F0E0EE0FFF1FE256FB4FA591B4918FB749
:10197000F894EC91611103C020952E2301C02E2B09
:101980002C938FBF0895CF92DF92EF92FF928EE952
:1019900091E00E942E24682F70E080E090E00E9489
:1019A000FC2220E030E048EC52E40E9432196B0146
:1019B0007C016093930270939402809395029093BC
:1019C00096028FE991E00E942E24682F70E080E05B
:1019D00090E00E94FC2220E030E048EC52E40E94BB
:1019E00032199B01AC0160938F0270939002809337
:1019F000910290939202C701B6010E94C5186093AC
:101A00008702709388028093890290938A022EEF56
:101A10003FEF4FEF5FEB0E943219609383027093A8
:101A20008402809385029093860284EA91E00E946A
:101A30002E24282F30E0A0E1B7E20E949A24609380
:101A40008B0270938C0280938D0290938E02109281
:101A50001C0187E00E94DB1361E087E00E94770CA5
:101A600080E791E00E94BC148DEA91E00E940B1582
:101A700060919302709194028091950290919602E8
:101A800042E00E940D1586EB91E00E940B1585E661
:101A900091E00E940B1560918F02709190028091ED
:101AA00091029091920242E00E940D1582EC91E029
:101AB0000E94BC1484EC91E00E940B1560918B0293
:101AC00070918C0280918D0290918E024AE00E946A
:101AD000CA1481ED91E00E94AA1480E791E0FF9082
:101AE000EF90DF90CF900C94BC148F929F92AF92A6
:101AF000BF92CF92DF92EF92FF926B017C010E9426
:101B0000A40A4B015C01C114D104E104F104F1F019
:101B10000E94A40ADC01CB0188199909AA09BB0912
:101B2000883E9340A105B10570F321E0C21AD108A7
:101B3000E108F10888EE880E83E0981EA11CB11C14
:101B4000C114D104E104F10419F7DDCFFF90EF9047
:101B5000DF90CF90BF90AF909F908F9008952FB758
:101B6000F8946091070370910803809109039091A4
:101B70000A032FBF08958F929F92AF92BF92CF9288
:101B8000DF92EF92FF92CF93DF9361E087E00E94B4
:101B9000770CC5E0D0E0C12CD12C760180911C01DE
:101BA00020E4829FC001112480937C0080917A0000
:101BB000806480937A0080917A0086FDFCCF8091CA
:101BC00078002091790090E0922BBC01990F880B4E
:101BD000990B0E94FE229B01AC01C701B6010E9435
:101BE000C6186B017C0162E370E080E090E00E9427
:101BF000750D219799F620E030E040EA50E4C701E6
:101C0000B6010E94321920E030E040E250E40E9428
:101C10005D2320E030E040E85AE30E945D234B0161
:101C20005C0124EA30E74DED5FE30E94DA1987FF9B
:101C30002CC020912101309122014091230150912B
:101C40002401C501B4010E94C518209125013091DD
:101C5000260140912701509128010E9432192091BC
:101C60001D0130911E0140911F01509120010E94E1
:101C7000C6189B01AC0160E070E080E291E40E9434
:101C8000DF190E94A419EB0102C0CFEFDFEF209112
:101C90009302309194024091950250919602C501B1
:101CA000B4010E94C51820918302309184024091B2
:101CB0008502509186020E94321927E238E846E2F6
:101CC00050E40E94C6189B01AC0160E070E080E225
:101CD00091E40E94DF190E94A4196B017C0184ED3C
:101CE00091E00E940B1542E0C501B4010E940D1560
:101CF0008DED91E00E940B158AEE91E00E940B158C
:101D0000CF3F8FEFD80729F48FEE91E00E940B159B
:101D100003C0CE010E945D1684EF91E00E940B1576
:101D200082EE91E00E940B15C6010E945D1684EFC1
:101D300091E00E940B1588EF91E00E940B150E9424
:101D4000AF0D4AE00E94CA1482ED91E00E940B158B
:101D500080915904877088628093590480915A0455
:101D6000806E80935A0480925D0490925E04A092EB
:101D70005F04B092600482E08093610486E594E0A1
:101D80000E94FF15809139048F718064809339041B
:101D9000809138048770806180933804D0933D042B
:101DA000C0933C0485E394E00E94FF1580911804E1
:101DB0008F7180648093180480911704877080610C
:101DC00080931704D0921C04C0921B0484E194E019
:101DD0000E94FF1582ED91E00E940B15C0908B02CE
:101DE000D0908C02E0908D02F0908E020E94AF0D98
:101DF0004B015C010E94AF0DDC01CB0188199909F0
:101E0000AA09BB098C159D05AE05BF0520F4A89550
:101E10000E94F003EFCFDF91CF91FF90EF90DF9022
:101E2000CF90BF90AF909F908F9008951F920F9288
:101E30000FB60F9211242F933F938F939F93AF93DD
:101E4000BF938091070390910803A0910903B0917B
:101E50000A033091060323E0230F2D3720F4019667
:101E6000A11DB11D05C026E8230F0296A11DB11DBD
:101E7000209306038093070390930803A09309031C
:101E8000B0930A0380910B0390910C03A0910D0372
:101E9000B0910E030196A11DB11D80930B03909389
:101EA0000C03A0930D03B0930E03BF91AF919F91CC
:101EB0008F913F912F910F900FBE0F901F9018950B
:101EC0001F920F920FB60F9211242F933F934F93AF
:101ED0005F936F937F938F939F93AF93BF93EF9392
:101EE000FF93E0912B01F0912C010995FF91EF9167
:101EF000BF91AF919F918F917F916F915F914F9122
:101F00003F912F910F900FBE0F901F9018951F9229
:101F10000F920FB60F9211242F933F934F935F931D
:101F20006F937F938F939F93AF93BF93EF93FF93A1
:101F3000E0912901F0912A010995FF91EF91BF915C
:101F4000AF919F918F917F916F915F914F913F9151
:101F50002F910F900FBE0F901F9018951F920F9208
:101F60000FB60F9211242F933F934F935F936F936C
:101F70007F938F939F93AF93BF93EF93FF93809142
:101F8000B900887F803609F49CC068F5883209F46E
:101F90005BC090F4803109F454C038F4882309F40C
:101FA000F6C0883009F44DC0F6C0883109F44CC041
:101FB000803209F45DC0EFC0803409F468C048F491
:101FC000803309F455C0883309F0E5C08093DF02FF
:101FD000D8C0803509F44FC0883509F45DC0883415
:101FE00009F0D9C0D6C0883909F4C7C0A8F4883729
:101FF00009F467C038F4883609F463C0803709F4FF
:1020000060C0C9C0883809F4B8C0803909F45FC01D
:10201000803809F0C0C05BC0803B09F486C038F44A
:10202000803A09F466C0883A09F47FC0B4C0803CA5
:1020300009F4A7C0883C09F4A4C0883B09F48AC00D
:10204000AAC08091050310C09091040380910303FE
:10205000981770F5E091040381E08E0F80930403DC
:10206000F0E0ED51FD4F80818093BB0085EC86C090
:102070008093DF028EC0E091040381E08E0F809395
:1020800004038091BB00F0E0ED51FD4F80839091FF
:102090000403809103036EC0E091040381E08E0F7E
:1020A000809304038091BB00F0E0ED51FD4F8083ED
:1020B0008091E20281116DC081E08093E10284EAA7
:1020C00061C083E08093E0021092DE02CFCF809166
:1020D000DE02803208F051C0E091DE0281E08E0F16
:1020E0008093DE028091BB00F0E0E254FD4F8083DC
:1020F000BDCF85EC8093BC001092E0028091DE029F
:10210000803230F4E091DE02F0E0E254FD4F1082C4
:102110006091DE0270E0E091BC02F091BD028EEBB6
:1021200092E009951092DE0236C084E08093E002CE
:102130001092BB021092BA02E091B802F091B9027B
:1021400009958091BA02811105C081E08093BA029D
:1021500010929802E091BB0281E08E0F8093BB0247
:10216000F0E0E856FD4F80818093BB009091BB0268
:102170008091BA02981708F479CF85E88093BC0063
:102180000AC085EC8093BC001092E00204C010925B
:10219000DF020E94CA0AFF91EF91BF91AF919F9118
:1021A0008F917F916F915F914F913F912F910F9000
:1021B0000FBE0F901F901895FC0183818770886077
:1021C000838384818F71806284836783CF010895C4
:1021D0000F931F93CF93DF93EC016115710561F0AD
:1021E000FB0101900020E9F73197E61BF70BE9317D
:1021F000F10518F0E9E101C0E0E00E2F10E0C801A0
:1022000023E0880F991F2A95E1F79B819770892B0E
:102210008B838C818F718C83EE2329F0A801CE01F2
:1022200007960E946E1BFE01E00FF11F1782CE0180
:10223000DF91CF911F910F91089591E59CBD91E0A1
:102240009DBD2A98E3E2F0E03197F1F78EBD0000E2
:102250000DB407FEFDCF8EB5FB019FEF4150C8F0D6
:10226000222361F09EBD00000DB407FEFDCF8EB5A8
:102270006115710599F380833196F0CFDF011196D6
:1022800080818EBD00000DB407FEFDCF8EB5FD012F
:10229000E5CF2A9AE3E2F0E03197F1F70895CF9382
:1022A000DF931F92CDB7DEB7698320E041E0BE0126
:1022B0006F5F7F4F0E941D110F90DF91CF910895A6
:1022C0006FE080E20E944F1160912D016F3F19F085
:1022D0008AE20E944F11299A089520E040E060E0D0
:1022E00070E00C941D11AF92BF92CF92DF92EF92EB
:1022F000FF920F931F93CF93DF93EC018A8190910C
:10230000190390FF0CC08F3F79F08CEE93E09F9300
:102310008F930E9472030F900F9010E0D0C08F3FF8
:1023200019F00091540301C00FEF8091530388838B
:102330004B8142FD06C046954695469517E0140F21
:1023400001C010E280E090E0892B21F080E090E075
:102350000E940000299883E092E00197F1F76EE077
:1023600080E20E944F118BE891E00197F1F7602F16
:102370008AE20E944F11602F80E30E944F1181EE8C
:102380000E946D110F3F11F080EA01C080EB412FD8
:10239000113208F040E220E0BE010E941D11299A8E
:1023A000E12CF12C8FEF0E946D11182F807321F416
:1023B00081E0E81AF108B1F7299860E387E20E940A
:1023C0004F1114FF03C081EE0E946D110E94601135
:1023D00015FB112710F981E00F3F09F080E0182B61
:1023E000CE010E94FA13111103C0EBE0F2E002C02B
:1023F000E8E5F1E060911A036F702B8122FBAA24BB
:10240000A0F8322F3695369536952C81B22EB2949F
:10241000B69447E0B422CD802770DE80EA80A02FFA
:10242000B0E0F8807981111103C040E152E002C0B0
:1024300043ED51E09F938F93FF93EF931F926F9320
:102440001F92AF921F923F931F92BF921F92CF9203
:102450001F922F931F92DF921F92EF92BF93AF9321
:102460001F92FF921F927F935F934F9381EA93E0B5
:102470009F938F930E9472038DB79EB74E960FB6AF
:10248000F8949EBF0FBE8DBF80915403081317C0F0
:10249000111110C080E090E0892B21F085E690E0DA
:1024A0000E94000080911A0391E0980F9F70807F36
:1024B000892B03C080911A03807F80931A03812F98
:1024C000DF91CF911F910F91FF90EF90DF90CF9010
:1024D000BF90AF9008952091190322FD0C947311C1
:1024E00082E094E09F938F930E9472030F900F906D
:1024F00080E008952BE043E06FEF80E00E94CC1372
:1025000062E172E00E94E8100E946B122CE043E04E
:102510006FEF80E00E94CC136DE172E00E94E81042
:102520000E946B1241E252E06EE181E00E94EA15E6
:1025300047E252E066E182E00E94EA1544E352E09D
:1025400066E184E00E94EA1543E452E06EE183E034
:102550000E94EA154DE452E067E18EEF0E94EA1511
:1025600088E592E00C940B15CF9380E090E0892BE6
:1025700021F08CE090E00E9400002FE043E06FEF3C
:1025800080E00E94CC1363ED71E00E94E81080911E
:102590007A048770806180937A0480917B048F71C4
:1025A000806C80937B0481E080937E0410927F0492
:1025B00087E794E00E946B128FE00E94271643ED9C
:1025C00051E061E18FEF0E94EA15C091540326E0CB
:1025D00043E06FEF80E00E94CC136C2F0E94DC1070
:1025E0000E946B1286E00E942716CF910C947A12FB
:1025F000CF9380911F0381FD2FC00E94B41280E110
:1026000094E09F938F930E9472030F900F9080E04D
:1026100090E0892B21F089E090E00E9400008091F9
:102620001F03816080931F03C4E02AE143E06FEF42
:1026300080E00E94CC1362E00E94DC100E946B12CA
:102640008BE10E942716811102C0C15071F7809161
:102650001F03826080931F03CF910895CF92DF9272
:10266000EF92FF920F931F93CF93DF936C017A0148
:102670008B01C0E0D0E0CE15DF0589F0D8016D9167
:102680008D01D601ED91FC910190F081E02DC60104
:102690000995892B11F47E0102C02196ECCFC70168
:1026A000DF91CF911F910F91FF90EF90DF90CF902E
:1026B000089586E593E00E948E0A21E0892B09F4B3
:1026C00020E0822F0895EF92FF920F931F93CF93F4
:1026D000DF93EC0181E0888F9B8D8C8D981305C072
:1026E000E889F989808185FD24C0F62E0B8D10E0E4
:1026F0000F5F1F4F0F731127E02E8C8DE8120CC057
:102700000FB607FCFACFE889F989808185FFF5CFFC
:10271000CE010E94560CF1CF8B8DFE01E80FF11D0A
:10272000E35AFF4FF0820B8FEA89FB898081806238
:1027300007C0EE89FF896083E889F9898081806418
:10274000808381E090E0DF91CF911F910F91FF9006
:10275000EF900895CF93DF93EC01888D8823C9F023
:10276000EA89FB89808185FD05C0A889B9898C919A
:1027700086FD0FC00FB607FCF5CF808185FFF2CF35
:10278000A889B9898C9185FFEDCFCE010E94560CA6
:10279000E7CFDF91CF910895E7E7F4E090915303FD
:1027A000918382836683258347708481807E482B52
:1027B0004483CF01089590E0FC01EA53FB4F24913C
:1027C000FC01EE54FB4F8491882399F090E0880F30
:1027D000991FFC01E855FB4FA591B491FC01E2560D
:1027E000FB4F859194918FB7F894EC91E22BEC9389
:1027F0008FBF08950F931F93CF93DF93EC018C81CC
:1028000082958695877091F44B81469546954695BD
:1028100050E0BE01695F7F4F80E293E00E946E1B33
:10282000EB81E695E695E695F0E077C0813031F4EE
:102830008F814AE060E273E090E007C0823041F4AB
:102840004AE060E273E08F8198850E94E61B68C0D1
:10285000833041F44AE060E273E08F8198850E9402
:102860003F1C5EC0843051F46F81788589859A85DC
:102870002AE040E253E00E94F11B52C0853051F43F
:102880006F81788589859A852AE040E253E00E942D
:102890001D1C46C0873071F42B85293008F028E0D4
:1028A0006F81788589859A8500E213E042E00E9475
:1028B0007D1B36C08630A1F520E0EB81E695E695DC
:1028C000E6952E1738F5E22FF0E0AF01440F551FC3
:1028D000DA01A05EBC4FEC0FFD1F8781082E000CB3
:1028E000990B34E0959587953A95E1F78F708A308A
:1028F00010F4805D01C0895C8C93DA01AF5DBC4F40
:1029000087818F708A3010F4805D01C0895C8C9360
:102910002F5FD3CFF0E0EE0FFF1FE05EFC4F108281
:1029200080E293E0DF91CF911F910F910895809104
:102930009C04829586958770813019F480919F045C
:102940000895811105C08FE994E00E94A11B0895AC
:1029500080E00895009769F0FC0101900020E9F7FC
:102960003197AF01481B590BBC0186E593E00C94ED
:102970002E1380E090E00895CF93DF930E94AA1475
:10298000EC0181ED91E00E94AA148C0F9D1FDF9154
:10299000CF9108958F929F92AF92BF920F931F9302
:1029A000CF93DF93CDB7DEB7A1970FB6F894DEBF14
:1029B0000FBECDBF19A2423008F44AE08E010F5D70
:1029C0001F4F842E912CA12CB12CA50194010E94A3
:1029D0008218E62FB901CA0101501109EA3014F436
:1029E000E05D01C0E95CD801EC93232B242B252B5F
:1029F00061F7C8010E94AA14A1960FB6F894DEBF31
:102A00000FBECDBFDF91CF911F910F91BF90AF90BF
:102A10009F908F9008950C94AA144F925F926F929A
:102A20007F928F929F92AF92BF92CF92DF92EF925E
:102A3000FF926B017C01B42E9B01AC010E942F1A06
:102A4000882319F08DE692E027C026013701E8942B
:102A500077F82FEF3FEF4FE75FE7C301B2010E9426
:102A60002F1A81110DC02FEF3FEF4FE75FE7C30132
:102A7000B2010E94F72218161CF481E792E00CC004
:102A80002FEF3FEF4FE75FE4C701B6010E94DA196D
:102A9000181684F485E792E0FF90EF90DF90CF90D6
:102AA000BF90AF909F908F907F906F905F904F906E
:102AB0000C94AA142FEF3FEF4FE75FECC701B6016C
:102AC0000E94F72287FDE6CF20E030E0A901C70190
:102AD000B6010E94F72287FF11C0E0915603F091E2
:102AE00057030190F081E02D6DE286E593E00995B2
:102AF0004C01F7FAF094F7F8F09402C0812C912C75
:102B0000A12C60E070E080E09FE3AB1441F020E096
:102B100030E040E251E40E943219A394F6CF9B01C9
:102B2000AC01C701B6010E94C6182B013C010E94EE
:102B3000AB196B017C010E94FC229B01AC01C3011B
:102B4000B2010E94C5182B013C014AE0C701B60141
:102B50000E94CA147C01E80CF91CBB2031F089E703
:102B600092E00E94AA14E80EF91EDB2CDD2021F170
:102B700020E030E040E251E4C301B2010E945D2355
:102B80002B013C010E94AB194B01A12CB12C4AE056
:102B9000C501B4010E94CA14E80EF91EC501B401B2
:102BA0000E94FC229B01AC01C301B2010E94C51826
:102BB0002B013C01DA94DACFC701FF90EF90DF9050
:102BC000CF90BF90AF909F908F907F906F905F90CD
:102BD0004F900895CF93DF93262F8F3F11F0EA0196
:102BE00002C0CBE7D2E040E0682F80E00E94CC1327
:102BF000BE010E94E810DF91CF910C946B12FC0192
:102C00008091530381839481907F9160948380911C
:102C10001F0380FF03C0CF010C946B1287E894E080
:102C20009F938F930E9472030F900F9080E00895FE
:102C3000CF93DF9342E00E940D15EC0181ED91E00E
:102C40000E94AA148C0F9D1FDF91CF910895CF92FF
:102C5000DF92EF92FF92CF93DF93D82F0E94AF0DB8
:102C60006B017C0181E0D11180E080939D04C0E084
:102C70000E94AF0DAB01BC014C195D096E097F09C3
:102C8000403D57406105710580F4C1110EC0A89503
:102C90000E94F00390919C049770933049F7C1E033
:102CA00080919D048D13E3CFE3CF8C2FDF91CF91E3
:102CB000FF90EF90DF90CF900895CF92DF92EF9248
:102CC000FF92CF93DF936C01990FEE08FF08F7FE98
:102CD0001FC0E0915603F09157030190F081E02D61
:102CE0006DE286E593E00995EC0166277727CB0135
:102CF0006C197D098E099F094AE00E94CA148C0F45
:102D00009D1FDF91CF91FF90EF90DF90CF900895BE
:102D10004AE0C701B601DF91CF91FF90EF90DF90BD
:102D2000CF900C94CA141F920F920FB60F921124D9
:102D30002F933F934F935F936F937F938F939F93C3
:102D4000AF93BF93EF93FF9386E593E00E94560CF9
:102D5000FF91EF91BF91AF919F918F917F916F9173
:102D60005F914F913F912F910F900FBE0F901F9049
:102D700018951F920F920FB60F9211242F938F93D5
:102D80009F93EF93FF93E0916603F0916703808137
:102D9000E0916C03F0916D0382FD12C090818091EF
:102DA0006F038F5F8F7320917003821751F0E09152
:102DB0006F03F0E0EA5AFC4F958F80936F0301C0D8
:102DC0008081FF91EF919F918F912F910F900FBE76
:102DD0000F901F901895789484B5826084BD84B557
:102DE000816084BD85B5826085BD85B5816085BD06
:102DF00080916E00816080936E00109281008091BE
:102E00008100826080938100809181008160809345
:102E10008100809180008160809380008091B1006A
:102E200084608093B1008091B00081608093B00095
:102E300080917A00846080937A0080917A00826029
:102E400080937A0080917A00816080937A008091EB
:102E50007A00806880937A001092C100A89580E083
:102E600090E0892B11F00E940000E0916603F09140
:102E7000670382E08083E0916203F0916303108234
:102E8000E0916403F091650380E1808310926E030A
:102E9000E0916A03F0916B0386E08083E091680320
:102EA000F0916903808180618083E0916803F091F3
:102EB0006903808188608083E0916803F0916903F1
:102EC000808180688083E0916803F091690380814C
:102ED0008F7D80838FE594E09F938F930E94720390
:102EE00080911F038D7F80931F030F900F9080E0D0
:102EF00090E0892B51F082E594E09F938F930E949C
:102F000072030E9400000F900F9041E050E063E0D8
:102F100071E08EE193E00E941E246FEF81E090E06B
:102F20000E94462480911A038F7880931A0310928E
:102F3000100310920F038EE291E00E94460388EF87
:102F400092E190931D0380931C031F921F921F9286
:102F50001F928DE194E09F938F930E9472030E94D1
:102F6000AF0D0F900F900F900F900F900F900E9449
:102F7000AF0D0E94F003A8958091190382FFF7CF4F
:102F800085E494E09F938F930E9472030E94C30C88
:102F90000F900F908091190382FB882780F91F9270
:102FA0008F938DE294E09F938F930E947203A89574
:102FB0000F900F900F900F90A8950E94F0030E9421
:102FC000BB0D0E949A0AF8CFCF93DF93FC011082C9
:102FD00011821282148215821682DC0117968AE110
:102FE000ED0119928A95E9F782E08383DF91CF9111
:102FF0000895CF93DF93E6E5F3E01382128288EE23
:1030000093E0A0E0B0E084839583A683B7832CE3AC
:1030100031E03183208325EC30E03587248724ECB0
:1030200030E03787268720EC30E0318B208B21EC95
:1030300030E0338B228B22EC30E0358B248B26EC76
:1030400030E0378B268B118E128E138E148EE9EBA7
:10305000F4E01382128284839583A683B7838CE481
:1030600091E09183808388E994E00E94E41787E7E8
:1030700094E00E94E41786E594E00E94E417E6E5F8
:10308000F4E081E08683D6E2D58385E394E00E9474
:10309000E417E5E3F4E082E08683C5E2C58385ECCE
:1030A00094E00E94E417E5ECF4E083E08683D583A6
:1030B00084E194E00E94E417E4E1F4E084E0868394
:1030C000C58383EF93E00E94E417E3EFF3E08EEF14
:1030D000868380E38583DF91CF91089597FB072E48
:1030E00016F4009407D077FD09D00E94AB1807FCB6
:1030F00005D03EF4909581959F4F08957095619508
:103100007F4F0895A1E21A2EAA1BBB1BFD010DC023
:10311000AA1FBB1FEE1FFF1FA217B307E407F50787
:1031200020F0A21BB30BE40BF50B661F771F881F63
:10313000991F1A9469F760957095809590959B01F9
:10314000AC01BD01CF0108950E949A24B7FF0895F4
:10315000821B930B0895AA1BBB1B51E107C0AA1F3A
:10316000BB1FA617B70710F0A61BB70B881F991F28
:103170005A95A9F780959095BC01CD010895EE0F61
:10318000FF1F0590F491E02D09945058BB27AA2702
:103190000E94DD180C94E4230E94D62338F00E948C
:1031A000DD2320F039F49F3F19F426F40C94D32347
:1031B0000EF4E095E7FB0C94CD23E92F0E94F52354
:1031C00058F3BA17620773078407950720F079F45C
:1031D000A6F50C9417240EF4E0950B2EBA2FA02D13
:1031E0000B01B90190010C01CA01A0011124FF27B4
:1031F000591B99F0593F50F4503E68F11A16F040AF
:10320000A22F232F342F4427585FF3CF46953795AD
:103210002795A795F0405395C9F77EF41F16BA0B72
:10322000620B730B840BBAF09150A1F0FF0FBB1F20
:10323000661F771F881FC2F70EC0BA0F621F731F69
:10324000841F48F4879577956795B795F7959E3FC6
:1032500008F0B0CF9395880F08F09927EE0F979557
:10326000879508950E9446190C94E4230E94DD235B
:1032700058F00E94D62340F029F45F3F29F00C94C7
:10328000CD2351110C9418240C94D3230E94F523C0
:1032900068F39923B1F3552391F3951B550BBB2785
:1032A000AA2762177307840738F09F5F5F4F220FCA
:1032B000331F441FAA1FA9F335D00E2E3AF0E0E8C1
:1032C00032D091505040E695001CCAF72BD0FE2F0B
:1032D00029D0660F771F881FBB1F2617370748079F
:1032E000AB07B0E809F0BB0B802DBF01FF27935857
:1032F0005F4F3AF09E3F510578F00C94CD230C942B
:1033000018245F3FE4F3983ED4F38695779567954C
:10331000B795F7959F5FC9F7880F911D969587958B
:1033200097F90895E1E0660F771F881FBB1F6217AA
:1033300073078407BA0720F0621B730B840BBA0B68
:10334000EE1F88F7E09508950E94AB196894B111BB
:103350000C94182408950E94FD2388F09F5798F03C
:10336000B92F9927B751B0F0E1F0660F771F881F8A
:10337000991F1AF0BA95C9F714C0B13091F00E94A4
:103380001724B1E008950C941724672F782F88270D
:10339000B85F39F0B93FCCF3869577956795B395CB
:1033A000D9F73EF490958095709561957F4F8F4F3A
:1033B0009F4F08950E94392308F48FEF0895FA0172
:1033C000EE0FFF1F309621053105A1F16115710542
:1033D00061F48038BFE39B0749F168949038810518
:1033E00061F08038BFEF9B0741F099234AF5FF3F1A
:1033F000E1053105210519F1E8940894E795D90113
:10340000AA2329F4AB2FBE2FF85FD0F310C0FF5FC3
:1034100070F4A695E0F7F73950F019F0FF3A38F458
:103420009F779F930DD00F9007FC9058089546F01A
:103430000C94D32360E070E080E89FE308954FE7A9
:103440009F775F934F933F932F930E94DF1A2F91A3
:103450003F914F915F910E945D230C943C1A0E9412
:103460003923880B990B089529F416F00C94CD2379
:103470000C9417240C94D3230E94FD23A8F39638B0
:10348000A0F707F80F92E8942BE33AEA48EB5FE7DE
:103490000E9473230F920F920F924DB75EB70F9257
:1034A0000E94271BE8E6F0E00E946E1A4F915F91A0
:1034B000EF91FF91E595EE1FFF1F49F0FE57E06881
:1034C0004427EE0F441FFA95E1F74195550B0E94F2
:1034D000A11A0F9007FE0C94951A0895DF93CF93CD
:1034E0001F930F93FF92EF92DF927B018C01689400
:1034F00006C0DA2EEF010E947023FE01E894A59128
:103500002591359145915591A6F3EF010E94DD1863
:10351000FE019701A801DA9469F7DF90EF90FF9020
:103520000F911F91CF91DF9108959B01AC0160E055
:1035300070E080E89FE30C9432190C94CD230C9436
:103540005B1B0E94FD23D8F39923C9F3940F511DEF
:10355000A3F39150504094F059F0882332F0660F55
:10356000771F881F91505040C1F79E3F51052CF79F
:10357000880F911D9695879597F908955F3FACF058
:10358000983E9CF0BB27869577956795B79508F48C
:10359000B1609395C1F7BB0F58F711F460FFE8CF06
:1035A0006F5F7F4F8F4F9F4FE3CF0C94182416F01F
:1035B0000C945B1B0C94D32368940C94CD230E9431
:1035C000FD23A8F39923C1F3AEF3DF93CF931F93A9
:1035D0000F93FF92C92FDD2788232AF02197660FCA
:1035E000771F881FDAF720E030E040E85FEB9FE3C9
:1035F000883920F0803E38F021968F770E94C618D7
:10360000E0E9F0E004C00E94C618EDEBF0E00E9493
:103610006E1A8B01BE01EC01FB2E6F577109759577
:10362000771F880B990B0E94FE2228E132E741E3C5
:103630005FE30E947023AF2D9801AE01FF900F91C0
:103640001F91CF91DF910E94DD180C94E423FA01C1
:10365000DC01AA0FBB1F9B01AC01BF5728F4222736
:1036600033274427507820C0B75190F4AB2F002463
:10367000469537952795011CA395D2F3002071F04C
:10368000220F331F441FB395DAF30ED00C94C518E4
:1036900061307105A0E88A07B94630F49B01AC019E
:1036A0006627772788279078309621F0208331830A
:1036B0004283538308959F3F31F0915020F48795C2
:1036C00077956795B795880F911D9695879597F98A
:1036D000089581E090E0F8940C94A924FB01DC01AA
:1036E0004150504048F001900D920020C9F701C0B0
:1036F0001D9241505040E0F70895EF920F931F93B1
:10370000CF93DF93E80147FD02C034E001C034E10C
:10371000E42F440FFF0BF7FF03C0F195E195F1098A
:10372000E32E022F2E2FAE010E94571ECE01DF91F5
:10373000CF911F910F91EF900895662777270C94F2
:10374000E51FFC0188279927E89421912032E9F3AD
:10375000293010F02E30C8F32B3241F02D3239F4DD
:10376000689404C00E94151C820F911D2191205362
:103770002A30C0F31EF4909581959F4F08951F93B2
:10378000FC0199278827BC01E89411911032E9F3D4
:10379000193010F01E30C8F31B3251F01D3249F4BD
:1037A000689406C00E94001C610F711D811D911D4F
:1037B000119110531A30B0F33EF4909580957095A6
:1037C00061957F4F8F4F9F4F1F910895BB274A30C0
:1037D00031F4992322F4BDE2909581959F4F0C948A
:1037E000401CBB272A3051F4992342F4BDE2909546
:1037F0008095709561957F4F8F4F9F4F0C941E1C45
:10380000592F482F372F262F660F771F881F991F94
:10381000660F771F881F991F620F731F841F951FE4
:10382000660F771F881F991F08957AE0979F902D44
:10383000879F802D910D11240895BB27FA01A62F93
:103840006217710581059105330B30FB66F0AA27DD
:10385000660F771F881F991FAA1FA21710F0A21BBF
:1038600063953850A9F7A05DAA3308F0A95DA1932C
:1038700036F7B111B1931082CA010C945122BB27C3
:10388000FB015527AA27880F991FAA1FA41710F01C
:10389000A41B83955051B9F7A05DAA3308F0A95D28
:1038A000A193009779F7B111B1931192CB010C94C8
:1038B0005122AEE0B0E0EFE5FCE10C9471248C0104
:1038C000CA014EE04C831A83098377FF02C060E08F
:1038D00070E8FB013197FE83ED83A901BC01CE01A5
:1038E00001960E94851C4D815E8157FD0AC02F8183
:1038F0003885421753070CF49A01F801E20FF31FC1
:1039000010822E96E4E00C948D24ACE0B0E0EBE85D
:10391000FCE10C9463247C016B018A01FC01178299
:103920001682838181FFBDC1CE0101964C01F70152
:103930009381F60193FD859193FF81916F01882317
:1039400009F4ABC1853239F493FD859193FF8191E0
:103950006F01853229F4B70190E00E946122E7CF20
:10396000512C312C20E02032A0F48B3269F030F45D
:10397000803259F0833269F420612CC08D3239F0E5
:10398000803339F4216026C02260246023C028607F
:1039900021C027FD27C030ED380F3A3078F426FFDC
:1039A00006C0FAE05F9E300D1124532E13C08AE04A
:1039B000389E300D1124332E20620CC08E3221F43B
:1039C00026FD6BC1206406C08C3611F4206802C04D
:1039D000883641F4F60193FD859193FF81916F0143
:1039E0008111C1CF982F9F7D9554933028F40C5F9F
:1039F0001F4FFFE3F9830DC0833631F0833771F039
:103A0000833509F05BC022C0F801808189830E5F95
:103A10001F4F44244394512C540115C03801F2E047
:103A20006F0E711CF801A080B18026FF03C0652DC8
:103A300070E002C06FEF7FEFC5012C870E94462225
:103A40002C0183012C852F77222E17C03801F2E03C
:103A50006F0E711CF801A080B18026FF03C0652D98
:103A600070E002C06FEF7FEFC5012C870E943B2200
:103A70002C012C852068222E830123FC1BC0832D62
:103A800090E048165906B0F4B70180E290E00E9439
:103A900061223A94F4CFF50127FC859127FE8191AC
:103AA0005F01B70190E00E94612231103A94F1E089
:103AB0004F1A51084114510471F7E5C0843611F0D2
:103AC000893639F5F80127FF07C06081718182814D
:103AD00093810C5F1F4F08C060817181072E000C1D
:103AE000880B990B0E5F1F4F2F76722E97FF09C020
:103AF00090958095709561957F4F8F4F9F4F20686F
:103B0000722E2AE030E0A4010E949922A82EA81863
:103B100044C0853729F42F7EB22E2AE030E025C03C
:103B2000F22FF97FBF2E8F36C1F018F4883579F067
:103B3000B4C0803719F0883721F0AFC02F2F206133
:103B4000B22EB4FE0DC08B2D8460B82E09C024FFA8
:103B50000AC09F2F9660B92E06C028E030E005C04D
:103B600020E130E002C020E132E0F801B7FE07C0FA
:103B700060817181828193810C5F1F4F06C06081DB
:103B8000718180E090E00E5F1F4FA4010E94992296
:103B9000A82EA818FB2DFF777F2E76FE0BC0372DA1
:103BA0003E7FA51450F474FE0AC072FC08C0372D85
:103BB0003E7E05C0BA2C372D03C0BA2C01C0B52CEF
:103BC00034FF0DC0FE01EA0DF11D8081803311F438
:103BD000397E09C032FF06C0B394B39404C0832F6A
:103BE000867809F0B39433FD13C030FF06C05A2C19
:103BF000B31418F4530C5B18B32CB31468F4B70166
:103C000080E290E03C870E946122B3943C85F5CF2E
:103C1000B31410F43B1801C0312C34FF12C0B701AB
:103C200080E390E03C870E9461223C8532FF17C010
:103C300031FD03C088E790E002C088E590E0B7015D
:103C40000CC0832F867859F031FF02C08BE201C08F
:103C500080E237FD8DE2B70190E00E946122A51459
:103C600038F4B70180E390E00E9461225A94F7CFC4
:103C7000AA94F401EA0DF11D8081B70190E00E9441
:103C80006122A110F5CF332009F451CEB70180E2B3
:103C900090E00E9461223A94F6CFF70186819781E5
:103CA00002C08FEF9FEF2C96E2E10C947F244F929D
:103CB0005F926F927F929F92AF92BF92CF92DF926C
:103CC000EF92FF920F931F93CF93DF93CDB7DEB7A1
:103CD00029970FB6F894DEBF0FBECDBF6A01122F31
:103CE000B02E2BE3201720F0FF24F394F00E02C037
:103CF000BCE3FB2E0F2D27E0AE014F5F5F4F0E940C
:103D00004221AC018981982F9970913031F0E1FC0A
:103D100006C0E0FE06C090E205C09DE203C09BE243
:103D200001C090E0EE2DE07183FF3CC0911102C014
:103D300083E001C084E0811718F4212F281B01C003
:103D400020E0E1110BC0F601822F30E2882319F048
:103D500031938150FBCFC20ED11C20E0992329F072
:103D6000D6019C93F60131966F01C6010396E2FEDF
:103D70000AC03EE4D6013C9341E411964C9311975E
:103D800012963C9306C03EE6F601308341E641833D
:103D90003283FC01322F40E2332309F442C04193C5
:103DA0003150FACF82FF44C0911102C083E001C0BC
:103DB00084E0811718F4212F281B01C020E0E111B5
:103DC0000BC0F601822F30E2882319F03193815025
:103DD000FBCFC20ED11C20E0992329F0D6019C9381
:103DE000F60131966F01C6010396E2FE0BC039E47D
:103DF000D6013C933EE411963C93119736E412961B
:103E00003C9307C039E6F60130833EE6318336E65F
:103E10003283FC01322F40E2332319F041933150B9
:103E2000FBCFFC01E20FF11D10828EEF9FEFB7C0B8
:103E3000F1E0911101C0F0E06F2F70E0141615064B
:103E400024F49A012F5F3F4F02C021E030E0260F9B
:103E5000371FBB2029F06B2D70E06F5F7F4F02C0D2
:103E600060E070E0260F371F612F70E026173707DC
:103E70001CF4121B212F01C020E03E2D387159F493
:103E8000D601322F60E2332319F06D933150FBCF0E
:103E9000C20ED11C20E0FF2331F0D6019C93B60165
:103EA0006F5F7F4F6B01E1110BC0F601922F30E382
:103EB000992319F031939150FBCFC20ED11C20E011
:103EC0009F2D940F3A81782F7071A72E84FF03C025
:103ED000313309F49150191624F4993018F098E010
:103EE00001C091E0E42F852F57FF02C0E0E080E0A1
:103EF0006E2F782FE0E0F0E0AEE29A2E3A01691AD8
:103F000071082A01461A570A0B2D10E011950195E8
:103F100011096F3F8FEF780729F4D6019C92C601F3
:103F200001966C014617570784F0661677066CF405
:103F30007F01E40CF51CA1E0B0E0AC0FBD1FEA0E60
:103F4000FB1ED7011196BC9002C090E3B92E6150C0
:103F500071093196C60101967C016017710724F042
:103F6000D601BC926C01D5CF6417750741F4363386
:103F700020F4353321F4A11002C081E3B82EF601FC
:103F8000B082F701822F90E2882319F0919381503B
:103F9000FBCFF701E20FF11D108280E090E029963F
:103FA0000FB6F894DEBF0FBECDBFDF91CF911F914A
:103FB0000F91FF90EF90DF90CF90BF90AF909F90C8
:103FC0007F906F905F904F900895A0E0B0E0EBEE8F
:103FD000FFE10C946724EC017B016115710519F078
:103FE000DB018D939C938E010F5F1F4F7880872D8F
:103FF00090E00E941A22892B11F0E801F4CFBDE273
:104000007B1205C00F5F1F4F7980C1E008C0EBE253
:104010007E1204C08E010E5F1F4F7980C0E06801E0
:10402000F1E0CF1AD10843E050E062EE74E0C6013F
:104030000E942322892BF1F4680122E0C20ED11CD8
:1040400045E050E06DED74E0C6010E942322892B0B
:1040500021F4680187E0C80ED11CE114F10419F0C5
:10406000D701CD92DC92C111FFC060E070E080E822
:104070009FE703C143E050E06AED74E0C6010E948F
:104080002322892B51F4E114F10409F4F2C00E5FEC
:104090001F4FF70111830083ECC0680160E070E0FE
:1040A000CB0100E010E0F601D0EDD70DDA3058F585
:1040B0002C2F2260622E2C2F2870C2FF05C02111E8
:1040C00028C00F5F1F4F25C0222311F00150110996
:1040D000A5E0B0E09B01AC010E9458244B015C01BB
:1040E000880C991CAA1CBB1CC501B4016D0F711D65
:1040F000811D911D6839A9E97A078A07A9E19A0704
:1041000040F0C66005C0DE3F51F4C3FD44C0C86046
:104110006C2EBFEFCB1ADB0A7080C62DC4CF2D2FBB
:104120002F7D2531C1F540814D3211F4C06106C0AB
:104130004B3221F0319621E030E006C03296D601B4
:1041400011964C9122E030E0A0EDA40FAA3018F0B7
:10415000E21BF30B20C040E050E04038BCE05B07BE
:104160005CF49A01220F331F220F331F420F531F9B
:10417000440F551F4A0F511D3196DF0111972C91A5
:10418000A0EDA20FAA3048F3C4FF03C0519541959A
:104190005109040F151FC1FF07C0E114F10421F0FC
:1041A0003197D701ED93FC930E94FC22C370C3307A
:1041B00019F06B017C0106C06B017C01F7FAF094E9
:1041C000F7F8F09420E030E0A901C701B6010E94A1
:1041D000F722882309F445C017FF06C01195019501
:1041E0001109C9EFD4E002C0C1E1D5E05E01B8E138
:1041F000AB1AB1084601BE2DAF2D90E2E92EF12C8D
:104200000E151F0584F0FE012591359145915491BD
:10421000B4018B2F9A2F0E945D234B01B82FA92F39
:104220000E191F09EDCF2497F594E794CA15DB0505
:1042300039F76401EB2EFA2E8E2D880F8F2D881FF3
:104240008F3F49F020E030E0A901C701B6010E948C
:10425000F722811106C082E290E09093EB048093F4
:10426000EA04C701B60109C060E070E080E89FEF92
:1042700004C060E070E080EC9FE7CDB7DEB7EEE011
:104280000C948324283008F027E03327DA01990FB3
:10429000311D87FD916000966105710539F432602A
:1042A0002E5F3D9330E32A95E1F708959F3F30F06C
:1042B00080387105610509F03C5F3C5F3D939130AA
:1042C00008F08068911DDF93CF931F930F93FF92A7
:1042D000EF92192F987F9695E92F96959695E90F6D
:1042E000FF27E159FA4F99273327EE24FF24A7012E
:1042F000E70105900894079428F4360FE71EF81E8E
:10430000491F511D660F771F881F991F0694A1F73B
:104310000590079428F4E70EF81E491F561FC11D8B
:10432000770F881F991F661F0694A1F705900794C1
:1043300028F4F80E491F561FC71FD11D880F991F5B
:10434000661F771F0694A1F70590079420F4490F84
:10435000561FC71FD81F990F661F771F881F069407
:10436000A9F784911095177041F0D695C795579588
:104370004795F794E7941A95C1F7E5E1F5E068945D
:104380001590159135916591959105907FE2739502
:10439000E118F10A430B560BC90BD009C0F7E10C29
:1043A000F11E431F561FC91FD01D7EF4703311F438
:1043B0008A95E6CFE894015030F0080F0AF4002700
:1043C000021708F4202F2395022F7A3328F079E37F
:1043D0007D932A95E9F710C07D932A9589F6069476
:1043E00097956795379517951794E118F10A430B40
:1043F000560BC90BD00998F023957E9173957A33AB
:1044000008F070E37C932013B8F77E9170617D9380
:1044100030F0839571E37D9370E32A95E1F71124E1
:10442000EF90FF900F911F91CF91DF91992787FD1A
:104430009095089591110C94CA23803219F08950F7
:104440008550C8F70895FB01DC014150504088F0C9
:104450008D9181341CF08B350CF4805E6591613454
:104460001CF06B350CF4605E861B611171F3990BC7
:104470000895881BFCCFFC0105906150704001102D
:10448000D8F7809590958E0F9F1F0895FC0161507D
:10449000704001900110D8F7809590958E0F9F1F66
:1044A0000895DC01FC01672F71917723E1F73297C2
:1044B00004C07C916D9370836291AE17BF07C8F3FF
:1044C00008950F931F93CF93DF93FB01238121FD69
:1044D00003C08FEF9FEF28C022FF16C0468157818F
:1044E000248135814217530744F4A081B1819D0195
:1044F0002F5F3F4F318320838C93268137812F5F3D
:104500003F4F3783268310C0EB01092F182F0084FB
:10451000F185E02D0995892BE1F68E819F81019629
:104520009F838E83812F902FDF91CF911F910F91C9
:104530000895FA01AA27283051F1203181F1E89439
:104540006F936E7F6E5F7F4F8F4F9F4FAF4FB1E086
:104550003ED0B4E03CD0670F781F891F9A1FA11D81
:10456000680F791F8A1F911DA11D6A0F711D811D82
:10457000911DA11D20D009F468943F912AE0269F47
:1045800011243019305D3193DEF6CF010895462FA6
:104590004770405D4193B3E00FD0C9F7F6CF462F87
:1045A0004F70405D4A3318F0495D31FD40524193F0
:1045B00002D0A9F7EACFB4E0A695979587957795AD
:1045C0006795BA95C9F700976105710508959B0134
:1045D000AC010A2E06945795479537952795BA95BD
:1045E000C9F7620F731F841F951FA01D08950E94B5
:1045F000392308F481E00895E89409C097FB3EF45C
:1046000090958095709561957F4F8F4F9F4F99231F
:10461000A9F0F92F96E9BB279395F695879577959D
:104620006795B795F111F8CFFAF4BB0F11F460FF5D
:104630001BC06F5F7F4F8F4F9F4F16C0882311F0B5
:1046400096E911C0772321F09EE8872F762F05C0C9
:10465000662371F096E8862F70E060E02AF09A9564
:10466000660F771F881FDAF7880F9695879597F959
:104670000895990F0008550FAA0BE0E8FEEF1616F3
:104680001706E807F907C0F012161306E407F50746
:1046900098F0621B730B840B950B39F40A2661F0BA
:1046A000232B242B252B21F408950A2609F4A1405D
:1046B000A6958FEF811D811D08950E9470230C9493
:1046C000E4230E94D62338F00E94DD2320F09523B6
:1046D00011F00C94CD230C94D32311240C941824A2
:1046E0000E94F52370F3959FC1F3950F50E0551F7D
:1046F000629FF001729FBB27F00DB11D639FAA2737
:10470000F00DB11DAA1F649F6627B00DA11D661F85
:10471000829F2227B00DA11D621F739FB00DA11DA6
:10472000621F839FA00D611D221F749F3327A00D60
:10473000611D231F849F600D211D822F762F6A2FFC
:1047400011249F5750409AF0F1F088234AF0EE0F61
:10475000FF1FBB1F661F771F881F91505040A9F78E
:104760009E3F510580F00C94CD230C9418245F3F9C
:10477000E4F3983ED4F3869577956795B795F795CA
:10478000E7959F5FC1F7FE2B880F911D9695879542
:1047900097F9089599278827089597F99F6780E8E2
:1047A00070E060E008959FEF80EC089500240A9483
:1047B0001616170618060906089500240A941216FC
:1047C0001306140605060895092E0394000C11F42F
:1047D000882352F0BB0F40F4BF2B11F460FF04C0DC
:1047E0006F5F7F4F8F4F9F4F089557FD9058440F35
:1047F000551F59F05F3F71F04795880F97FB991F40
:1048000061F09F3F79F087950895121613061406FC
:10481000551FF2CF4695F1DF08C016161706180689
:10482000991FF1CF86957105610508940895E89464
:10483000BB2766277727CB0197F90895DC01CB01C9
:10484000FC01F999FECF06C0F2BDE1BDF89A3196A0
:1048500000B40D9241505040B8F70895F999FECF39
:1048600092BD81BDF89A992780B50895DC01A40F07
:10487000B51F4150504048F0CB01840F951F2E9139
:104880000E94472441505040D0F70895262FF999AF
:10489000FECF92BD81BDF89A019700B4021639F09F
:1048A0001FBA20BD0FB6F894FA9AF99A0FBE089570
:1048B0000E949A24A59F900DB49F900DA49F800DF7
:1048C000911D112408952F923F924F925F926F9203
:1048D0007F928F929F92AF92BF92CF92DF92EF9290
:1048E000FF920F931F93CF93DF93CDB7DEB7CA1B11
:1048F000DB0B0FB6F894DEBF0FBECDBF09942A883C
:10490000398848885F846E847D848C849B84AA84E3
:10491000B984C884DF80EE80FD800C811B81AA8170
:10492000B981CE0FD11D0FB6F894DEBF0FBECDBF3B
:10493000ED010895A29FB001B39FC001A39F700D28
:10494000811D1124911DB29F700D811D1124911D97
:064950000895F894FFCF6A
:10495600FFFFFF00FCE1A8A8B1078907E308A90843
:1049660086082B08FF07ED0756090C09012B872639
:1049760040A470DD3FE85412C0C90AC90AFF440AC0
:104986007C090000EC0480000000000063132E1375
:104996008E0A6C0A800AAA13000000001E0B0A0B7E
:1049A600030B000BFD0AFC0A4F4B007634303070C7
:1049B600706D3A200076313030303070706D2000E6
:1049C6002D2D2D2D2D2D2D2D2D2D2D2D2D2D2D2D11
:1049D6002D2D2D2D2D2D2D2D2D2D2D2D00496E639B
:1049E6006F6D696E67206D6573736167652E747987
:1049F60070653A20002056616C756520007634306B
:104A06003070706D2000562020202020202020208D
:104A160020005600534C4545505F54494D453A20B9
:104A2600000D0A0053454E303135393A00562020E4
:104A360020202020202020202000434F323A003C16
:104A46003430300070706D0020202020202020544B
:104A5600696D6520706F696E743A004E41434B0074
:104A66002100434F322073656E736F7200312E350D
:104A760000566F6C74730050504D2D3430302F310A
:104A86003030300050504D2D3430302F3130203002
:104A960030300054656D702D636F6D700044696130
:104AA600676E6F73746963004D472D38313120444A
:104AB600656D6F7374726174696F6E0A006E616EF4
:104AC60000696E66006F7666002E00322E312E313A
:024AD6000000DE
:107800000C94343C0C94513C0C94513C0C94513CE1
:107810000C94513C0C94513C0C94513C0C94513CB4
:107820000C94513C0C94513C0C94513C0C94513CA4
:107830000C94513C0C94513C0C94513C0C94513C94
:107840000C94513C0C94513C0C94513C0C94513C84
:107850000C94513C0C94513C0C94513C0C94513C74
:107860000C94513C0C94513C11241FBECFEFD8E036
:10787000DEBFCDBF11E0A0E0B1E0ECE9FFE702C060
:1078800005900D92A230B107D9F712E0A2E0B1E065
:1078900001C01D92AD30B107E1F70E942D3D0C945F
:1078A000CC3F0C94003C982F959595959595959582
:1078B000905D8F708A307CF0282F295A8091C0000B
:1078C00085FFFCCF9093C6008091C00085FFFCCF60
:1078D0002093C6000895282F205DF0CF982F809127
:1078E000C00085FFFCCF9093C6000895EF92FF92F1
:1078F0000F931F93EE24FF2487018091C00087FD22
:1079000017C00894E11CF11C011D111D81E4E8164B
:1079100082E4F8068FE0080780E0180770F3E09132
:107920000401F091050109958091C00087FFE9CF1E
:107930008091C6001F910F91FF90EF9008950E94D3
:10794000763C982F8091C00085FFFCCF9093C600B5
:1079500091362CF490330CF09053892F089597555D
:10796000892F08951F930E949F3C182F0E949F3CCF
:107970001295107F810F1F9108951F93182F882350
:1079800021F00E94763C1150E1F71F9108951F935A
:10799000182F0E94763C803249F0809103018F5F5E
:1079A000809303018530C1F01F9108958091C0003C
:1079B00085FFFCCF84E18093C6008091C00085FFE5
:1079C000FCCF1093C6008091C00085FFFCCF80E102
:1079D0008093C6001F910895E0910401F091050184
:1079E00009951F9108950E94763C803241F0809164
:1079F00003018F5F80930301853081F008958091AA
:107A0000C00085FFFCCF84E18093C6008091C00058
:107A100085FFFCCF80E18093C6000895E0910401CA
:107A2000F09105010995089540E951E08823A1F0FE
:107A30002D9A28EE33E0FA013197F1F721503040CA
:107A4000D1F72D9828EE33E0FA013197F1F7215064
:107A50003040D1F7815061F708953F924F925F9285
:107A60006F927F928F929F92AF92BF92CF92DF924E
:107A7000EF92FF920F931F93CF93DF93000080E16B
:107A80008093C4001092C50088E18093C10086E015
:107A90008093C2005098589A259A81E00E94143D24
:107AA00024E1F22E9EE1E92E85E9D82E0FE0C02ECA
:107AB00010E1B12EAA24A394B1E49B2EA6E58A2E50
:107AC000F2E57F2EE0E26E2E79E4572E63E5462E36
:107AD00050E5352E0E94763C8033B1F18133B9F107
:107AE000803409F46FC0813409F476C0823409F41B
:107AF00085C0853409F488C0803531F1823521F1A3
:107B0000813511F1853509F485C0863509F48DC0BC
:107B1000843609F496C0843709F403C1853709F423
:107B200072C1863709F466C0809103018F5F80932C
:107B30000301853079F6E0910401F0910501099582
:107B40000E94763C803351F60E94F33CC3CF0E94E2
:107B5000763C803249F78091C00085FFFCCFF092DF
:107B6000C6008091C00085FFFCCF9092C600809136
:107B7000C00085FFFCCF8092C6008091C00085FFC9
:107B8000FCCF7092C6008091C00085FFFCCF609250
:107B9000C6008091C00085FFFCCF5092C600809146
:107BA000C00085FFFCCF4092C6008091C00085FFD9
:107BB000FCCF3092C6008091C00085FFFCCFB09210
:107BC000C60088CF0E94763C863808F4BDCF0E945C
:107BD000763C0E94F33C7ECF0E94763C803809F4CC
:107BE0009CC0813809F40BC1823809F43CC1883942
:107BF00009F48FC080E00E94C73C6CCF84E10E94F2
:107C0000BD3C0E94F33C66CF85E00E94BD3C0E94D3
:107C1000F33C60CF0E94763C809306010E94763C44
:107C2000809307010E94F33C55CF0E94763C80333D
:107C300009F41DC183E00E94BD3C80E00E94C73C66
:107C400049CF0E94763C809309020E94763C809343
:107C5000080280910C028E7F80930C020E94763C79
:107C6000853409F415C18091080290910902892B8D
:107C700089F000E010E00E94763CF801E85FFE4FDA
:107C800080830F5F1F4F80910802909109020817AF
:107C9000190788F30E94763C803209F045CF809125
:107CA0000C0280FF01C16091060170910701660F0F
:107CB000771F7093070160930601A0910802B091AD
:107CC00009021097C9F0E8E0F1E09B01AD014E0F09
:107CD0005F1FF999FECF32BD21BD819180BDFA9A17
:107CE000F99A2F5F3F4FE417F50799F76A0F7B1F4B
:107CF00070930701609306018091C00085FFFCCF5F
:107D0000F092C6008091C00085FFFCCFB092C60003
:107D1000E1CE83E00E94C73CDDCE82E00E94C73CFA
:107D2000D9CE0E94763C809309020E94763C8093D3
:107D300008028091060190910701880F991F909386
:107D40000701809306010E94763C853409F4A6C0A1
:107D500080910C028E7F80930C020E94763C8032D0
:107D600009F0B8CE8091C00085FFFCCFF092C6002C
:107D7000609108027091090261157105B9F140E046
:107D800050E080910C02A82FA170B82FB27011C0E2
:107D9000BB2309F45CC0E0910601F0910701319624
:107DA000F0930701E09306014F5F5F4F46175707B7
:107DB000E8F4AA2369F3F999FECF209106013091E6
:107DC000070132BD21BDF89A90B58091C00085FFB2
:107DD000FCCF9093C6002F5F3F4F30930701209355
:107DE00006014F5F5F4F4617570718F38091C00099
:107DF00085FDE5CE8091C00085FFF8CFE0CE81E023
:107E00000E94C73C67CE0E94763C803209F08CCE3F
:107E10008091C00085FFFCCFF092C6008091C00029
:107E200085FFFCCFE092C6008091C00085FFFCCFAB
:107E3000D092C6008091C00085FFFCCFC092C600E2
:107E40008091C00085FFFCCFB092C60043CEE09188
:107E50000601F091070194918091C00085FFFCCF4D
:107E60009093C6009CCF80E10E94C73C33CE0E9415
:107E7000763C0E94763C182F0E94763C112309F430
:107E800083C0113009F484C08FE00E94C73C22CE29
:107E900080910C02816080930C02E5CE80910C02EF
:107EA000816080930C0259CF809107018823880F4D
:107EB000880B8A2180930B02809106019091070123
:107EC000880F991F90930701809306018091080203
:107ED00080FF09C080910802909109020196909359
:107EE000090280930802F894F999FECF1127E091D6
:107EF0000601F0910701C8E0D1E08091080290915D
:107F00000902103091F40091570001700130D9F34B
:107F100003E000935700E89500915700017001308D
:107F2000D9F301E100935700E89509901990009169
:107F3000570001700130D9F301E000935700E89534
:107F40001395103498F011270091570001700130FB
:107F5000D9F305E000935700E895009157000170B0
:107F60000130D9F301E100935700E895329602976A
:107F700009F0C7CF103011F00296E5CF112480919F
:107F8000C00085FFB9CEBCCE8EE10E94C73CA2CD19
:0C7F900085E90E94C73C9ECDF894FFCF0D
:027F9C00800063
:040000030000780081
:00000001FF