:100000000C9409030C94870F0C94600F0C9431032B
:100010000C9431030C9431030C94620A0C94310358
:100020000C9431030C9431030C9431030C94310380
:100030000C9431030C9431030C9431030C94310370
:100040000C94160F0C9431030C94B3160C948D166B
:100050000C9431030C9431030C9431030C94310350
:100060000C94AE0F0C94310307634236B79BD8A7AC
:100070001A39685618AEBAAB558C1D3CB7CC5763CD
:10008000BD6DEDFD753EF6177231BF000000803F7B
:1000900008000000BE922449123EABAAAA2ABECD97
:1000A000CCCC4C3E00000080BEABAAAAAA3E000009
:1000B0000000BF000000803F000000000008417801
:1000C000D3BB4387D1133D190E3CC3BD4282AD2B38
:1000D0003E68EC8276BED98FE1A93E4C80EFFFBE30
:1000E00001C4FF7F3F000000000054534D3A494EC9
:1000F00049540A002154534D3A494E49543A5453F5
:1001000050204641494C0A0054534D3A494E4954F7
:100110003A545350204F4B0A0054534D3A465041E5
:10012000520A002154534D3A465041523A4E4F2004
:100130005245504C590A002154534D3A46504152B1
:100140003A4641494C0A0054534D3A465041523ABE
:100150004F4B0A0054534D3A49443A5245510A0014
:1001600054534D3A49440A002154534D3A49443AB4
:100170004641494C0A0054534D3A49443A4F4B0AC0
:100180000054534D3A55504C0A002154534D3A55A2
:10019000504C3A4641494C0A0054534D3A55504C44
:1001A0003A444757432C4F3D25642C4E3D25640A65
:1001B0000054534D3A55504C3A4F4B0A0054534D4E
:1001C0003A52454144593A49443D25642C504152E4
:1001D0003D25642C4449533D25640A002154534D68
:1001E0003A52454144593A55504C204641494C2CCD
:1001F000534E500A0054534D3A4641494C3A5044EC
:10020000540A0054534D3A4641494C3A434E543DEA
:1002100025640A0054534D3A4641494C3A52452D03
:10022000494E49540A004D434F3A50494D3A4E4FBA
:100230004445205245473D25640A00215453463A1F
:100240004D53473A52454C204D53472C4E52455042
:100250000A005453463A4D53473A42430A00545316
:10026000463A4D53473A41434B0A00215453463ACC
:100270004D53473A504F4E4720524543562C494E16
:100280004143544956450A005453463A4D53473A60
:10029000504F4E4720524543562C48503D25640A46
:1002A000005453463A4D53473A50494E4745442C23
:1002B00049443D25642C48503D25640A002154538F
:1002C000463A4D53473A4650415220494E414354D5
:1002D0004956450A005453463A4D53473A46504111
:1002E00052204F4B2C49443D25642C443D25640A43
:1002F000005453463A4D53473A41434B20524551DF
:100300000A00215453463A4D53473A505645522C11
:1003100025643D25640A00215453463A4D53473A1B
:100320004C454E2C2564213D25640A005453463A21
:100330004D53473A524541442C25642D25642D25C3
:10034000642C733D25642C633D25642C743D256429
:100350002C70743D25642C6C3D25642C73673D2501
:10036000643A25730A005453463A5349443A4F4B72
:100370002C49443D25640A00215453463A534944CC
:100380003A4641494C2C49443D25640A000000008E
:100390000800020100000304070000000000000044
:1003A0000025735453463A4D53473A53454E442C17
:1003B00025642D25642D25642D25642C733D25642D
:1003C0002C633D25642C743D25642C70743D25649C
:1003D0002C6C3D25642C73673D25642C66743D258B
:1003E000642C73743D25733A25730A0021545346D7
:1003F0003A5254453A465041522041435449564599
:100400000A00215453463A534E443A544E520A007D
:100410004D434F3A5245473A5245510A00545346CC
:100420003A5755523A4D533D256C750A004D434F8E
:100430003A42474E3A494E4954204F4B2C54535060
:100440003D25640A004D434F3A42474E3A535450BB
:100450000A004D434F3A42474E3A4246520A004D37
:10046000434F3A42474E3A494E4954204E4F444535
:100470002C43503D524E4E4E412D2D2C5645523D53
:10048000322E312E310A00214D434F3A534E443A19
:100490004E4F4445204E4F54205245470A0000001D
:1004A0000000250028002B00000000002400270089
:1004B0002A000404040404040404020202020202E6
:1004C0000303030303030102040810204080010218
:1004D000040810200102040810204E414E494E49E4
:1004E0005459494E46CDCCCC3D0AD7233C17B7D101
:1004F0003877CC2B329595E6241FB14F0A000020A7
:10050000410000C84200401C4620BCBE4CCA1B0E25
:100510005AAEC59D7400407A10F35A00A0724E186E
:10052000090010A5D4E80000E87648170000E40BA5
:1005300054020000CA9A3B000000E1F5050000806B
:10054000969800000040420F000000A086010000C5
:1005500000102700000000E8030000000064000015
:100560000000000A00000000000100000000002C54
:1005700076D888DC674F0823DFC1DFAE59E1B1B719
:1005800096E5E3E453C63AE651997696E8E6C284E6
:1005900026EB898C9B62ED407C6FFCEFBC9C9F40FE
:1005A000F2BAA56FA5F490055A2AF75C936B6CF923
:1005B000676DC11BFCE0E40D47FEF520E6B500D0F9
:1005C000ED902E0300943577050080841E0800000E
:1005D000204E0A000000C80C333333330F986E12DC
:1005E000831141EF8D2114893BE65516CFFEE6DBE2
:1005F00018D1844B381BF77C1D901DA4BBE424202C
:100600003284725E228100C9F124ECA1E53D27000D
:10061000F31711241FBECFEFD8E0DEBFCDBF12E02D
:10062000A0E0B1E0EAE4F9E402C005900D92A03840
:10063000B107D9F724E0A0E8B2E001C01D92AA3EBC
:10064000B207E1F713E0C9E0D3E004C02197FE014F
:100650000E94B918C830D107C9F70E94E5160C945A
:10066000A3240C9400000F931F930E94AF0D0091E0
:100670000F03109110032091110330911203601B9E
:10068000710B820B930B1F910F9108959C01809128
:100690000D0390910E038217930751F09091170369
:1006A0009F719093170330930E0320930D0305C0A1
:1006B00080911703805E80931703E0910D03F09102
:1006C0000E030190F081E02D309709F009950E940A
:1006D000AF0D60930F0370931003809311039093F9
:1006E00012030895EF92FF920F931F93CF93DF931E
:1006F000CDB7DEB7C857D1090FB6F894DEBF0FBE2D
:10070000CDBF8E010F571F4FF801E190F1908F017F
:100710000E94AF0D4AE00E94D51488EE91E00E943D
:1007200016159801A70168E770E0CE0101960E94B6
:10073000531CCE0101960E94161584E593E00E9499
:10074000B513C858DF4F0FB6F894DEBF0FBECDBF4C
:10075000DF91CF911F910F91FF90EF900895CF936C
:10076000C82F8FEF8C0F8E3F08F5C0935103C093B5
:100770002D0163E082E20E944F1161E081E20E945C
:100780004F110E9460116C2F80E090E00E94402485
:100790001F92CF9386E693E09F938F930E947203FC
:1007A0000F900F900F900F9081E018C01F92CF9381
:1007B00088E793E09F938F930E9472030F900F90AE
:1007C0000F900F9080E090E0892B21F08EE690E072
:1007D0000E9400008FEF8093510380E0CF91089535
:1007E0002F923F924F925F926F927F928F929F9241
:1007F000AF92BF92CF92DF92EF92FF920F931F932F
:10080000CF93DF93CDB7DEB72C970FB6F894DEBF4A
:100810000FBECDBFE0910D03F0910E030280F38176
:10082000E02D309709F009958091170384FB22276A
:1008300020F9298784FF54C386E0D82E90E0E92E62
:1008400090E0F92E9E012F5F3F4F3C832B8320EADF
:10085000822E26E8922EAA24A394B12C34EB432EA8
:100860003BE2532E31E1632E712C21E041E060E048
:1008700070E087E10E941D1180FD32C3DA94DD2013
:1008800009F42EC3E114F10421F081E090E00E940C
:10089000000021E041E060E070E080E60E941D1170
:1008A000C82E30E2381720F482EE0E946D11C12C60
:1008B00021E04C2D66E974E081E60E941D1160E4A0
:1008C00087E20E944F1180919904282F2695269542
:1008D00026952A3108F029E182FD03C077E0720FE6
:1008E00001C070E280919A0487708D8310919B04FF
:1008F00000919704209096043090980486E994E043
:100900002A877C870E9405142A85422F50E09F93F6
:100910008F938091990482FB882780F91F928F938F
:100920001F922F9380919A048295869587701F92CB
:100930008F931F921F931F922D812F9380919C0460
:100940001F928F931F923F921F922F921F920F938D
:10095000ACE2B3E0BF93AF934A875B870E94720318
:100960000FB6F894DEBF0FBECDBF7C854A855B8590
:10097000C71679F0E114F10429F08CE690E00E94AA
:1009800000007C851F927F931F92CF9287E193E0B6
:1009900017C020919904822F83708230E1F0E11416
:1009A000F10421F08DE690E00E9400001F9282E0A9
:1009B0008F938091990483701F928F9382E093E0CC
:1009C0009F938F930E9472030F900F900F900F9040
:1009D0000F900F904ACF809118038068809318037E
:1009E00080915103381254C0822F86958695869542
:1009F0008A3108F089E138E0839FC0011124277013
:100A0000822B80939904FA01EA56FB4F178280915A
:100A10009A0483FF21C081EF92E09F938F930E94FD
:100A2000720381E2E6E9F4E0A5E7B4E001900D92FB
:100A30008A95E1F780917904877F806180937904BA
:100A400080915103809376040093770485E794E0C6
:100A50000E946B120F900F9090919A0494FD0BC01E
:100A60002D81233081F480919B0421EF280F2330C6
:100A700008F050C0FACEAEE5B2E0BF93AF930E944B
:100A800072030F900F9086E994E00E94310BEDCE37
:100A9000FFEF3F1236C0A2E5B2E0BF93AF930E94D2
:100AA00072030F900F902D81233031F58091170341
:100AB00082FF03C0173009F4D8CE183009F4D5CE20
:100AC000143109F0D2CE809152032812CECE0E946A
:100AD000AF0D7370882799270E94750D10915203EE
:100AE00025E143E06FEF802F0E94D713612F0E9412
:100AF000DC100E947311B9CE809152032812B5CE3A
:100B0000C2CFABE3B2E0BF93AF930E9472030F90EA
:100B10000F90ABCE143029F40E94A2140E94AF03B0
:100B2000A4CE183021F51091170310FF1BC00E94AE
:100B3000A2148F3F09F499CE8F5F8F3F09F495CEB1
:100B400090915303891708F090CE11FD8ECE8093BB
:100B50005303009352031F928F931F920F9385EDBF
:100B600092E02ECF8DEB92E09F938F93CECF1831F2
:100B7000C1F40E94A2141F928F931F920F9381EAD7
:100B800092E09F938F930E94720329E143E06FEFFD
:100B9000802F0E94D71361E00E94DC100E94731125
:100BA00013CF1931A9F48091170383FF0EC0877FFB
:100BB000809317030E94A214809319031F928F93AE
:100BC00088E892E09F938F933AC0ABE6B2E09BCF68
:100BD00020919704211180C18D3099F480E090E03C
:100BE000892B21F08BE090E00E94000098E088E1E2
:100BF0000FB6F894A895809360000FBE90936000A4
:100C0000FFCF8B3119F50E94A21491E0811101C030
:100C100090E080911D0390FB80F980931D03E11407
:100C2000F10421F08AE090E00E94000080911D0311
:100C300081701F928F93A6E2B2E0BF93AF930E94A0
:100C400072030F900F900F900F900FCE8630A9F483
:100C500090919D04992329F081E09D3419F080E062
:100C600001C0898580931C0341E050E063E071E09E
:100C70008CE193E00E943024F8CD833119F40E9476
:100C8000B412F3CD8231F1F40E9433036D837E837D
:100C90008F83988726E143E06FEF80E00E94D713AF
:100CA000FC0184818F71806A848383818770806274
:100CB00083838D819E81AF81B88587839087A1874B
:100CC000B287DAC0813001F5A0E0B0E0AB2B09F4C7
:100CD000CCCD929596959770953049F460919D048E
:100CE00070919E0480919F049091A0040AC091117C
:100CF00005C08DE994E00E94B91B03C060E070E07C
:100D0000CB010E940000B1CD8A3009F4AECD8C3108
:100D100009F0B9CE80919D04823509F4A6CD8635BF
:100D2000B1F58EE480937C0066E470E080E090E0B2
:100D30000E94750D80917A00806480937A00809182
:100D40007A0086FDFCCF20907800309079002CE16D
:100D500043E06FEF80E00E94D7138C01FC01848197
:100D60008F71806684838381877080618383910122
:100D700040E050E0C301B2010E947C18D8011896EF
:100D80003C932E931797C8010E946B126ECD863448
:100D900009F052C0F8948FEF86BB10928500109234
:100DA00084001092800010928200909160002DE0EB
:100DB00088E10FB6F894A895809360000FBE209349
:100DC000600080916000806480936000A89585E059
:100DD000809381008091600087FFFCCF109281009A
:100DE000A895809160008861809360009093600076
:100DF000789420908400309085002CE143E06FEFE0
:100E000080E00E94D7138C01FC0184818F71806681
:100E100084838381877080618383C101A0E0B0E017
:100E2000BC01CD014BE0660F771F881F991F4A95C3
:100E3000D1F7A5019401A0CF8D3401F50091E40410
:100E40001091E5040115110511F40AEE14E02CE1EE
:100E500043E06FEF80E00E94D713FC0184818F7123
:100E60008066848383818770806183838B819C818A
:100E7000801B910B90878783CF0186CF853409F043
:100E8000F4CC2CE143E06FEF80E00E94D71368E5DB
:100E900071E00E94E8100E946B1200E010E06FEF1A
:100EA000C8010E9440240F5F1F4F0D39B1E01B079E
:100EB000B1F780E090E0892B21F08BE090E00E9478
:100EC000000098E088E10FB6F894A8958093600040
:100ED0000FBE90936000FFCF8A3109F0D4CDC5CC0E
:100EE0002C960FB6F894DEBF0FBECDBFDF91CF9129
:100EF0001F910F91FF90EF90DF90CF90BF90AF9038
:100F00009F908F907F906F905F904F903F902F9029
:100F100008950F931F930E943303209118032077A5
:100F2000203729F000E117E220E030E004C000E6BD
:100F30001AEE20E030E0061717072807390770F48B
:100F400084E192E09F938F930E9472030F900F9021
:100F50008EE291E01F910F910C9446031F910F9127
:100F6000089580911803982F9077903759F0982F13
:100F700092959F709F5F97709295907F8F78892B45
:100F80008093180380911803829587701F928F9326
:100F900083E092E09F938F930E94720380911703E6
:100FA0008B7F8F7E809317030F900F900F900F9081
:100FB00080E090E0892B21F087E690E00E9400001D
:100FC00085EF91E09F938F930E94720329980F9071
:100FD0000F906CE080E20C944F11809118038F7099
:100FE000863060F08CED91E09F938F930E947203A6
:100FF0000F900F9088E191E00C9446030895809142
:1010000053031F928F93809152031F928F9380916D
:1010100051031F928F938DEB91E09F938F930E94CA
:1010200072038091170384608093170380911803E3
:10103000807880931803E0911A03F0911B038DB719
:101040009EB708960FB6F8949EBF0FBE8DBF30971F
:1010500009F009940895809119038F3F79F10E9456
:10106000AF0D609313037093140380931503909353
:10107000160381EB91E09F938F930E9472039091EE
:101080001903809153030F900F909817A1F01F92AE
:101090009F931F928F9389E991E09F938F930E9472
:1010A000720380911903809353030F900F900F9058
:1010B0000F900F900F9084E191E025C00E943303C0
:1010C000613D77408105910500F1809117038036DD
:1010D00018F480E191E017C08AE891E09F938F9324
:1010E0000E94720380911703877F809317030F90EC
:1010F0000F9080E090E0892B21F08AE690E00E943A
:10110000000088E191E00C944603089581E891E0A5
:101110009F938F930E9472030F900F9080E090E056
:10112000892B21F088E090E00E9400008FEF8093EF
:1011300019038091170388608093170328E143E027
:101140006FEF80E00E94D71361E00E94DC100C94E6
:101150007311809151038F3F99F086E791E09F933F
:101160008F930E9472030F900F9080E090E0892B84
:1011700021F087E090E00E94000080E191E020C033
:101180000E943303613D774081059105D8F080913D
:101190001703803618F48CE091E012C088E691E0E5
:1011A0009F938F930E9472030F900F9080E090E0C6
:1011B000892B21F089E690E00E94000088E091E010
:1011C0000C944603089580E691E09F938F930E94CC
:1011D00072030F900F90809151038F3FE1F480E0F4
:1011E00090E0892B21F086E090E00E94000084E5E9
:1011F00091E09F938F930E94720323E043E06FEF8F
:1012000080E00E94D71363ED71E00E94E8100F9018
:101210000F900C94731108950E943303613D774041
:101220008105910520F48091170381FF0895809135
:1012300052038F3FC1F087E491E09F938F930E9408
:101240007203809117038E7F809317030F900F9086
:1012500080E090E0892B21F085E090E00E94000082
:101260008CE091E021C080911703803658F483E22E
:1012700091E09F938F930E9472030F900F9088E1EB
:1012800091E012C087E391E09F938F930E947203D5
:101290000F900F9080E090E0892B21F088E690E09D
:1012A0000E94000088E091E00C94460389E191E0FF
:1012B0009F938F930E9472030F900F9080E090E0B5
:1012C000892B21F084E090E00E94000080911703B8
:1012D000897F8160809317038FEF809353038093FE
:1012E000520327E043E06FEF0E94D71363ED71E0F4
:1012F0000E94E8100C947311CF93219A229ACFB7D1
:10130000F89480918002811124C0ECEBF4E0849188
:10131000E0EDF4E09491E82FF0E0EE0FFF1FE855C8
:10132000FB4FA591B491EC91E92321F461E08AE0AF
:101330000E94770C8AE00E94E6138CB580618CBD18
:101340008CB580648CBD8DE00E94E6138BE00E941A
:10135000E613809180028F5F80938002CFBF29982F
:101360002A9A6EE080E20E944F1165E070E080E012
:1013700090E00E94750D63E083E20E944F116FE5DB
:1013800084E20E944F116CE485E20E944F1167E2F3
:1013900086E20E944F1163E780E50E944F1166E0EC
:1013A0008DE30E944F1121E041E060E070E086E0B3
:1013B0000E941D11C82F21E041E060E070E085E04F
:1013C0000E941D118C3409F049C0C73209F046C093
:1013D00062E082E20E944F1160E081E20E944F11C0
:1013E00063E08CE30E944F118FEF8093030120E0B4
:1013F00045E063E071E08BE20E941D1120E045E0D2
:1014000063E071E08AE20E941D1120E045E063E0A4
:1014100071E080E30E941D1182EE0E946D1181EE49
:101420000E946D1160E787E20E944F1188E091E011
:101430009F938F930E947203809117038061809322
:101440001703809151030F900F908F3FC1F00E94BE
:10145000AF03811114C088E091E013C084EF90E0E5
:101460009F938F930E9472030F900F9080E090E003
:10147000892B89F387E690E00E940000ECCF88E199
:1014800091E0CF910C9446038AEE90E09F938F9366
:101490000E947203E7E1F3E08081877F8F7E808383
:1014A0001092130310921403109215031092160356
:1014B0000F900F9043E050E060E070E081E593E032
:1014C0000C9418241F920F920FB60F9211240F90B4
:1014D0000FBE0F901F901895FC01918D828D98176B
:1014E00061F0828DDF01A80FB11D5D968C91928D08
:1014F0009F5F9F73928F90E008958FEF9FEF089505
:10150000FC01918D828D981731F0828DE80FF11DCD
:10151000858D90E008958FEF9FEF0895FC01918DE8
:10152000228D892F90E0805C9F4F821B91098F73E1
:101530009927089580E090E0892B29F00E94641398
:1015400081110C94000008953FB7F894809109032D
:1015500090910A03A0910B03B0910C0326B5A89BB0
:1015600005C02F3F19F00196A11DB11D3FBFBA2F35
:10157000A92F982F8827820F911DA11DB11DBC0195
:10158000CD0142E0660F771F881F991F4A95D1F75A
:101590000895089585ED8093BC008091BC0084FD82
:1015A000FCCF1092DE0208954091B802262F30E061
:1015B000240F311D21323105DCF42091DE0224306C
:1015C000C9F4FC0180E090E0861758F43091B8022D
:1015D0002191DC01AA56BD4FA30FB11D2C9301969A
:1015E000F3CF8091B802680F6093B80280E008954D
:1015F00081E0089582E0089508958FEF9FEF0895A8
:101600008FEF9FEF08958091950290E091958195DD
:1016100091090895CF93DF9300D0CDB7DEB7CB010A
:10162000642F49835A830E94D40A4981842F5A81A6
:10163000952F0F900F90DF91CF910895CF93DF9367
:101640001F92CDB7DEB7698361E0CE0101960E949B
:10165000D40A81E090E00F90DF91CF9108950E942D
:10166000631BCF92DF92EF92FF92CF93DF93EC0157
:101670008C81829586958770873029F4CF80D884B5
:10168000E984FA840CC0811107C0CE0107960E943C
:10169000971B6B017C0103C0C12CD12C76018D817D
:1016A0008931C9F18B3109F46FC0883109F0B5C0B7
:1016B000C0929102D0929202E0929302F092940230
:1016C00020E030E048EC52E4C701B6010E94572305
:1016D0000E949E198EE991E00E9440248091F403BB
:1016E000877088628093F4038091F503806E809305
:1016F000F503C092F803D092F903E092FA03F09256
:10170000FB0382E08093FC0381EF93E00E940116CB
:101710008BE591E032C0C0928D02D0928E02E092B1
:101720008F02F092900220E030E048EC52E4C701D2
:10173000B6010E9457230E949E198FE991E00E94F2
:1017400040248091F403877088628093F403809131
:10175000F503806E8093F503C092F803D092F903ED
:10176000E092FA03F092FB0382E08093FC0381EFA6
:1017700093E00E94011685E691E00E941615C701CC
:10178000B6010E941A1649C08C8182958695877091
:10179000823019F44F8158850AC0811106C0CE01EC
:1017A00007960E949B1BAC0102C040E050E028EE6F
:1017B00033E0DA010E949E186093890270938A02D6
:1017C00080938B0290938C02CA016AE070E00E94C1
:1017D000681884EA91E00E94402440918902509167
:1017E0008A0260918B0270918C028091F5038F7157
:1017F000806A8093F5038091F40387708062809300
:10180000F4034093F8035093F9036093FA03709341
:10181000FB0381EF93E00E94011620918D0230912D
:101820008E0240918F0250919002609191027091CE
:10183000920280919302909194020E94BF1860934B
:1018400085027093860280938702909388022EEF20
:101850003FEF4FEF5FEB0E942C1960938102709372
:101860008202809383029093840280E791E00E9439
:10187000C7148DE891E00E9416156D8170E080E03C
:1018800090E04AE00E94D51485EA91E00E94161586
:10189000C701B6010E941A1680E791E0DF91CF914F
:1018A000FF90EF90DF90CF900C94C714FC01848DD3
:1018B000DF01A80FB11DA35ABF4F2C91848D90E07A
:1018C00001968F739927848FA689B7892C93A08955
:1018D000B1898C9180648C93938D848D981306C00C
:1018E0000288F389E02D80818F7D8083089590E0C8
:1018F000FC01E357FC4F3491FC01EA53FB4F249168
:10190000FC01EE54FB4FE491EE2309F43BC033237A
:1019100039F1333091F038F43130A9F0323001F53B
:1019200084B58F7D12C0373091F03830A1F034305B
:10193000B9F4809180008F7D03C0809180008F7703
:10194000809380000DC084B58F7784BD09C08091DD
:10195000B0008F7703C08091B0008F7D8093B0007E
:10196000F0E0EE0FFF1FE256FB4FA591B4918FB749
:10197000F894EC91611103C020952E2301C02E2B09
:101980002C938FBF0895CF92DF92EF92FF928EE952
:1019900091E00E942824682F70E080E090E00E948F
:1019A000F62220E030E048EC52E40E942C196B0152
:1019B0007C016093910270939202809393029093C2
:1019C00094028FE991E00E942824682F70E080E063
:1019D00090E00E94F62220E030E048EC52E40E94C1
:1019E0002C199B01AC0160938D0270938E02809341
:1019F0008F0290939002C701B6010E94BF186093B6
:101A000085027093860280938702909388022EEF5E
:101A10003FEF4FEF5FEB0E942C19609381027093B0
:101A20008202809383029093840284EA91E00E9470
:101A30002824282F30E0A0E1B7E20E94942460938C
:101A4000890270938A0280938B0290938C02109289
:101A50001C0187E00E94E61361E087E00E94770C9A
:101A600080E791E00E94C7148DEA91E00E9416156C
:101A700060919102709192028091930290919402F0
:101A800042E00E94181586EB91E00E94161585E64B
:101A900091E00E94161560918D0270918E028091E6
:101AA0008F029091900242E00E94181582EC91E022
:101AB0000E94C71484EC91E00E941615609189027F
:101AC00070918A0280918B0290918C024AE00E9470
:101AD000D51481ED91E00E94B51480E791E0FF906C
:101AE000EF90DF90CF900C94C7148F929F92AF929B
:101AF000BF92CF92DF92EF92FF926B017C010E9426
:101B0000A40A4B015C01C114D104E104F104F1F019
:101B10000E94A40ADC01CB0188199909AA09BB0912
:101B2000883E9340A105B10570F321E0C21AD108A7
:101B3000E108F10888EE880E83E0981EA11CB11C14
:101B4000C114D104E104F10419F7DDCFFF90EF9047
:101B5000DF90CF90BF90AF909F908F9008952FB758
:101B6000F8946091050370910603809107039091AA
:101B700008032FBF08958F929F92AF92BF92CF928A
:101B8000DF92EF92FF92CF93DF9361E087E00E94B4
:101B9000770CC5E0D0E0C12CD12C760180911C01DE
:101BA00020E4829FC001112480937C0080917A0000
:101BB000806480937A0080917A0086FDFCCF8091CA
:101BC00078002091790090E0922BBC01990F880B4E
:101BD000990B0E94F8229B01AC01C701B6010E943B
:101BE000C0186B017C0162E370E080E090E00E942D
:101BF000750D219799F620E030E040EA50E4C701E6
:101C0000B6010E942C1920E030E040E250E40E942E
:101C1000572320E030E040E85AE30E9457234B016D
:101C20005C0124EA30E74DED5FE30E94D41987FFA1
:101C30002CC020912101309122014091230150912B
:101C40002401C501B4010E94BF18209125013091E3
:101C5000260140912701509128010E942C192091C2
:101C60001D0130911E0140911F01509120010E94E1
:101C7000C0189B01AC0160E070E080E291E40E943A
:101C8000D9190E949E19EB0102C0CFEFDFEF20911E
:101C90009102309192024091930250919402C501B9
:101CA000B4010E94BF1820918102309182024091BC
:101CB0008302509184020E942C1927E238E846E200
:101CC00050E40E94C0189B01AC0160E070E080E22B
:101CD00091E40E94D9190E949E196B017C0184ED48
:101CE00091E00E94161542E0C501B4010E9418154A
:101CF0008DED91E00E9416158AEE91E00E94161576
:101D0000CF3F8FEFD80729F48FEE91E00E94161590
:101D100003C0CE010E945F1684EF91E00E94161569
:101D200082EE91E00E941615C6010E945F1684EFB4
:101D300091E00E94161588EF91E00E9416150E940E
:101D4000AF0D4AE00E94D51482ED91E00E94161575
:101D5000809157048770886280935704809158045B
:101D6000806E8093580480925B0490925C04A092F1
:101D70005D04B0925E0482E080935F0484E594E0A9
:101D80000E940116809137048F718064809337041C
:101D9000809136048770806180933604D0933B0431
:101DA000C0933A0483E394E00E94011680911604E4
:101DB0008F71806480931604809115048770806110
:101DC00080931504D0921A04C092190482E194E021
:101DD0000E94011682ED91E00E941615C0908902C2
:101DE000D0908A02E0908B02F0908C020E94AF0D9E
:101DF0004B015C010E94AF0DDC01CB0188199909F0
:101E0000AA09BB098C159D05AE05BF0520F4A89550
:101E10000E94F003EFCFDF91CF91FF90EF90DF9022
:101E2000CF90BF90AF909F908F9008951F920F9288
:101E30000FB60F9211242F933F938F939F93AF93DD
:101E4000BF938091050390910603A0910703B09181
:101E500008033091040323E0230F2D3720F401966B
:101E6000A11DB11D05C026E8230F0296A11DB11DBD
:101E7000209304038093050390930603A093070324
:101E8000B09308038091090390910A03A0910B037A
:101E9000B0910C030196A11DB11D8093090390938D
:101EA0000A03A0930B03B0930C03BF91AF919F91D2
:101EB0008F913F912F910F900FBE0F901F9018950B
:101EC0001F920F920FB60F9211242F933F934F93AF
:101ED0005F936F937F938F939F93AF93BF93EF9392
:101EE000FF93E0912B01F0912C010995FF91EF9167
:101EF000BF91AF919F918F917F916F915F914F9122
:101F00003F912F910F900FBE0F901F9018951F9229
:101F10000F920FB60F9211242F933F934F935F931D
:101F20006F937F938F939F93AF93BF93EF93FF93A1
:101F3000E0912901F0912A010995FF91EF91BF915C
:101F4000AF919F918F917F916F915F914F913F9151
:101F50002F910F900FBE0F901F9018951F920F9208
:101F60000FB60F9211242F933F934F935F936F936C
:101F70007F938F939F93AF93BF93EF93FF93809142
:101F8000B900887F803609F49CC068F5883209F46E
:101F90005BC090F4803109F454C038F4882309F40C
:101FA000F6C0883009F44DC0F6C0883109F44CC041
:101FB000803209F45DC0EFC0803409F468C048F491
:101FC000803309F455C0883309F0E5C08093DD0201
:101FD000D8C0803509F44FC0883509F45DC0883415
:101FE00009F0D9C0D6C0883909F4C7C0A8F4883729
:101FF00009F467C038F4883609F463C0803709F4FF
:1020000060C0C9C0883809F4B8C0803909F45FC01D
:10201000803809F0C0C05BC0803B09F486C038F44A
:10202000803A09F466C0883A09F47FC0B4C0803CA5
:1020300009F4A7C0883C09F4A4C0883B09F48AC00D
:10204000AAC08091030310C0909102038091010304
:10205000981770F5E091020381E08E0F80930203E0
:10206000F0E0EF51FD4F80818093BB0085EC86C08E
:102070008093DD028EC0E091020381E08E0F809399
:1020800002038091BB00F0E0EF51FD4F80839091FF
:102090000203809101036EC0E091020381E08E0F84
:1020A000809302038091BB00F0E0EF51FD4F8083ED
:1020B0008091E00281116DC081E08093DF0284EAAB
:1020C00061C083E08093DE021092DC02CFCF80916A
:1020D000DC02803208F051C0E091DC0281E08E0F1A
:1020E0008093DC028091BB00F0E0E454FD4F8083DC
:1020F000BDCF85EC8093BC001092DE028091DC02A3
:10210000803230F4E091DC02F0E0E454FD4F1082C4
:102110006091DC0270E0E091BA02F091BB028CEBBE
:1021200092E009951092DC0236C084E08093DE02D2
:102130001092B9021092B802E091B602F091B70283
:1021400009958091B802811105C081E08093B802A1
:1021500010929602E091B90281E08E0F8093B9024D
:10216000F0E0EA56FD4F80818093BB009091B90268
:102170008091B802981708F479CF85E88093BC0065
:102180000AC085EC8093BC001092DE0204C010925D
:10219000DD020E94CA0AFF91EF91BF91AF919F911A
:1021A0008F917F916F915F914F913F912F910F9000
:1021B0000FBE0F901F901895FC0183818770886077
:1021C000838384818F71806284836783CF010895C4
:1021D0000F931F93CF93DF93EC016115710561F0AD
:1021E000FB0101900020E9F73197E61BF70BE9317D
:1021F000F10518F0E9E101C0E0E00E2F10E0C801A0
:1022000023E0880F991F2A95E1F79B819770892B0E
:102210008B838C818F718C83EE2329F0A801CE01F2
:1022200007960E94681BFE01E00FF11F1782CE0186
:10223000DF91CF911F910F91089591E59CBD91E0A1
:102240009DBD2A98E3E2F0E03197F1F78EBD0000E2
:102250000DB407FEFDCF8EB5FB019FEF4150C8F0D6
:10226000222361F09EBD00000DB407FEFDCF8EB5A8
:102270006115710599F380833196F0CFDF011196D6
:1022800080818EBD00000DB407FEFDCF8EB5FD012F
:10229000E5CF2A9AE3E2F0E03197F1F70895CF9382
:1022A000DF931F92CDB7DEB7698320E041E0BE0126
:1022B0006F5F7F4F0E941D110F90DF91CF910895A6
:1022C0006FE080E20E944F1160912D016F3F19F085
:1022D0008AE20E944F11299A089520E040E060E0D0
:1022E00070E00C941D11AF92BF92CF92DF92EF92EB
:1022F000FF920F931F93CF93DF93EC018A8190910C
:10230000170390FF0CC08F3F79F08CEE93E09F9302
:102310008F930E9472030F900F9010E0D0C08F3FF8
:1023200019F00091520301C00FEF8091510388838F
:102330004B8142FD06C046954695469517E0140F21
:1023400001C010E280E090E0892B21F080E090E075
:102350000E940000299883E092E00197F1F76EE077
:1023600080E20E944F118BE891E00197F1F7602F16
:102370008AE20E944F11602F80E30E944F1181EE8C
:102380000E946D110F3F11F080EA01C080EB412FD8
:10239000113208F040E220E0BE010E941D11299A8E
:1023A000E12CF12C8FEF0E946D11182F807321F416
:1023B00081E0E81AF108B1F7299860E387E20E940A
:1023C0004F1114FF03C081EE0E946D110E94601135
:1023D00015FB112710F981E00F3F09F080E0182B61
:1023E000CE010E940514111103C0EBE0F2E002C01F
:1023F000E8E5F1E0609118036F702B8122FBAA24BD
:10240000A0F8322F3695369536952C81B22EB2949F
:10241000B69447E0B422CD802770DE80EA80A02FFA
:10242000B0E0F8807981111103C040E152E002C0B0
:1024300043ED51E09F938F93FF93EF931F926F9320
:102440001F92AF921F923F931F92BF921F92CF9203
:102450001F922F931F92DF921F92EF92BF93AF9321
:102460001F92FF921F927F935F934F9381EA93E0B5
:102470009F938F930E9472038DB79EB74E960FB6AF
:10248000F8949EBF0FBE8DBF80915203081317C0F2
:10249000111110C080E090E0892B21F085E690E0DA
:1024A0000E9400008091180391E0980F9F70807F38
:1024B000892B03C080911803807F80931803812F9C
:1024C000DF91CF911F910F91FF90EF90DF90CF9010
:1024D000BF90AF9008952091170322FD0C947311C3
:1024E00082E094E09F938F930E9472030F900F906D
:1024F00080E008952BE043E06FEF80E00E94D71367
:1025000062E172E00E94E8100E946B122CE043E04E
:102510006FEF80E00E94D7136DE172E00E94E81037
:102520000E946B1241E252E06EE181E00E94EC15E4
:1025300047E252E066E182E00E94EC1544E352E09B
:1025400066E184E00E94EC1543E452E06EE183E032
:102550000E94EC154DE452E067E18EEF0E94EC150D
:1025600088E592E00C941615CF9380E090E0892BDB
:1025700021F08CE090E00E9400002FE043E06FEF3C
:1025800080E00E94D71363ED71E00E94E810809113
:1025900078048770806180937804809179048F71CA
:1025A000806C8093790481E080937C0410927D0498
:1025B00085E794E00E946B128FE00E94291643ED9C
:1025C00051E061E18FEF0E94EC15C091520326E0CB
:1025D00043E06FEF80E00E94D7136C2F0E94DC1065
:1025E0000E946B1286E00E942916CF910C947A12F9
:1025F000CF9380911D0381FD2FC00E94B41280E112
:1026000094E09F938F930E9472030F900F9080E04D
:1026100090E0892B21F089E090E00E9400008091F9
:102620001D03816080931D03C4E02AE143E06FEF46
:1026300080E00E94D71362E00E94DC100E946B12BF
:102640008BE10E942916811102C0C15071F780915F
:102650001D03826080931D03CF910895E091540380
:10266000F09155030190F081E02D682F84E593E00F
:102670000994CF92DF92EF92FF920F931F93CF9323
:10268000DF936C017A018B01C0E0D0E0CE15DF054D
:1026900089F0D8016D918D01D601ED91FC910190E9
:1026A000F081E02DC6010995892B11F47E0102C04D
:1026B0002196ECCFC701DF91CF911F910F91FF9031
:1026C000EF90DF90CF90089584E593E00E948E0A0A
:1026D00021E0892B09F420E0822F0895EF92FF92E8
:1026E0000F931F93CF93DF93EC0181E0888F9B8D35
:1026F0008C8D981305C0E889F989808185FD24C0F7
:10270000F62E0B8D10E00F5F1F4F0F731127E02E79
:102710008C8DE8120CC00FB607FCFACFE889F98956
:10272000808185FFF5CFCE010E94560CF1CF8B8DB5
:10273000FE01E80FF11DE35AFF4FF0820B8FEA898B
:10274000FB898081806207C0EE89FF896083E88908
:10275000F98980818064808381E090E0DF91CF916E
:102760001F910F91FF90EF900895CF93DF93EC01AD
:10277000888D8823C9F0EA89FB89808185FD05C0A1
:10278000A889B9898C9186FD0FC00FB607FCF5CFDB
:10279000808185FFF2CFA889B9898C9185FFEDCF23
:1027A000CE010E94560CE7CFDF91CF910895E5E767
:1027B000F4E090915103918382836683258347706F
:1027C0008481807E482B4483CF01089590E0FC01F2
:1027D000EA53FB4F2491FC01EE54FB4F8491882374
:1027E00099F090E0880F991FFC01E855FB4FA591E7
:1027F000B491FC01E256FB4F859194918FB7F89408
:10280000EC91E22BEC938FBF08950F931F93CF931E
:10281000DF93EC018C8182958695877091F44B81D2
:1028200046954695469550E0BE01695F7F4F8EE123
:1028300093E00E94681BEB81E695E695E695F0E053
:1028400077C0813031F48F814AE06EE173E090E02F
:1028500007C0823041F44AE06EE173E08F819885D1
:102860000E94E01B68C0833041F44AE06EE173E0EF
:102870008F8198850E94391C5EC0843051F46F812D
:10288000788589859A852AE04EE153E00E94EB1B0A
:1028900052C0853051F46F81788589859A852AE008
:1028A0004EE153E00E94171C46C0873071F42B851F
:1028B000293008F028E06F81788589859A850EE1B6
:1028C00013E042E00E94771B36C08630A1F520E07D
:1028D000EB81E695E695E6952E1738F5E22FF0E0C8
:1028E000AF01440F551FDA01A25EBC4FEC0FFD1F74
:1028F0008781082E000C990B34E0959587953A95C1
:10290000E1F78F708A3010F4805D01C0895C8C9390
:10291000DA01A15EBC4F87818F708A3010F4805D30
:1029200001C0895C8C932F5FD3CFF0E0EE0FFF1FC7
:10293000E25EFC4F10828EE193E0DF91CF911F9118
:102940000F91089580919A048295869587708130C1
:1029500019F480919D040895811105C08DE994E0DA
:102960000E949B1B089580E00895009769F0FC0188
:1029700001900020E9F73197AF01481B590BBC01CA
:1029800084E593E00C94391380E090E00895CF93B0
:10299000DF930E94B514EC0181ED91E00E94B51423
:1029A0008C0F9D1FDF91CF9108958F929F92AF92D0
:1029B000BF920F931F93CF93DF93CDB7DEB7A1974D
:1029C0000FB6F894DEBF0FBECDBF19A2423008F497
:1029D0004AE08E010F5D1F4F842E912CA12CB12C4B
:1029E000A50194010E947C18E62FB901CA0101508B
:1029F0001109EA3014F4E05D01C0E95CD801EC9300
:102A0000232B242B252B61F7C8010E94B514A19616
:102A10000FB6F894DEBF0FBECDBFDF91CF911F91EF
:102A20000F91BF90AF909F908F9008950C94B51424
:102A30004F925F926F927F928F929F92AF92BF92CE
:102A4000CF92DF92EF92FF926B017C01B42E9B013B
:102A5000AC010E94291A882319F08DE692E027C064
:102A600026013701E89477F82FEF3FEF4FE75FE754
:102A7000C301B2010E94291A81110DC02FEF3FEF4F
:102A80004FE75FE7C301B2010E94F12218161CF460
:102A900081E792E00CC02FEF3FEF4FE75FE4C70103
:102AA000B6010E94D419181684F485E792E0FF90CD
:102AB000EF90DF90CF90BF90AF909F908F907F90DE
:102AC0006F905F904F900C94B5142FEF3FEF4FE74E
:102AD0005FECC701B6010E94F12287FDE6CF20E03E
:102AE00030E0A901C701B6010E94F12287FF09C0A9
:102AF0008DE20E942E134C01F7FAF094F7F8F0944F
:102B000002C0812C912CA12C60E070E080E09FE35A
:102B1000AB1441F020E030E040E251E40E942C1977
:102B2000A394F6CF9B01AC01C701B6010E94C01867
:102B30002B013C010E94A5196B017C010E94F62229
:102B40009B01AC01C301B2010E94BF182B013C01E3
:102B50004AE0C701B6010E94D5147C01E80CF91CBB
:102B6000BB2029F08EE20E942E13E80EF91EDB2C0A
:102B7000DD2021F120E030E040E251E4C301B20168
:102B80000E9457232B013C010E94A5194B01A12C47
:102B9000B12C4AE0C501B4010E94D514E80EF91E1B
:102BA000C501B4010E94F6229B01AC01C301B20130
:102BB0000E94BF182B013C01DA94DACFC701FF90C5
:102BC000EF90DF90CF90BF90AF909F908F907F90CD
:102BD0006F905F904F900895CF93DF93262F8F3F94
:102BE00011F0EA0102C0C9E7D2E040E0682F80E0BE
:102BF0000E94D713BE010E94E810DF91CF910C9480
:102C00006B12FC018091510381839481907F9160CC
:102C1000948380911D0380FF03C0CF010C946B123D
:102C200087E894E09F938F930E9472030F900F9018
:102C300080E00895CF93DF9342E00E941815EC01E5
:102C400081ED91E00E94B5148C0F9D1FDF91CF9113
:102C50000895CF92DF92EF92FF92CF93DF93D82F18
:102C60000E94AF0D6B017C0181E0D11180E0809367
:102C70009B04C0E00E94AF0DAB01BC014C195D0983
:102C80006E097F09403D57406105710580F4C1110F
:102C90000EC0A8950E94F00390919A04977093300B
:102CA00049F7C1E080919B048D13E3CFE3CF8C2FD4
:102CB000DF91CF91FF90EF90DF90CF900895CF926A
:102CC000DF92EF92FF92CF93DF936C01990FEE08A2
:102CD000FF08F7FE17C08DE20E942E13EC01662755
:102CE0007727CB016C197D098E099F094AE00E9464
:102CF000D5148C0F9D1FDF91CF91FF90EF90DF9047
:102D0000CF9008954AE0C701B601DF91CF91FF90BF
:102D1000EF90DF90CF900C94D5141F920F920FB6C6
:102D20000F9211242F933F934F935F936F937F9351
:102D30008F939F93AF93BF93EF93FF9384E593E0BB
:102D40000E94560CFF91EF91BF91AF919F918F918F
:102D50007F916F915F914F913F912F910F900FBE97
:102D60000F901F9018951F920F920FB60F9211247B
:102D70002F938F939F93EF93FF93E0916403F091D0
:102D800065038081E0916A03F0916B0382FD12C0BC
:102D9000908180916D038F5F8F7320916E038217F6
:102DA00051F0E0916D03F0E0EC5AFC4F958F809369
:102DB0006D0301C08081FF91EF919F918F912F91C1
:102DC0000F900FBE0F901F901895789484B5826075
:102DD00084BD84B5816084BD85B5826085BD85B5BF
:102DE000816085BD80916E00816080936E0010923D
:102DF00081008091810082608093810080918100B8
:102E00008160809381008091800081608093800048
:102E10008091B10084608093B1008091B0008160A6
:102E20008093B00080917A00846080937A008091D2
:102E30007A00826080937A0080917A00816080932A
:102E40007A0080917A00806880937A001092C100A5
:102E5000A89580E090E0892B11F00E940000E0919D
:102E60006403F091650382E08083E0916003F09158
:102E700061031082E0916203F091630380E180833B
:102E800010926C03E0916803F091690386E08083FF
:102E9000E0916603F0916703808180618083E09117
:102EA0006603F0916703808188608083E091660308
:102EB000F0916703808180688083E0916603F091E0
:102EC000670380818F7D80838FE594E09F938F934C
:102ED0000E94720380911D038D7F80931D030F90CC
:102EE0000F9080E090E0892B51F082E594E09F9371
:102EF0008F930E9472030E9400000F900F9041E098
:102F000050E063E071E08CE193E00E9418246FEFE1
:102F100081E090E00E944024809118038F78809394
:102F2000180310920E0310920D038EE291E00E949E
:102F3000460388EF92E190931B0380931A031F923C
:102F40001F921F921F928DE194E09F938F930E9496
:102F500072030E94AF0D0F900F900F900F900F9083
:102F60000F900E94AF0D0E94F003A8958091170367
:102F700082FFF7CF85E494E09F938F930E947203C2
:102F80000E94C30C0F900F908091170382FB88273B
:102F900080F91F928F938DE294E09F938F930E940C
:102FA0007203A8950F900F900F900F90A8950E9414
:102FB000F0030E94BB0D0E949A0AF8CFCF93DF93D3
:102FC000FC01108211821282148215821682DC01A9
:102FD00017968AE1ED0119928A95E9F782E08383D9
:102FE000DF91CF910895CF93DF93E4E5F3E013826F
:102FF000128288EE93E0A0E0B0E084839583A683FC
:10300000B7832CE331E03183208325EC30E0358732
:10301000248724EC30E03787268720EC30E0318BA2
:10302000208B21EC30E0338B228B22EC30E0358B8F
:10303000248B26EC30E0378B268B118E128E138E6C
:10304000148EE7EBF4E01382128284839583A683C7
:10305000B7838CE491E09183808386E994E00E94B9
:10306000DE1785E794E00E94DE1784E594E00E9475
:10307000DE17E4E5F4E081E08683D6E2D58383E3DE
:1030800094E00E94DE17E3E3F4E082E08683C5E289
:10309000C58383EC94E00E94DE17E3ECF4E083E068
:1030A0008683D58382E194E00E94DE17E2E1F4E0BA
:1030B00084E08683C58381EF93E00E94DE17E1EF11
:1030C000F3E08EEF868380E38583DF91CF910895CF
:1030D00097FB072E16F4009407D077FD09D00E94C5
:1030E000A51807FC05D03EF4909581959F4F089553
:1030F000709561957F4F0895A1E21A2EAA1BBB1B04
:10310000FD010DC0AA1FBB1FEE1FFF1FA217B307B3
:10311000E407F50720F0A21BB30BE40BF50B661FC9
:10312000771F881F991F1A9469F76095709580958D
:1031300090959B01AC01BD01CF0108950E9494249C
:10314000B7FF0895821B930B0895AA1BBB1B51E187
:1031500007C0AA1FBB1FA617B70710F0A61BB70B07
:10316000881F991F5A95A9F780959095BC01CD01AC
:103170000895EE0FFF1F0590F491E02D099450582B
:10318000BB27AA270E94D7180C94DE230E94D023C5
:1031900038F00E94D72320F039F49F3F19F426F429
:1031A0000C94CD230EF4E095E7FB0C94C723E92F94
:1031B0000E94EF2358F3BA17620773078407950735
:1031C00020F079F4A6F50C9411240EF4E0950B2E62
:1031D000BA2FA02D0B01B90190010C01CA01A00169
:1031E0001124FF27591B99F0593F50F4503E68F1C4
:1031F0001A16F040A22F232F342F4427585FF3CF05
:10320000469537952795A795F0405395C9F77EF4D5
:103210001F16BA0B620B730B840BBAF09150A1F01E
:10322000FF0FBB1F661F771F881FC2F70EC0BA0FA4
:10323000621F731F841F48F4879577956795B7952C
:10324000F7959E3F08F0B0CF9395880F08F0992727
:10325000EE0F9795879508950E9440190C94DE23F0
:103260000E94D72358F00E94D02340F029F45F3FFA
:1032700029F00C94C72351110C9412240C94CD23E3
:103280000E94EF2368F39923B1F3552391F3951B23
:10329000550BBB27AA2762177307840738F09F5F77
:1032A0005F4F220F331F441FAA1FA9F335D00E2EE4
:1032B0003AF0E0E832D091505040E695001CCAF751
:1032C0002BD0FE2F29D0660F771F881FBB1F261714
:1032D00037074807AB07B0E809F0BB0B802DBF01EB
:1032E000FF2793585F4F3AF09E3F510578F00C94BA
:1032F000C7230C9412245F3FE4F3983ED4F38695E1
:1033000077956795B795F7959F5FC9F7880F911DDA
:103310009695879597F90895E1E0660F771F881FC6
:10332000BB1F621773078407BA0720F0621B730B79
:10333000840BBA0BEE1F88F7E09508950E94A5193B
:103340006894B1110C94122408950E94F72388F018
:103350009F5798F0B92F9927B751B0F0E1F0660F59
:10336000771F881F991F1AF0BA95C9F714C0B1309A
:1033700091F00E941124B1E008950C941124672F5C
:10338000782F8827B85F39F0B93FCCF386957795C9
:103390006795B395D9F73EF49095809570956195B2
:1033A0007F4F8F4F9F4F08950E94332308F48FEF74
:1033B0000895FA01EE0FFF1F309621053105A1F1A6
:1033C0006115710561F48038BFE39B0749F168948A
:1033D0009038810561F08038BFEF9B0741F0992359
:1033E0004AF5FF3FE1053105210519F1E8940894FC
:1033F000E795D901AA2329F4AB2FBE2FF85FD0F3AC
:1034000010C0FF5F70F4A695E0F7F73950F019F09F
:10341000FF3A38F49F779F930DD00F9007FC905898
:10342000089546F00C94CD2360E070E080E89FE3BF
:1034300008954FE79F775F934F933F932F930E9499
:10344000D91A2F913F914F915F910E9457230C946D
:10345000361A0E943323880B990B089529F416F02D
:103460000C94C7230C9411240C94CD230E94F723B1
:10347000A8F39638A0F707F80F92E8942BE33AEAFE
:1034800048EB5FE70E946D230F920F920F924DB7AA
:103490005EB70F920E94211BE8E6F0E00E94681AD6
:1034A0004F915F91EF91FF91E595EE1FFF1F49F05E
:1034B000FE57E0684427EE0F441FFA95E1F7419567
:1034C000550B0E949B1A0F9007FE0C948F1A0895BB
:1034D000DF93CF931F930F93FF92EF92DF927B01C5
:1034E0008C01689406C0DA2EEF010E946A23FE0167
:1034F000E894A5912591359145915591A6F3EF0159
:103500000E94D718FE019701A801DA9469F7DF90AD
:10351000EF90FF900F911F91CF91DF9108959B0144
:10352000AC0160E070E080E89FE30C942C190C94EF
:10353000C7230C94551B0E94F723D8F39923C9F392
:10354000940F511DA3F39150504094F059F08823EB
:1035500032F0660F771F881F91505040C1F79E3F91
:1035600051052CF7880F911D9695879597F9089529
:103570005F3FACF0983E9CF0BB27869577956795AA
:10358000B79508F4B1609395C1F7BB0F58F711F4E4
:1035900060FFE8CF6F5F7F4F8F4F9F4FE3CF0C945B
:1035A000122416F00C94551B0C94CD2368940C94A3
:1035B000C7230E94F723A8F39923C1F3AEF3DF9347
:1035C000CF931F930F93FF92C92FDD2788232AF0F3
:1035D0002197660F771F881FDAF720E030E040E878
:1035E0005FEB9FE3883920F0803E38F021968F779B
:1035F0000E94C018E0E9F0E004C00E94C018EDEBA2
:10360000F0E00E94681A8B01BE01EC01FB2E6F579F
:1036100071097595771F880B990B0E94F82228E194
:1036200032E741E35FE30E946A23AF2D9801AE01C8
:10363000FF900F911F91CF91DF910E94D7180C94AA
:10364000DE23FA01DC01AA0FBB1F9B01AC01BF57AF
:1036500028F4222733274427507820C0B75190F40C
:10366000AB2F0024469537952795011CA395D2F3DF
:10367000002071F0220F331F441FB395DAF30ED0F0
:103680000C94BF1861307105A0E88A07B94630F480
:103690009B01AC016627772788279078309621F028
:1036A000208331834283538308959F3F31F09150AB
:1036B00020F4879577956795B795880F911D969516
:1036C000879597F9089581E090E0F8940C94A324ED
:1036D000FB01DC014150504048F001900D92002068
:1036E000C9F701C01D9241505040E0F70895EF9294
:1036F0000F931F93CF93DF93E80147FD02C034E09F
:1037000001C034E1E42F440FFF0BF7FF03C0F19534
:10371000E195F109E32E022F2E2FAE010E94511EDA
:10372000CE01DF91CF911F910F91EF900895662701
:1037300077270C94DF1FFC0188279927E8942191B3
:103740002032E9F3293010F02E30C8F32B3241F04B
:103750002D3239F4689404C00E940F1C820F911D11
:10376000219120532A30C0F31EF4909581959F4FEC
:1037700008951F93FC0199278827BC01E8941191B3
:103780001032E9F3193010F01E30C8F31B3251F03B
:103790001D3249F4689406C00E94FA1B610F711D26
:1037A000811D911D119110531A30B0F33EF4909584
:1037B0008095709561957F4F8F4F9F4F1F91089512
:1037C000BB274A3031F4992322F4BDE290958195CC
:1037D0009F4F0C943A1CBB272A3051F4992342F492
:1037E000BDE290958095709561957F4F8F4F9F4F6B
:1037F0000C94181C592F482F372F262F660F771F30
:10380000881F991F660F771F881F991F620F731FEC
:10381000841F951F660F771F881F991F08957AE0F0
:10382000979F902D879F802D910D11240895BB2780
:10383000FA01A62F6217710581059105330B30FB44
:1038400066F0AA27660F771F881F991FAA1FA21765
:1038500010F0A21B63953850A9F7A05DAA3308F0B9
:10386000A95DA19336F7B111B1931082CA010C94EE
:103870004B22BB27FB015527AA27880F991FAA1F98
:10388000A41710F0A41B83955051B9F7A05DAA337B
:1038900008F0A95DA193009779F7B111B193119246
:1038A000CB010C944B22AEE0B0E0E9E5FCE10C94D6
:1038B0006B248C01CA014EE04C831A83098377FF85
:1038C00002C060E070E8FB013197FE83ED83A9013F
:1038D000BC01CE0101960E947F1C4D815E8157FD87
:1038E0000AC02F813885421753070CF49A01F8015A
:1038F000E20FF31F10822E96E4E00C948724ACE0D4
:10390000B0E0E5E8FCE10C945D247C016B018A01E8
:10391000FC0117821682838181FFBDC1CE01019611
:103920004C01F7019381F60193FD859193FF8191FD
:103930006F01882309F4ABC1853239F493FD859179
:1039400093FF81916F01853229F4B70190E00E94C5
:103950005B22E7CF512C312C20E02032A0F48B32B7
:1039600069F030F4803259F0833269F420612CC060
:103970008D3239F0803339F4216026C02260246012
:1039800023C0286021C027FD27C030ED380F3A3012
:1039900078F426FF06C0FAE05F9E300D1124532E06
:1039A00013C08AE0389E300D1124332E20620CC0E3
:1039B0008E3221F426FD6BC1206406C08C3611F4D2
:1039C000206802C0883641F4F60193FD859193FF8B
:1039D00081916F018111C1CF982F9F7D95549330B4
:1039E00028F40C5F1F4FFFE3F9830DC0833631F0DD
:1039F000833771F0833509F05BC022C0F801808104
:103A000089830E5F1F4F44244394512C540115C0E9
:103A10003801F2E06F0E711CF801A080B18026FF22
:103A200003C0652D70E002C06FEF7FEFC5012C87EA
:103A30000E9440222C0183012C852F77222E17C053
:103A40003801F2E06F0E711CF801A080B18026FFF2
:103A500003C0652D70E002C06FEF7FEFC5012C87BA
:103A60000E9435222C012C852068222E830123FC04
:103A70001BC0832D90E048165906B0F4B70180E2D0
:103A800090E00E945B223A94F4CFF50127FC8591E7
:103A900027FE81915F01B70190E00E945B22311007
:103AA0003A94F1E04F1A51084114510471F7E5C0FE
:103AB000843611F0893639F5F80127FF07C0608197
:103AC0007181828193810C5F1F4F08C06081718179
:103AD000072E000C880B990B0E5F1F4F2F76722E4E
:103AE00097FF09C090958095709561957F4F8F4F96
:103AF0009F4F2068722E2AE030E0A4010E9493229A
:103B0000A82EA81844C0853729F42F7EB22E2AE0AB
:103B100030E025C0F22FF97FBF2E8F36C1F018F4A8
:103B2000883579F0B4C0803719F0883721F0AFC0FC
:103B30002F2F2061B22EB4FE0DC08B2D8460B82EC5
:103B400009C024FF0AC09F2F9660B92E06C028E046
:103B500030E005C020E130E002C020E132E0F801B1
:103B6000B7FE07C060817181828193810C5F1F4F16
:103B700006C06081718180E090E00E5F1F4FA4015C
:103B80000E949322A82EA818FB2DFF777F2E76FE89
:103B90000BC0372D3E7FA51450F474FE0AC072FC92
:103BA00008C0372D3E7E05C0BA2C372D03C0BA2C75
:103BB00001C0B52C34FF0DC0FE01EA0DF11D80815E
:103BC000803311F4397E09C032FF06C0B394B39438
:103BD00004C0832F867809F0B39433FD13C030FFFF
:103BE00006C05A2CB31418F4530C5B18B32CB3143E
:103BF00068F4B70180E290E03C870E945B22B394B6
:103C00003C85F5CFB31410F43B1801C0312C34FFC0
:103C100012C0B70180E390E03C870E945B223C85A4
:103C200032FF17C031FD03C088E790E002C088E58D
:103C300090E0B7010CC0832F867859F031FF02C0A5
:103C40008BE201C080E237FD8DE2B70190E00E9477
:103C50005B22A51438F4B70180E390E00E945B2258
:103C60005A94F7CFAA94F401EA0DF11D8081B701AF
:103C700090E00E945B22A110F5CF332009F451CED1
:103C8000B70180E290E00E945B223A94F6CFF70100
:103C90008681978102C08FEF9FEF2C96E2E10C9412
:103CA00079244F925F926F927F929F92AF92BF92D0
:103CB000CF92DF92EF92FF920F931F93CF93DF93F8
:103CC000CDB7DEB729970FB6F894DEBF0FBECDBFD4
:103CD0006A01122FB02E2BE3201720F0FF24F3945B
:103CE000F00E02C0BCE3FB2E0F2D27E0AE014F5FAC
:103CF0005F4F0E943C21AC018981982F99709130CF
:103D000031F0E1FC06C0E0FE06C090E205C09DE295
:103D100003C09BE201C090E0EE2DE07183FF3CC048
:103D2000911102C083E001C084E0811718F4212FB3
:103D3000281B01C020E0E1110BC0F601822F30E208
:103D4000882319F031938150FBCFC20ED11C20E0A3
:103D5000992329F0D6019C93F60131966F01C60193
:103D60000396E2FE0AC03EE4D6013C9341E411967C
:103D70004C93119712963C9306C03EE6F6013083B1
:103D800041E641833283FC01322F40E2332309F4C0
:103D900042C041933150FACF82FF44C0911102C01A
:103DA00083E001C084E0811718F4212F281B01C093
:103DB00020E0E1110BC0F601822F30E2882319F0D8
:103DC00031938150FBCFC20ED11C20E0992329F002
:103DD000D6019C93F60131966F01C6010396E2FE6F
:103DE0000BC039E4D6013C933EE411963C93119705
:103DF00036E412963C9307C039E6F60130833EE67E
:103E0000318336E63283FC01322F40E2332319F04E
:103E100041933150FBCFFC01E20FF11D10828EEF78
:103E20009FEFB7C0F1E0911101C0F0E06F2F70E09B
:103E30001416150624F49A012F5F3F4F02C021E0AB
:103E400030E0260F371FBB2029F06B2D70E06F5F2D
:103E50007F4F02C060E070E0260F371F612F70E0D7
:103E6000261737071CF4121B212F01C020E03E2D1E
:103E7000387159F4D601322F60E2332319F06D9373
:103E80003150FBCFC20ED11C20E0FF2331F0D60110
:103E90009C93B6016F5F7F4F6B01E1110BC0F60180
:103EA000922F30E3992319F031939150FBCFC20E3A
:103EB000D11C20E09F2D940F3A81782F7071A72E8E
:103EC00084FF03C0313309F49150191624F499305A
:103ED00018F098E001C091E0E42F852F57FF02C051
:103EE000E0E080E06E2F782FE0E0F0E0AEE29A2E86
:103EF0003A01691A71082A01461A570A0B2D10E077
:103F00001195019511096F3F8FEF780729F4D601BC
:103F10009C92C60101966C014617570784F06616FD
:103F200077066CF47F01E40CF51CA1E0B0E0AC0F67
:103F3000BD1FEA0EFB1ED7011196BC9002C090E394
:103F4000B92E615071093196C60101967C01601746
:103F5000710724F0D601BC926C01D5CF64177507A8
:103F600041F4363320F4353321F4A11002C081E34B
:103F7000B82EF601B082F701822F90E2882319F063
:103F800091938150FBCFF701E20FF11D108280E089
:103F900090E029960FB6F894DEBF0FBECDBFDF913B
:103FA000CF911F910F91FF90EF90DF90CF90BF9036
:103FB000AF909F907F906F905F904F900895A0E09A
:103FC000B0E0E5EEFFE10C946124EC017B016115AA
:103FD000710519F0DB018D939C938E010F5F1F4FCC
:103FE0007880872D90E00E941422892B11F0E8013F
:103FF000F4CFBDE27B1205C00F5F1F4F7980C1E097
:1040000008C0EBE27E1204C08E010E5F1F4F798064
:10401000C0E06801F1E0CF1AD10843E050E062EE61
:1040200074E0C6010E941D22892BF1F4680122E090
:10403000C20ED11C45E050E06DED74E0C6010E9457
:104040001D22892B21F4680187E0C80ED11CE114E0
:10405000F10419F0D701CD92DC92C111FFC060E0EC
:1040600070E080E89FE703C143E050E06AED74E050
:10407000C6010E941D22892B51F4E114F10409F4B8
:10408000F2C00E5F1F4FF70111830083ECC068017F
:1040900060E070E0CB0100E010E0F601D0EDD70D5C
:1040A000DA3058F52C2F2260622E2C2F2870C2FF98
:1040B00005C0211128C00F5F1F4F25C0222311F01A
:1040C00001501109A5E0B0E09B01AC010E9452240F
:1040D0004B015C01880C991CAA1CBB1CC501B401D6
:1040E0006D0F711D811D911D6839A9E97A078A0735
:1040F000A9E19A0740F0C66005C0DE3F51F4C3FD58
:1041000044C0C8606C2EBFEFCB1ADB0A7080C62D8E
:10411000C4CF2D2F2F7D2531C1F540814D3211F4B3
:10412000C06106C04B3221F0319621E030E006C07C
:104130003296D60111964C9122E030E0A0EDA40F0A
:10414000AA3018F0E21BF30B20C040E050E04038EA
:10415000BCE05B075CF49A01220F331F220F331F70
:10416000420F531F440F551F4A0F511D3196DF0157
:1041700011972C91A0EDA20FAA3048F3C4FF03C001
:10418000519541955109040F151FC1FF07C0E11456
:10419000F10421F03197D701ED93FC930E94F622B0
:1041A000C370C33019F06B017C0106C06B017C0148
:1041B000F7FAF094F7F8F09420E030E0A901C70195
:1041C000B6010E94F122882309F445C017FF06C0FA
:1041D000119501951109C9EFD4E002C0C1E1D5E004
:1041E0005E01B8E1AB1AB1084601BE2DAF2D90E2D9
:1041F000E92EF12C0E151F0584F0FE012591359155
:1042000045915491B4018B2F9A2F0E9457234B0153
:10421000B82FA92F0E191F09EDCF2497F594E79415
:10422000CA15DB0539F76401EB2EFA2E8E2D880FA7
:104230008F2D881F8F3F49F020E030E0A901C70192
:10424000B6010E94F122811106C082E290E09093B3
:10425000E9048093E804C701B60109C060E070E09A
:1042600080E89FEF04C060E070E080EC9FE7CDB78E
:10427000DEB7EEE00C947D24283008F027E03327E9
:10428000DA01990F311D87FD916000966105710576
:1042900039F432602E5F3D9330E32A95E1F70895BB
:1042A0009F3F30F080387105610509F03C5F3C5F4D
:1042B0003D93913008F08068911DDF93CF931F9359
:1042C0000F93FF92EF92192F987F9695E92F96956D
:1042D0009695E90FFF27E159FA4F99273327EE24E6
:1042E000FF24A701E70105900894079428F4360FEE
:1042F000E71EF81E491F511D660F771F881F991F63
:104300000694A1F70590079428F4E70EF81E491FBC
:10431000561FC11D770F881F991F661F0694A1F7AE
:104320000590079428F4F80E491F561FC71FD11D8A
:10433000880F991F661F771F0694A1F705900794B1
:1043400020F4490F561FC71FD81F990F661F771FEC
:10435000881F0694A9F784911095177041F0D6959F
:10436000C79557954795F794E7941A95C1F7E5E1F6
:10437000F5E06894159015913591659195910590AA
:104380007FE27395E118F10A430B560BC90BD00974
:10439000C0F7E10CF11E431F561FC91FD01D7EF44C
:1043A000703311F48A95E6CFE894015030F0080F8D
:1043B0000AF40027021708F4202F2395022F7A33DE
:1043C00028F079E37D932A95E9F710C07D932A952B
:1043D00089F6069497956795379517951794E11880
:1043E000F10A430B560BC90BD00998F023957E9127
:1043F00073957A3308F070E37C932013B8F77E91BD
:1044000070617D9330F0839571E37D9370E32A951D
:10441000E1F71124EF90FF900F911F91CF91DF9161
:10442000992787FD9095089591110C94C4238032AB
:1044300019F089508550C8F70895FB01DC014150FF
:10444000504088F08D9181341CF08B350CF4805EE7
:10445000659161341CF06B350CF4605E861B611154
:1044600071F3990B0895881BFCCFFC0105906150F6
:1044700070400110D8F7809590958E0F9F1F08957A
:10448000FC016150704001900110D8F78095909523
:104490008E0F9F1F0895DC01FC01672F7191772318
:1044A000E1F7329704C07C916D9370836291AE17EF
:1044B000BF07C8F308950F931F93CF93DF93FB01BA
:1044C000238121FD03C08FEF9FEF28C022FF16C07C
:1044D00046815781248135814217530744F4A081D6
:1044E000B1819D012F5F3F4F318320838C932681C3
:1044F00037812F5F3F4F3783268310C0EB01092F91
:10450000182F0084F185E02D0995892BE1F68E8125
:104510009F8101969F838E83812F902FDF91CF9172
:104520001F910F910895FA01AA27283051F12031E7
:1045300081F1E8946F936E7F6E5F7F4F8F4F9F4F37
:10454000AF4FB1E03ED0B4E03CD0670F781F891F79
:104550009A1FA11D680F791F8A1F911DA11D6A0F47
:10456000711D811D911DA11D20D009F468943F91FA
:104570002AE0269F11243019305D3193DEF6CF01F9
:104580000895462F4770405D4193B3E00FD0C9F7BF
:10459000F6CF462F4F70405D4A3318F0495D31FD2C
:1045A0004052419302D0A9F7EACFB4E0A69597957F
:1045B000879577956795BA95C9F700976105710555
:1045C00008959B01AC010A2E06945795479537959F
:1045D0002795BA95C9F7620F731F841F951FA01DF9
:1045E00008950E94332308F481E00895E89409C0F7
:1045F00097FB3EF490958095709561957F4F8F4F16
:104600009F4F9923A9F0F92F96E9BB279395F6952B
:10461000879577956795B795F111F8CFFAF4BB0FA9
:1046200011F460FF1BC06F5F7F4F8F4F9F4F16C00D
:10463000882311F096E911C0772321F09EE8872F97
:10464000762F05C0662371F096E8862F70E060E053
:104650002AF09A95660F771F881FDAF7880F9695CC
:10466000879597F90895990F0008550FAA0BE0E870
:10467000FEEF16161706E807F907C0F01216130624
:10468000E407F50798F0621B730B840B950B39F464
:104690000A2661F0232B242B252B21F408950A26CA
:1046A00009F4A140A6958FEF811D811D08950E94F8
:1046B0006A230C94DE230E94D02338F00E94D72373
:1046C00020F0952311F00C94C7230C94CD231124D2
:1046D0000C9412240E94EF2370F3959FC1F3950F61
:1046E00050E0551F629FF001729FBB27F00DB11D76
:1046F000639FAA27F00DB11DAA1F649F6627B00D06
:10470000A11D661F829F2227B00DA11D621F739FEE
:10471000B00DA11D621F839FA00D611D221F749FFC
:104720003327A00D611D231F849F600D211D822F43
:10473000762F6A2F11249F5750409AF0F1F088236A
:104740004AF0EE0FFF1FBB1F661F771F881F915097
:104750005040A9F79E3F510580F00C94C7230C945C
:1047600012245F3FE4F3983ED4F3869577956795DE
:10477000B795F795E7959F5FC1F7FE2B880F911DC1
:104780009695879597F9089599278827089597F919
:104790009F6780E870E060E008959FEF80EC0895E7
:1047A00000240A9416161706180609060895002410
:1047B0000A9412161306140605060895092E03948A
:1047C000000C11F4882352F0BB0F40F4BF2B11F4FE
:1047D00060FF04C06F5F7F4F8F4F9F4F089557FD5D
:1047E0009058440F551F59F05F3F71F04795880F5F
:1047F00097FB991F61F09F3F79F0879508951216F6
:1048000013061406551FF2CF4695F1DF08C01616A1
:1048100017061806991FF1CF869571056105089452
:104820000895E894BB2766277727CB0197F9089569
:10483000DC01CB01FC01F999FECF06C0F2BDE1BD60
:10484000F89A319600B40D9241505040B8F708954F
:10485000F999FECF92BD81BDF89A992780B5089548
:10486000DC01A40FB51F4150504048F0CB01840F2C
:10487000951F2E910E94412441505040D0F7089539
:10488000262FF999FECF92BD81BDF89A019700B409
:10489000021639F01FBA20BD0FB6F894FA9AF99AA9
:1048A0000FBE08950E949424A59F900DB49F900D73
:1048B000A49F800D911D112408952F923F924F9235
:1048C0005F926F927F928F929F92AF92BF92CF92A0
:1048D000DF92EF92FF920F931F93CF93DF93CDB7A9
:1048E000DEB7CA1BDB0B0FB6F894DEBF0FBECDBF21
:1048F00009942A88398848885F846E847D848C84F2
:104900009B84AA84B984C884DF80EE80FD800C81FA
:104910001B81AA81B981CE0FD11D0FB6F894DEBFDD
:104920000FBECDBFED010895A29FB001B39FC0019E
:10493000A39F700D811D1124911DB29F700D811DCB
:0A4940001124911D0895F894FFCF93
:10494A00FFFFFF00FCE1A8A8B1078907E308A9084F
:10495A0086082B08FF07ED0756090C09012B872645
:10496A0040A470DD3FE85412C0C90AC90AFF440ACC
:10497A007C090000EA048000000000006E1339136D
:10498A008E0A6C0A800AB513000000001E0B0A0B7F
:10499A00030B000BFD0AFC0A4F4B007634303070D3
:1049AA00706D3A200076313030303070706D2000F2
:1049BA002D2D2D2D2D2D2D2D2D2D2D2D2D2D2D2D1D
:1049CA002D2D2D2D2D2D2D2D2D2D2D2D00496E63A7
:1049DA006F6D696E67206D6573736167652E747993
:1049EA0070653A20002056616C7565200076343077
:1049FA003070706D2000562020202020202020209A
:104A0A0020005600534C4545505F54494D453A20C5
:104A1A00000D0A0053454E303135393A00562020F0
:104A2A0020202020202020202000434F323A003C22
:104A3A003430300070706D00202020202020205457
:104A4A00696D6520706F696E743A004E41434B0080
:104A5A002100434F322073656E736F7200312E3519
:104A6A0000566F6C74730050504D2D3430302F3116
:104A7A003030300050504D2D3430302F313020300E
:104A8A0030300054656D702D636F6D70004469613C
:104A9A00676E6F73746963004D472D383131204456
:104AAA00656D6F7374726174696F6E0A006E616E00
:104ABA0000696E66006F766600322E312E31000074
:00000001FF
