:100000000C94EB020C94410D0C941A0D0C941303F8
:100010000C9413030C9413030C94080A0C9413030C
:100020000C9413030C9413030C9413030C941303F8
:100030000C9413030C9413030C9413030C941303E8
:100040000C94D00C0C9413030C94F8110C94D21152
:100050000C9413030C9413030C9413030C941303C8
:100060000C94680D0C94130307634236B79BD8A712
:100070001A39685618AEBAAB558C1D3CB7CC5763CD
:10008000BD6DEDFD753EF6177231BF000000803F7B
:1000900008000000BE922449123EABAAAA2ABECD97
:1000A000CCCC4C3E00000080BEABAAAAAA3E000009
:1000B0000000BF000000803F000000000008417801
:1000C000D3BB4387D1133D190E3CC3BD4282AD2B38
:1000D0003E68EC8276BED98FE1A93E4C80EFFFBE30
:1000E00001C4FF7F3F000000000054534D3A494EC9
:1000F00049540A002154534D3A494E49543A5453F5
:1001000050204641494C0A0054534D3A494E4954F7
:100110003A545350204F4B0A0054534D3A465041E5
:10012000520A002154534D3A465041523A4E4F2004
:100130005245504C590A002154534D3A46504152B1
:100140003A4641494C0A0054534D3A465041523ABE
:100150004F4B0A0054534D3A49443A5245510A0014
:1001600054534D3A49440A002154534D3A49443AB4
:100170004641494C0A0054534D3A49443A4F4B0AC0
:100180000054534D3A55504C0A002154534D3A55A2
:10019000504C3A4641494C0A0054534D3A55504C44
:1001A0003A444757432C4F3D25642C4E3D25640A65
:1001B0000054534D3A55504C3A4F4B0A0054534D4E
:1001C0003A52454144593A49443D25642C504152E4
:1001D0003D25642C4449533D25640A002154534D68
:1001E0003A52454144593A55504C204641494C2CCD
:1001F000534E500A0054534D3A4641494C3A5044EC
:10020000540A0054534D3A4641494C3A434E543DEA
:1002100025640A0054534D3A4641494C3A52452D03
:10022000494E49540A004D434F3A50494D3A4E4FBA
:100230004445205245473D25640A00215453463A1F
:100240004D53473A52454C204D53472C4E52455042
:100250000A005453463A4D53473A42430A00545316
:10026000463A4D53473A41434B0A00215453463ACC
:100270004D53473A504F4E4720524543562C494E16
:100280004143544956450A005453463A4D53473A60
:10029000504F4E4720524543562C48503D25640A46
:1002A000005453463A4D53473A50494E4745442C23
:1002B00049443D25642C48503D25640A002154538F
:1002C000463A4D53473A4650415220494E414354D5
:1002D0004956450A005453463A4D53473A46504111
:1002E00052204F4B2C49443D25642C443D25640A43
:1002F000005453463A4D53473A41434B20524551DF
:100300000A00215453463A4D53473A505645522C11
:1003100025643D25640A00215453463A4D53473A1B
:100320004C454E2C2564213D25640A005453463A21
:100330004D53473A524541442C25642D25642D25C3
:10034000642C733D25642C633D25642C743D256429
:100350002C70743D25642C6C3D25642C73673D2501
:10036000643A25730A004D434F3A5245473A524585
:10037000510A005453463A5755523A4D533D256C55
:10038000750A004D434F3A42474E3A494E49542070
:100390004F4B2C5453503D25640A004D434F3A4275
:1003A000474E3A5354500A004D434F3A42474E3A53
:1003B0004246520A004D434F3A42474E3A494E494F
:1003C00054204E4F44452C43503D524E4E4E412DED
:1003D0002D2C5645523D322E312E310A00000000A0
:1003E00008000201000003040700000000000000F4
:1003F00000214D434F3A534E443A4E4F4445204E10
:100400004F54205245470A000000000025002800F4
:100410002B0000000000240027002A00040404042C
:10042000040404040202020202020303030303039E
:10043000010204081020408001020408102001027B
:10044000040810205453463A5349443A4F4B2C4920
:10045000443D25640A00215453463A5349443A46E0
:1004600041494C2C49443D25640A002573545346A8
:100470003A4D53473A53454E442C25642D25642D5F
:1004800025642D25642C733D25642C633D25642C47
:10049000743D25642C70743D25642C6C3D25642CC2
:1004A00073673D25642C66743D25642C73743D256B
:1004B000733A25730A00215453463A5254453A463A
:1004C000504152204143544956450A002154534655
:1004D0003A534E443A544E520A0000407A10F35AAE
:1004E00000A0724E18090010A5D4E80000E8764874
:1004F000170000E40B54020000CA9A3B000000E120
:10050000F505000080969800000040420F000000B2
:10051000A08601000000102700000000E803000092
:1005200000006400000000000A000000000001005C
:10053000000000002C76D888DC674F0823DFC1DF7D
:10054000AE59E1B1B796E5E3E453C63AE651997680
:1005500096E8E6C28426EB898C9B62ED407C6FFCBA
:10056000EFBC9C9F40F2BAA56FA5F490055A2AF7FC
:100570005C936B6CF9676DC11BFCE0E40D47FEF505
:1005800020E6B500D0ED902E03009435770500806D
:10059000841E080000204E0A000000C80C333333CC
:1005A000330F986E12831141EF8D2114893BE6556C
:1005B00016CFFEE6DB18D1844B381BF77C1D901D4F
:1005C000A4BBE424203284725E228100C9F124ECB1
:1005D000A1E53D27721511241FBECFEFD8E0DEBF85
:1005E000CDBF11E0A0E0B1E0ECECF0E402C005907A
:1005F0000D92AC3DB107D9F723E0ACEDB1E001C0FD
:100600001D92A63FB207E1F712E0CBEED2E004C0A4
:100610002197FE010E942116CA3ED107C9F70E9408
:10062000AC140C9464200C9400000F931F930E9450
:10063000D80A0091DF011091E0012091E101309191
:10064000E201601B710B820B930B1F910F910895B8
:100650009C018091DD019091DE018217930751F09A
:100660009091E7019F719093E7013093DE01209311
:10067000DD0105C08091E701805E8093E701E09194
:10068000DD01F091DE010190F081E02D309709F05D
:1006900009950E94D80A6093DF017093E00180936E
:1006A000E1019093E2010895EF92FF920F931F935F
:1006B000CF93DF93CDB7DEB7C857D1090FB6F89403
:1006C000DEBF0FBECDBF8E010F571F4FF801E19067
:1006D000F1908F010E94D80A4AE00E9421118BEA12
:1006E00091E00E941F119801A70168E770E0CE0118
:1006F00001960E94B719CE0101960E941F118CE944
:1007000092E00E94D90FC858DF4F0FB6F894DEBFB1
:100710000FBECDBFDF91CF911F910F91FF90EF9052
:1007200008952F923F924F925F926F927F928F9295
:100730009F92AF92BF92CF92DF92EF92FF920F9370
:100740001F93CF93DF93CDB7DEB72C970FB6F894F6
:10075000DEBF0FBECDBFE091DD01F091DE01028072
:10076000F381E02D309709F009958091E70184FB32
:10077000222720F9298784FF59C386E0D82E90E0EC
:10078000E92E90E0F92E9E012F5F3F4F3C832B8393
:1007900020EA822E26E8922EAA24A394B12C34EBD0
:1007A000432E3BE2532E31E1632E712C21E041E0D8
:1007B00060E070E087E10E940E1380FD37C3DA9499
:1007C000DD2009F433C3E114F10421F081E090E06D
:1007D0000E94000021E041E060E070E080E60E94BD
:1007E0000E13C82E30E2381720F482EE0E945E13FA
:1007F000C12C21E04C2D6DEB73E081E60E940E13BD
:1008000060E487E20E9440138091C003282F269560
:10081000269526952A3108F029E182FD03C077E06C
:10082000720F01C070E28091C10387708D831091B7
:10083000C2030091BE032090BD033090BF038DEB37
:1008400093E02A877C870E946F102A85422F50E010
:100850009F938F938091C00382FB882780F91F921A
:100860008F931F922F938091C103829586958770F5
:100870001F928F931F921F931F922D812F93809110
:10088000C3031F928F931F923F921F922F921F922A
:100890000F93ACE2B3E0BF93AF934A875B870E94AC
:1008A00054030FB6F894DEBF0FBECDBF7C854A85DA
:1008B0005B85C71679F0E114F10429F08CE690E02D
:1008C0000E9400007C851F927F931F92CF9287E148
:1008D00093E017C02091C003822F83708230E1F033
:1008E000E114F10421F08DE690E00E9400001F92D7
:1008F00082E08F938091C00383701F928F9382E078
:1009000093E09F938F930E9454030F900F900F904A
:100910000F900F900F904ACF8091E80180688093EC
:10092000E80180919902381259C0822F86958695E8
:1009300086958A3108F089E138E0839FC00111244F
:100940002770822B8093C003FA01E354FC4F178277
:100950008091C10383FF21C081EF92E09F938F9329
:100960000E94540381E2EDEBF3E0ACE9B3E00190C7
:100970000D928A95E1F78091A003877F8061809333
:10098000A0038091990280939D0300939E038CE9BC
:1009900093E00E945C140F900F909091C10394FD1E
:1009A0000BC02D81233081F48091C20321EF280FE9
:1009B000233008F055C0FACEAEE5B2E0BF93AF9356
:1009C0000E9454030F900F9020E030E0232B09F495
:1009D000EDCE8DEB93E00E940000E8CE3FEF3312A6
:1009E00036C0A2E5B2E0BF93AF930E9454030F90CC
:1009F0000F902D81233031F58091E70182FF03C0F4
:100A0000173009F4D3CE183009F4D0CE143109F0E0
:100A1000CDCE80919A022812C9CE0E94D80A737056
:100A2000882799270E94931210919A0225E143E0AA
:100A30006FEF802F0E940710612F0E94CD120E943D
:100A40006413B4CE80919A022812B0CEBDCFABE32E
:100A5000B2E0BF93AF930E9454030F900F90A6CEC5
:100A6000143029F40E940C110E946B149FCE183090
:100A700011F51091E70110FF1BC00E940C118F3F70
:100A800009F494CE8F5F8F3F09F490CE90919B0232
:100A9000891708F08BCE11FD89CE80939B020093BD
:100AA0009A021F928F931F920F9385ED92E029CFA8
:100AB0008DEB92E030C01831C1F40E940C111F92EE
:100AC0008F931F920F9381EA92E09F938F930E94DE
:100AD000540329E143E06FEF802F0E94071061E08B
:100AE0000E94CD120E94641310CF1931B9F4809185
:100AF000E70183FF0EC0877F8093E7010E940C11FE
:100B00008093E9011F928F9388E892E09F938F93DF
:100B10003CC08BE692E09F938F939DCF2091BE03C4
:100B2000211180C18D3099F480E090E0892B21F073
:100B30008BE090E00E94000098E088E10FB6F89406
:100B4000A895809360000FBE90936000FFCF8B311B
:100B500019F50E940C1191E0811101C090E0809183
:100B6000650290FB80F980936502E114F10421F0A5
:100B70008AE090E00E9400008091650281701F92DF
:100B80008F93A6E2B2E0BF93AF930E9454030F90FD
:100B90000F900F900F900ACE8630A9F49091C40365
:100BA000992329F081E09D3419F080E001C0898506
:100BB0008093640241E050E063E071E084E692E0FB
:100BC0000E940B20F3CD833119F40E94960EEECDD6
:100BD0008231F1F40E9415036D837E838F839887A1
:100BE00026E143E06FEF80E00E940710FC01848162
:100BF0008F71806A848383818770806283838D8113
:100C00009E81AF81B88587839087A187B287DAC03C
:100C1000813001F5A0E0B0E0AB2B09F4C7CD92958F
:100C200096959770953049F46091C4037091C5030F
:100C30008091C6039091C7030AC0911105C084EC4E
:100C400093E00E941D1903C060E070E0CB010E9498
:100C50000000ACCD8A3009F4A9CD8C3109F0B4CEB6
:100C60008091C403823509F4A1CD8635B1F58EE4B7
:100C700080937C0066E470E080E090E00E94931234
:100C800080917A00806480937A0080917A0086FD5A
:100C9000FCCF20907800309079002CE143E06FEF9A
:100CA00080E00E9407108C01FC0184818F718066B6
:100CB00084838381877080618383910140E050E069
:100CC000C301B2010E94FF15D80118963C932E93E0
:100CD0001797C8010E945C1469CD863409F052C090
:100CE000F8948FEF86BB10928500109284001092CA
:100CF000800010928200909160002DE088E10FB694
:100D0000F894A895809360000FBE209360008091B6
:100D10006000806480936000A89585E080938100E6
:100D20008091600087FFFCCF10928100A895809190
:100D300060008861809360009093600078942090B8
:100D40008400309085002CE143E06FEF80E00E944A
:100D500007108C01FC0184818F71806684838381FC
:100D6000877080618383C101A0E0B0E0BC01CD0148
:100D70004BE0660F771F881F991F4A95D1F7A50191
:100D80009401A0CF8D3401F50091F2031091F3038B
:100D90000115110511F406EF13E02CE143E06FEFAC
:100DA00080E00E940710FC0184818F71806684833B
:100DB00083818770806183838B819C81801B910BF1
:100DC00090878783CF0186CF853409F0EFCC2CE163
:100DD00043E06FEF80E00E94071068E571E00E9439
:100DE000D9120E945C1400E010E06FEFC8010E946D
:100DF0001B200F5F1F4F0D39B1E01B07B1F780E0DB
:100E000090E0892B21F08BE090E00E94000098E0B8
:100E100088E10FB6F894A895809360000FBE909378
:100E20006000FFCF8A3109F0CFCDC0CC2C960FB631
:100E3000F894DEBF0FBECDBFDF91CF911F910F9110
:100E4000FF90EF90DF90CF90BF90AF909F908F90EA
:100E50007F906F905F904F903F902F9008950F93E9
:100E60001F930E9415032091E8012077203729F075
:100E700000E117E220E030E004C000E61AEE20E0D6
:100E800030E0061717072807390770F484E192E06D
:100E90009F938F930E9454030F900F908CE191E0E9
:100EA0001F910F910C9428031F910F910895809129
:100EB000E801982F9077903759F0982F92959F706E
:100EC0009F5F97709295907F8F78892B8093E80130
:100ED0008091E801829587701F928F9383E092E062
:100EE0009F938F930E9454038091E7018B7F8F7EA5
:100EF0008093E7010F900F900F900F9080E090E0AB
:100F0000892B21F087E690E00E94000085EF91E0B8
:100F10009F938F930E94540329980F900F906CE039
:100F200080E20C9440138091E8018F70863060F06D
:100F30008CED91E09F938F930E9454030F900F903C
:100F400088E191E00C942803089580919B021F9200
:100F50008F9380919A021F928F93809199021F9292
:100F60008F938DEB91E09F938F930E945403809118
:100F7000E70184608093E7018091E80180788093A5
:100F8000E801E091EA01F091EB018DB79EB7089678
:100F90000FB6F8949EBF0FBE8DBF309709F009942D
:100FA00008958091E9018F3F79F10E94D80A6093FA
:100FB000E3017093E4018093E5019093E60181EBF6
:100FC00091E09F938F930E9454039091E901809147
:100FD0009B020F900F909817A1F01F929F931F9262
:100FE0008F9389E991E09F938F930E94540380919E
:100FF000E90180939B020F900F900F900F900F903C
:101000000F9084E191E025C00E941503613D774077
:101010008105910500F18091E701803618F480E1A7
:1010200091E017C08AE891E09F938F930E94540348
:101030008091E701877F8093E7010F900F9080E018
:1010400090E0892B21F08AE690E00E94000088E180
:1010500091E00C942803089581E891E09F938F9389
:101060000E9454030F900F9080E090E0892B21F0B4
:1010700088E090E00E9400008FEF8093E90180916A
:10108000E70188608093E70128E143E06FEF80E0AB
:101090000E94071061E00E94CD120C9464138091AD
:1010A00099028F3F99F086E791E09F938F930E947A
:1010B00054030F900F9080E090E0892B21F087E09F
:1010C00090E00E94000080E191E020C00E941503A2
:1010D000613D774081059105D8F08091E701803628
:1010E00018F48CE091E012C088E691E09F938F9312
:1010F0000E9454030F900F9080E090E0892B21F024
:1011000089E690E00E94000088E091E00C942803BA
:10111000089580E691E09F938F930E9454030F906F
:101120000F90809199028F3FE1F480E090E0892B4D
:1011300021F086E090E00E94000084E591E09F931A
:101140008F930E94540323E043E06FEF80E00E94FE
:1011500007106DE671E00E94D9120F900F900C9469
:10116000641308950E941503613D77408105910540
:1011700020F48091E70181FF089580919A028F3FCA
:10118000C1F087E491E09F938F930E945403809174
:10119000E7018E7F8093E7010F900F9080E090E051
:1011A000892B21F085E090E00E9400008CE091E026
:1011B00021C08091E701803658F483E291E09F934B
:1011C0008F930E9454030F900F9088E191E012C01A
:1011D00087E391E09F938F930E9454030F900F90A9
:1011E00080E090E0892B21F088E690E00E940000EA
:1011F00088E091E00C94280389E191E09F938F931C
:101200000E9454030F900F9080E090E0892B21F012
:1012100084E090E00E9400008091E701897F816076
:101220008093E7018FEF80939B0280939A0227E0DF
:1012300043E06FEF0E9407106DE671E00E94D91243
:101240000C946413CF93219A229ACFB7F89480918B
:10125000DC01811124C0E6E2F4E08491EAE3F4E0E9
:101260009491E82FF0E0EE0FFF1FEE5EFB4FA5918B
:10127000B491EC91E92321F461E08AE00E942A1202
:101280008AE00E9450108CB580618CBD8CB5806462
:101290008CBD8DE00E9450108BE00E945010809118
:1012A000DC018F5F8093DC01CFBF29982A9A6EE022
:1012B00080E20E94401365E070E080E090E00E94D0
:1012C000931263E083E20E9440136FE584E20E9480
:1012D00040136CE485E20E94401367E286E20E94BC
:1012E000401363E780E50E94401366E08DE30E94AF
:1012F000401321E041E060E070E086E00E940E13C0
:10130000C82F21E041E060E070E085E00E940E130C
:101310008C3409F049C0C73209F046C062E082E26D
:101320000E94401360E081E20E94401363E08CE37E
:101330000E9440138FEF8093030120E045E063E0BB
:1013400071E08BE20E940E1320E045E063E071E063
:101350008AE20E940E1320E045E063E071E080E342
:101360000E940E1382EE0E945E1381EE0E945E13B5
:1013700060E787E20E94401388E091E09F938F939B
:101380000E9454038091E70180618093E70180917E
:1013900099020F900F908F3FC1F00E946B14811142
:1013A00014C088E091E013C084EF90E09F938F9386
:1013B0000E9454030F900F9080E090E0892B89F3F6
:1013C00087E690E00E940000ECCF88E191E0CF91A9
:1013D0000C9428038AEE90E09F938F930E9454030D
:1013E000E7EEF1E08081877F8F7E80831092E301BA
:1013F0001092E4011092E5011092E6010F900F9017
:1014000043E050E060E070E089E992E00C94FB1F5B
:101410001F920F920FB60F9211240F900FBE0F90D4
:101420001F901895089585ED8093BC008091BC00B5
:1014300084FDFCCF10923502089540910F02262FB3
:1014400030E0240F311D21323105DCF420913502CA
:101450002430C9F4FC0180E090E0861758F4309104
:101460000F022191DC01A351BE4FA30FB11D2C939C
:101470000196F3CF80910F02680F60930F0280E016
:10148000089581E0089582E0089508958FEF9FEF19
:1014900008958FEF9FEF08958091EC0190E0919572
:1014A000819591090895CF93DF9300D0CDB7DEB732
:1014B000CB01642F49835A830E941D0A4981842FDE
:1014C0005A81952F0F900F90DF91CF910895CF9370
:1014D000DF931F92CDB7DEB7698361E0CE0101963D
:1014E0000E941D0A81E090E00F90DF91CF91089556
:1014F0001092300187E00E94501061E087E00E9466
:101500002A120E9416108BE591E00E943E108BE695
:1015100091E00C943E102BE043E06FEF80E00E94DE
:1015200007106EE671E00E94D9120E945C142CE054
:1015300043E06FEF80E00E94071062E771E00E94D5
:10154000D9120E945C146EE181E00E94621166E192
:1015500082E00E9462116EE183E00E94621186E7E0
:1015600091E00C941F113FB7F89480916002909124
:101570006102A0916202B091630226B5A89B05C0EA
:101580002F3F19F00196A11DB11D3FBFBA2FA92F02
:10159000982F8827820F911DA11DB11DBC01CD017F
:1015A00042E0660F771F881F991F4A95D1F708956B
:1015B0002FB7F89460915C0270915D0280915E0299
:1015C00090915F022FBF08952F923F924F925F92AA
:1015D0006F927F928F929F92AF92BF92CF92DF9243
:1015E000EF92FF920F931F93CF93DF9300D000D021
:1015F000CDB7DEB761E087E00E942A1260E771E1B3
:1016000081E090E00E9493128FE00E947612BC016C
:10161000990F880B990B0E94DE1E20E030E040E21B
:1016200050E40E943D1F20E030E040E85AE30E9471
:101630003D1F69837A838B839C8305E010E0C12C76
:10164000D12C76018EE00E947612BC01990F880B96
:10165000990B0E94DE1E9B01AC01C701B6010E94DE
:1016600028166B017C0162E370E080E090E00E944C
:1016700093120150110931F720E030E040EA50E4C4
:10168000C701B6010E94941620E030E040E250E429
:101690000E943D1F20E030E040E85AE30E943D1FD9
:1016A0006B017C0124EA30E74DED5FE30E943C17BB
:1016B00087FF2CC020912401309125014091260103
:1016C00050912701C701B6010E94271620912801D9
:1016D0003091290140912A0150912B010E949416CA
:1016E000209120013091210140912201509123014C
:1016F0000E9428169B01AC0160E070E080E291E45A
:101700000E9441170E9406171B0103C022242A943D
:10171000322C8BE891E00E941F11A7019601C701AE
:10172000B6010E949117882319F084E991E01AC04C
:1017300046015701E894B7F82FEF3FEF4FE75FE717
:10174000C501B4010E94911781110FC02FEF3FEF27
:101750004FE75FE7C501B4010E94D71E18162CF4AD
:1017600088E991E00E943E1072C02FEF3FEF4FE7F3
:101770005FE4C701B6010E943C1718161CF48CE9FF
:1017800091E0F0CF2FEF3FEF4FE75FECC701B601DD
:101790000E94D71E87FDF3CF20E030E0A901C701EA
:1017A000B6010E94D71E87FF07C08DE20E949111EB
:1017B000C701B601905802C0C701B6012AE037ED53
:1017C00043EA5BE30E9428162B013C010E940D179F
:1017D0004B015C010E94DC1E9B01AC01C301B20104
:1017E0000E9427162B013C014AE0C501B4010E946A
:1017F00021118EE20E94911120E030E040E251E49C
:10180000C301B2010E943D1F4B015C010E940D17F4
:101810002B01612C712C4AE0C301B2010E942111FD
:10182000C301B2010E94DC1E9B01AC01C501B401E1
:101830000E94271620E030E040E251E40E943D1F64
:101840000E940D1780E090E04AE00E94211180EA9A
:1018500091E00E941F118DEA91E00E941F118FEF0D
:101860002816380629F482EB91E00E941F1118C057
:101870004101032C000CAA08BB08B7FE0CC08DE286
:101880000E94911166277727CB01681979098A0987
:101890009B094AE003C04AE0C501B4010E9421113E
:1018A00087EB91E00E941F118BEB91E00E941F11CA
:1018B0000E94D80A4AE00E9421118CE691E00E9421
:1018C0001F1180917E038770886280937E038091D0
:1018D0007F03806E80937F03C0928203D092830344
:1018E000E0928403F092850312E0109386038BE765
:1018F00093E00E94781180913C0387708862809306
:101900003C0380913D03806E80933D0389819A81E1
:10191000AB81BC818093400390934103A093420329
:10192000B09343031093440389E393E00E9478113A
:1019300080915E038F71806480935E0380915D036C
:101940008770806180935D0330926203209261030F
:101950008AE593E00E9478118CE691E00E941F11C5
:1019600060E087E00E942A1260E27FEB82E090E074
:101970000F900F900F900F90DF91CF911F910F91CB
:10198000FF90EF90DF90CF90BF90AF909F908F909F
:101990007F906F905F904F903F902F900C94931298
:1019A0001F920F920FB60F9211242F933F938F9394
:1019B0009F93AF93BF9380915C0290915D02A09141
:1019C0005E02B0915F0230915B0223E0230F2D375E
:1019D00020F40196A11DB11D05C026E8230F029633
:1019E000A11DB11D20935B0280935C0290935D0268
:1019F000A0935E02B0935F028091600290916102B9
:101A0000A0916202B09163020196A11DB11D809365
:101A1000600290936102A0936202B0936302BF914F
:101A2000AF919F918F913F912F910F900FBE0F908B
:101A30001F9018951F920F920FB60F9211242F939B
:101A40003F934F935F936F937F938F939F93AF9346
:101A5000BF93EF93FF93E0912E01F0912F01099531
:101A6000FF91EF91BF91AF919F918F917F916F9176
:101A70005F914F913F912F910F900FBE0F901F904C
:101A800018951F920F920FB60F9211242F933F9328
:101A90004F935F936F937F938F939F93AF93BF9376
:101AA000EF93FF93E0912C01F0912D010995FF91A7
:101AB000EF91BF91AF919F918F917F916F915F91C6
:101AC0004F913F912F910F900FBE0F901F9018953F
:101AD0001F920F920FB60F9211242F933F934F93A3
:101AE0005F936F937F938F939F93AF93BF93EF9386
:101AF000FF938091B900887F803609F49CC068F517
:101B0000883209F45BC090F4803109F454C038F491
:101B1000882309F4F6C0883009F44DC0F6C0883136
:101B200009F44CC0803209F45DC0EFC0803409F480
:101B300068C048F4803309F455C0883309F0E5C023
:101B400080933402D8C0803509F44FC0883509F439
:101B50005DC0883409F0D9C0D6C0883909F4C7C03F
:101B6000A8F4883709F467C038F4883609F463C0EC
:101B7000803709F460C0C9C0883809F4B8C080391A
:101B800009F45FC0803809F0C0C05BC0803B09F435
:101B900086C038F4803A09F466C0883A09F47FC0F8
:101BA000B4C0803C09F4A7C0883C09F4A4C0883BB9
:101BB00009F48AC0AAC080915A0210C090915902BB
:101BC00080915802981770F5E091590281E08E0FCC
:101BD00080935902F0E0E85CFD4F80818093BB0068
:101BE00085EC86C0809334028EC0E091590281E07A
:101BF0008E0F809359028091BB00F0E0E85CFD4FAE
:101C0000808390915902809158026EC0E0915902F0
:101C100081E08E0F809359028091BB00F0E0E85C78
:101C2000FD4F80838091370281116DC081E08093E8
:101C3000360284EA61C083E0809335021092330259
:101C4000CFCF80913302803208F051C0E09133024F
:101C500081E08E0F809333028091BB00F0E0ED5E57
:101C6000FD4F8083BDCF85EC8093BC001092350280
:101C700080913302803230F4E0913302F0E0ED5E87
:101C8000FD4F10826091330270E0E0911102F091FB
:101C9000120283E192E009951092330236C084E08B
:101CA000809335021092100210920F02E0910D0203
:101CB000F0910E02099580910F02811105C081E01B
:101CC00080930F021092ED01E091100281E08E0FDF
:101CD00080931002F0E0E351FE4F80818093BB00BF
:101CE0009091100280910F02981708F479CF85E83F
:101CF0008093BC000AC085EC8093BC001092350232
:101D000004C0109234020E94130AFF91EF91BF9118
:101D1000AF919F918F917F916F915F914F913F9183
:101D20002F910F900FBE0F901F901895CF9380E0CA
:101D300090E0892B21F08CE090E00E9400002FE0E1
:101D400043E06FEF80E00E9407106DE671E00E94B3
:101D5000D91280919F038770806180939F03809147
:101D6000A0038F71806C8093A00381E08093A30314
:101D70001092A4038CE993E00E945C148FE00E940F
:101D80009C1161E18FEF0E946211C0919A0226E0DE
:101D900043E06FEF80E00E9407106C2F0E94CD128D
:101DA0000E945C1486E00E949C11CF910C948B0AD7
:101DB000CF938091650281FD2FC00E94960E86E62A
:101DC00093E09F938F930E9454030F900F9080E0B5
:101DD00090E0892B21F089E090E00E940000809142
:101DE0006502816080936502C4E02AE143E06FEF01
:101DF00080E00E94071062E00E94CD120E945C14F5
:101E00008BE10E949C11811102C0C15071F7809139
:101E10006502826080936502CF910895CF92DF9230
:101E2000EF92FF920F931F93CF93DF936C017A0190
:101E30008B01C0E0D0E0CE15DF0589F0D8016D91AF
:101E40008D01D601ED91FC910190F081E02DC6014C
:101E50000995892B11F47E0102C02196ECCFC701B0
:101E6000DF91CF911F910F91FF90EF90DF90CF9076
:101E70000895FC01918D828D981761F0828DDF01AC
:101E8000A80FB11D5D968C91928D9F5F9F73928F6D
:101E900090E008958FEF9FEF0895FC01918D828D62
:101EA000981731F0828DE80FF11D858D90E008952F
:101EB0008FEF9FEF0895FC01918D228D892F90E087
:101EC000805C9F4F821B91098F73992708958CE93D
:101ED00092E00E945B0F21E0892B09F420E0822F21
:101EE0000895FC01848DDF01A80FB11DA35ABF4FD7
:101EF0002C91848D90E001968F739927848FA68909
:101F0000B7892C93A089B1898C9180648C93938D2F
:101F1000848D981306C00288F389E02D80818F7D1F
:101F200080830895EF92FF920F931F93CF93DF93D7
:101F3000EC0181E0888F9B8D8C8D981305C0E8891A
:101F4000F989808185FD24C0F62E0B8D10E00F5F8E
:101F50001F4F0F731127E02E8C8DE8120CC00FB6A7
:101F600007FCFACFE889F989808185FFF5CFCE019A
:101F70000E94710FF1CF8B8DFE01E80FF11DE35A26
:101F8000FF4FF0820B8FEA89FB898081806207C056
:101F9000EE89FF896083E889F98980818064808384
:101FA00081E090E0DF91CF911F910F91FF90EF9032
:101FB0000895CF93DF93EC01888D8823C9F0EA89D7
:101FC000FB89808185FD05C0A889B9898C9186FD32
:101FD0000FC00FB607FCF5CF808185FFF2CFA8892F
:101FE000B9898C9185FFEDCFCE010E94710FE7CFAB
:101FF000DF91CF91089580E090E0892B29F00E9435
:10200000670F81110C94000008950E94CB18ECE931
:10201000F3E09091990291838283668325834770D0
:102020008481807E482B4483CF010895ECE9F2E05F
:10203000A089B18982E08C93A485B5851C92A68580
:10204000B78580E18C93108EA489B58986E08C9346
:10205000A289B3898C9180618C93A289B3898C9178
:1020600088608C93A289B3898C9180688C93028854
:10207000F389E02D80818F7D80830895009769F03A
:10208000FC0101900020E9F73197AF01481B590B83
:10209000BC018CE992E00C940E0F80E090E0089572
:1020A00090E0FC01E05DFB4F2491FC01E45EFB4FFE
:1020B0008491882399F090E0880F991FFC01EE5ECF
:1020C000FB4FA591B491FC01E85FFB4F8591949182
:1020D0008FB7F894EC91E22BEC938FBF08950F9398
:1020E0001F93CF93DF93EC018C8182958695877047
:1020F00091F44B8146954695469550E0BE01695F47
:102100007F4F86E692E00E94D018EB81E695E69537
:10211000E695F0E077C0813031F48F814AE066E6E1
:1021200072E090E007C0823041F44AE066E672E077
:102130008F8198850E94441968C0833041F44AE039
:1021400066E672E08F8198850E949D195EC084309A
:1021500051F46F81788589859A852AE046E652E0B8
:102160000E944F1952C0853051F46F81788589855E
:102170009A852AE046E652E00E947B1946C08730E5
:1021800071F42B85293008F028E06F8178858985E6
:102190009A8506E612E042E00E94DF1836C08630DB
:1021A000A1F520E0EB81E695E695E6952E1738F54A
:1021B000E22FF0E0AF01440F551FDA01AA59BD4FDD
:1021C000EC0FFD1F8781082E000C990B34E09595CC
:1021D00087953A95E1F78F708A3010F4805D01C0E1
:1021E000895C8C93DA01A959BD4F87818F708A3041
:1021F00010F4805D01C0895C8C932F5FD3CFF0E039
:10220000EE0FFF1FEA59FD4F108286E692E0DF9144
:10221000CF911F910F9108958091C103829586956A
:102220008770813019F48091C4030895811105C02D
:1022300084EC93E00E94FF18089580E008950C94C8
:102240003E108F929F92AF92BF920F931F93CF93A6
:10225000DF93CDB7DEB7A1970FB6F894DEBF0FBE00
:10226000CDBF19A2423008F44AE08E010F5D1F4F26
:10227000842E912CA12CB12CA50194010E94FF1554
:10228000E62FB901CA0101501109EA3014F4E05DEA
:1022900001C0E95CD801EC93232B242B252B61F79B
:1022A000C8010E943E10A1960FB6F894DEBF0FBE83
:1022B000CDBFDF91CF911F910F91BF90AF909F90B5
:1022C0008F900895CF93DF93262F8F3F19F0CDE69F
:1022D000D1E002C0CEECD1E040E0682F80E00E9467
:1022E0000710BE010E94D912DF91CF910C945C14AB
:1022F000FC018091990281839481907F9160948305
:102300008091650280FF03C0CF010C945C1481EFC3
:1023100093E09F938F930E9454030F900F9080E05F
:102320000895E0919C02F0919D020190F081E02DD2
:10233000682F8CE992E00994CF92DF92EF92FF929E
:10234000CF93DF93D82F0E94D80A6B017C0181E0E4
:10235000D11180E08093C203C0E00E94D80AAB0193
:10236000BC014C195D096E097F09403D574061056C
:10237000710580F4C1110EC0A8950E94910390913F
:10238000C1039770933049F7C1E08091C2038D1368
:10239000E3CFE3CF8C2FDF91CF91FF90EF90DF90D1
:1023A000CF9008951F920F920FB60F9211242F9382
:1023B0003F934F935F936F937F938F939F93AF93CD
:1023C000BF93EF93FF938CE992E00E94710FFF910E
:1023D000EF91BF91AF919F918F917F916F915F919D
:1023E0004F913F912F910F900FBE0F901F90189516
:1023F0001F920F920FB60F9211242F938F939F93DA
:10240000EF93FF93E091AC02F091AD028081E091F7
:10241000B202F091B30282FD12C090818091B502A8
:102420008F5F8F732091B602821751F0E091B50251
:10243000F0E0E456FD4F958F8093B50201C0808196
:10244000FF91EF919F918F912F910F900FBE0F9061
:102450001F90189590E0FC01E352FC4F3491FC0171
:10246000E05DFB4F2491FC01E45EFB4FE491EE2321
:1024700009F43BC0332339F1333091F038F4313073
:10248000A9F0323001F584B58F7D12C0373091F05C
:102490003830A1F03430B9F4809180008F7D03C0D2
:1024A000809180008F77809380000DC084B58F77F6
:1024B00084BD09C08091B0008F7703C08091B000C7
:1024C0008F7D8093B000F0E0EE0FFF1FE85FFB4FC1
:1024D000A591B4918FB7F894EC91611103C0209548
:1024E0002E2301C02E2B2C938FBF08958E3008F021
:1024F0008E5087702091300190E4299F9001112423
:10250000822B80937C0080917A00806480937A0093
:1025100080917A0086FDFCCF80917800209179002F
:1025200090E0922B08958F929F92AF92BF92CF929C
:10253000DF92EF92FF926B017C010E94B30A4B0184
:102540005C01C114D104E104F104F1F00E94B30A6A
:10255000DC01CB0188199909AA09BB09883E93407F
:10256000A105B10570F321E0C21AD108E108F10814
:1025700088EE880E83E0981EA11CB11CC114D10402
:10258000E104F10419F7DDCFFF90EF90DF90CF90D9
:10259000BF90AF909F908F900895FC0183818770CA
:1025A0008860838384818F71806284836783CF0195
:1025B00008950F931F93CF93DF93EC01611571057D
:1025C00061F0FB0101900020E9F73197E61BF70B62
:1025D000E931F10518F0E9E101C0E0E00E2F10E06B
:1025E000C80123E0880F991F2A95E1F79B81977016
:1025F000892B8B838C818F718C83EE2329F0A8012A
:10260000CE0107960E94D018FE01E00FF11F17823D
:10261000CE01DF91CF911F910F91089591E59CBD5F
:1026200091E09DBD2A98E3E2F0E03197F1F78EBD8D
:1026300000000DB407FEFDCF8EB5FB019FEF4150AA
:10264000C8F0222361F09EBD00000DB407FEFDCF4F
:102650008EB56115710599F380833196F0CFDF0156
:10266000119680818EBD00000DB407FEFDCF8EB5A2
:10267000FD01E5CF2A9AE3E2F0E03197F1F7089502
:10268000CF93DF931F92CDB7DEB7698320E041E09F
:10269000BE016F5F7F4F0E940E130F90DF91CF91AD
:1026A00008956FE080E20E944013609131016F3F16
:1026B00019F08AE20E944013299A089520E040E030
:1026C00060E070E00C940E13AF92BF92CF92DF9255
:1026D000EF92FF920F931F93CF93DF93EC018A81C8
:1026E0009091E70190FF0CC08F3F79F086EB94E06A
:1026F0009F938F930E9454030F900F9010E0D0C0CF
:102700008F3F19F000919A0201C00FEF809199025A
:1027100088834B8142FD06C046954695469517E055
:10272000140F01C010E280E090E0892B21F080E0DE
:1027300090E00E940000299883E092E00197F1F771
:102740006EE080E20E9440138BE891E00197F1F780
:10275000602F8AE20E944013602F80E30E944013A2
:1027600081EE0E945E130F3F11F080EA01C080EB02
:10277000412F113208F040E220E0BE010E940E130A
:10278000299AE12CF12C8FEF0E945E13182F807391
:1027900021F481E0E81AF108B1F7299860E387E2B3
:1027A0000E94401314FF03C081EE0E945E130E943A
:1027B000511315FB112710F981E00F3F09F080E05C
:1027C000182BCE010E946F10111103C0E4EDF1E04F
:1027D00002C0E8E5F1E06091E8016F702B8122FB17
:1027E000AA24A0F8322F3695369536952C81B22E34
:1027F000B294B69447E0B422CD802770DE80EA80A0
:10280000A02FB0E0F8807981111103C049ED51E0AB
:1028100002C04DE651E09F938F93FF93EF931F9279
:102820006F931F92AF921F923F931F92BF921F927E
:10283000CF921F922F931F92DF921F92EF92BF931E
:10284000AF931F92FF921F927F935F934F938BE6FC
:1028500094E09F938F930E9454038DB79EB74E963A
:102860000FB6F8949EBF0FBE8DBF80919A020813D9
:1028700017C0111110C080E090E0892B21F085E68F
:1028800090E00E9400008091E80191E0980F9F7015
:10289000807F892B03C08091E801807F8093E801CD
:1028A000812FDF91CF911F910F91FF90EF90DF90DB
:1028B000CF90BF90AF9008952091E70122FD0C9436
:1028C00064138CEC94E09F938F930E9454030F90B9
:1028D0000F9080E00895CF93C82F8FEF8C0F8E3F1D
:1028E00008F5C0939902C093310163E082E20E942F
:1028F000401361E081E20E9440130E9451136C2F4B
:1029000080E090E00E941B201F92CF9384E494E02B
:102910009F938F930E9454030F900F900F900F90EE
:1029200081E018C01F92CF9386E594E09F938F9328
:102930000E9454030F900F900F900F9080E090E052
:10294000892B21F08EE690E00E9400008FEF8093AB
:10295000990280E0CF910895789484B5826084BD17
:1029600084B5816084BD85B5826085BD85B5816093
:1029700085BD80916E00816080936E001092810011
:1029800080918100826080938100809181008160CC
:10299000809381008091800081608093800080918D
:1029A000B10084608093B1008091B0008160809319
:1029B000B00080917A00846080937A0080917A00E0
:1029C000826080937A0080917A00816080937A009F
:1029D00080917A00806880937A001092C100A89557
:1029E00080E090E0892B11F00E9400000E941610F8
:1029F00085EB93E09F938F930E945403809165022F
:102A00008D7F809365020F900F9080E090E0892B7E
:102A100051F088EA93E09F938F930E9454030E94A1
:102A200000000F900F9041E050E063E071E084E619
:102A300092E00E94FB1F6FEF81E090E00E941B205C
:102A40008091E8018F788093E8011092DE01109266
:102A5000DD018CE191E00E94280388ED9EE09093D7
:102A6000EB018093EA011F921F921F921F9283E74E
:102A700093E09F938F930E9454030E94D80A0F9073
:102A80000F900F900F900F900F900E94D80A0E9405
:102A90009103A8958091E70182FFF7CF8BE993E03E
:102AA0009F938F930E9454030E94780A0F900F9077
:102AB0008091E70182FB882780F91F928F9383E83A
:102AC00093E09F938F930E945403A8950F900F90CB
:102AD0000F900F90A8950E9491030E94E40A0E9413
:102AE000FB0FF8CFCF93ECE9F2E01382128288EE6D
:102AF00093E0A0E0B0E084839583A683B7832CE3C2
:102B000031E03183208325EC30E03587248724ECC5
:102B100030E03787268720EC30E0318B208B21ECAA
:102B200030E0338B228B22EC30E0358B248B26EC8B
:102B300030E0378B268B118E128E138E148EEEEDB5
:102B4000F3E01382128284839583A683B7838CE497
:102B500091E0918380838DEB93E00E94EA158CE9EC
:102B600093E00E94EA1585E89BEEA1E5BFE3809320
:102B7000EE039093EF03A093F003B093F10380EF83
:102B800099E2A6E1BFEB8093EA039093EB03A09355
:102B9000EC03B093ED038BE793E00E94EA15EBE7BB
:102BA000F3E081E08683C6E2C5838AE593E00E9474
:102BB000EA15EAE5F3E082E0868385E2858389E32E
:102BC00093E00E94EA15E9E3F3E083E08683C5839E
:102BD000CF910895CF93DF93FC011082118212826E
:102BE000148215821682DC0117968AE1ED01199292
:102BF0008A95E9F782E08383DF91CF910895A1E27E
:102C00001A2EAA1BBB1BFD010DC0AA1FBB1FEE1F66
:102C1000FF1FA217B307E407F50720F0A21BB30BB1
:102C2000E40BF50B661F771F881F991F1A9469F72D
:102C300060957095809590959B01AC01BD01CF0189
:102C40000895EE0FFF1F0590F491E02D0994505860
:102C5000BB27AA270E943F160C94C11F0E94B31FD6
:102C600038F00E94BA1F20F039F49F3F19F426F47F
:102C70000C94B01F0EF4E095E7FB0C94AA1FE92F0B
:102C80000E94D21F58F3BA1762077307840795078B
:102C900020F079F4A6F50C94F41F0EF4E0950B2EB9
:102CA000BA2FA02D0B01B90190010C01CA01A0019E
:102CB0001124FF27591B99F0593F50F4503E68F1F9
:102CC0001A16F040A22F232F342F4427585FF3CF3A
:102CD000469537952795A795F0405395C9F77EF40B
:102CE0001F16BA0B620B730B840BBAF09150A1F054
:102CF000FF0FBB1F661F771F881FC2F70EC0BA0FDA
:102D0000621F731F841F48F4879577956795B79561
:102D1000F7959E3F08F0B0CF9395880F08F099275C
:102D2000EE0F9795879508950E94A8160C94C11FE1
:102D30000E94BA1F58F00E94B31F40F029F45F3F71
:102D400029F00C94AA1F51110C94F51F0C94B01F7C
:102D50000E94D21F68F39923B1F3552391F3951B79
:102D6000550BBB27AA2762177307840738F09F5FAC
:102D70005F4F220F331F441FAA1FA9F335D00E2E19
:102D80003AF0E0E832D091505040E695001CCAF786
:102D90002BD0FE2F29D0660F771F881FBB1F261749
:102DA00037074807AB07B0E809F0BB0B802DBF0120
:102DB000FF2793585F4F3AF09E3F510578F00C94EF
:102DC000AA1F0C94F51F5F3FE4F3983ED4F3869559
:102DD00077956795B795F7959F5FC9F7880F911D10
:102DE0009695879597F90895E1E0660F771F881FFC
:102DF000BB1F621773078407BA0720F0621B730BAF
:102E0000840BBA0BEE1F88F7E09508950E940D170A
:102E10006894B1110C94F51F08950E94DA1F88F090
:102E20009F5798F0B92F9927B751B0F0E1F0660F8E
:102E3000771F881F991F1AF0BA95C9F714C0B130CF
:102E400091F00E94F41FB1E008950C94F41F672FD5
:102E5000782F8827B85F39F0B93FCCF386957795FE
:102E60006795B395D9F73EF49095809570956195E7
:102E70007F4F8F4F9F4F08950E94191F08F48FEFC7
:102E80000895FA01EE0FFF1F309621053105A1F1DB
:102E90006115710561F48038BFE39B0749F16894BF
:102EA0009038810561F08038BFEF9B0741F099238E
:102EB0004AF5FF3FE1053105210519F1E894089431
:102EC000E795D901AA2329F4AB2FBE2FF85FD0F3E1
:102ED00010C0FF5F70F4A695E0F7F73950F019F0D5
:102EE000FF3A38F49F779F930DD00F9007FC9058CE
:102EF000089546F00C94B01F60E070E080E89FE316
:102F000008954FE79F775F934F933F932F930E94CE
:102F100041182F913F914F915F910E943D1F0C945A
:102F20009E170E94191F880B990B089529F416F01B
:102F30000C94AA1F0C94F41F0C94B01F0E94DA1F6B
:102F4000A8F39638A0F707F80F92E8942BE33AEA33
:102F500048EB5FE70E94531F0F920F920F924DB7FD
:102F60005EB70F920E948918E8E6F0E00E94D01741
:102F70004F915F91EF91FF91E595EE1FFF1F49F093
:102F8000FE57E0684427EE0F441FFA95E1F741959C
:102F9000550B0E9403180F9007FE0C94F717089525
:102FA000DF93CF931F930F93FF92EF92DF927B01FA
:102FB0008C01689406C0DA2EEF010E94501FFE01BA
:102FC000E894A5912591359145915591A6F3EF018E
:102FD0000E943F16FE019701A801DA9469F7DF907D
:102FE000EF90FF900F911F91CF91DF9108959B017A
:102FF000AC0160E070E080E89FE30C9494160C94C0
:10300000AA1F0C94BD180E94DA1FD8F39923C9F3A4
:10301000940F511DA3F39150504094F059F0882320
:1030200032F0660F771F881F91505040C1F79E3FC6
:1030300051052CF7880F911D9695879597F908955E
:103040005F3FACF0983E9CF0BB27869577956795DF
:10305000B79508F4B1609395C1F7BB0F58F711F419
:1030600060FFE8CF6F5F7F4F8F4F9F4FE3CF0C9490
:10307000F51F16F00C94BD180C94B01F68940C94B6
:10308000AA1F0E94DA1FA8F39923C1F3AEF3DF93BE
:10309000CF931F930F93FF92C92FDD2788232AF028
:1030A0002197660F771F881FDAF720E030E040E8AD
:1030B0005FEB9FE3883920F0803E38F021968F77D0
:1030C0000E942816E0E9F0E004C00E942816EDEB0B
:1030D000F0E00E94D0178B01BE01EC01FB2E6F5770
:1030E00071097595771F880B990B0E94DE1E28E1E8
:1030F00032E741E35FE30E94501FAF2D9801AE011C
:10310000FF900F911F91CF91DF910E943F160C9479
:10311000C11FFA01DC01AA0FBB1F9B01AC01BF5705
:1031200028F4222733274427507820C0B75190F441
:10313000AB2F0024469537952795011CA395D2F314
:10314000002071F0220F331F441FB395DAF30ED025
:103150000C94271661307105A0E88A07B94630F44F
:103160009B01AC016627772788279078309621F05D
:10317000208331834283538308959F3F31F09150E0
:1031800020F4879577956795B795880F911D96954B
:10319000879597F9089581E090E0F8940C94642065
:1031A000FB01DC014150504048F001900D9200209D
:1031B000C9F701C01D9241505040E0F70895EF92C9
:1031C0000F931F93CF93DF93E80147FD02C034E0D4
:1031D00001C034E1E42F440FFF0BF7FF03C0F1956A
:1031E000E195F109E32E022F2E2FAE010E94B51BAF
:1031F000CE01DF91CF911F910F91EF900895FC01C7
:1032000088279927E89421912032E9F3293010F09A
:103210002E30C8F32B3241F02D3239F4689404C0BB
:103220000E947319820F911D219120532A30C0F3FF
:103230001EF4909581959F4F08951F93FC01992747
:103240008827BC01E89411911032E9F3193010F08D
:103250001E30C8F31B3251F01D3249F4689406C089
:103260000E945E19610F711D811D911D11911053F6
:103270001A30B0F33EF490958095709561957F4F2C
:103280008F4F9F4F1F910895BB274A3031F49923E8
:1032900022F4BDE2909581959F4F0C949E19BB2717
:1032A0002A3051F4992342F4BDE2909580957095AF
:1032B00061957F4F8F4F9F4F0C947C19592F482F4A
:1032C000372F262F660F771F881F991F660F771FCE
:1032D000881F991F620F731F841F951F660F771F2A
:1032E000881F991F08957AE0979F902D879F802DC2
:1032F000910D11240895BB27FA01A62F62177105BD
:1033000081059105330B30FB66F0AA27660F771F06
:10331000881F991FAA1FA21710F0A21B639538508F
:10332000A9F7A05DAA3308F0A95DA19336F7B11102
:10333000B1931082CA010C94311EBB27FB015527A3
:10334000AA27880F991FAA1FA41710F0A41B839502
:103350005051B9F7A05DAA3308F0A95DA193009779
:1033600079F7B111B1931192CB010C94311EAEE0FB
:10337000B0E0EDEBF9E10C943B208C01CA014EE08A
:103380004C831A83098377FF02C060E070E8FB0179
:103390003197FE83ED83A901BC01CE0101960E9405
:1033A000E3194D815E8157FD0AC02F813885421790
:1033B00053070CF49A01F801E20FF31F10822E96C6
:1033C000E4E00C945720ACE0B0E0E9EEF9E10C94B5
:1033D0002D207C016B018A01FC01178216828381FA
:1033E00081FFBDC1CE0101964C01F7019381F60129
:1033F00093FD859193FF81916F01882309F4ABC1FF
:10340000853239F493FD859193FF81916F01853267
:1034100029F4B70190E00E94411EE7CF512C312CD6
:1034200020E02032A0F48B3269F030F4803259F081
:10343000833269F420612CC08D3239F0803339F445
:10344000216026C02260246023C0286021C027FD9F
:1034500027C030ED380F3A3078F426FF06C0FAE086
:103460005F9E300D1124532E13C08AE0389E300D1C
:103470001124332E20620CC08E3221F426FD6BC144
:10348000206406C08C3611F4206802C0883641F4EE
:10349000F60193FD859193FF81916F018111C1CF59
:1034A000982F9F7D9554933028F40C5F1F4FFFE3B6
:1034B000F9830DC0833631F0833771F0833509F01D
:1034C0005BC022C0F801808189830E5F1F4F4424B6
:1034D0004394512C540115C03801F2E06F0E711C59
:1034E000F801A080B18026FF03C0652D70E002C006
:1034F0006FEF7FEFC5012C870E94261E2C018301F0
:103500002C852F77222E17C03801F2E06F0E711C28
:10351000F801A080B18026FF03C0652D70E002C0D5
:103520006FEF7FEFC5012C870E941B1E2C012C859D
:103530002068222E830123FC1BC0832D90E04816B7
:103540005906B0F4B70180E290E00E94411E3A941F
:10355000F4CFF50127FC859127FE81915F01B7012A
:1035600090E00E94411E31103A94F1E04F1A510848
:103570004114510471F7E5C0843611F0893639F5EC
:10358000F80127FF07C060817181828193810C5F00
:103590001F4F08C060817181072E000C880B990BAA
:1035A0000E5F1F4F2F76722E97FF09C09095809562
:1035B000709561957F4F8F4F9F4F2068722E2AE044
:1035C00030E0A4010E94791EA82EA81844C08537B7
:1035D00029F42F7EB22E2AE030E025C0F22FF97FA9
:1035E000BF2E8F36C1F018F4883579F0B4C080371B
:1035F00019F0883721F0AFC02F2F2061B22EB4FE12
:103600000DC08B2D8460B82E09C024FF0AC09F2FE7
:103610009660B92E06C028E030E005C020E130E019
:1036200002C020E132E0F801B7FE07C0608171817D
:10363000828193810C5F1F4F06C06081718180E0A1
:1036400090E00E5F1F4FA4010E94791EA82EA818BB
:10365000FB2DFF777F2E76FE0BC0372D3E7FA51406
:1036600050F474FE0AC072FC08C0372D3E7E05C0BF
:10367000BA2C372D03C0BA2C01C0B52C34FF0DC0B5
:10368000FE01EA0DF11D8081803311F4397E09C0FD
:1036900032FF06C0B394B39404C0832F867809F038
:1036A000B39433FD13C030FF06C05A2CB31418F482
:1036B000530C5B18B32CB31468F4B70180E290E0AC
:1036C0003C870E94411EB3943C85F5CFB31410F49F
:1036D0003B1801C0312C34FF12C0B70180E390E0E9
:1036E0003C870E94411E3C8532FF17C031FD03C05C
:1036F00088E790E002C088E590E0B7010CC0832F16
:10370000867859F031FF02C08BE201C080E237FDBC
:103710008DE2B70190E00E94411EA51438F4B70174
:1037200080E390E00E94411E5A94F7CFAA94F401DE
:10373000EA0DF11D8081B70190E00E94411EA110A9
:10374000F5CF332009F451CEB70180E290E00E941A
:10375000411E3A94F6CFF7018681978102C08FEF20
:103760009FEF2C96E2E10C9449204F925F926F926A
:103770007F929F92AF92BF92CF92DF92EF92FF9291
:103780000F931F93CF93DF93CDB7DEB729970FB673
:10379000F894DEBF0FBECDBF6A01122FB02E2BE30F
:1037A000201720F0FF24F394F00E02C0BCE3FB2EA0
:1037B0000F2D27E0AE014F5F5F4F0E94431DAC010C
:1037C0008981982F9970913031F0E1FC06C0E0FEBC
:1037D00006C090E205C09DE203C09BE201C090E0FC
:1037E000EE2DE07183FF3CC0911102C083E001C067
:1037F00084E0811718F4212F281B01C020E0E1117B
:103800000BC0F601822F30E2882319F031938150EA
:10381000FBCFC20ED11C20E0992329F0D6019C9346
:10382000F60131966F01C6010396E2FE0AC03EE43E
:10383000D6013C9341E411964C93119712963C9318
:1038400006C03EE6F601308341E641833283FC0147
:10385000322F40E2332309F442C041933150FACF72
:1038600082FF44C0911102C083E001C084E081174F
:1038700018F4212F281B01C020E0E1110BC0F60134
:10388000822F30E2882319F031938150FBCFC20E92
:10389000D11C20E0992329F0D6019C93F6013196A2
:1038A0006F01C6010396E2FE0BC039E4D6013C93DA
:1038B0003EE411963C93119736E412963C9307C070
:1038C00039E6F60130833EE6318336E63283FC0189
:1038D000322F40E2332319F041933150FBCFFC01EA
:1038E000E20FF11D10828EEF9FEFB7C0F1E0911152
:1038F00001C0F0E06F2F70E01416150624F49A0151
:103900002F5F3F4F02C021E030E0260F371FBB2062
:1039100029F06B2D70E06F5F7F4F02C060E070E0B8
:10392000260F371F612F70E0261737071CF4121B74
:10393000212F01C020E03E2D387159F4D601322FDD
:1039400060E2332319F06D933150FBCFC20ED11CCE
:1039500020E0FF2331F0D6019C93B6016F5F7F4FCB
:103960006B01E1110BC0F601922F30E3992319F09E
:1039700031939150FBCFC20ED11C20E09F2D940FAC
:103980003A81782F7071A72E84FF03C0313309F478
:103990009150191624F4993018F098E001C091E084
:1039A000E42F852F57FF02C0E0E080E06E2F782FD4
:1039B000E0E0F0E0AEE29A2E3A01691A71082A01BD
:1039C000461A570A0B2D10E01195019511096F3F0A
:1039D0008FEF780729F4D6019C92C60101966C01FD
:1039E0004617570784F0661677066CF47F01E40CDF
:1039F000F51CA1E0B0E0AC0FBD1FEA0EFB1ED70125
:103A00001196BC9002C090E3B92E615071093196B5
:103A1000C60101967C016017710724F0D601BC92A3
:103A20006C01D5CF6417750741F4363320F4353374
:103A300021F4A11002C081E3B82EF601B082F70193
:103A4000822F90E2882319F091938150FBCFF701E8
:103A5000E20FF11D108280E090E029960FB6F894F5
:103A6000DEBF0FBECDBFDF91CF911F910F91FF90B1
:103A7000EF90DF90CF90BF90AF909F907F906F902E
:103A80005F904F900895283008F027E03327DA013F
:103A9000990F311D87FD916000966105710539F41C
:103AA00032602E5F3D9330E32A95E1F708959F3F02
:103AB00030F080387105610509F03C5F3C5F3D9353
:103AC000913008F08068911DDF93CF931F930F937F
:103AD000FF92EF92192F987F9695E92F96959695DC
:103AE000E90FFF27EC5CFA4F99273327EE24FF24D8
:103AF000A701E70105900894079428F4360FE71E04
:103B0000F81E491F511D660F771F881F991F0694C5
:103B1000A1F70590079428F4E70EF81E491F561FD9
:103B2000C11D770F881F991F661F0694A1F7059086
:103B3000079428F4F80E491F561FC71FD11D880F80
:103B4000991F661F771F0694A1F70590079420F42C
:103B5000490F561FC71FD81F990F661F771F881F51
:103B60000694A9F784911095177041F0D695C795E2
:103B700057954795F794E7941A95C1F7EAEDF4E065
:103B800068941590159135916591959105907FE216
:103B90007395E118F10A430B560BC90BD009C0F716
:103BA000E10CF11E431F561FC91FD01D7EF4703358
:103BB00011F48A95E6CFE894015030F0080F0AF42A
:103BC0000027021708F4202F2395022F7A3328F0BC
:103BD00079E37D932A95E9F710C07D932A9589F6BC
:103BE000069497956795379517951794E118F10AFC
:103BF000430B560BC90BD00998F023957E91739512
:103C00007A3308F070E37C932013B8F77E917061EB
:103C10007D9330F0839571E37D9370E32A95E1F70E
:103C20001124EF90FF900F911F91CF91DF91992771
:103C300087FD90950895FC0105906150704001103A
:103C4000D8F7809590958E0F9F1F0895FC016150C5
:103C5000704001900110D8F7809590958E0F9F1FAE
:103C60000895DC01FC01672F71917723E1F732970A
:103C700004C07C916D9370836291AE17BF07C8F347
:103C800008950F931F93CF93DF93FB01238121FDB1
:103C900003C08FEF9FEF28C022FF16C046815781D7
:103CA000248135814217530744F4A081B1819D01DD
:103CB0002F5F3F4F318320838C93268137812F5F85
:103CC0003F4F3783268310C0EB01092F182F008444
:103CD000F185E02D0995892BE1F68E819F81019672
:103CE0009F838E83812F902FDF91CF911F910F9112
:103CF0000895FA01AA27283051F1203181F1E89482
:103D00006F936E7F6E5F7F4F8F4F9F4FAF4FB1E0CE
:103D10003ED0B4E03CD0670F781F891F9A1FA11DC9
:103D2000680F791F8A1F911DA11D6A0F711D811DCA
:103D3000911DA11D20D009F468943F912AE0269F8F
:103D400011243019305D3193DEF6CF010895462FEE
:103D50004770405D4193B3E00FD0C9F7F6CF462FCF
:103D60004F70405D4A3318F0495D31FD4052419338
:103D700002D0A9F7EACFB4E0A695979587957795F5
:103D80006795BA95C9F700976105710508959B017C
:103D9000AC010A2E06945795479537952795BA9505
:103DA000C9F7620F731F841F951FA01D08950E94FD
:103DB000191F08F481E00895E89409C097FB3EF4C8
:103DC00090958095709561957F4F8F4F9F4F992368
:103DD000A9F0F92F96E9BB279395F69587957795E6
:103DE0006795B795F111F8CFFAF4BB0F11F460FFA6
:103DF0001BC06F5F7F4F8F4F9F4F16C0882311F0FE
:103E000096E911C0772321F09EE8872F762F05C011
:103E1000662371F096E8862F70E060E02AF09A95AC
:103E2000660F771F881FDAF7880F9695879597F9A1
:103E30000895990F0008550FAA0BE0E8FEEF16163B
:103E40001706E807F907C0F012161306E407F5078E
:103E500098F0621B730B840B950B39F40A2661F002
:103E6000232B242B252B21F408950A2609F4A140A5
:103E7000A6958FEF811D811D08950E94501F0C94FF
:103E8000C11F0E94B31F38F00E94BA1F20F0952373
:103E900011F00C94AA1F0C94B01F11240C94F51F60
:103EA0000E94D21F70F3959FC1F3950F50E0551FEC
:103EB000629FF001729FBB27F00DB11D639FAA277F
:103EC000F00DB11DAA1F649F6627B00DA11D661FCE
:103ED000829F2227B00DA11D621F739FB00DA11DEF
:103EE000621F839FA00D611D221F749F3327A00DA9
:103EF000611D231F849F600D211D822F762F6A2F45
:103F000011249F5750409AF0F1F088234AF0EE0FA9
:103F1000FF1FBB1F661F771F881F91505040A9F7D6
:103F20009E3F510580F00C94AA1F0C94F51F5F3F33
:103F3000E4F3983ED4F3869577956795B795F79512
:103F4000E7959F5FC1F7FE2B880F911D969587958A
:103F500097F9089597F99F6780E870E060E0089509
:103F60009FEF80EC089500240A9416161706180691
:103F70000906089500240A9412161306140605066D
:103F80000895092E0394000C11F4882352F0BB0FFE
:103F900040F4BF2B11F460FF04C06F5F7F4F8F4F61
:103FA0009F4F089557FD9058440F551F59F05F3F9C
:103FB00071F04795880F97FB991F61F09F3F79F04B
:103FC00087950895121613061406551FF2CF4695CD
:103FD000F1DF08C0161617061806991FF1CF86954F
:103FE0007105610508940895E894BB276627772733
:103FF000CB0197F90895DC01CB01FC01F999FECFC3
:1040000006C0F2BDE1BDF89A319600B40D92415060
:104010005040B8F70895DC01A40FB51F415050403F
:1040200048F0CB01840F951F2E910E941C20415017
:104030005040D0F70895262FF999FECF92BD81BD4B
:10404000F89A019700B4021639F01FBA20BD0FB6D6
:10405000F894FA9AF99A0FBE08952F923F924F92D0
:104060005F926F927F928F929F92AF92BF92CF9208
:10407000DF92EF92FF920F931F93CF93DF93CDB711
:10408000DEB7CA1BDB0B0FB6F894DEBF0FBECDBF89
:1040900009942A88398848885F846E847D848C845A
:1040A0009B84AA84B984C884DF80EE80FD800C8163
:1040B0001B81AA81B981CE0FD11D0FB6F894DEBF46
:0C40C0000FBECDBFED010895F894FFCFB6
:1040CC00FFFFFF00FCE1A8A857072F0789084F083E
:1040DC002C08D107A5079307FC08B208EA092209A6
:1040EC002B872640A470DD3FE85412C0120A120A36
:1040FC0001FF0000F603800000000000920F0E0F7D
:10410C005B0F390F4D0FD90F00000000670A530ADF
:10411C004C0A490A460A450A4F4B00506F776572A4
:10412C002073656E736F72204F6E000D0A00434F43
:10413C003200312E35004D472D3831312044656D1C
:10414C006F7374726174696F6E0A0053454E30312F
:10415C0035393A006E616E00696E66006F766600E6
:10416C0056202020202020202020202000434F32C9
:10417C003A003C3430300070706D0020202020203C
:10418C00202054696D6520706F696E743A00322E70
:0C419C00312E31004E41434B0021000049
:00000001FF
