:100000000C941B010C94260C0C94FF0B0C944301D4
:100010000C9443010C9443010C9495030C944301FC
:100020000C9443010C9443010C9443010C94430140
:100030000C9443010C9443010C9443010C94430130
:100040000C94B50B0C9443010C94FF090C94D90942
:100050000C9443010C9443010C9443010C94430110
:100060000C944D0C0C94430107634236B79BD8A700
:100070001A39685618AEBAAB558C1D3CB7CC5763CD
:10008000BD6DEDFD753EF6177231BF000000803F7B
:1000900008000000BE922449123EABAAAA2ABECD97
:1000A000CCCC4C3E00000080BEABAAAAAA3E000009
:1000B0000000BF000000803F000000000008417801
:1000C000D3BB4387D1133D190E3CC3BD4282AD2B38
:1000D0003E68EC8276BED98FE1A93E4C80EFFFBE30
:1000E00001C4FF7F3F000000000000000008000284
:1000F00001000003040700000000000000000000F1
:100100000000250028002B0000000000240027002C
:100110002A00040404040404040402020202020289
:1001200003030303030301020408102040800102BB
:100130000408102001020408102000407A10F35A2D
:1001400000A0724E18090010A5D4E80000E8764817
:10015000170000E40B54020000CA9A3B000000E1C3
:10016000F505000080969800000040420F00000056
:10017000A08601000000102700000000E803000036
:1001800000006400000000000A0000000000010000
:10019000000000002C76D888DC674F0823DFC1DF21
:1001A000AE59E1B1B796E5E3E453C63AE651997624
:1001B00096E8E6C28426EB898C9B62ED407C6FFC5E
:1001C000EFBC9C9F40F2BAA56FA5F490055A2AF7A0
:1001D0005C936B6CF9676DC11BFCE0E40D47FEF5A9
:1001E00020E6B500D0ED902E030094357705008011
:1001F000841E080000204E0A000000C80C33333370
:10020000330F986E12831141EF8D2114893BE6550F
:1002100016CFFEE6DB18D1844B381BF77C1D901DF2
:10022000A4BBE424203284725E228100C9F124EC54
:10023000A1E53D27841311241FBECFEFD8E0DEBF18
:10024000CDBF11E0A0E0B1E0E2E1FDE302C0059026
:100250000D92AA38B107D9F723E0AAE8B1E001C0AE
:100260001D92A53DB207E1F711E0CBE1D1E004C05A
:100270002197FE010E940515CA31D107C9F70E94D6
:10028000F9130C94871E0C9400008091B8038460CD
:100290008093B8038091B90380788093B903E0918B
:1002A000BB03F091BC03309709F00994089580E0F6
:1002B00090E0892B21F088E090E00E9400008FEF11
:1002C0008093BA038091B80388608093B80328E1D3
:1002D00043E06FEF80E00E94CD0861E00E9465116D
:1002E0000C94C1120F931F930E94730B0091B003E3
:1002F0001091B1032091B2033091B303601B710BD5
:10030000820B930B1F910F9108958091B903982F41
:100310009077903759F0982F92959F709F5F9770C4
:100320009295907F8F78892B8093B9038091B80341
:100330008B7F8F7E8093B80380E090E0892B21F043
:1003400087E690E00E94000029986CE080E20C941F
:100350009D128091B5018F3FA1F480E090E0892B40
:1003600021F086E090E00E94000023E043E06FEF80
:1003700080E00E94CD0863E571E00E9408120C94B1
:10038000C112089580E090E0892B21F084E090E094
:100390000E9400008091B803897F81608093B80338
:1003A0008FEF8093B7018093B60127E043E06FEFB2
:1003B0000E94CD0863E571E00E9408120C94C112FE
:1003C000E8EBF3E08081877F8F7E80831092B40317
:1003D0001092B5031092B6031092B70343E050E0B9
:1003E00060E070E085EB91E00C94071E9C01809129
:1003F000AE039091AF038217930751F09091B80329
:100400009F719093B8033093AF032093AE0305C060
:100410008091B803805E8093B803E091AE03F091C1
:10042000AF030190F081E02D309709F009950E940B
:10043000730B6093B0037093B1038093B2039093F6
:10044000B30308950F931F930E9472012091B90383
:100450002077203729F000E117E220E030E004C0E7
:1004600000E61AEE20E030E00617170728073907E4
:1004700030F480E291E01F910F910C94F6011F91EE
:100480000F9108958091B9038F70863020F088E134
:1004900091E00C94F60108958091BA038F3FA1F08A
:1004A0000E94730B6093B4037093B5038093B603FB
:1004B0009093B7038091BA039091B7018913809309
:1004C000B70184E191E01BC00E947201613D774059
:1004D00081059105B0F08091B803803618F480E171
:1004E00091E00DC0877F8093B80380E090E0892B76
:1004F00021F08AE690E00E94000088E191E00C94EF
:10050000F60108958091B5018F3F59F080E090E0A9
:10051000892B21F087E090E00E94000080E191E0CB
:1005200018C00E947201613D77408105910598F0E5
:100530008091B803803618F48CE091E00AC080E026
:1005400090E0892B21F089E690E00E94000088E08D
:1005500091E00C94F60108950E947201613D77408C
:100560008105910520F48091B80381FF0895809161
:10057000B6018F3F81F08091B8038E7F8093B803DE
:1005800080E090E0892B21F085E090E00E9400005F
:100590008CE091E011C08091B803803618F488E1B6
:1005A00091E00AC080E090E0892B21F088E690E09D
:1005B0000E94000088E091E00C94F601CF93219A0C
:1005C000229ACFB7F89480918A01811124C0ECE17E
:1005D000F1E08491E0E3F1E09491E82FF0E0EE0F98
:1005E000FF1FE85FFE4FA591B491EC91E92321F440
:1005F00061E08AE00E94310A8AE00E94DC088CB542
:1006000080618CBD8CB580648CBD8DE00E94DC085F
:100610008BE00E94DC0880918A018F5F80938A01C1
:10062000CFBF29982A9A6EE080E20E949D1265E071
:1006300070E080E090E00E94390B63E083E20E946A
:100640009D126FE584E20E949D126CE485E20E9497
:100650009D1267E286E20E949D1263E780E50E9498
:100660009D1266E08DE30E949D1221E041E060E072
:1006700070E086E00E944E12C82F21E041E060E069
:1006800070E085E00E944E128C3409F040C0C73201
:10069000F1F562E082E20E949D1260E081E20E9438
:1006A0009D1263E08CE30E949D128FEF8093030103
:1006B00020E045E063E071E08BE20E944E1220E012
:1006C00045E063E071E08AE20E944E1220E045E0DE
:1006D00063E071E080E30E944E1282EE0E94BB1242
:1006E00081EE0E94BB1260E787E20E949D1280911A
:1006F000B80380618093B8038091B5018F3F81F08A
:100700000E945B1381110CC088E091E00BC080E077
:1007100090E0892BC9F387E690E00E940000F4CFB7
:1007200088E191E0CF910C94F6011F920F920FB6E1
:100730000F9211240F900FBE0F901F9018950895DF
:100740008EBD00000DB407FEFDCF8EB508952F922B
:100750003F924F925F926F927F928F929F92AF9251
:10076000BF92CF92DF92EF92FF920F931F93CF939E
:10077000DF93CDB7DEB72C970FB6F894DEBF0FBE70
:10078000CDBFE091AE03F091AF030280F381E02D85
:10079000309709F009958091B80384FB992490F86B
:1007A00084FF8BC386E0B82E00E010E096E0A92E0F
:1007B00028E0822E30E5732E40E0C42E40E0D42E97
:1007C00051E2652E21E041E060E070E087E10E94A7
:1007D0004E1280FD03C0BA94B11062C08091B8037C
:1007E00082FF6BC30E94730B2091A503222309F49F
:1007F00064C300918B0110918C0120918D01309187
:100800008E016B017C01C01AD10AE20AF30A45EF9E
:10081000C41641E0D406E104F10408F44EC320916B
:100820008F0121110BC080E090E0892B21F082E73D
:1008300090E00E9400001092A5033FC32150209336
:100840008F0160938B0170938C0180938D01909345
:100850008E01C090A603D090A703E090A803F0906B
:10086000A90300919001109191010150110922E01A
:1008700044E06FEF80E00E94CD08FC018381877027
:100880008063838384818F71806C8483D086C782E8
:10089000F286E18614870387CF010E9454130DC3AB
:1008A0000115110521F081E090E00E94000021E097
:1008B00041E060E070E080E60E944E12582EA0E217
:1008C000EA2EE81620F482EE0E94BB12512C21E0A1
:1008D000452D6AEF72E081E60E944E1260E487E2E5
:1008E0000E949D129091FD02292F2695269526950E
:1008F0002A3108F029E192FD03C037E0320F01C030
:1009000030E2E091FE025091FF02F090FB028091F4
:10091000FA02E090FC02531639F00115110509F4B2
:1009200051CF8CE690E00AC0392F3370323049F055
:100930000115110509F446CF8DE690E00E940000F4
:1009400041CF4E2F47703091B90330683093B903CF
:100950003091B501E3128BC130E0B901F3E0660FCD
:10096000771FFA95E1F79770962B9093FD02D901C6
:10097000A650BD4F17961C92E3FF1BC0EAEFF2E0B2
:10098000A9EDB2E0862D01900D928A95E1F7809154
:10099000DD02877F80618093DD02E092DA02F092CF
:1009A000DB0289ED92E04B875C870E9454135C85E3
:1009B0004B858091FE0284FD55C1433041F49091F6
:1009C000FF0221EF290F233008F081C1FBCE443014
:1009D00009F048C18091FF02813009F05CC048E015
:1009E00050E061E073E086EA93E00E94A119892B50
:1009F00009F438C10115110521F080E190E00E9451
:100A00000000E1E0F3E0A6EAB3E0882D01900D924A
:100A10008A95E1F78CB580931E038DB580931F03F3
:100A200080911B030E94DC08709220031092210326
:100A30000E948F0A60E08BEA0E94B60A0E948F0A29
:100A400080911C0390911D03892B09F40EC20E9412
:100A50007D0A8FE90E94A00380E00E94A003E82E97
:100A6000F12CFE2CEE2480E00E94A003E82A0E94D4
:100A70008F0A80911C0390911D03E816F90609F472
:100A8000F4C10115110521F081E790E00E940000FA
:100A90001092A50397CE833009F0E4C08091A5039E
:100AA000882309F48FCE8091900190919101019754
:100AB00020910503309106032817390739F00115F5
:100AC000110509F47FCE82E190E038CF01151105C0
:100AD00021F081E190E00E940000E0909001F09010
:100AE0009101B701B4E0660F771FBA95E1F7665040
:100AF000710980E090E020E130E047E053E00E949F
:100B0000DC0A0E94A00A8111FCCF41E0E41AF1083E
:100B1000F0929101E0929001EF2809F08FC01092BD
:100B2000A503FAE0EF2EF12C44244A94542C809132
:100B3000AA039091AB0374E0880F991F7A95E1F7AF
:100B400097012A5031092817390748F560E083E0FA
:100B50000E94B60A80E00E94A003C701892F0E946C
:100B6000A0038E2D0E94A00380E00E94A0038B872B
:100B70000E948F0A8B85482688E09201369527953A
:100B800040FE06C0290191E0492690EA592601C09D
:100B90002901815091F7EFEFEE1AFE0AC8CF80913C
:100BA000AC039091AD034816590609F040C048E0E7
:100BB00050E06BE171E086EA93E00E941F1E809195
:100BC000AA039091AB0364E0880F991F6A95E1F73F
:100BD000AE014F5F5F4F2AE0FA0111922A95E9F7C3
:100BE00026E429832CE42A8328E52B8329E42C831B
:100BF0002DE42D8327E42E832AE32F832A879887E9
:100C000089872AE030E060E070E0CB010E94DC0AD6
:100C10000E94A00A8111FCCF98E088E10FB6F894F9
:100C2000A895809360000FBE90936000FFCF0115E0
:100C3000110521F083E790E00E940000A0928F014F
:100C400010928B0110928C0110928D0110928E01E6
:100C5000B9CD913009F4E6C09A3009F4B3CD9C3196
:100C600009F4B0CD8AEF92E00E94D20DABCDFFEF38
:100C7000EF12A8CD433031F59091B80392FF03C035
:100C8000573009F49FCD583009F49CCD543109F008
:100C900099CD9091B601891395CD0E94730B737015
:100CA000882799270E94390BE090B60125E143E09F
:100CB0006FEF8F2D0E94CD086E2D0E9465110E944E
:100CC000C11280CD9091B60189137CCDCBCF543029
:100CD00039F48AEF92E00E943D120E945B1372CDBC
:100CE0005830E1F4E090B803E0FE6CCD8AEF92E07A
:100CF0000E943D128F3F09F465CD91E0980F9F3F10
:100D000009F460CD8091B701981708F05BCDE1FC44
:100D100059CD9093B701F092B60154CD583141F4BA
:100D200029E143E06FEF8F2D0E94CD0861E0C5CF30
:100D3000593171F48091B80383FF44CD877F80934C
:100D4000B8038AEF92E00E943D128093BA033ACD35
:100D50002091FB02211185C09D3099F480E090E044
:100D6000892B21F08BE090E00E94000098E088E160
:100D70000FB6F894A895809360000FBE9093600022
:100D8000FFCF9B31A9F48AEF92E00E943D1291E0DF
:100D9000811101C090E08091B40190FB80F98093B3
:100DA000B4010115110509F40DCD8AE090E0C6CD1E
:100DB0009630A9F490910103992329F081E09D34A4
:100DC00019F080E001C0892D8093B30141E050E02B
:100DD00063E071E083EB91E00E941F1EF3CC93313E
:100DE00019F40E947111EECC923109F032CF0E94B9
:100DF00072011B012C0126E143E06FEF80E00E94AD
:100E0000CD08FC0184818F71806A8483838187701F
:100E1000806283832782308641865286CF010E947A
:100E20005413D0CCC114D10409F4CCCC829586954E
:100E30008770853049F460910103709102038091BD
:100E40000303909104030AC0811105C081E093E07F
:100E50000E940B1A03C060E070E0CB010E9400000A
:100E6000B1CC9A3109F0FECEADCC61E081E00E94B8
:100E7000B60A80E00E94A0030E948F0A61E082E52A
:100E80000E94B60A80E00E94A00380E00E94A003B6
:100E900080E00E94A0030E948F0A0E94A00A811194
:100EA000FCCF8091AA039091AB0390939101809322
:100EB000900181E08093A503C1CE2C960FB6F894E3
:100EC000DEBF0FBECDBFDF91CF911F910F91FF907D
:100ED000EF90DF90CF90BF90AF909F908F907F90DA
:100EE0006F905F904F903F902F9008958CBD9DBD67
:100EF0000895CF92DF92EF92FF920F931F93CF93BB
:100F0000DF936C017A018B01C0E0D0E0CE15DF05E4
:100F100089F0D8016D918D01D601ED91FC91019080
:100F2000F081E02DC6010995892B11F47E0102C0E4
:100F30002196ECCFC701DF91CF911F910F91FF90C8
:100F4000EF90DF90CF900895FC01918D828D9817DE
:100F500061F0828DDF01A80FB11D5D968C91928D9D
:100F60009F5F9F73928F90E008958FEF9FEF08959A
:100F7000FC01918D828D981731F0828DE80FF11D63
:100F8000858D90E008958FEF9FEF0895FC01918D7E
:100F9000228D892F90E0805C9F4F821B91098F7377
:100FA0009927089588EB91E00E94C60721E0892BDC
:100FB00009F420E0822F0895FC01848DDF01A80F41
:100FC000B11DA35ABF4F2C91848D90E001968F7371
:100FD0009927848FA689B7892C93A089B1898C9190
:100FE00080648C93938D848D981306C00288F38956
:100FF000E02D80818F7D80830895EF92FF920F9383
:101000001F93CF93DF93EC0181E0888F9B8D8C8DB4
:10101000981305C0E889F989808185FD24C0F62EE2
:101020000B8D10E00F5F1F4F0F731127E02E8C8D7B
:10103000E8120CC00FB607FCFACFE889F989808165
:1010400085FFF5CFCE010E94DC07F1CF8B8DFE012D
:10105000E80FF11DE35AFF4FF0820B8FEA89FB89FD
:101060008081806207C0EE89FF896083E889F98901
:1010700080818064808381E090E0DF91CF911F9137
:101080000F91FF90EF900895CF93DF93EC01888D3F
:101090008823C9F0EA89FB89808185FD05C0A8897C
:1010A000B9898C9186FD0FC00FB607FCF5CF808102
:1010B00085FFF2CFA889B9898C9185FFEDCFCE014C
:1010C0000E94DC07E7CFDF91CF91089580E090E0A8
:1010D000892B29F00E94D20781110C9400000895F9
:1010E0003FB7F8948091950390919603A091970350
:1010F000B091980326B5A89B05C02F3F19F0019623
:10110000A11DB11D3FBFBA2FA92F982F8827820F8D
:10111000911DA11DB11DBC01CD0142E0660F771FDD
:10112000881F991F4A95D1F70895089585ED8093FA
:10113000BC008091BC0084FDFCCF10926A0308952E
:1011400008958FEF9FEF08950F931F93CF93DF9331
:10115000EC0188819981009729F02A813B8126172B
:10116000370788F48B016F5F7F4F0E94D21800977A
:1011700061F0998388831B830A832C813D81232B13
:1011800011F4FC01108281E001C080E0DF91CF9179
:101190001F910F9108950E949C19E9EDF2E0909142
:1011A000B501918382836683258347708481807E25
:1011B000482B4483CF01089590E0FC01EA5DFE4F87
:1011C0002491FC01EE5EFE4F8491882399F090E01B
:1011D000880F991FFC01E85FFE4FA591B491FC01B7
:1011E000E250FF4F859194918FB7F894EC91E22BE8
:1011F000EC938FBF0895FC018091B50181839481A8
:10120000907F916094838091B40180FF03C0CF01EF
:101210000C94541380E00895CF93DF93262F8F3FD3
:1012200011F0EA0102C0CEE4D1E040E0682F80E096
:101230000E94CD08BE010E940812DF91CF910C944C
:101240005413EF92FF920F931F93CF93DF93FC0100
:10125000248135816115710511F480E019C04115B3
:101260005105A9F07B01EC018A01020F131FB8019F
:101270000E94A408882389F3288139818C819D816B
:10128000B701820F931F0E94B7191D830C8381E061
:10129000DF91CF911F910F91FF90EF900895CF9321
:1012A000DF93EC0188819981009711F00E943A1830
:1012B000198218821D821C821B821A82DF91CF91B3
:1012C0000895CF93DF93EC016115710561F0FB0187
:1012D00001900020E9F73197AF01461B570B0E94A0
:1012E0002109811103C0CE010E944F09CE01DF9177
:1012F000CF910895EF92FF920F931F93CF93DF93B7
:10130000EC017B018A01BA010E94A408811104C08A
:10131000CE010E944F0907C01D830C83B70188814D
:1013200099810E94B719CE01DF91CF911F910F9142
:10133000FF90EF900895EF92FF920F931F93CF933A
:10134000DF93CDB7DEB7A1970FB6F894DEBF0FBE1F
:10135000CDBF7C01CB01BA01F7011182108213824B
:1013600012821582148242E0420F8E010F5F1F4FDE
:101370000E94CD19009769F0FC0101900020E9F767
:101380003197AF01481B590BBC01C7010E947A0974
:1013900003C0C7010E944F09A1960FB6F894DEBFA3
:1013A0000FBECDBFDF91CF911F910F91FF90EF90B6
:1013B00008951F920F920FB60F9211242F933F930F
:1013C0004F935F936F937F938F939F93AF93BF934D
:1013D000EF93FF9388EB91E00E94DC07FF91EF9180
:1013E000BF91AF919F918F917F916F915F914F913D
:1013F0003F912F910F900FBE0F901F9018951F9245
:101400000F920FB60F9211242F938F939F93EF9308
:10141000FF93E091C801F091C9018081E091CE0174
:10142000F091CF0182FD12C090818091D1018F5F38
:101430008F732091D201821751F0E091D101F0E039
:10144000E854FE4F958F8093D10101C08081FF91B8
:10145000EF919F918F912F910F900FBE0F901F9042
:10146000189590E0FC01E651FF4F3491FC01EA5DD4
:10147000FE4F2491FC01EE5EFE4FE491EE2309F451
:101480003BC0332339F1333091F038F43130A9F0D7
:10149000323001F584B58F7D12C0373091F038308D
:1014A000A1F03430B9F4809180008F7D03C0809129
:1014B00080008F77809380000DC084B58F7784BDC6
:1014C00009C08091B0008F7703C08091B0008F7DFC
:1014D0008093B000F0E0EE0FFF1FE250FF4FA591A8
:1014E000B4918FB7F894EC91611103C020952E232D
:1014F00001C02E2B2C938FBF0895CF93DF938CB513
:10150000CBE1D3E08B838DB58C838D819E810E944E
:10151000760760E08881DF91CF910C94310ACF93F8
:10152000DF93CBE1D3E061E088810E94310A0E9421
:101530009F038B818CBD8C818DBDDF91CF910895F0
:10154000CF93DF931F92CDB7DEB70E947D0A85E06F
:101550000E94A00380E00E94A00389830E948F0A5A
:10156000898181700F90DF91CF9108951F93CF9360
:10157000DF931F92CDB7DEB7182F662331F060E0FE
:1015800086E00E94B60A0E948F0A0E947D0A85E0CA
:101590000E94A00380E00E94A00389830E948F0A1A
:1015A000898180FDF2CF0E947D0A812F0F90DF910B
:1015B000CF911F910C94A0034F925F926F927F92F4
:1015C0008F929F92AF92BF92CF92DF92EF92FF9253
:1015D0000F931F93CF93DF934B015C016A01890145
:1015E000CB019927C0E0D1E0C81BD90BE12CF12C2D
:1015F0000115110569F10C171D0708F4E80161E0F8
:1016000082E00E94B60A8A2D0E94A003892D0E94C2
:10161000A003882D0E94A00326014E0C5F1C3201FE
:10162000F30181913F010E94A003C3018419950930
:101630008C179D07A8F30E948F0A8C0E9D1EA11C7B
:10164000B11CEC0EFD1E0C1B1D0BC0E0D1E0D0CF79
:10165000DF91CF911F910F91FF90EF90DF90CF908E
:10166000BF90AF909F908F907F906F905F904F90C2
:1016700008958F929F92AF92BF92CF92DF92EF9296
:10168000FF926B017C010E9470084B015C01C11448
:10169000D104E104F104F1F00E947008DC01CB01F7
:1016A00088199909AA09BB09883E9340A105B1058B
:1016B00070F321E0C21AD108E108F10888EE880E23
:1016C00083E0981EA11CB11CC114D104E104F104F3
:1016D00019F7DDCFFF90EF90DF90CF90BF90AF90E4
:1016E0009F908F9008952FB7F89460919103709117
:1016F000920380919303909194032FBF0895CF920A
:10170000DF92EF92FF92CF93DF93D82F0E94730B5B
:101710006B017C0181E0D11180E08093FF02C0E089
:101720000E94730BAB01BC014C195D096E097F0966
:10173000403D57406105710580F4C1110EC0A89568
:101740000E94A7039091FE029770933049F7C1E081
:101750008091FF028D13E3CFE3CF8C2FDF91CF91E8
:10176000FF90EF90DF90CF9008951F920F920FB6E9
:101770000F9211242F933F938F939F93AF93BF9317
:101780008091910390919203A0919303B09194035F
:101790003091900323E0230F2D3720F40196A11DF3
:1017A000B11D05C026E8230F0296A11DB11D20938F
:1017B00090038093910390939203A0939303B0932B
:1017C00094038091950390919603A0919703B09113
:1017D00098030196A11DB11D8093950390939603E4
:1017E000A0939703B0939803BF91AF919F918F916E
:1017F0003F912F910F900FBE0F901F9018951F9241
:101800000F920FB60F9211242F933F934F935F9334
:101810006F937F938F939F93AF93BF93EF93FF93B8
:10182000E0911E01F0911F010995FF91EF91BF9189
:10183000AF919F918F917F916F915F914F913F9168
:101840002F910F900FBE0F901F9018951F920F921F
:101850000FB60F9211242F933F934F935F936F9383
:101860007F938F939F93AF93BF93EF93FF93E091F9
:101870001C01F0911D010995FF91EF91BF91AF916E
:101880009F918F917F916F915F914F913F912F9198
:101890000F900FBE0F901F9018951F920F920FB6CA
:1018A0000F9211242F933F934F935F936F937F93E6
:1018B0008F939F93AF93BF93EF93FF938091B90062
:1018C000887F803609F49CC068F5883209F45BC0D3
:1018D00090F4803109F454C038F4882309F4F6C038
:1018E000883009F44DC0F6C0883109F44CC080320C
:1018F00009F45DC0EFC0803409F468C048F4803357
:1019000009F455C0883309F0E5C080936903D8C055
:10191000803509F44FC0883509F45DC0883409F07A
:10192000D9C0D6C0883909F4C7C0A8F4883709F4EB
:1019300067C038F4883609F463C0803709F460C0A2
:10194000C9C0883809F4B8C0803909F45FC080384C
:1019500009F0C0C05BC0803B09F486C038F4803A0F
:1019600009F466C0883A09F47FC0B4C0803C09F429
:10197000A7C0883C09F4A4C0883B09F48AC0AAC067
:1019800080918F0310C090918E0380918D039817E2
:1019900070F5E0918E0381E08E0F80938E03F0E06E
:1019A000E359FC4F80818093BB0085EC86C0809317
:1019B00069038EC0E0918E0381E08E0F80938E03C9
:1019C0008091BB00F0E0E359FC4F808390918E033F
:1019D00080918D036EC0E0918E0381E08E0F809325
:1019E0008E038091BB00F0E0E359FC4F808380912F
:1019F0006C0381116DC081E080936B0384EA61C048
:101A000083E080936A0310926803CFCF80916803CC
:101A1000803208F051C0E091680381E08E0F80931E
:101A200068038091BB00F0E0E85BFC4F8083BDCF92
:101A300085EC8093BC0010926A0380916803803229
:101A400030F4E0916803F0E0E85BFC4F10826091B5
:101A5000680370E0E0914603F091470388E493E067
:101A600009951092680336C084E080936A0310924F
:101A7000450310924403E0914203F091430309951A
:101A800080914403811105C081E08093440310924A
:101A90002203E091450381E08E0F80934503F0E03F
:101AA000EE5DFC4F80818093BB0090914503809157
:101AB0004403981708F479CF85E88093BC000AC0E6
:101AC00085EC8093BC0010926A0304C010926903F5
:101AD0000E949608FF91EF91BF91AF919F918F91D6
:101AE0007F916F915F914F913F912F910F900FBE1A
:101AF0000F901F90189540914403262F30E0240F3B
:101B0000311D21323105DCF420916A032430C9F4FF
:101B1000FC0180E090E0861758F430914403219155
:101B2000DC01AE5DBC4FA30FB11D2C930196F3CF2A
:101B300080914403680F6093440380E0089581E03E
:101B4000089582E008958FEF9FEF08958091B2018C
:101B500090E09195819591090895CF93DF9300D0FE
:101B6000CDB7DEB7CB01642F49835A830E947B0D2A
:101B70004981842F5A81952F0F900F90DF91CF913B
:101B80000895CF93DF931F92CDB7DEB7698361E0ED
:101B9000CE0101960E947B0D81E090E00F90DF91D5
:101BA000CF9108950F931F93CF93DF938C01FC0186
:101BB0008481829586958770823019F4D781C0859B
:101BC0000BC0811107C0C80107960E94ED19D82FDC
:101BD000C92F02C0D0E0C0E0F8018581893151F100
:101BE00018F5823009F4ADC0883109F0C4C08D2FDA
:101BF0009C2F68EE73E00E94D614072E000C880B11
:101C0000990B0E940E1D6093CD037093CE038093B9
:101C1000CF039093D0036D2F8EE991E00E942F1E89
:101C20006C2F8FE991E022C08B3199F18C3109F44E
:101C300065C0A1C08D2F9C2F68EE73E00E94D61462
:101C4000072E000C880B990B0E940E1D6093C90390
:101C50007093CA038093CB039093CC036D2F80EADB
:101C600091E00E942F1E6C2F81EA91E00E942F1EAE
:101C7000809159028F71806480935902809158023B
:101C80008770806180935802D0935C02C0935D029C
:101C900055C028EE33E0AD2FBC2F0E94EA146093AC
:101CA000C5037093C6038093C7039093C8038D2F19
:101CB0009C2F6AE070E00E94D61484EA91E00E94B2
:101CC0002F1E4091C5035091C6036091C7037091C8
:101CD000C803809159028F71806A80935902809164
:101CE0005802877080628093580240935C02509340
:101CF0005D0260935E0270935F0220C0C8010E9483
:101D00003D1261E0811101C060E06093250185EA28
:101D100091E00E942F1E2091250130E08091590210
:101D20008F7180648093590280915802877080611E
:101D30008093580230935D0220935C0285E592E027
:101D400018C0C8010E943D1261E0811101C060E02D
:101D500087E00E94310AC8010E943D12811103C030
:101D600067E571E002C064E571E086E792E00E94F9
:101D700008120E94FB082091C9033091CA034091C8
:101D8000CB035091CC036091CD037091CE03809131
:101D9000CF039091D0030E940B156093C103709301
:101DA000C2038093C3039093C4032EEF3FEF4FEF22
:101DB0005FEB0E9478156093BD037093BE03809320
:101DC000BF039093C003DF91CF911F910F910895AE
:101DD0008F929F92AF92BF92CF92DF92EF92FF923B
:101DE000CF93DF9361E087E00E94310AC5E0D0E045
:101DF000C12CD12C76018091240120E4829FC00166
:101E0000112480937C0080917A00806480937A0012
:101E100080917A0086FDFCCF809178002091790036
:101E200090E0922BBC01990F880B990B0E940E1D1C
:101E30009B01AC01C701B6010E940C156B017C012E
:101E400062E370E080E090E00E94390B219799F600
:101E500020E030E040EA50E4C701B6010E94781566
:101E600020E030E040E250E40E94491D20E030E0F4
:101E700040E85AE30E94491D4B015C012091CD03CB
:101E80003091CE034091CF035091D0030E940B15A7
:101E90002091BD033091BE034091BF035091C00318
:101EA0000E94781527E238E846E250E40E940C15BB
:101EB0009B01AC0160E070E080E291E40E9420169A
:101EC0000E94EA156B017C01809125018823D1F0E5
:101ED0008091BB02877088628093BB028091BC02B4
:101EE000806E8093BC028092BF029092C002A0924A
:101EF000C102B092C20283E08093C30288EB92E0F9
:101F00000E94FB0880919B028F71806880939B02E6
:101F100080919A028770806280939A02C0929E029A
:101F2000D0929F02E092A002F092A10287E992E093
:101F30000E94FB08C090C503D090C603E090C70381
:101F4000F090C8030E94730B4B015C010E94730B5D
:101F5000DC01CB0188199909AA09BB098C159D05DB
:101F6000AE05BF0520F4A8950E94A703EFCFDF912F
:101F7000CF91FF90EF90DF90CF90BF90AF909F9068
:101F80008F9008951092240187E00E94DC0861E0A0
:101F900087E00C94310A2F923F924F925F926F929A
:101FA0007F928F929F92AF92BF92CF92DF92EF92E9
:101FB000FF920F931F93CF93DF93CDB7DEB7A59713
:101FC0000FB6F894DEBF0FBECDBF1F861E86198ADE
:101FD000188A1B8A1A8A8E01025F1F4F40E050E068
:101FE00063E571E0C8010E947A098FE991E00E94DF
:101FF000171EF82E8EE991E00E94171E6F2D70E0DB
:10200000762F6627680F711D072E000C880B990B21
:102010000E940E1D20E030E04AE754E40E9478154B
:102020006B017C016093CD037093CE038093CF034B
:102030009093D00381EA91E00E94171EB82E80EAA7
:1020400091E00E94171E4B2D50E0542F4427480F5B
:10205000511DBA01550F880B990B0E940E1D20E0EF
:1020600030E04AE754E40E9478152B013C0160936C
:10207000C9037093CA038093CB039093CC0385EA82
:1020800091E00E94171E33243394811101C0312C3A
:1020900030922501A3019201C701B6010E940B15E0
:1020A0006093C1037093C2038093C3039093C403EE
:1020B0002EEF3FEF4FEF5FEB0E9478156093BD036B
:1020C0007093BE038093BF039093C00384EA91E0B2
:1020D0000E94171E282F30E0A0E1B7E20E94781E70
:1020E0004B015C016093C5037093C6038093C703E3
:1020F0009093C803232C312C23E0B301A201CE011D
:1021000080960E949B094091CD035091CE0360912F
:10211000CF037091D00323E0CE014A960E949B0921
:102120001D8A1C8A1F8A1E8A198E188E42E050E072
:102130006CE571E0CE0144960E947A094E8D5F8D68
:102140006A8D7B8DCE0144960E942109811104C0C5
:10215000CE0144960E944F096DE571E0CE01449690
:102160000E9461097C014CA15DA168A179A10E9436
:102170002109811103C0C7010E944F096BE571E07D
:10218000C7010E9461096C012AE0CE0101967C0121
:10219000AC01C501B4010E945A1AF7010190002058
:1021A000E9F73197AF014E195F09B701C6010E94E7
:1021B0002109811103C0C6010E944F096DE571E03C
:1021C000C6010E9461096C014AE0B701C1010E9489
:1021D000321AF70101900020E9F73197AF014E194B
:1021E0005F09B701C6010E942109811103C0C60120
:1021F0000E944F09C016D10679F0F6016081718105
:102200006115710531F044815581C8010E947A0938
:1022100003C0C8010E944F098C899D890E943A1809
:102220008A8D9B8D0E943A1888A199A10E943A1824
:102230002BE043E06FEF80E00E94CD086FE571E096
:102240000E9408120E9454132CE043E06FEF80E0DC
:102250000E94CD086AE671E00E9408120E945413A1
:102260004EE651E06EE181E00E940C0944E751E046
:1022700066E182E00E940C094CE751E063E084E0F3
:102280000E940C094E855F8567E18EEF0E940C0964
:102290008E859F850E943A18A5960FB6F894DEBFEA
:1022A0000FBECDBFDF91CF911F910F91FF90EF90A7
:1022B000DF90CF90BF90AF909F908F907F906F9066
:1022C0005F904F903F902F900895FC01838187701D
:1022D0008860838384818F71806284836783CF0168
:1022E0000895CF9380E090E0892B21F08CE090E07E
:1022F0000E9400008091DC02877080658093DC0280
:102300008091DD028871846C8093DD0288E0E6EACA
:10231000F3E0A0EEB2E001900D928A95E1F783E040
:1023200090E09093E9028093E8021092A50320E0E8
:1023300044E06FEF80E00E94CD080E9454132FE02C
:1023400043E06FEF80E00E94CD0863E571E00E94FA
:1023500008128091DC02877080618093DC0280919A
:10236000DD028F71806C8093DD0281E08093E0025A
:102370001092E10289ED92E00E9454138FE00E94D6
:102380007F0B43E551E061E18FEF0E940C09C091A2
:10239000B60126E043E06FEF80E00E94CD086C2F8D
:1023A0000E9465110E94541386E00E947F0BCF911A
:1023B0000C94CB0FCF938091B40181FD27C00E9474
:1023C000711180E090E0892B21F089E090E00E947B
:1023D00000008091B40181608093B401C4E02AE1DF
:1023E00043E06FEF80E00E94CD0862E00E9465113B
:1023F0000E9454138BE10E947F0B811102C0C150D7
:1024000071F78091B40182608093B401CF910895F7
:102410000F931F93CF93DF93EC016115710561F06A
:10242000FB0101900020E9F73197E61BF70BE9313A
:10243000F10518F0E9E101C0E0E00E2F10E0C8015D
:1024400023E0880F991F2A95E1F79B819770892BCC
:102450008B838C818F718C83EE2329F0A801CE01B0
:1024600007960E94BE19FE01E00FF11F1782CE01F0
:10247000DF91CF911F910F910895FC012481229546
:1024800026952770213011F487810895211104C009
:1024900007960E94ED19089580E00895AF92BF92CB
:1024A000CF92DF92EF92FF920F931F93CF93DF9320
:1024B0001F92CDB7DEB7D82E7B01142F022F81E5F6
:1024C00091E00E9476072A98E3E2F0E03197F1F775
:1024D0008D2D0E94A00357011123D1F0002369F034
:1024E0008FEF0E94A003E114F10481F0F5018083D5
:1024F00095012F5F3F4F590109C065013FEFC31A96
:10250000D30AF50180810E94A00356011150E4CF47
:102510002A9A89830E949F03E3E2F0E03197F1F762
:1025200089810F90DF91CF911F910F91FF90EF90D4
:10253000DF90CF90BF90AF900895CF93DF931F921D
:10254000CDB7DEB7698320E041E0BE016F5F7F4F0A
:102550000E944E120F90DF91CF9108956FE080E2BC
:102560000E949D12609126016F3F19F08AE20E943D
:102570009D12299A089520E040E060E070E00C94FC
:102580004E120F931F93CF93DF93FC0182819091A2
:10259000B80390FF04C08F3F09F04FC005C08F3FC4
:1025A00019F0D091B60101C0DFEF8091B5018083B1
:1025B000438142FD06C0469546954695C7E0C40F47
:1025C00001C0C0E28F0180E090E0892B21F080E023
:1025D00090E00E940000299883E092E00197F1F7D3
:1025E0006EE080E20E949D128BE891E00197F1F786
:1025F0006D2F8AE20E949D126D2F80E30E949D1232
:1026000081EE0E94BB12DF3F11F080EA01C080EB37
:102610004C2FC13208F040E220E0B8010E944E1277
:10262000299A00E010E08FEF0E94BB12C82F807340
:1026300031F401501109B9F702C0C0E02FC0299848
:1026400060E387E20E949D12C4FF03C081EE0E94F6
:10265000BB120E94AE12C5FBCC27C0F991E0DF3F50
:1026600009F090E0C92B8091B601D81317C0C111B1
:1026700010C080E090E0892B21F085E690E00E9478
:1026800000008091B90391E0980F9F70807F892BA3
:1026900003C08091B903807F8093B9038C2FDF91B1
:1026A000CF911F910F9108952091B80322FD0C94B2
:1026B000C11280E00895CF93C82F8FEF8C0F8E3F0B
:1026C000A8F4C093B501C093260163E082E20E94A2
:1026D0009D1261E081E20E949D120E94AE126C2F59
:1026E00080E090E00E942F1E81E00CC080E090E02E
:1026F000892B21F08EE690E00E9400008FEF8093FE
:10270000B50180E0CF910895CF93E8EBF1E013821B
:10271000128288EE93E0A0E0B0E084839583A683E4
:10272000B78322E331E03183208325EC30E0358725
:10273000248724EC30E03787268720EC30E0318B8B
:10274000208B21EC30E0338B228B22EC30E0358B78
:10275000248B26EC30E0378B268B118E128E138E55
:10276000148EE9E9F3E01382128284839583A683B1
:10277000B78382E491E091838083EBE1F3E080E52D
:102780008583168288E0808385E69FE1928381833A
:102790008AEF92E00E94C11489ED92E00E94C11478
:1027A00088EB92E00E94C114E8EBF2E081E08683BE
:1027B00086E2858387E992E00E94C114E7E9F2E0AE
:1027C000C2E0C68385E2858386E792E00E94C11459
:1027D000E6E7F2E084E08683C58385E592E00E9427
:1027E000C114E5E5F2E08EEF868380E38583CF9127
:1027F0000895789484B5826084BD84B5816084BD79
:1028000085B5826085BD85B5816085BD80916E008E
:10281000816080936E0010928100809181008260BF
:1028200080938100809181008160809381008091FC
:1028300080008160809380008091B10084608093EB
:10284000B1008091B00081608093B00080917A00E7
:10285000846080937A0080917A00826080937A000D
:1028600080917A00816080937A0080917A008068FC
:1028700080937A001092C100A89580E090E0892BA7
:1028800011F00E940000E091C801F091C90182E0BE
:102890008083E091C401F091C5011082E091C601EE
:1028A000F091C70180E180831092D001E091CC01CA
:1028B000F091CD0186E08083E091CA01F091CB01D7
:1028C000808180618083E091CA01F091CB01808199
:1028D00088608083E091CA01F091CB01808180689B
:1028E0008083E091CA01F091CB0180818F7D80834C
:1028F0008091B4018D7F8093B40180E090E0892BBA
:1029000011F00E94000041E050E063E071E083EBD1
:1029100091E00E94071E48E050E06BE171E086EA1A
:1029200093E00E94071E6FEF81E090E00E942F1E4F
:102930008091B9038F788093B9031092AF031092FE
:10294000AE0380E291E00E94F6018AED91E190935E
:10295000BC038093BB030E94730B0E94730B0E9405
:10296000A703A8958091B80382FFF7CF0E94C20FFA
:10297000A895A8950E94A7030E94E80E0E946608E9
:10298000F8CFCF93DF93FC01108211821282148260
:1029900015821682DC0117968AE1ED0119928A955B
:1029A000E9F782E08383DF91CF91089597FB072EAB
:1029B00016F4009407D077FD09D00E94F11407FCAB
:1029C00005D03EF4909581959F4F0895709561953F
:1029D0007F4F08950E94781EB7FF0895821B930BC6
:1029E0000895AA1BBB1B51E107C0AA1FBB1FA61756
:1029F000B70710F0A61BB70B881F991F5A95A9F7A8
:102A000080959095BC01CD010895EE0FFF1F0590B4
:102A1000F491E02D09945058BB27AA270E94231552
:102A20000C94CD1D0E94BF1D38F00E94C61D20F0E1
:102A300039F49F3F19F426F40C94BC1D0EF4E09574
:102A4000E7FB0C94B61DE92F0E94DE1D58F3BA1760
:102A5000620773078407950720F079F4A6F50C94B4
:102A6000001E0EF4E0950B2EBA2FA02D0B01B9011C
:102A700090010C01CA01A0011124FF27591B99F0F4
:102A8000593F50F4503E68F11A16F040A22F232F00
:102A9000342F4427585FF3CF469537952795A79550
:102AA000F0405395C9F77EF41F16BA0B620B730BF7
:102AB000840BBAF09150A1F0FF0FBB1F661F771F68
:102AC000881FC2F70EC0BA0F621F731F841F48F41D
:102AD000879577956795B795F7959E3F08F0B0CFA6
:102AE0009395880F08F09927EE0F9795879508958D
:102AF0000E948C150C94CD1D0E94C61D58F00E949A
:102B0000BF1D40F029F45F3F29F00C94B61D511110
:102B10000C94011E0C94BC1D0E94DE1D68F39923C9
:102B2000B1F3552391F3951B550BBB27AA276217C9
:102B30007307840738F09F5F5F4F220F331F441FD6
:102B4000AA1FA9F335D00E2E3AF0E0E832D091500A
:102B50005040E695001CCAF72BD0FE2F29D0660FF7
:102B6000771F881FBB1F261737074807AB07B0E83A
:102B700009F0BB0B802DBF01FF2793585F4F3AF040
:102B80009E3F510578F00C94B61D0C94011E5F3FDA
:102B9000E4F3983ED4F3869577956795B795F795C6
:102BA0009F5FC9F7880F911D9695879597F90895AE
:102BB000E1E0660F771F881FBB1F6217730784074A
:102BC000BA0720F0621B730B840BBA0BEE1F88F759
:102BD000E09508950E94F1156894B1110C94011EBE
:102BE00008950E94E61D88F09F5798F0B92F992705
:102BF000B751B0F0E1F0660F771F881F991F1AF0E8
:102C0000BA95C9F714C0B13091F00E94001EB1E02E
:102C100008950C94001E672F782F8827B85F39F02D
:102C2000B93FCCF3869577956795B395D9F73EF480
:102C300090958095709561957F4F8F4F9F4F089528
:102C4000FA01EE0FFF1F309621053105A1F1611544
:102C5000710561F48038BFE39B0749F168949038AF
:102C6000810561F08038BFEF9B0741F099234AF559
:102C7000FF3FE1053105210519F1E8940894E79536
:102C8000D901AA2329F4AB2FBE2FF85FD0F310C0CF
:102C9000FF5F70F4A695E0F7F73950F019F0FF3AAE
:102CA00038F49F779F930DD00F9007FC90580895AC
:102CB00046F00C94BC1D60E070E080E89FE308954E
:102CC0004FE79F775F934F933F932F930E941B177C
:102CD0002F913F914F915F910E94491D0C9478165E
:102CE00029F416F00C94B61D0C94001E0C94BC1D17
:102CF0000E94E61DA8F39638A0F707F80F92E89413
:102D00002BE33AEA48EB5FE70E945F1D0F920F92B8
:102D10000F924DB75EB70F920E946317E8E6F0E09E
:102D20000E94AA164F915F91EF91FF91E595EE1FDA
:102D3000FF1F49F0FE57E0684427EE0F441FFA9545
:102D4000E1F74195550B0E94DD160F9007FE0C949C
:102D5000D1160895DF93CF931F930F93FF92EF92B5
:102D6000DF927B018C01689406C0DA2EEF010E948D
:102D70005C1DFE01E894A5912591359145915591F1
:102D8000A6F3EF010E942315FE019701A801DA9432
:102D900069F7DF90EF90FF900F911F91CF91DF9136
:102DA00008959B01AC0160E070E080E89FE30C9423
:102DB00078150C94B61D0C9497170E94E61DD8F355
:102DC0009923C9F3940F511DA3F39150504094F0EF
:102DD00059F0882332F0660F771F881F91505040BA
:102DE000C1F79E3F51052CF7880F911D9695879549
:102DF00097F908955F3FACF0983E9CF0BB2786950D
:102E000077956795B79508F4B1609395C1F7BB0FB7
:102E100058F711F460FFE8CF6F5F7F4F8F4F9F4FE0
:102E2000E3CF0C94011E16F00C9497170C94BC1D64
:102E300068940C94B61D0E94E61DA8F39923C1F373
:102E4000AEF3DF93CF931F930F93FF92C92FDD272C
:102E500088232AF02197660F771F881FDAF720E072
:102E600030E040E85FEB9FE3883920F0803E38F0A7
:102E700021968F770E940C15E0E9F0E004C00E94D3
:102E80000C15EDEBF0E00E94AA168B01BE01EC01DF
:102E9000FB2E6F5771097595771F880B990B0E9450
:102EA0000E1D28E132E741E35FE30E945C1DAF2D78
:102EB0009801AE01FF900F911F91CF91DF910E9479
:102EC00023150C94CD1DFA01DC01AA0FBB1F9B0139
:102ED000AC01BF5728F4222733274427507820C05D
:102EE000B75190F4AB2F0024469537952795011CD8
:102EF000A395D2F3002071F0220F331F441FB39526
:102F0000DAF30ED00C940B1561307105A0E88A0736
:102F1000B94630F49B01AC01662777278827907863
:102F2000309621F0208331834283538308959F3F5D
:102F300031F0915020F4879577956795B795880F74
:102F4000911D9695879597F90895CF93DF938230D9
:102F5000910510F482E090E0E091D303F091D40366
:102F600020E030E0C0E0D0E0309711F140815181A5
:102F700048175907C0F04817590761F482819381B7
:102F8000209719F09B838A832BC09093D40380935E
:102F9000D30326C02115310519F04217530718F441
:102FA0009A01BE01DF01EF010280F381E02DDCCF49
:102FB0002115310509F1281B390B2430310590F416
:102FC00012968D919C9113976115710521F0FB016B
:102FD0009383828304C09093D4038093D303FD0131
:102FE000329644C0FD01E20FF31F8193919322506A
:102FF00031092D933C933AC02091D1033091D203F3
:10300000232B41F42091290130912A013093D203DE
:103010002093D103209127013091280121153105FA
:1030200041F42DB73EB740912B0150912C01241B48
:10303000350BE091D103F091D203E217F307A0F42E
:103040002E1B3F0B2817390778F0AC014E5F5F4FFE
:103050002417350748F04E0F5F1F5093D20340935B
:10306000D1038193919302C0E0E0F0E0CF01DF91C2
:10307000CF9108950F931F93CF93DF93009709F497
:103080008CC0FC013297138212820091D3031091FD
:10309000D4030115110581F420813181820F931F22
:1030A0002091D1033091D2032817390779F5F09395
:1030B000D203E093D10371C0D80140E050E0AE17D5
:1030C000BF0750F412962D913C911397AD01211535
:1030D000310509F1D901F3CF9D01DA013383228350
:1030E00060817181860F971F8217930769F4EC0145
:1030F00028813981260F371F2E5F3F4F3183208370
:103100008A819B8193838283452B29F4F093D40396
:10311000E093D30342C01396FC93EE931297ED0114
:10312000499159919E01240F351FE217F30771F45D
:1031300080819181840F951F029611969C938E93A6
:103140008281938113969C938E931297E0E0F0E036
:10315000D80112968D919C911397009719F0F80160
:103160008C01F6CF8D919C9198012E5F3F4F820F7D
:10317000931F2091D1033091D2032817390769F4A6
:10318000309729F41092D4031092D30302C0138213
:1031900012821093D2030093D103DF91CF911F913C
:1031A0000F910895A0E0B0E0E8EDF8E10C94451E21
:1031B000EC01009721F4CB010E94A517B8C0FC01D7
:1031C000E60FF71F9C0122503109E217F30708F4BC
:1031D000ACC0D9010D911C91119706171707B0F0DB
:1031E0000530110508F49FC0C8010497861797079A
:1031F00008F499C002501109061B170B0193119393
:103200006D937C93CF010E943A188DC05B01A01A88
:10321000B10A4C01800E911EA091D303B091D4034A
:1032200040E050E0E12CF12C109709F44AC0A815B9
:10323000B905D1F56D907C901197630182E0C80EBD
:10324000D11CCA14DB0480F1A3014A195B096A018D
:1032500082E0C80ED11C1296BC9012971396AC91C6
:10326000B5E0CB16D10440F0B282A38351834083F2
:10327000D9016D937C930AC00E5F1F4FC301800F6D
:10328000911FF90191838083EB2DFA2FE114F10452
:1032900031F0D7011396FC93EE93129744C0F0934C
:1032A000D403E093D3033FC08D919C9111974817AD
:1032B000590708F4AC017D0112960D90BC91A02D28
:1032C000B3CF8091D1039091D20388159905E1F491
:1032D00046175707C8F4809127019091280100975D
:1032E00041F48DB79EB740912B0150912C01841B66
:1032F000950BE817F907C8F4F093D203E093D103D4
:10330000F901718360830FC0CB010E94A5177C0176
:10331000009759F0A801BE010E94AE19CE010E948B
:103320003A18C70104C0CE0102C080E090E0CDB7DA
:10333000DEB7EEE00C94611E81E090E0F8940C940E
:10334000871EFB01DC0104C08D910190801921F4DE
:1033500041505040C8F7881B990B0895FB01DC01D0
:1033600002C001900D9241505040D8F70895FB01E2
:10337000DC0101900D920020E1F70895FB01DC01D2
:103380004150504048F001900D920020C9F701C013
:103390001D9241505040E0F70895EF920F931F9314
:1033A000CF93DF93E80147FD02C034E001C034E170
:1033B000E42F440FFF0BF7FF03C0F195E195F109EE
:1033C000E32E022F2E2FAE010E94961ACE01DF911E
:1033D000CF911F910F91EF900895FC0188279927B5
:1033E000E89421912032E9F3293010F02E30C8F30F
:1033F0002B3241F02D3239F4689404C00E94521AE5
:10340000820F911D219120532A30C0F31EF4909514
:1034100081959F4F08951F93FC0199278827BC0130
:10342000E89411911032E9F3193010F01E30C8F30E
:103430001B3251F01D3249F4689406C00E943D1AB7
:10344000610F711D811D911D119110531A30B0F340
:103450003EF490958095709561957F4F8F4F9F4F6B
:103460001F910895BB274A3031F4992322F4BDE21D
:10347000909581959F4F0C947D1A592F482F372F87
:10348000262F660F771F881F991F660F771F881FCB
:10349000991F620F731F841F951F660F771F881F68
:1034A000991F08957AE0979F902D879F802D910D09
:1034B00011240895BB27FA01A62F62177105810513
:1034C0009105330B30FB66F0AA27660F771F881F24
:1034D000991FAA1FA21710F0A21B63953850A9F7D5
:1034E000A05DAA3308F0A95DA19336F7B111B1939D
:1034F0001082CA010C94FC1CBB27FB015527AA278C
:10350000880F991FAA1FA41710F0A41B8395505170
:10351000B9F7A05DAA3308F0A95DA193009779F7E8
:10352000B111B1931192CB010C94FC1C4F925F929C
:103530006F927F929F92AF92BF92CF92DF92EF9263
:10354000FF920F931F93CF93DF93CDB7DEB72997E9
:103550000FB6F894DEBF0FBECDBF6A01122FB02E9A
:103560002BE3201720F0FF24F394F00E02C0BCE3FD
:10357000FB2E0F2D27E0AE014F5F5F4F0E94241CF2
:10358000AC018981982F9970913031F0E1FC06C02F
:10359000E0FE06C090E205C09DE203C09BE201C0D0
:1035A00090E0EE2DE07183FF3CC0911102C083E0FA
:1035B00001C084E0811718F4212F281B01C020E0EE
:1035C000E1110BC0F601822F30E2882319F031930C
:1035D0008150FBCFC20ED11C20E0992329F0D601E7
:1035E0009C93F60131966F01C6010396E2FE0AC074
:1035F0003EE4D6013C9341E411964C931197129608
:103600003C9306C03EE6F601308341E641833283B7
:10361000FC01322F40E2332309F442C04193315080
:10362000FACF82FF44C0911102C083E001C084E060
:10363000811718F4212F281B01C020E0E1110BC0D5
:10364000F601822F30E2882319F031938150FBCFAD
:10365000C20ED11C20E0992329F0D6019C93F601DB
:1036600031966F01C6010396E2FE0BC039E4D60124
:103670003C933EE411963C93119736E412963C93AA
:1036800007C039E6F60130833EE6318336E6328301
:10369000FC01322F40E2332319F041933150FBCF2C
:1036A000FC01E20FF11D10828EEF9FEFB7C0F1E039
:1036B000911101C0F0E06F2F70E01416150624F48C
:1036C0009A012F5F3F4F02C021E030E0260F371FE5
:1036D000BB2029F06B2D70E06F5F7F4F02C060E070
:1036E00070E0260F371F612F70E0261737071CF494
:1036F000121B212F01C020E03E2D387159F4D60154
:10370000322F60E2332319F06D933150FBCFC20E9C
:10371000D11C20E0FF2331F0D6019C93B6016F5FEE
:103720007F4F6B01E1110BC0F601922F30E399231B
:1037300019F031939150FBCFC20ED11C20E09F2D88
:10374000940F3A81782F7071A72E84FF03C0313314
:1037500009F49150191624F4993018F098E001C03A
:1037600091E0E42F852F57FF02C0E0E080E06E2F4C
:10377000782FE0E0F0E0AEE29A2E3A01691A710883
:103780002A01461A570A0B2D10E0119501951109CF
:103790006F3F8FEF780729F4D6019C92C6010196FE
:1037A0006C014617570784F0661677066CF47F01A4
:1037B000E40CF51CA1E0B0E0AC0FBD1FEA0EFB1E4F
:1037C000D7011196BC9002C090E3B92E61507109E7
:1037D0003196C60101967C016017710724F0D6016D
:1037E000BC926C01D5CF6417750741F4363320F4D1
:1037F000353321F4A11002C081E3B82EF601B08266
:10380000F701822F90E2882319F091938150FBCF2A
:10381000F701E20FF11D108280E090E029960FB6CB
:10382000F894DEBF0FBECDBFDF91CF911F910F91F6
:10383000FF90EF90DF90CF90BF90AF909F907F90E0
:103840006F905F904F900895283008F027E033275D
:10385000DA01990F311D87FD9160009661057105B0
:1038600039F432602E5F3D9330E32A95E1F70895F5
:103870009F3F30F080387105610509F03C5F3C5F87
:103880003D93913008F08068911DDF93CF931F9393
:103890000F93FF92EF92192F987F9695E92F9695A7
:1038A0009695E90FFF27EC56FE4F99273327EE2414
:1038B000FF24A701E70105900894079428F4360F28
:1038C000E71EF81E491F511D660F771F881F991F9D
:1038D0000694A1F70590079428F4E70EF81E491FF7
:1038E000561FC11D770F881F991F661F0694A1F7E9
:1038F0000590079428F4F80E491F561FC71FD11DC5
:10390000880F991F661F771F0694A1F705900794EB
:1039100020F4490F561FC71FD81F990F661F771F26
:10392000881F0694A9F784911095177041F0D695D9
:10393000C79557954795F794E7941A95C1F7EAE329
:10394000F1E06894159015913591659195910590E8
:103950007FE27395E118F10A430B560BC90BD009AE
:10396000C0F7E10CF11E431F561FC91FD01D7EF486
:10397000703311F48A95E6CFE894015030F0080FC7
:103980000AF40027021708F4202F2395022F7A3318
:1039900028F079E37D932A95E9F710C07D932A9565
:1039A00089F6069497956795379517951794E118BA
:1039B000F10A430B560BC90BD00998F023957E9161
:1039C00073957A3308F070E37C932013B8F77E91F7
:1039D00070617D9330F0839571E37D9370E32A9558
:1039E000E1F71124EF90FF900F911F91CF91DF919C
:1039F000992787FD90950895DC01FC01672F71914F
:103A00007723E1F7329704C07C916D9370836291C4
:103A1000AE17BF07C8F30895E89409C097FB3EF4BA
:103A200090958095709561957F4F8F4F9F4F99230B
:103A3000A9F0F92F96E9BB279395F6958795779589
:103A40006795B795F111F8CFFAF4BB0F11F460FF49
:103A50001BC06F5F7F4F8F4F9F4F16C0882311F0A1
:103A600096E911C0772321F09EE8872F762F05C0B5
:103A7000662371F096E8862F70E060E02AF09A9550
:103A8000660F771F881FDAF7880F9695879597F945
:103A900008950E945C1D0C94CD1D0E94BF1D38F03E
:103AA0000E94C61D20F0952311F00C94B61D0C94B5
:103AB000BC1D11240C94011E0E94DE1D70F3959F05
:103AC000C1F3950F50E0551F629FF001729FBB2715
:103AD000F00DB11D639FAA27F00DB11DAA1F649FB1
:103AE0006627B00DA11D661F829F2227B00DA11D64
:103AF000621F739FB00DA11D621F839FA00D611DEA
:103B0000221F749F3327A00D611D231F849F600D0A
:103B1000211D822F762F6A2F11249F5750409AF033
:103B2000F1F088234AF0EE0FFF1FBB1F661F771FBF
:103B3000881F91505040A9F79E3F510580F00C948A
:103B4000B61D0C94011E5F3FE4F3983ED4F38695B6
:103B500077956795B795F795E7959F5FC1F7FE2B2A
:103B6000880F911D9695879597F9089597F99F6706
:103B700080E870E060E008959FEF80EC08950024F5
:103B80000A941616170618060906089500240A94C2
:103B900012161306140605060895092E0394000C48
:103BA00011F4882352F0BB0F40F4BF2B11F460FFD7
:103BB00004C06F5F7F4F8F4F9F4F089557FD905800
:103BC000440F551F59F05F3F71F04795880F97FBE1
:103BD000991F61F09F3F79F087950895121613069B
:103BE0001406551FF2CF4695F1DF08C016161706CA
:103BF0001806991FF1CF86957105610508940895FF
:103C0000E894BB2766277727CB0197F90895DC0155
:103C1000CB01FC01F999FECF06C0F2BDE1BDF89AD7
:103C2000319600B40D9241505040B8F70895F9997B
:103C3000FECF92BD81BDF89A992780B50895DC0129
:103C4000A40FB51F4150504048F0CB01840F951F81
:103C50002E910E94301E41505040D0F70895262FDB
:103C6000F999FECF92BD81BDF89A019700B4021672
:103C700039F01FBA20BD0FB6F894FA9AF99A0FBE20
:103C800008952F923F924F925F926F927F928F9200
:103C90009F92AF92BF92CF92DF92EF92FF920F93DB
:103CA0001F93CF93DF93CDB7DEB7CA1BDB0B0FB6E5
:103CB000F894DEBF0FBECDBF09942A8839884888A2
:103CC0005F846E847D848C849B84AA84B984C88438
:103CD000DF80EE80FD800C811B81AA81B981CE0F2F
:103CE000D11D0FB6F894DEBF0FBECDBFED01089514
:103CF000A29FB001B39FC001A39F700D811D11242D
:103D0000911DB29F700D811D1124911D0895F8948D
:023D1000FFCFE3
:103D1200FFFFFF00FCE1A8A885012202A90182029F
:103D220057014C0245014202C201AC0295089508B6
:103D3200E001DE020101FF0000D503800000000067
:103D42000000FD077907C607A407B807440800006A
:103D52000000C10DAD0DA60DA30DA108A008322EC5
:103D6200312E31004F4E004F4646003A303A004362
:103D72004F322073656E736F7200312E3500566FAD
:103D82006C747300434F322050504D00486561748B
:0A3D92006572206F6E2F6F666600E9
:00000001FF
