:100000000C9439010C94330F0C940C0F0C94610177
:100010000C9461010C9461010C9408070C9461012B
:100020000C9461010C9461010C9461010C946101C8
:100030000C9461010C9461010C9461010C946101B8
:100040000C94C20E0C9461010C94C80D0C94A20D7A
:100050000C9461010C9461010C9461010C94610198
:100060000C945A0F0C94610107634236B79BD8A7D2
:100070001A39685618AEBAAB558C1D3CB7CC5763CD
:10008000BD6DEDFD753EF6177231BF000000803F7B
:1000900008000000BE922449123EABAAAA2ABECD97
:1000A000CCCC4C3E00000080BEABAAAAAA3E000009
:1000B0000000BF000000803F000000000008417801
:1000C000D3BB4387D1133D190E3CC3BD4282AD2B38
:1000D0003E68EC8276BED98FE1A93E4C80EFFFBE30
:1000E00001C4FF7F3F000000000000000008000284
:1000F00001000003040700000000000000000000F1
:100100000000250028002B0000000000240027002C
:100110002A00040404040404040402020202020289
:1001200003030303030301020408102040800102BB
:10013000040810200102040810204E414E494E4987
:100140005459494E46CDCCCC3D0AD7233C17B7D1A4
:100150003877CC2B329595E6241FB14F0A0000204A
:10016000410000C84200401C4620BCBE4CCA1B0EC9
:100170005AAEC59D7400407A10F35A00A0724E1812
:10018000090010A5D4E80000E87648170000E40B49
:1001900054020000CA9A3B000000E1F5050000800F
:1001A000969800000040420F000000A08601000069
:1001B00000102700000000E80300000000640000B9
:1001C0000000000A00000000000100000000002CF8
:1001D00076D888DC674F0823DFC1DFAE59E1B1B7BD
:1001E00096E5E3E453C63AE651997696E8E6C2848A
:1001F00026EB898C9B62ED407C6FFCEFBC9C9F40A2
:10020000F2BAA56FA5F490055A2AF75C936B6CF9C6
:10021000676DC11BFCE0E40D47FEF520E6B500D09C
:10022000ED902E0300943577050080841E080000B1
:10023000204E0A000000C80C333333330F986E127F
:10024000831141EF8D2114893BE65516CFFEE6DB85
:1002500018D1844B381BF77C1D901DA4BBE42420CF
:100260003284725E228100C9F124ECA1E53D2700B1
:100270005D1111241FBECFEFD8E0DEBFCDBF11E06E
:10028000A0E0B1E0ECEEF9E302C005900D92A437D6
:10029000B107D9F723E0A4E7B1E001C01D92A93668
:1002A000B207E1F711E0C9E3D1E004C02197FE01F4
:1002B0000E94EB11C833D107C9F70E949D100C941E
:1002C000F41C0C94000080917F01846080937F0176
:1002D00080918001807880938001E0918201F0918B
:1002E0008301309709F00994089591E59CBD91E050
:1002F0009DBD2A98E3E2F0E03197F1F78EBD000052
:100300000DB407FEFDCF8EB5FB019FEF4150C8F045
:10031000222361F09EBD00000DB407FEFDCF8EB517
:100320006115710599F380833196F0CFDF01119645
:1003300080818EBD00000DB407FEFDCF8EB5FD019E
:10034000E5CF2A9AE3E2F0E03197F1F70895CF93F1
:10035000DF931F92CDB7DEB7698320E041E0BE0195
:100360006F5F7F4F0E9475010F90DF91CF910895CD
:100370006FE080E20E94A70160911C016F3F19F0BD
:100380008AE20E94A701299A089520E040E060E0F7
:1003900070E00C9475010F931F93CF93DF93FC01D2
:1003A000828190917F0190FF04C08F3F09F04FC080
:1003B00005C08F3F19F0D091BE0101C0DFEF8091E1
:1003C000BD018083438142FD06C046954695469512
:1003D000C7E0C40F01C0C0E28F0180E090E0892B2C
:1003E00021F080E090E00E940000299883E092E0F4
:1003F0000197F1F76EE080E20E94A7018BE891E09F
:100400000197F1F76D2F8AE20E94A7016D2F80E31B
:100410000E94A70181EE0E94C501DF3F11F080EA32
:1004200001C080EB4C2FC13208F040E220E0B8015F
:100430000E947501299A00E010E08FEF0E94C5012B
:10044000C82F807331F401501109B9F702C0C0E020
:100450002FC0299860E387E20E94A701C4FF03C070
:1004600081EE0E94C5010E94B801C5FBCC27C0F9EE
:1004700091E0DF3F09F090E0C92B8091BE01D813D5
:1004800017C0C11110C080E090E0892B21F085E6F3
:1004900090E00E9400008091800191E0980F9F7091
:1004A000807F892B03C080918001807F80938001B1
:1004B0008C2FDF91CF911F910F9108958091800132
:1004C000982F9077903759F0982F92959F709F5F53
:1004D00097709295907F8F78892B8093800180917F
:1004E0007F018B7F8F7E80937F0180E090E0892B5E
:1004F00021F087E690E00E94000029986CE080E2FD
:100500000C94A701CF93C82F8FEF8C0F8E3FA8F4C8
:10051000C093BD01C0931C0163E082E20E94A70169
:1005200061E081E20E94A7010E94B8016C2F80E087
:1005300090E00E94911C81E00CC080E090E0892B4B
:1005400021F08EE690E00E9400008FEF8093BD01C5
:1005500080E0CF9108950F931F930E94800E009129
:100560007701109178012091790130917A01601B17
:10057000710B820B930B1F910F910895EFE7F1E040
:100580008081877F8F7E808310927B0110927C0117
:1005900010927D0110927E0143E050E060E070E037
:1005A0008DEB91E00C94691CFC018381877088605D
:1005B000838384818F71806284836783CF010895F0
:1005C00080E090E0892B21F088E090E00E9400001C
:1005D0008FEF8093810180917F01886080937F01FC
:1005E00028E143E06FEF80E00E94960C61E00E94FA
:1005F000D4020C94CB010F931F93CF93DF93EC01A4
:100600006115710561F0FB0101900020E9F7319758
:10061000E61BF70BE931F10518F0E9E101C0E0E074
:100620000E2F10E0C80123E0880F991F2A95E1F7EB
:100630009B819770892B8B838C818F718C83EE23A8
:1006400029F0A801CE0107960E949716FE01E00F3F
:10065000F11F1782CE01DF91CF911F910F91089565
:100660008091BD018F3FA1F480E090E0892B21F0C3
:1006700086E090E00E94000023E043E06FEF80E01E
:100680000E94960C63E771E00E94FB020C94CB0180
:10069000089580E090E0892B21F084E090E00E94B2
:1006A000000080917F01897F816080937F018FEFBF
:1006B0008093BF018093BE0127E043E06FEF0E946B
:1006C000960C63E771E00E94FB020C94CB01FC01E5
:1006D0002481229526952770213011F48781089571
:1006E000211104C007960E94CA16089580E008955B
:1006F00020917F0122FD0C94CB0180E008956F9240
:100700007F928F929F92AF92BF92DF92EF92FF9271
:100710000F931F93CF93DF9300D0CDB7DEB7E09157
:100720007501F09176010280F381E02D309709F098
:10073000099580917F0184FBEE24E0F884FFB9C124
:1007400086E0F82E90E0692E90E0792E00E010E02F
:1007500021E2D22E21E041E060E070E087E10E94DA
:10076000750180FDA6C1FA94FF2009F4A2C16114AD
:10077000710421F081E090E00E94000021E041E05E
:1007800060E070E080E60E947501A82E80E28A1584
:1007900020F482EE0E94C501A12C21E04A2D61EED9
:1007A00072E081E60E94750160E487E20E94A70181
:1007B0009091E402292F2695269526952A3108F056
:1007C00029E192FD03C047E0420F01C040E2E09101
:1007D000E5025091E602B090E2023091E102809190
:1007E000E302A41639F06114710409F4B3CF8CE666
:1007F00090E00AC0492F4370423049F061147104FF
:1008000009F4A8CF8DE690E00E940000A3CF4E2F00
:100810004770609180016068609380016091BD01C4
:10082000861349C030E0B901F3E0660F771FFA95EF
:10083000E1F79770962B9093E402D901AF51BD4F29
:1008400017961C92E3FF1BC0E1EEF2E0A0ECB2E0D1
:100850009D2D01900D929A95E1F79091C402977F9A
:1008600090619093C4028093C102B092C20280EC66
:1008700092E049835A830E9478035A8149812091EA
:10088000E50224FD13C0433089F49091E60281EF24
:10089000890F833008F03FC05DCF913009F4E6C086
:1008A0009A3009F457CF9C3109F454CF81EE92E08D
:1008B0000E946D074FCF8F3F09F04CCF433031F589
:1008C00080917F0182FF03C0573009F443CF583035
:1008D00009F440CF543109F03DCF8091BE01381367
:1008E00039CF0E94800E7370882799270E94460E88
:1008F000A090BE0125E143E06FEF8B2D0E94960C86
:100900006A2D0E94D4020E94CB0124CF8091BE01A7
:10091000381320CFCBCF543039F481EE92E00E94CF
:1009200067030E94820216CF5830E1F4A0907F0145
:10093000A0FE10CF81EE92E00E9467038F3F09F482
:1009400009CF91E0980F9F3F09F404CF8091BF0138
:10095000981708F0FFCEA1FCFDCE9093BF01B09296
:10096000BE01F8CE583141F429E143E06FEF8B2D01
:100970000E94960C61E0C5CF593171F480917F01DE
:1009800083FFE8CE877F80937F0181EE92E00E9413
:10099000670380938101DECE8091E202811185C0E0
:1009A0009D3099F480E090E0892B21F08BE090E07D
:1009B0000E94000098E088E10FB6F894A895809313
:1009C00060000FBE90936000FFCF9B31A9F481EED1
:1009D00092E00E94670391E0811101C090E0809154
:1009E000BC0190FB80F98093BC016114710409F48F
:1009F000B1CE8AE090E008CF9630A9F49091E80259
:100A0000992329F081E09D3419F080E001C08E2DFA
:100A10008093BB0141E050E063E071E08BEB91E03B
:100A20000E94811C97CE933119F40E94DE0A92CE67
:100A3000923109F032CF0E94AB024B015C0126E1FA
:100A400043E06FEF80E00E94960CFC0184818F717F
:100A5000806A8483838187708062838387829086A3
:100A6000A186B286CF010E94780374CE01151105CC
:100A700009F470CE229526952770253049F46091AF
:100A8000E8027091E9028091EA029091EB020AC0BB
:100A9000211105C088EE92E00E94E81603C060E0D4
:100AA00070E0CB010E94000055CE9A3109F0FECED5
:100AB00051CE0F900F90DF91CF911F910F91FF902A
:100AC000EF90DF90BF90AF909F908F907F906F904E
:100AD00008959C018091750190917601821793078A
:100AE00051F090917F019F7190937F013093760137
:100AF0002093750105C080917F01805E80937F0106
:100B0000E0917501F09176010190F081E02D309730
:100B100009F009950E94800E609377017093780127
:100B20008093790190937A0108950F931F930E9407
:100B3000AB02209180012077203729F000E117E2F5
:100B400020E030E004C000E61AEE20E030E00617B6
:100B500017072807390730F48DE191E01F910F91B5
:100B60000C9469051F910F910895809180018F70F9
:100B7000863020F088E191E00C9469050895809119
:100B800081018F3FA1F00E94800E60937B017093E2
:100B90007C0180937D0190937E01809181019091F1
:100BA000BF0189138093BF0184E191E01BC00E94C3
:100BB000AB02613D774081059105B0F080917F01E6
:100BC000803618F480E191E00DC0877F80937F012B
:100BD00080E090E0892B21F08AE690E00E940000FE
:100BE00088E191E00C94690508958091BD018F3FE3
:100BF00059F080E090E0892B21F087E090E00E949E
:100C0000000080E191E018C00E94AB02613D774096
:100C10008105910598F080917F01803618F48CE071
:100C200091E00AC080E090E0892B21F089E690E015
:100C30000E94000088E091E00C94690508950E94EC
:100C4000AB02613D77408105910520F480917F01E1
:100C500081FF08958091BE018F3F81F080917F01D7
:100C60008E7F80937F0180E090E0892B21F085E0EA
:100C700090E00E9400008CE091E011C080917F0123
:100C8000803618F488E191E00AC080E090E0892B7A
:100C900021F088E690E00E94000088E091E00C944A
:100CA0006905CF93219A229ACFB7F8948091740165
:100CB000811124C0ECE1F1E08491E0E3F1E0949152
:100CC000E82FF0E0EE0FFF1FE85FFE4FA591B49113
:100CD000EC91E92321F461E08AE00E94FA0D8AE0B8
:100CE0000E94A50C8CB580618CBD8CB580648CBDD8
:100CF0008DE00E94A50C8BE00E94A50C80917401F0
:100D00008F5F80937401CFBF29982A9A6EE080E2AA
:100D10000E94A70165E070E080E090E00E94460E2E
:100D200063E083E20E94A7016FE584E20E94A701CD
:100D30006CE485E20E94A70167E286E20E94A701B7
:100D400063E780E50E94A70166E08DE30E94A701AA
:100D500021E041E060E070E086E00E947501C82F6C
:100D600021E041E060E070E085E00E9475018C3494
:100D700009F040C0C732F1F562E082E20E94A701AB
:100D800060E081E20E94A70163E08CE30E94A7017A
:100D90008FEF8093030120E045E063E071E08BE298
:100DA0000E94750120E045E063E071E08AE20E9464
:100DB000750120E045E063E071E080E30E94750189
:100DC00082EE0E94C50181EE0E94C50160E787E2C4
:100DD0000E94A70180917F01806180937F018091B3
:100DE000BD018F3F81F00E94820281110CC088E01A
:100DF00091E00BC080E090E0892BC9F387E690E09A
:100E00000E940000F4CF88E191E0CF910C94690535
:100E10001F920F920FB60F9211240F900FBE0F90DA
:100E20001F9018954091B901262F30E0240F311DF5
:100E300021323105DCF42091BA012430C9F4FC01DF
:100E400080E090E0861758F43091B9012191DC01DF
:100E5000A756BE4FA30FB11D2C930196F3CF8091DF
:100E6000B901680F6093B90180E0089581E00895A9
:100E700082E0089508958FEF9FEF08958FEF9FEF21
:100E800008958091980190E0919581959109089538
:100E9000CF93DF9300D0CDB7DEB7CB01642F49836A
:100EA0005A830E9412074981842F5A81952F0F90EF
:100EB0000F90DF91CF910895CF93DF931F92CDB71D
:100EC000DEB7698361E0CE0101960E94120781E0DE
:100ED00090E00F90DF91CF910895CF92DF92EF9243
:100EE000FF920F931F93CF93DF931F92CDB7DEB77F
:100EF0008C01FC018481829586958770873029F466
:100F0000C780D084E184F2840CC0811107C0C8017D
:100F100007960E94C6166B017C0103C0C12CD12C20
:100F20007601F8018581893131F1F8F4883109F0D1
:100F3000C1C0C0929401D0929501E0929601F092C6
:100F4000970120E030E04AE754E4C701B6010E946F
:100F5000A81B0E94D0128EE991E079830E94911C17
:100F60007981672F8FE991E021C08B31C1F18C31FC
:100F700009F47CC09FC0C0929001D0929101E09290
:100F80009201F092930120E030E04AE754E4C70177
:100F9000B6010E94A81B0E94D01280EA91E07983DA
:100FA0000E94911C7981672F81EA91E00E94911C37
:100FB00080916002877088628093600280916102F4
:100FC000806E80936102C0926402D0926502E092CA
:100FD0006602F092670282E08093680267C0F801BF
:100FE0008481829586958770823019F44781508577
:100FF0000AC0811106C0C80107960E94CA16AC013A
:1010000002C040E050E028EE33E0DA010E94D01147
:1010100060938C0170938D0180938E0190938F016A
:10102000CA016AE070E00E94BC1184EA91E00E946B
:10103000911C40918C0150918D0160918E017091B5
:101040008F01809161028F71806A8093610280912B
:1010500060028770806280936002409364025093C4
:101060006502609366027093670220C0C8010E9407
:10107000670361E0811101C060E06093220185EAAD
:1010800091E00E94911C2091220130E08091610248
:101090008F718064809361028091600287708061AB
:1010A0008093600230936502209364028DE592E0A4
:1010B0000E94C40C209190013091910140919201C5
:1010C00050919301609194017091950180919601E6
:1010D000909197010E94F1116093880170938901AA
:1010E00080938A0190938B012EEF3FEF4FEF5FEBE0
:1010F0000E945E1260938401709385018093860143
:10110000909387010F90DF91CF911F910F91FF90E6
:10111000EF90DF90CF9008958F929F92AF92BF9201
:10112000CF92DF92EF92FF92CF93DF9361E087E05F
:101130000E94FA0DC5E0D0E0C12CD12C760180913F
:10114000210120E4829FC001112480937C008091C2
:101150007A00806480937A0080917A0086FDFCCFCB
:10116000809178002091790090E0922BBC01990F3A
:10117000880B990B0E94491B9B01AC01C701B6016A
:101180000E94F2116B017C0162E370E080E090E06C
:101190000E94460E219799F620E030E040EA50E4A4
:1011A000C701B6010E945E1220E030E040E250E448
:1011B0000E94A81B20E030E040E85AE30E94A81BF0
:1011C0004B015C0120919401309195014091960171
:1011D000509197010E94F111209184013091850175
:1011E00040918601509187010E945E1227E238E803
:1011F00046E250E40E94F2119B01AC0160E070E015
:1012000080E291E40E9406136B017C018091A202AE
:10121000877088628093A2028091A302806E80937F
:10122000A3028092A6029092A702A092A802B09276
:10123000A90282E08093AA028FE992E00E94C40C86
:10124000809182028F7180688093820280918102F6
:101250008770806280938102C701B6010E94D0121C
:101260006093850270938602809387029093880230
:101270008EE792E00E94C40CC0908C01D0908D014A
:10128000E0908E01F0908F010E94800E4B015C0176
:101290000E94800EDC01CB0188199909AA09BB09BB
:1012A0008C159D05AE05BF0520F4A8950E947F030F
:1012B000EFCFDF91CF91FF90EF90DF90CF90BF9075
:1012C000AF909F908F9008951092210187E00E9427
:1012D000A50C61E087E00C94FA0D4F925F926F923B
:1012E0007F928F929F92AF92BF92CF92DF92EF92B6
:1012F000FF920F931F93CF93DF93CDB7DEB7A597E0
:101300000FB6F894DEBF0FBECDBF1F861E86198AAA
:10131000188A1B8A1A8A8E01025F1F4F40E050E034
:1013200063E771E0C8010E94430D8FE991E00E94DC
:10133000791CF82E8EE991E00E94791C6F2D70E0E7
:10134000762F6627680F711D072E000C880B990BEE
:101350000E94491B20E030E04AE754E40E945E12FC
:101360006B017C01609394017093950180939601C9
:101370009093970181EA91E00E94791CB82E80EA4F
:1013800091E00E94791C4B2D50E0542F4427480FC8
:10139000511DBA01550F880B990B0E94491B20E083
:1013A00030E04AE754E40E945E124B015C01609316
:1013B00090017093910180939201909393019B010E
:1013C000AC01C701B6010E94F111609388017093CE
:1013D000890180938A0190938B012EEF3FEF4FEFAD
:1013E0005FEB0E945E12609384017093850180938D
:1013F00086019093870184EA91E00E94791C282F4E
:1014000030E0A0E1B7E20E94E51C2B013C016093B3
:101410008C0170938D0180938E0190938F0122E057
:10142000B501A401CE0180960E94640D4091940103
:1014300050919501609196017091970122E0CE0143
:101440004A960E94640D1D8A1C8A1F8A1E8A198E64
:10145000188E42E050E06EE471E0CE0144960E94A6
:10146000430D4E8D5F8D6A8D7B8DCE0144960E941B
:10147000EA0C811104C0CE0144960E94180D6FE45D
:1014800071E0CE0144960E942A0D7C014CA15DA121
:1014900068A179A10E94EA0C811103C0C7010E94D2
:1014A000180D6DE471E0C7010E942A0D7C012AE04D
:1014B000CE0101966C01AC01C301B2010E942C1750
:1014C000F60101900020E9F73197AF014C195D0951
:1014D000B601C7010E94EA0C811103C0C7010E9436
:1014E000180DE016F10679F0F70160817181611540
:1014F000710531F044815581C8010E94430D03C03C
:10150000C8010E94180D8C899D890E9420158A8D22
:101510009B8D0E94201588A199A10E9420152BE087
:1015200043E06FEF80E00E94960C61E571E00E945D
:10153000FB020E9478032CE043E06FEF80E00E9402
:10154000960C6CE571E00E94FB020E94780340E675
:1015500051E06EE181E00E94D50C46E651E066E183
:1015600082E00E94D50C4E855F8567E18EEF0E9478
:10157000D50C8E859F850E942015A5960FB6F894F0
:10158000DEBF0FBECDBFDF91CF911F910F91FF90B6
:10159000EF90DF90CF90BF90AF909F908F907F9013
:1015A0006F905F904F90089585ED8093BC0080917F
:1015B000BC0084FDFCCF1092BA010895CF9380E067
:1015C00090E0892B21F08CE090E00E9400002FE059
:1015D00043E06FEF80E00E94960C63E771E00E94A9
:1015E000FB028091C302877080618093C302809167
:1015F000C4028F71806C8093C40281E08093C70223
:101600001092C80280EC92E00E9478038FE00E9462
:101610008C0E43E751E061E18FEF0E94D50CC09141
:10162000BE0126E043E06FEF80E00E94960C6C2F35
:101630000E94D4020E94780386E00E948C0ECF9113
:101640000C946D09CF938091BC0181FD27C00E944D
:10165000DE0A80E090E0892B21F089E090E00E9492
:1016600000008091BC0181608093BC01C4E02AE14C
:1016700043E06FEF80E00E94960C62E00E94D4028B
:101680000E9478038BE10E948C0E811102C0C15030
:1016900071F78091BC0182608093BC01CF91089565
:1016A000CF92DF92EF92FF920F931F93CF93DF932E
:1016B0006C017A018B01C0E0D0E0CE15DF0589F026
:1016C000D8016D918D01D601ED91FC910190F081D1
:1016D000E02DC6010995892B11F47E0102C02196E7
:1016E000ECCFC701DF91CF911F910F91FF90EF9049
:1016F000DF90CF900895FC01918D828D981761F055
:10170000828DDF01A80FB11D5D968C91928D9F5F38
:101710009F73928F90E008958FEF9FEF0895FC01E3
:10172000918D828D981731F0828DE80FF11D858D96
:1017300090E008958FEF9FEF0895FC01918D228D29
:10174000892F90E0805C9F4F821B91098F739927AE
:10175000089580EC91E00E949D0B21E0892B09F413
:1017600020E0822F0895FC01848DDF01A80FB11DB8
:10177000A35ABF4F2C91848D90E001968F739927C7
:10178000848FA689B7892C93A089B1898C918064B4
:101790008C93938D848D981306C00288F389E02D75
:1017A00080818F7D80830895EF92FF920F931F9326
:1017B000CF93DF93EC0181E0888F9B8D8C8D981304
:1017C00005C0E889F989808185FD24C0F62E0B8D3E
:1017D00010E00F5F1F4F0F731127E02E8C8DE81262
:1017E0000CC00FB607FCFACFE889F989808185FF24
:1017F000F5CFCE010E94B30BF1CF8B8DFE01E80F28
:10180000F11DE35AFF4FF0820B8FEA89FB8980813B
:10181000806207C0EE89FF896083E889F989808149
:101820008064808381E090E0DF91CF911F910F91E0
:10183000FF90EF900895CF93DF93EC01888D88237C
:10184000C9F0EA89FB89808185FD05C0A889B9892D
:101850008C9186FD0FC00FB607FCF5CF808185FF08
:10186000F2CFA889B9898C9185FFEDCFCE010E9476
:10187000B30BE7CFDF91CF91089580E090E0892B03
:1018800029F00E94A90B81110C94000008953FB724
:10189000F8948091530390915403A0915503B09113
:1018A000560326B5A89B05C02F3F19F00196A11D30
:1018B000B11D3FBFBA2FA92F982F8827820F911DE6
:1018C000A11DB11DBC01CD0142E0660F771F881F2D
:1018D000991F4A95D1F7089508950F931F93CF93B9
:1018E000DF93EC0188819981009729F02A813B815F
:1018F0002617370788F48B016F5F7F4F0E94B8155A
:10190000009761F0998388831B830A832C813D8132
:10191000232B11F4FC01108281E001C080E0DF91F3
:10192000CF911F910F9108950E948216E0ECF2E092
:101930009091BD0191838283668325834770848162
:10194000807E482B4483CF01089590E0FC01EA5D3E
:10195000FE4F2491FC01EE5EFE4F8491882399F0A6
:1019600090E0880F991FFC01E85FFE4FA591B491AC
:10197000FC01E250FF4F859194918FB7F894EC9160
:10198000E22BEC938FBF0895FC018091BD01818310
:101990009481907F916094838091BC0180FF03C00B
:1019A000CF010C94780380E00895CF93DF93262F26
:1019B0008F3F11F0EA0102C0CEE6D1E040E0682F8F
:1019C00080E00E94960CBE010E94FB02DF91CF9145
:1019D0000C947803EF92FF920F931F93CF93DF93B2
:1019E000FC01248135816115710511F480E019C075
:1019F00041155105A9F07B01EC018A01020F131F6B
:101A0000B8010E946D0C882389F3288139818C816B
:101A10009D81B701820F931F0E9490161D830C8336
:101A200081E0DF91CF911F910F91FF90EF9008958A
:101A3000CF93DF93EC0188819981009711F00E9488
:101A40002015198218821D821C821B821A82DF9146
:101A5000CF910895CF93DF93EC016115710561F08B
:101A6000FB0101900020E9F73197AF01461B570BAE
:101A70000E94EA0C811103C0CE010E94180DCE0114
:101A8000DF91CF910895EF92FF920F931F93CF9321
:101A9000DF93EC017B018A01BA010E946D0C811178
:101AA00004C0CE010E94180D07C01D830C83B7012E
:101AB000888199810E949016CE01DF91CF911F916C
:101AC0000F91FF90EF900895EF92FF920F931F9365
:101AD000CF93DF93CDB7DEB7A1970FB6F894DEBFF3
:101AE0000FBECDBF7C01CB01BA01F701118210827C
:101AF000138212821582148242E0420F8E010F5F20
:101B00001F4F0E94A616009769F0FC01019000206B
:101B1000E9F73197AF01481B590BBC01C7010E947F
:101B2000430D03C0C7010E94180DA1960FB6F8948B
:101B3000DEBF0FBECDBFDF91CF911F910F91FF9000
:101B4000EF9008951F920F920FB60F9211242F93CA
:101B50003F934F935F936F937F938F939F93AF9335
:101B6000BF93EF93FF9380EC91E00E94B30BFF9142
:101B7000EF91BF91AF919F918F917F916F915F9105
:101B80004F913F912F910F900FBE0F901F9018957E
:101B90001F920F920FB60F9211242F938F939F9342
:101BA000EF93FF93E091D001F091D1018081E0911A
:101BB000D601F091D70182FD12C090818091D901A8
:101BC0008F5F8F732091DA01821751F0E091D90174
:101BD000F0E0E054FE4F958F8093D90101C08081E1
:101BE000FF91EF919F918F912F910F900FBE0F90CA
:101BF0001F90189590E0FC01E651FF4F3491FC01D5
:101C0000EA5DFE4F2491FC01EE5EFE4FE491EE236F
:101C100009F43BC0332339F1333091F038F43130DB
:101C2000A9F0323001F584B58F7D12C0373091F0C4
:101C30003830A1F03430B9F4809180008F7D03C03A
:101C4000809180008F77809380000DC084B58F775E
:101C500084BD09C08091B0008F7703C08091B0002F
:101C60008F7D8093B000F0E0EE0FFF1FE250FF4F3A
:101C7000A591B4918FB7F894EC91611103C02095B0
:101C80002E2301C02E2B2C938FBF08958F929F92ED
:101C9000AF92BF92CF92DF92EF92FF926B017C01E5
:101CA0000E94470C4B015C01C114D104E104F10412
:101CB000F1F00E94470CDC01CB0188199909AA09AF
:101CC000BB09883E9340A105B10570F321E0C21A1B
:101CD000D108E108F10888EE880E83E0981EA11C67
:101CE000B11CC114D104E104F10419F7DDCFFF9058
:101CF000EF90DF90CF90BF90AF909F908F9008951E
:101D00002FB7F89460914F03709150038091510365
:101D1000909152032FBF0895CF92DF92EF92FF92DE
:101D2000CF93DF93D82F0E94800E6B017C0181E05E
:101D3000D11180E08093E602C0E00E94800EAB01EA
:101D4000BC014C195D096E097F09403D5740610592
:101D5000710580F4C1110EC0A8950E947F03909177
:101D6000E5029770933049F7C1E08091E6028D1348
:101D7000E3CFE3CF8C2FDF91CF91FF90EF90DF90F7
:101D8000CF9008951F920F920FB60F9211242F93A8
:101D90003F938F939F93AF93BF9380914F03909105
:101DA0005003A0915103B091520330914E0323E0B0
:101DB000230F2D3720F40196A11DB11D05C026E883
:101DC000230F0296A11DB11D20934E0380934F0354
:101DD00090935003A0935103B09352038091530307
:101DE00090915403A0915503B09156030196A11D03
:101DF000B11D8093530390935403A0935503B09364
:101E00005603BF91AF919F918F913F912F910F906A
:101E10000FBE0F901F9018951F920F920FB60F9242
:101E200011242F933F934F935F936F937F938F93DF
:101E30009F93AF93BF93EF93FF93E0912501F091B0
:101E400026010995FF91EF91BF91AF919F918F91DD
:101E50007F916F915F914F913F912F910F900FBEA6
:101E60000F901F9018951F920F920FB60F9211248A
:101E70002F933F934F935F936F937F938F939F9392
:101E8000AF93BF93EF93FF93E0912301F09124016F
:101E90000995FF91EF91BF91AF919F918F917F91A4
:101EA0006F915F914F913F912F910F900FBE0F90C7
:101EB0001F9018951F920F920FB60F9211242F9317
:101EC0003F934F935F936F937F938F939F93AF93C2
:101ED000BF93EF93FF938091B900887F803609F418
:101EE0009CC068F5883209F45BC090F4803109F435
:101EF00054C038F4882309F4F6C0883009F44DC082
:101F0000F6C0883109F44CC0803209F45DC0EFC0DE
:101F1000803409F468C048F4803309F455C088332C
:101F200009F0E5C080932803D8C0803509F44FC07C
:101F3000883509F45DC0883409F0D9C0D6C0883925
:101F400009F4C7C0A8F4883709F467C038F48836A4
:101F500009F463C0803709F460C0C9C0883809F447
:101F6000B8C0803909F45FC0803809F0C0C05BC0D8
:101F7000803B09F486C038F4803A09F466C0883A98
:101F800009F47FC0B4C0803C09F4A7C0883C09F4C0
:101F9000A4C0883B09F48AC0AAC080914D0310C038
:101FA00090914C0380914B03981770F5E0914C038E
:101FB00081E08E0F80934C03F0E0E55DFC4F808163
:101FC0008093BB0085EC86C0809328038EC0E0918F
:101FD0004C0381E08E0F80934C038091BB00F0E0B6
:101FE000E55DFC4F808390914C0380914B036EC064
:101FF000E0914C0381E08E0F80934C038091BB00F5
:10200000F0E0E55DFC4F808380912A0381116DC073
:1020100081E08093290384EA61C083E08093BA0160
:1020200010922703CFCF80912703803208F051C050
:10203000E091270381E08E0F809327038091BB00FE
:10204000F0E0E95FFC4F8083BDCF85EC8093BC005E
:102050001092BA0180912703803230F4E091270377
:10206000F0E0E95FFC4F10826091270370E0E0919F
:102070000503F091060387E093E00995109227038A
:1020800036C084E08093BA01109204031092B90123
:10209000E0910203F091030309958091B901811148
:1020A00005C081E08093B90110929901E091040389
:1020B00081E08E0F80930403F0E0E756FE4F8081AD
:1020C0008093BB00909104038091B901981708F4A4
:1020D00079CF85E88093BC000AC085EC8093BC0072
:1020E0001092BA0104C0109228030E94D40AFF91F2
:1020F000EF91BF91AF919F918F917F916F915F9180
:102100004F913F912F910F900FBE0F901F901895F8
:10211000CF93DF93FC011082118212821482158208
:102120001682DC0117968AE1ED0119928A95E9F78A
:1021300082E08383DF91CF910895789484B58260A3
:1021400084BD84B5816084BD85B5826085BD85B55B
:10215000816085BD80916E00816080936E001092D9
:102160008100809181008260809381008091810054
:1021700081608093810080918000816080938000E5
:102180008091B10084608093B1008091B000816043
:102190008093B00080917A00846080937A0080916F
:1021A0007A00826080937A0080917A0081608093C7
:1021B0007A0080917A00806880937A001092C10042
:1021C000A89580E090E0892B11F00E940000E0913A
:1021D000D001F091D10182E08083E091CC01F091B7
:1021E000CD011082E091CE01F091CF0180E180839A
:1021F0001092D801E091D401F091D50186E080835E
:10220000E091D201F091D301808180618083E091DF
:10221000D201F091D301808188608083E091D20166
:10222000F091D301808180688083E091D201F091A8
:10223000D30180818F7D80838091BC018D7F8093CD
:10224000BC0180E090E0892B11F00E94000041E089
:1022500050E063E071E08BEB91E00E94691C6FEF4E
:1022600081E090E00E94911C809180018F788093A2
:10227000800110927601109275018DE191E00E942B
:10228000690582E29BE090938301809382010E9422
:10229000800E0E94800E0E947F03A89580917F018E
:1022A00082FFF7CF0E946409A895A8950E947F033A
:1022B0000E948C080E943D0CF8CFE0ECF1E0138204
:1022C000128288EE93E0A0E0B0E084839583A68339
:1022D000B78321E331E03183208325EC30E035877B
:1022E000248724EC30E03787268720EC30E0318BE0
:1022F000208B21EC30E0338B228B22EC30E0358BCD
:10230000248B26EC30E0378B268B118E128E138EA9
:10231000148EE7E5F3E01382128284839583A6830B
:10232000B78381E491E09183808381EE92E00E9403
:10233000881080EC92E00E9488108FE992E00E9461
:102340008810EFE9F2E081E0868386E285838EE7FC
:1023500092E00E948810EEE7F2E082E0868385E258
:1023600085838DE592E00E948810EDE5F2E08EEF26
:10237000868380E38583089597FB072E16F40094E7
:1023800007D077FD09D00E94D71107FC05D03EF495
:10239000909581959F4F0895709561957F4F089511
:1023A0000E94E51CB7FF0895821B930B0895AA1B9A
:1023B000BB1B51E107C0AA1FBB1FA617B70710F030
:1023C000A61BB70B881F991F5A95A9F78095909562
:1023D000BC01CD010895EE0FFF1F0590F491E02D93
:1023E00009945058BB27AA270E9409120C942F1C4D
:1023F0000E94211C38F00E94281C20F039F49F3FD5
:1024000019F426F40C941E1C0EF4E095E7FB0C94D2
:10241000181CE92F0E94401C58F3BA176207730773
:102420008407950720F079F4A6F50C94621C0EF44D
:10243000E0950B2EBA2FA02D0B01B90190010C01D4
:10244000CA01A0011124FF27591B99F0593F50F4EC
:10245000503E68F11A16F040A22F232F342F442744
:10246000585FF3CF469537952795A795F04053953C
:10247000C9F77EF41F16BA0B620B730B840BBAF00C
:102480009150A1F0FF0FBB1F661F771F881FC2F777
:102490000EC0BA0F621F731F841F48F4879577958B
:1024A0006795B795F7959E3F08F0B0CF9395880F45
:1024B00008F09927EE0F9795879508950E9472125C
:1024C0000C942F1C0E94281C58F00E94211C40F0E4
:1024D00029F45F3F29F00C94181C51110C94631CD3
:1024E0000C941E1C0E94401C68F39923B1F35523E1
:1024F00091F3951B550BBB27AA2762177307840717
:1025000038F09F5F5F4F220F331F441FAA1FA9F3AC
:1025100035D00E2E3AF0E0E832D091505040E6959A
:10252000001CCAF72BD0FE2F29D0660F771F881FFB
:10253000BB1F261737074807AB07B0E809F0BB0BEE
:10254000802DBF01FF2793585F4F3AF09E3F510502
:1025500078F00C94181C0C94631C5F3FE4F3983ED5
:10256000D4F3869577956795B795F7959F5FC9F7EB
:10257000880F911D9695879597F90895E1E0660F6C
:10258000771F881FBB1F621773078407BA0720F0E5
:10259000621B730B840BBA0BEE1F88F7E09508954E
:1025A0000E94D7126894B1110C94631C08950E9484
:1025B000481C88F09F5798F0B92F9927B751B0F071
:1025C000E1F0660F771F881F991F1AF0BA95C9F7B7
:1025D00014C0B13091F00E94621CB1E008950C94D7
:1025E000621C672F782F8827B85F39F0B93FCCF38A
:1025F000869577956795B395D9F73EF49095809534
:10260000709561957F4F8F4F9F4F0895FA01EE0FA0
:10261000FF1F309621053105A1F16115710561F4A7
:102620008038BFE39B0749F168949038810561F0D9
:102630008038BFEF9B0741F099234AF5FF3FE10542
:102640003105210519F1E8940894E795D901AA23E9
:1026500029F4AB2FBE2FF85FD0F310C0FF5F70F4EA
:10266000A695E0F7F73950F019F0FF3A38F49F7764
:102670009F930DD00F9007FC9058089546F00C944E
:102680001E1C60E070E080E89FE308954FE79F77AD
:102690005F934F933F932F930E9401142F913F918B
:1026A0004F915F910E94A81B0C945E1329F416F0C1
:1026B0000C94181C0C94621C0C941E1C0E94481C48
:1026C000A8F39638A0F707F80F92E8942BE33AEABC
:1026D00048EB5FE70E94BE1B0F920F920F924DB71F
:1026E0005EB70F920E944914E8E6F0E00E94901352
:1026F0004F915F91EF91FF91E595EE1FFF1F49F01C
:10270000FE57E0684427EE0F441FFA95E1F7419524
:10271000550B0E94C3130F9007FE0C94B713089536
:10272000DF93CF931F930F93FF92EF92DF927B0182
:102730008C01689406C0DA2EEF010E94BB1BFE01DB
:10274000E894A5912591359145915591A6F3EF0116
:102750000E940912FE019701A801DA9469F7DF903F
:10276000EF90FF900F911F91CF91DF9108959B0102
:10277000AC0160E070E080E89FE30C945E120C9482
:10278000181C0C947D140E94481CD8F39923C9F39B
:10279000940F511DA3F39150504094F059F08823A9
:1027A00032F0660F771F881F91505040C1F79E3F4F
:1027B00051052CF7880F911D9695879597F90895E7
:1027C0005F3FACF0983E9CF0BB2786957795679568
:1027D000B79508F4B1609395C1F7BB0F58F711F4A2
:1027E00060FFE8CF6F5F7F4F8F4F9F4FE3CF0C9419
:1027F000631C16F00C947D140C941E1C68940C94AD
:10280000181C0E94481CA8F39923C1F3AEF3DF9370
:10281000CF931F930F93FF92C92FDD2788232AF0B0
:102820002197660F771F881FDAF720E030E040E835
:102830005FEB9FE3883920F0803E38F021968F7758
:102840000E94F211E0E9F0E004C00E94F211EDEB09
:10285000F0E00E9490138B01BE01EC01FB2E6F573C
:1028600071097595771F880B990B0E94491B28E108
:1028700032E741E35FE30E94BB1BAF2D9801AE013D
:10288000FF900F911F91CF91DF910E9409120C943C
:102890002F1CFA01DC01AA0FBB1F9B01AC01BF5723
:1028A00028F4222733274427507820C0B75190F4CA
:1028B000AB2F0024469537952795011CA395D2F39D
:1028C000002071F0220F331F441FB395DAF30ED0AE
:1028D0000C94F11161307105A0E88A07B94630F413
:1028E0009B01AC016627772788279078309621F0E6
:1028F000208331834283538308959F3F31F0915069
:1029000020F4879577956795B795880F911D9695D3
:10291000879597F90895CF93DF938230910510F44E
:1029200082E090E0E0916503F091660320E030E002
:10293000C0E0D0E0309711F140815181481759072C
:10294000C0F04817590761F482819381209719F0EC
:102950009B838A832BC0909366038093650326C074
:102960002115310519F04217530718F49A01BE01D9
:10297000DF01EF010280F381E02DDCCF211531056D
:1029800009F1281B390B2430310590F412968D91F2
:102990009C9113976115710521F0FB01938382834C
:1029A00004C09093660380936503FD01329644C092
:1029B000FD01E20FF31F81939193225031092D9372
:1029C0003C933AC02091630330916403232B41F47C
:1029D0002091290130912A013093640320936303ED
:1029E00020912701309128012115310541F42DB79F
:1029F0003EB740912B0150912C01241B350BE091E7
:102A00006303F0916403E217F307A0F42E1B3F0B5E
:102A10002817390778F0AC014E5F5F4F2417350750
:102A200048F04E0F5F1F50936403409363038193FC
:102A3000919302C0E0E0F0E0CF01DF91CF910895E3
:102A40000F931F93CF93DF93009709F48CC0FC0181
:102A5000329713821282009165031091660301156B
:102A6000110581F420813181820F931F209163032E
:102A7000309164032817390779F5F0936403E093E4
:102A8000630371C0D80140E050E0AE17BF0750F4B7
:102A900012962D913C911397AD012115310509F145
:102AA000D901F3CF9D01DA013383228360817181E3
:102AB000860F971F8217930769F4EC0128813981EB
:102AC000260F371F2E5F3F4F318320838A819B81E2
:102AD00093838283452B29F4F0936603E093650387
:102AE00042C01396FC93EE931297ED0149915991D0
:102AF0009E01240F351FE217F30771F48081918145
:102B0000840F951F029611969C938E9382819381D8
:102B100013969C938E931297E0E0F0E0D801129602
:102B20008D919C911397009719F0F8018C01F6CFC5
:102B30008D919C9198012E5F3F4F820F931F2091A2
:102B40006303309164032817390769F4309729F437
:102B5000109266031092650302C0138212821093D2
:102B6000640300936303DF91CF911F910F91089548
:102B7000A0E0B0E0EEEBF5E10C94B21CEC010097A4
:102B800021F4CB010E948B14B8C0FC01E60FF71FA3
:102B90009C0122503109E217F30708F4ACC0D901B7
:102BA0000D911C91119706171707B0F0053011050C
:102BB00008F49FC0C80104978617970708F499C0C6
:102BC00002501109061B170B019311936D937C930F
:102BD000CF010E9420158DC05B01A01AB10A4C01E3
:102BE000800E911EA0916503B091660340E050E015
:102BF000E12CF12C109709F44AC0A815B905D1F5BC
:102C00006D907C901197630182E0C80ED11CCA14AC
:102C1000DB0480F1A3014A195B096A0182E0C80E56
:102C2000D11C1296BC9012971396AC91B5E0CB16BE
:102C3000D10440F0B282A38351834083D9016D93C4
:102C40007C930AC00E5F1F4FC301800F911FF901D3
:102C500091838083EB2DFA2FE114F10431F0D70139
:102C60001396FC93EE93129744C0F0936603E0939F
:102C700065033FC08D919C9111974817590708F43F
:102C8000AC017D0112960D90BC91A02DB3CF809127
:102C900063039091640388159905E1F4461757077B
:102CA000C8F48091270190912801009741F48DB7D5
:102CB0009EB740912B0150912C01841B950BE81776
:102CC000F907C8F4F0936403E0936303F901718397
:102CD00060830FC0CB010E948B147C01009759F0D8
:102CE000A801BE010E948716CE010E942015C701CF
:102CF00004C0CE0102C080E090E0CDB7DEB7EEE0C8
:102D00000C94CE1C81E090E0F8940C94F41CFB0130
:102D1000DC0102C001900D9241505040D8F7089557
:102D2000FB01DC0101900D920020E1F70895FB0109
:102D3000DC014150504048F001900D920020C9F74D
:102D400001C01D9241505040E0F70895EF920F935B
:102D50001F93CF93DF93E80147FD02C034E001C029
:102D600034E1E42F440FFF0BF7FF03C0F195E19529
:102D7000F109E32E022F2E2FAE010E944E17CE0135
:102D8000DF91CF911F910F91EF90089566277727DC
:102D90000C94DC18FC0188279927E89421912032B3
:102DA000E9F3293010F02E30C8F32B3241F02D32E8
:102DB00039F4689404C00E942417820F911D219158
:102DC00020532A30C0F31EF4909581959F4F0895AB
:102DD0001F93FC0199278827BC01E89411911032B8
:102DE000E9F3193010F01E30C8F31B3251F01D32D8
:102DF00049F4689406C00E940F17610F711D811D70
:102E0000911D119110531A30B0F33EF490958095B6
:102E1000709561957F4F8F4F9F4F1F910895592F48
:102E2000482F372F262F660F771F881F991F660F91
:102E3000771F881F991F620F731F841F951F660FCE
:102E4000771F881F991F08957AE0979F902D879F7D
:102E5000802D910D11240895BB27FA01A62F62172A
:102E6000710581059105330B30FB66F0AA27660FCB
:102E7000771F881F991FAA1FA21710F0A21B639526
:102E80003850A9F7A05DAA3308F0A95DA19336F7E1
:102E9000B111B1931082CA010C94321B4F925F9210
:102EA0006F927F929F92AF92BF92CF92DF92EF92FA
:102EB000FF920F931F93CF93DF93CDB7DEB7299780
:102EC0000FB6F894DEBF0FBECDBF6A01122FB02E31
:102ED0002BE3201720F0FF24F394F00E02C0BCE394
:102EE000FB2E0F2D27E0AE014F5F5F4F0E94391A76
:102EF000AC018981982F9970913031F0E1FC06C0C6
:102F0000E0FE06C090E205C09DE203C09BE201C066
:102F100090E0EE2DE07183FF3CC0911102C083E090
:102F200001C084E0811718F4212F281B01C020E084
:102F3000E1110BC0F601822F30E2882319F03193A2
:102F40008150FBCFC20ED11C20E0992329F0D6017D
:102F50009C93F60131966F01C6010396E2FE0AC00A
:102F60003EE4D6013C9341E411964C93119712969E
:102F70003C9306C03EE6F601308341E6418332834E
:102F8000FC01322F40E2332309F442C04193315017
:102F9000FACF82FF44C0911102C083E001C084E0F7
:102FA000811718F4212F281B01C020E0E1110BC06C
:102FB000F601822F30E2882319F031938150FBCF44
:102FC000C20ED11C20E0992329F0D6019C93F60172
:102FD00031966F01C6010396E2FE0BC039E4D601BB
:102FE0003C933EE411963C93119736E412963C9341
:102FF00007C039E6F60130833EE6318336E6328398
:10300000FC01322F40E2332319F041933150FBCFC2
:10301000FC01E20FF11D10828EEF9FEFB7C0F1E0CF
:10302000911101C0F0E06F2F70E01416150624F422
:103030009A012F5F3F4F02C021E030E0260F371F7B
:10304000BB2029F06B2D70E06F5F7F4F02C060E006
:1030500070E0260F371F612F70E0261737071CF42A
:10306000121B212F01C020E03E2D387159F4D601EA
:10307000322F60E2332319F06D933150FBCFC20E33
:10308000D11C20E0FF2331F0D6019C93B6016F5F85
:103090007F4F6B01E1110BC0F601922F30E39923B2
:1030A00019F031939150FBCFC20ED11C20E09F2D1F
:1030B000940F3A81782F7071A72E84FF03C03133AB
:1030C00009F49150191624F4993018F098E001C0D1
:1030D00091E0E42F852F57FF02C0E0E080E06E2FE3
:1030E000782FE0E0F0E0AEE29A2E3A01691A71081A
:1030F0002A01461A570A0B2D10E011950195110966
:103100006F3F8FEF780729F4D6019C92C601019694
:103110006C014617570784F0661677066CF47F013A
:10312000E40CF51CA1E0B0E0AC0FBD1FEA0EFB1EE5
:10313000D7011196BC9002C090E3B92E615071097D
:103140003196C60101967C016017710724F0D60103
:10315000BC926C01D5CF6417750741F4363320F467
:10316000353321F4A11002C081E3B82EF601B082FC
:10317000F701822F90E2882319F091938150FBCFC1
:10318000F701E20FF11D108280E090E029960FB662
:10319000F894DEBF0FBECDBFDF91CF911F910F918D
:1031A000FF90EF90DF90CF90BF90AF909F907F9077
:1031B0006F905F904F900895A0E0B0E0E2EEF8E1EC
:1031C0000C94B21CEC017B016115710519F0DB0157
:1031D0008D939C938E010F5F1F4F7880872D90E019
:1031E0000E94111B892B11F0E801F4CFBDE27B1284
:1031F00005C00F5F1F4F7980C1E008C0EBE27E126F
:1032000004C08E010E5F1F4F7980C0E06801F1E0BD
:10321000CF1AD10843E050E062E471E0C6010E9499
:103220001A1B892BF1F4680122E0C20ED11C45E083
:1032300050E06DE371E0C6010E941A1B892B21F456
:10324000680187E0C80ED11CE114F10419F0D70120
:10325000CD92DC92C111FFC060E070E080E89FE792
:1032600003C143E050E06AE371E0C6010E941A1B0B
:10327000892B51F4E114F10409F4F2C00E5F1F4FE1
:10328000F70111830083ECC0680160E070E0CB01BE
:1032900000E010E0F601D0EDD70DDA3058F52C2F14
:1032A0002260622E2C2F2870C2FF05C0211128C079
:1032B0000F5F1F4F25C0222311F001501109A5E017
:1032C000B0E09B01AC010E94A31C4B015C01880C87
:1032D000991CAA1CBB1CC501B4016D0F711D811D79
:1032E000911D6839A9E97A078A07A9E19A0740F090
:1032F000C66005C0DE3F51F4C3FD44C0C8606C2EFB
:10330000BFEFCB1ADB0A7080C62DC4CF2D2F2F7DC7
:103310002531C1F540814D3211F4C06106C04B32F8
:1033200021F0319621E030E006C03296D6011196A8
:103330004C9122E030E0A0EDA40FAA3018F0E21B7F
:10334000F30B20C040E050E04038BCE05B075CF489
:103350009A01220F331F220F331F420F531F440FB6
:10336000551F4A0F511D3196DF0111972C91A0ED89
:10337000A20FAA3048F3C4FF03C0519541955109EB
:10338000040F151FC1FF07C0E114F10421F03197AC
:10339000D701ED93FC930E94471BC370C33019F013
:1033A0006B017C0106C06B017C01F7FAF094F7F821
:1033B000F09420E030E0A901C701B6010E94421B51
:1033C000882309F445C017FF06C01195019511091E
:1033D000C9E5D1E002C0C1E7D1E05E01B8E1AB1AB6
:1033E000B1084601BE2DAF2D90E2E92EF12C0E154D
:1033F0001F0584F0FE012591359145915491B4014A
:103400008B2F9A2F0E94A81B4B01B82FA92F0E19A2
:103410001F09EDCF2497F594E794CA15DB0539F71A
:103420006401EB2EFA2E8E2D880F8F2D881F8F3F73
:1034300049F020E030E0A901C701B6010E94421B1B
:10344000811106C082E290E0909368038093670345
:10345000C701B60109C060E070E080E89FEF04C0DA
:1034600060E070E080EC9FE7CDB7DEB7EEE00C9453
:10347000CE1C283008F027E03327DA01990F311DE0
:1034800087FD916000966105710539F432602E5F09
:103490003D9330E32A95E1F708959F3F30F080385F
:1034A0007105610509F03C5F3C5F3D93913008F088
:1034B0008068911DDF93CF931F930F93FF92EF923C
:1034C000192F987F9695E92F96959695E90FFF27E6
:1034D000E153FE4F99273327EE24FF24A701E7018C
:1034E00005900894079428F4360FE71EF81E491F2C
:1034F000511D660F771F881F991F0694A1F705902D
:10350000079428F4E70EF81E491F561FC11D770FB8
:10351000881F991F661F0694A1F70590079428F449
:10352000F80E491F561FC71FD11D880F991F661F10
:10353000771F0694A1F70590079420F4490F561FB2
:10354000C71FD81F990F661F771F881F0694A9F7FA
:1035500084911095177041F0D695C795579547956A
:10356000F794E7941A95C1F7E5E7F1E068941590B0
:10357000159135916591959105907FE27395E118CC
:10358000F10A430B560BC90BD009C0F7E10CF11E31
:10359000431F561FC91FD01D7EF4703311F48A9546
:1035A000E6CFE894015030F0080F0AF40027021724
:1035B00008F4202F2395022F7A3328F079E37D93A6
:1035C0002A95E9F710C07D932A9589F60694979578
:1035D0006795379517951794E118F10A430B560B29
:1035E000C90BD00998F023957E9173957A3308F032
:1035F00070E37C932013B8F77E9170617D9330F077
:10360000839571E37D9370E32A95E1F71124EF90A0
:10361000FF900F911F91CF91DF91992787FD909592
:10362000089591110C94151C803219F08950855021
:10363000C8F70895FB01DC014150504088F08D919E
:1036400081341CF08B350CF4805E659161341CF084
:103650006B350CF4605E861B611171F3990B089554
:10366000881BFCCFDC01FC01672F71917723E1F708
:10367000329704C07C916D9370836291AE17BF073F
:10368000C8F308950E94841B08F481E00895E8942B
:1036900009C097FB3EF490958095709561957F4F9A
:1036A0008F4F9F4F9923A9F0F92F96E9BB27939548
:1036B000F695879577956795B795F111F8CFFAF458
:1036C000BB0F11F460FF1BC06F5F7F4F8F4F9F4F89
:1036D00016C0882311F096E911C0772321F09EE8E7
:1036E000872F762F05C0662371F096E8862F70E04D
:1036F00060E02AF09A95660F771F881FDAF7880F27
:103700009695879597F90895990F0008550FAA0B7C
:10371000E0E8FEEF16161706E807F907C0F01216E4
:103720001306E407F50798F0621B730B840B950BE7
:1037300039F40A2661F0232B242B252B21F408953C
:103740000A2609F4A140A6958FEF811D811D0895D9
:103750000E94BB1B0C942F1C0E94211C38F00E945D
:10376000281C20F0952311F00C94181C0C941E1C9E
:1037700011240C94631C0E94401C70F3959FC1F3AC
:10378000950F50E0551F629FF001729FBB27F00D0F
:10379000B11D639FAA27F00DB11DAA1F649F662764
:1037A000B00DA11D661F829F2227B00DA11D621FB3
:1037B000739FB00DA11D621F839FA00D611D221F6D
:1037C000749F3327A00D611D231F849F600D211D51
:1037D000822F762F6A2F11249F5750409AF0F1F0D4
:1037E00088234AF0EE0FFF1FBB1F661F771F881F3D
:1037F00091505040A9F79E3F510580F00C94181C41
:103800000C94631C5F3FE4F3983ED4F38695779560
:103810006795B795F795E7959F5FC1F7FE2B880FE2
:10382000911D9695879597F908959927882708956A
:1038300097F99F6780E870E060E008959FEF80EC63
:10384000089500240A941616170618060906089506
:1038500000240A9412161306140605060895092E6C
:103860000394000C11F4882352F0BB0F40F4BF2BDB
:1038700011F460FF04C06F5F7F4F8F4F9F4F08951B
:1038800057FD9058440F551F59F05F3F71F0479511
:10389000880F97FB991F61F09F3F79F087950895F6
:1038A000121613061406551FF2CF4695F1DF08C015
:1038B000161617061806991FF1CF86957105610532
:1038C00008940895E894BB2766277727CB0197F9DA
:1038D0000895DC01CB01FC01F999FECF06C0F2BDD1
:1038E000E1BDF89A319600B40D9241505040B8F7BE
:1038F0000895F999FECF92BD81BDF89A992780B5B8
:103900000895DC01A40FB51F4150504048F0CB0191
:10391000840F951F2E910E94921C41505040D0F769
:103920000895262FF999FECF92BD81BDF89A01978F
:1039300000B4021639F01FBA20BD0FB6F894FA9AF7
:10394000F99A0FBE08950E94E51CA59F900DB49FA3
:10395000900DA49F800D911D112408952F923F92E8
:103960004F925F926F927F928F929F92AF92BF928F
:10397000CF92DF92EF92FF920F931F93CF93DF933B
:10398000CDB7DEB7CA1BDB0B0FB6F894DEBF0FBE98
:10399000CDBF09942A88398848885F846E847D84E5
:1039A0008C849B84AA84B984C884DF80EE80FD80E7
:1039B0000C811B81AA81B981CE0FD11D0FB6F8945D
:1039C000DEBF0FBECDBFED010895A29FB001B39F32
:1039D000C001A39F700D811D1124911DB29F700D18
:0C39E000811D1124911D0895F894FFCF63
:1039EC00FFFFFF00FCE1A8A85E0295053003F5057A
:1039FC00E002BF056301B50549031F06FFBE025176
:103A0C000601016C0C6C0C000069038000000000C6
:103A1C0000D40B500B9D0B7B0B8F0B1B0C00000071
:103A2C00005C07480741073E073B073A073A303A24
:103A3C0000434F322073656E736F7200312E350068
:103A4C00566F6C747300434F322050504D00322E21
:043A5C00312E3100D6
:1078000011E0A0E0B1E0E4EFFFE702C005900D92C7
:10781000A630B107D9F721E0A6E0B1E001C01D9282
:10782000AE34B207E1F7CDB7DEB76197DEBFCDBFAB
:10783000112484B78093270114BE88E180936000EF
:1078400089E280936000259A86E020E295B1922734
:1078500095B93FEF40E792E0315040409040E1F76A
:1078600000C00000815091F78091270181FD11C077
:107870008EE284B981E58CBD812C912C55245394E2
:1078800011E0CC24CA94DC2CAA24A39472E0B72E75
:10789000FDC082E08093C00088E18093C10086E053
:1078A0008093C20080E18093C400E12CF12CC12CB4
:1078B000D12CAA24AA94BA2C01E0A8950BD3813428
:1078C00071F408D3898B12D38989823811F482E04C
:1078D00053C0813811F485E64FC083E04DC0823437
:1078E00011F484E103C0853419F485E00BD363C03F
:1078F000853541F4EFD2E82EEDD2F12CF82AEE0CCA
:10790000FF1C58C0863521F484E0FCD280E034C0EE
:107910008436E1F4DFD2DED2882EDCD2C80CD11C52
:10792000912C981480F4D6D2182FD4D2F701E90DF7
:10793000F11D212F30E0382B090107BFE8951124F4
:1079400093949394EECFC7018CD134C0843761F403
:10795000C1D2C0D2182FBED2C9D2F70185917F0102
:10796000B2D21150D1F728C0853741F4BFD28EE191
:10797000AAD285E9A8D28FE0A6D21DC08135D1F464
:10798000BA82A982BC82AB82C60134E09695879503
:107990003A95E1F79E838D83C60175D198878F83D1
:1079A00048E050E06BE171E0CE01019602D39ED237
:1079B00011E002C09BD210E080E185D2112309F4CE
:1079C0007CCF56CF43E050E060E070E089E291E088
:1079D000E0D248E050E06BE171E0CE010196D9D2EF
:1079E00029982A9A63E083E29AD16CE485E297D1E0
:1079F00067E286E294D163E780E591D164E08DE3AC
:107A00008ED161E082E28BD161E081E288D161E0D8
:107A10008CE385D121E041E060E070E086E058D160
:107A2000873209F008C180912A01809328011092C1
:107A30004D018FEF80932A0180932B0103E22AE00E
:107A400047E06FEF66D260E084E269D160E08EEFDC
:107A500083D180912A018F3F09F4EDC080912901E3
:107A600081508E3F08F46CC003E222E043E06FEFE8
:107A700080E04FD263E084E06FD1882379F383E321
:107A800091E055D2682F80E090E0A2D2F999FECF24
:107A900099CF46E050E063E371E08DE091E064D27D
:107AA000892B79F5C3018150904F082F02950077FB
:107AB00040E050E0602F70E0DA01A45DBE4FFA01B3
:107AC000E60FF71F1E962C911E9730E0322F2227CB
:107AD0001D96AC912A2B090157BEE89511244E5FE3
:107AE0005F4F4031510541F7011106C044E0880F56
:107AF000991F4A95E1F7B5D0E114F10409F482C069
:107B0000370189859A8590930E0180930D018B85AD
:107B10009C859093100180930F01730121E0E21A7C
:107B2000F108F0921201E092110104EC22E342E02C
:107B30006FEF80E0EED168E083E00ED18111A9CF34
:107B40006FE584E2ECD010930D0110920E0103EC6E
:107B500022E14FE06FEF80E0DCD160E08FE0FCD00D
:107B60008D819E8124E0880F991F2A95E1F78BD0A3
:107B700098878F8388E0FE013196ADE0B1E00190F7
:107B80000D928A95E1F7B0921601A092150104ECCE
:107B900022E540E06FEF80E0BCD163E081E0DCD023
:107BA000882309F448C088E0E3E3F1E0DE01199698
:107BB00001900D928A95E1F748E050E0BE01675FC1
:107BC0007F4FCE010196D0D1892BA9F18091370149
:107BD000909138018038974070F588E0FE01399621
:107BE000DE01119601900D928A95E1F7D886CF8239
:107BF00048E050E06BE171E0CE010196DAD16D848E
:107C00007E847FCF8D859E8534E0880F991F3A95BD
:107C1000E1F739D02F8538898217930721F01E8626
:107C20001D86188A1F8648E050E06BE171E0CE01A6
:107C30000996BFD12BCF8D819E8124E0880F991F9B
:107C40002A95E1F720D02F8138858217930709F014
:107C50001DCF1CBCA89580912701282EF401099501
:107C600015CF23E0FC0127BFE89507B600FCFDCF48
:107C700025E0FC0127BFE89507B600FCFDCF81E1B8
:107C800087BFE8950895AC01413088E7580710F0A8
:107C900040E058E7E0E0F0E08FEF9FEF411551053D
:107CA000B1F02591822768E0DC01B695A7959C018B
:107CB000217033273195219531092170307AC9011E
:107CC0008A279B27615081F741505109E7CF0895DA
:107CD0002A988EBD0DB407FEFDCF8EB59FEF4150A3
:107CE000D0F0222369F09EBD0DB407FEFDCF8EB506
:107CF00061157105A1F3DB018C936F5F7F4FEFCFAF
:107D0000FB013196DB018C918EBD0DB407FEFDCFDA
:107D10008EB5BF01E4CF2A9A089520E0D9CFCF9342
:107D2000DF931F92CDB7DEB7698320E041E0BE014B
:107D30006F5F7F4FCDDF0F90DF91CF91089540E0CF
:107D400060E070E082EEE9DF40E060E070E081EE4C
:107D5000E4DF60E787E2E3CFEF92FF920F931F9398
:107D6000CF93DF93F82ED62FEE24EA94A895C091F6
:107D70000901C695C695C695C95F10912A01299833
:107D80006EE080E2CCDFDBDF1093000145E060E0D5
:107D900071E08AE2C2DF45E060E071E080E3BDDFD0
:107DA0004C2F66E071E080EAB8DF299A2A98EEBC91
:107DB0000DB407FEFDCFCEB52A9A8C2F8073B1F398
:107DC000299860E387E2ABDFC4FF05C040E060E0D4
:107DD00070E081EEA2DF6FE080E2A1DF6091290117
:107DE0008AE29DDFACDF299A0FEF1FEFA89521E013
:107DF00041E060E070E087E16BDF80FF02C04FEFA1
:107E000044C021E041E060E070E080E661DF813263
:107E100030F040E060E070E082EE7FDF80E021E063
:107E2000482F6CE271E081E653DF89DF90912E01EB
:107E3000809129019813E3CF409131018091300165
:107E40008770833011F5483001F580912D015091F4
:107E50002801851303C091E090934D019091330167
:107E6000692F70E020912B0130E021503109621719
:107E7000730724F420914D01222311F0851305C0CE
:107E80009F5F90932B0180932A0191E04F1190E026
:107E900085EA8A95F1F700000150110921F4892F34
:107EA000D11105C009C0992309F4A0CF04C0D15055
:107EB000992309F45BCF81E0DF91CF911F910F915E
:107EC000FF90EF9008959091C00095FFFCCF8093B4
:107ED000C60008958091C00087FFFCCF8091C0004C
:107EE00084FD01C0A8958091C6000895F3DF80321B
:107EF00039F088E18093600088E080936000FFCFD4
:107F000084E1E1CFCF93C82FE5DFC150E9F7CF91EE
:107F1000EDCF0F9390912901E6E0F1E091839083FA
:107F2000828366834583048323830F910895FC0134
:107F300088279927E89421912032E9F3293010F01D
:107F40002E30C8F32B3239F02D3231F4689403C04F
:107F500018D0820F911D219120532A30C8F31EF4AE
:107F6000909581959F4F0895FB01DC0104C08D9190
:107F70000190801921F441505040C8F7881B990B9B
:107F800008957AE0979F902D879F802D910D112461
:107F90000895DC01CB01FC01F999FECF06C0F2BDCA
:107FA000E1BDF89A319600B40D9241505040B8F7B7
:107FB0000895DC01A40FB51F4150504040F0CB01A3
:107FC000840F951F2E9105D041505040D8F7089549
:107FD000262FF999FECF92BD81BDF89A019700B482
:107FE000021639F01FBA20BD0FB6F894FA9AF99A22
:047FF0000FBE089523
:067FF40000FCE1A8A8005A
:040000030000780081
:00000001FF