:100000000C9409030C9410110C94E9100C94310316
:100010000C9431030C9431030C94690B0C94310350
:100020000C9431030C9431030C9431030C94310380
:100030000C9431030C9431030C9431030C94310370
:100040000C949F100C9431030C94800E0C945A0E57
:100050000C9431030C9431030C9431030C94310350
:100060000C9437110C94310307634236B79BD8A721
:100070001A39685618AEBAAB558C1D3CB7CC5763CD
:10008000BD6DEDFD753EF6177231BF000000803F7B
:1000900008000000BE922449123EABAAAA2ABECD97
:1000A000CCCC4C3E00000080BEABAAAAAA3E000009
:1000B0000000BF000000803F000000000008417801
:1000C000D3BB4387D1133D190E3CC3BD4282AD2B38
:1000D0003E68EC8276BED98FE1A93E4C80EFFFBE30
:1000E00001C4FF7F3F000000000054534D3A494EC9
:1000F00049540A002154534D3A494E49543A5453F5
:1001000050204641494C0A0054534D3A494E4954F7
:100110003A545350204F4B0A0054534D3A465041E5
:10012000520A002154534D3A465041523A4E4F2004
:100130005245504C590A002154534D3A46504152B1
:100140003A4641494C0A0054534D3A465041523ABE
:100150004F4B0A0054534D3A49443A5245510A0014
:1001600054534D3A49440A002154534D3A49443AB4
:100170004641494C0A0054534D3A49443A4F4B0AC0
:100180000054534D3A55504C0A002154534D3A55A2
:10019000504C3A4641494C0A0054534D3A55504C44
:1001A0003A444757432C4F3D25642C4E3D25640A65
:1001B0000054534D3A55504C3A4F4B0A0054534D4E
:1001C0003A52454144593A49443D25642C504152E4
:1001D0003D25642C4449533D25640A002154534D68
:1001E0003A52454144593A55504C204641494C2CCD
:1001F000534E500A0054534D3A4641494C3A5044EC
:10020000540A0054534D3A4641494C3A434E543DEA
:1002100025640A0054534D3A4641494C3A52452D03
:10022000494E49540A004D434F3A50494D3A4E4FBA
:100230004445205245473D25640A00215453463A1F
:100240004D53473A52454C204D53472C4E52455042
:100250000A005453463A4D53473A42430A00545316
:10026000463A4D53473A41434B0A00215453463ACC
:100270004D53473A504F4E4720524543562C494E16
:100280004143544956450A005453463A4D53473A60
:10029000504F4E4720524543562C48503D25640A46
:1002A000005453463A4D53473A50494E4745442C23
:1002B00049443D25642C48503D25640A002154538F
:1002C000463A4D53473A4650415220494E414354D5
:1002D0004956450A005453463A4D53473A46504111
:1002E00052204F4B2C49443D25642C443D25640A43
:1002F000005453463A4D53473A41434B20524551DF
:100300000A00215453463A4D53473A505645522C11
:1003100025643D25640A00215453463A4D53473A1B
:100320004C454E2C2564213D25640A005453463A21
:100330004D53473A524541442C25642D25642D25C3
:10034000642C733D25642C633D25642C743D256429
:100350002C70743D25642C6C3D25642C73673D2501
:10036000643A25730A005453463A5349443A4F4B72
:100370002C49443D25640A00215453463A534944CC
:100380003A4641494C2C49443D25640A00257354A2
:1003900053463A4D53473A53454E442C25642D2538
:1003A000642D25642D25642C733D25642C633D2527
:1003B000642C743D25642C70743D25642C6C3D25A3
:1003C000642C73673D25642C66743D25642C73741E
:1003D0003D25733A25730A00215453463A52544539
:1003E0003A46504152204143544956450A0021544F
:1003F00053463A534E443A544E520A000000000805
:1004000000020100000304070000000000000000DB
:100410004D434F3A5245473A5245510A00545346CC
:100420003A5755523A4D533D256C750A004D434F8E
:100430003A42474E3A494E4954204F4B2C54535060
:100440003D25640A004D434F3A42474E3A535450BB
:100450000A004D434F3A42474E3A4246520A004D37
:10046000434F3A42474E3A494E4954204E4F444535
:100470002C43503D524E4E4E412D2D2C5645523D53
:10048000322E312E310A00214D434F3A534E443A19
:100490004E4F4445204E4F54205245470A0000001D
:1004A0000000250028002B00000000002400270089
:1004B0002A000404040404040404020202020202E6
:1004C0000303030303030102040810204080010218
:1004D000040810200102040810204E414E494E49E4
:1004E0005459494E46CDCCCC3D0AD7233C17B7D101
:1004F0003877CC2B329595E6241FB14F0A000020A7
:10050000410000C84200401C4620BCBE4CCA1B0E25
:100510005AAEC59D7400407A10F35A00A0724E186E
:10052000090010A5D4E80000E87648170000E40BA5
:1005300054020000CA9A3B000000E1F5050000806B
:10054000969800000040420F000000A086010000C5
:1005500000102700000000E8030000000064000015
:100560000000000A00000000000100000000002C54
:1005700076D888DC674F0823DFC1DFAE59E1B1B719
:1005800096E5E3E453C63AE651997696E8E6C284E6
:1005900026EB898C9B62ED407C6FFCEFBC9C9F40FE
:1005A000F2BAA56FA5F490055A2AF75C936B6CF923
:1005B000676DC11BFCE0E40D47FEF520E6B500D0F9
:1005C000ED902E0300943577050080841E0800000E
:1005D000204E0A000000C80C333333330F986E12DC
:1005E000831141EF8D2114893BE65516CFFEE6DBE2
:1005F00018D1844B381BF77C1D901DA4BBE424202C
:100600003284725E228100C9F124ECA1E53D27000D
:10061000981911241FBECFEFD8E0DEBFCDBF12E086
:10062000A0E0B1E0E2EAF0E502C005900D92AA3741
:10063000B107D9F724E0AAE7B2E001C01D92A43EB9
:10064000B207E1F713E0C9E0D3E004C02197FE014F
:100650000E945E1AC830D107C9F70E948A180C940C
:100660004F280C9400000F931F930E94380F0091A5
:10067000090310910A0320910B0330910C03601BB6
:10068000710B820B930B1F910F9108959C01809128
:100690000703909108038217930751F0909111037B
:1006A0009F7190931103309308032093070305C0B3
:1006B00080911103805E80931103E0910703F09114
:1006C00008030190F081E02D309709F009950E9410
:1006D000380F6093090370930A0380930B03909380
:1006E0000C030895EF92FF920F931F93CF93DF9324
:1006F000CDB7DEB7C857D1090FB6F894DEBF0FBE2D
:10070000CDBF8E010F571F4FF801E190F1908F017F
:100710000E94380F4AE00E94781588EC91E00E9410
:10072000B9159801A70168E770E0CE0101960E9413
:10073000FF1FCE0101960E94B9158EE493E00E943E
:100740003E0CC858DF4F0FB6F894DEBF0FBECDBFCA
:10075000DF91CF911F910F91FF90EF900895AF928D
:10076000BF92CF92DF92EF92FF920F931F93CF939E
:10077000DF93EC018A819091110390FF0CC08F3FB1
:1007800079F088ED93E09F938F930E9472030F900E
:100790000F9010E0D0C08F3F19F000914C0301C0C2
:1007A0000FEF80914B0388834B8142FD06C0469535
:1007B0004695469517E0140F01C010E280E090E0E6
:1007C000892B21F080E090E00E940000299883E0CE
:1007D00092E00197F1F76EE080E20E94FE148BE850
:1007E00091E00197F1F7602F8AE20E94FE14602FDA
:1007F00080E30E94FE1481EE0E941C150F3F11F051
:1008000080EA01C080EB412F113208F040E220E085
:10081000BE010E94CC14299AE12CF12C8FEF0E948A
:100820001C15182F807321F481E0E81AF108B1F744
:10083000299860E387E20E94FE1414FF03C081EE52
:100840000E941C150E940F1515FB112710F981E05D
:100850000F3F09F080E0182BCE010E94B71611114E
:1008600003C0EBE5F1E002C0E8E5F1E060911203BE
:100870006F702B8122FBAA24A0F8322F3695369573
:1008800036952C81B22EB294B69447E0B422CD8036
:100890002770DE80EA80A02FB0E0F8807981111106
:1008A00003C040E651E002C041E152E09F938F93C4
:1008B000FF93EF931F926F931F92AF921F923F93FC
:1008C0001F92BF921F92CF921F922F931F92DF927F
:1008D0001F92EF92BF93AF931F92FF921F927F934D
:1008E0005F934F938DE893E09F938F930E947203E1
:1008F0008DB79EB74E960FB6F8949EBF0FBE8DBFB4
:1009000080914C03081317C0111110C080E090E0D3
:10091000892B21F085E690E00E940000809112036F
:1009200091E0980F9F70807F892B03C08091120304
:10093000807F80931203812FDF91CF911F910F91C0
:10094000FF90EF90DF90CF90BF90AF9008952091EF
:10095000110322FD0C94AF038EEE93E09F938F93CF
:100960000E9472030F900F9080E00895CF93C82FDC
:100970008FEF8C0F8E3F08F5C0934B03C0932D0172
:1009800063E082E20E94FE1461E081E20E94FE14B4
:100990000E940F156C2F80E090E00E94EC271F92C0
:1009A000CF9386E693E09F938F930E9472030F90FC
:1009B0000F900F900F9081E018C01F92CF9388E79F
:1009C00093E09F938F930E9472030F900F900F906C
:1009D0000F9080E090E0892B21F08EE690E00E945D
:1009E00000008FEF80934B0380E0CF9108952F920A
:1009F0003F924F925F926F927F928F929F92AF92AF
:100A0000BF92CF92DF92EF92FF920F931F93CF93FB
:100A1000DF93CDB7DEB72C970FB6F894DEBF0FBECD
:100A2000CDBFE0910703F09108030280F381E02D30
:100A3000309709F009958091110384FB222720F952
:100A4000298784FF54C386E0D82E90E0E92E90E0F9
:100A5000F92E9E012F5F3F4F3C832B8320EA822E8D
:100A600026E8922EAA24A394B12C34EB432E3BE229
:100A7000532E31E1632E712C21E041E060E070E003
:100A800087E10E94CC1480FD32C3DA94DD2009F4A2
:100A90002EC3E114F10421F081E090E00E940000F7
:100AA00021E041E060E070E080E60E94CC14C82EB6
:100AB00030E2381720F482EE0E941C15C12C21E090
:100AC0004C2D60E974E081E60E94CC1460E487E27A
:100AD0000E94FE1480919304282F26952695269532
:100AE0002A3108F029E182FD03C077E0720F01C0CE
:100AF00070E28091940487708D8310919504009129
:100B00009104209090043090920480E994E02A8728
:100B10007C870E94B7162A85422F50E09F938F93BF
:100B20008091930482FB882780F91F928F931F92F4
:100B30002F93809194048295869587701F928F934E
:100B40001F921F931F922D812F93809196041F92C5
:100B50008F931F923F921F922F921F920F93ACE29E
:100B6000B3E0BF93AF934A875B870E9472030FB6CF
:100B7000F894DEBF0FBECDBF7C854A855B85C71666
:100B800079F0E114F10429F08CE690E00E94000075
:100B90007C851F927F931F92CF9287E193E017C0CD
:100BA00020919304822F83708230E1F0E114F104EC
:100BB00021F08DE690E00E9400001F9282E08F936A
:100BC0008091930483701F928F9382E093E09F93B0
:100BD0008F930E9472030F900F900F900F900F90C1
:100BE0000F904ACF80911203806880931203809106
:100BF0004B03381254C0822F8695869586958A318C
:100C000008F089E138E0839FC00111242770822B0E
:100C100080939304FA01E057FB4F1782809194046C
:100C200083FF21C081EF92E09F938F930E94720314
:100C300081E2E0E9F4E0AFE6B4E001900D928A953C
:100C4000E1F780917304877F8061809373048091C2
:100C50004B0380937004009371048FE694E00E942C
:100C6000A7040F900F909091940494FD0BC02D81D8
:100C7000233081F48091950421EF280F233008F070
:100C800050C0FACEAEE5B2E0BF93AF930E947203BC
:100C90000F900F9080E994E00E94F70CEDCEFFEFEB
:100CA0003F1236C0A2E5B2E0BF93AF930E94720339
:100CB0000F900F902D81233031F58091110382FF29
:100CC00003C0173009F4D8CE183009F4D5CE14314A
:100CD00009F0D2CE80914C032812CECE0E94380F5C
:100CE0007370882799270E94FE0E10914C0325E10E
:100CF00043E06FEF802F0E944915612F0E94AF12D1
:100D00000E94AF03B9CE80914C032812B5CEC2CF5A
:100D1000ABE3B2E0BF93AF930E9472030F900F90CA
:100D2000ABCE143029F40E9454170E94B604A4CE0E
:100D3000183021F51091110310FF1BC00E945417A9
:100D40008F3F09F499CE8F5F8F3F09F495CE909134
:100D50004D03891708F090CE11FD8ECE80934D0380
:100D600000934C031F928F931F920F9385ED92E097
:100D70002ECF8DEB92E09F938F93CECF1831C1F49D
:100D80000E9454171F928F931F920F9381EA92E053
:100D90009F938F930E94720329E143E06FEF802FAE
:100DA0000E94491561E00E94AF120E94AF0313CF69
:100DB0001931A9F48091110383FF0EC0877F8093BE
:100DC00011030E945417809313031F928F9388E896
:100DD00092E09F938F933AC0ABE6B2E09BCF209115
:100DE0009104211180C18D3099F480E090E0892B2D
:100DF00021F08BE090E00E94000098E088E10FB6BF
:100E0000F894A895809360000FBE90936000FFCF88
:100E10008B3119F50E94541791E0811101C090E0C7
:100E20008091170390FB80F980931703E114F1047C
:100E300021F08AE090E00E94000080911703817009
:100E40001F928F93A6E2B2E0BF93AF930E9472030A
:100E50000F900F900F900F900FCE8630A9F49091C5
:100E60009704992329F081E09D3419F080E001C0B6
:100E700089858093160341E050E063E071E086E1EC
:100E800093E00E94DC27F8CD833119F40E945214BC
:100E9000F3CD8231F1F40E9433036D837E838F831F
:100EA000988726E143E06FEF80E00E944915FC013E
:100EB00084818F71806A8483838187708062838359
:100EC0008D819E81AF81B88587839087A187B28706
:100ED000DAC0813001F5A0E0B0E0AB2B09F4CCCD55
:100EE000929596959770953049F46091970470911A
:100EF00098048091990490919A040AC0911105C0B8
:100F000087E994E00E94651F03C060E070E0CB01B8
:100F10000E940000B1CD8A3009F4AECD8C3109F0C9
:100F2000B9CE80919704823509F4A6CD8635B1F506
:100F30008EE480937C0066E470E080E090E00E94A4
:100F4000FE0E80917A00806480937A0080917A000E
:100F500086FDFCCF20907800309079002CE143E0B2
:100F60006FEF80E00E9449158C01FC0184818F7134
:100F7000806684838381877080618383910140E0F0
:100F800050E0C301B2010E94211AD80118963C9387
:100F90002E931797C8010E94A7046ECD863409F0DE
:100FA00052C0F8948FEF86BB109285001092840097
:100FB0001092800010928200909160002DE088E1F4
:100FC0000FB6F894A895809360000FBE2093600040
:100FD00080916000806480936000A89585E0809394
:100FE00081008091600087FFFCCF10928100A8955E
:100FF0008091600088618093600090936000789495
:1010000020908400309085002CE143E06FEF80E079
:101010000E9449158C01FC0184818F718066848354
:101020008381877080618383C101A0E0B0E0BC014F
:10103000CD014BE0660F771F881F991F4A95D1F7A6
:10104000A5019401A0CF8D3401F50091DE0410912B
:10105000DF040115110511F404EE14E02CE143E066
:101060006FEF80E00E944915FC0184818F718066DA
:10107000848383818770806183838B819C81801BC3
:10108000910B90878783CF0186CF853409F0F4CC0C
:101090002CE143E06FEF80E00E94491568E571E0C4
:1010A0000E94BB120E94A70400E010E06FEFC8018D
:1010B0000E94EC270F5F1F4F0D39B1E01B07B1F7FE
:1010C00080E090E0892B21F08BE090E00E9400000E
:1010D00098E088E10FB6F894A895809360000FBE61
:1010E00090936000FFCF8A3109F0D4CDC5CC2C9607
:1010F0000FB6F894DEBF0FBECDBFDF91CF911F9129
:101100000F91FF90EF90DF90CF90BF90AF909F90A6
:101110008F907F906F905F904F903F902F900895A9
:101120000F931F930E9433032091120320772037DF
:1011300029F000E117E220E030E004C000E61AEEFA
:1011400020E030E0061717072807390770F484E11C
:1011500092E09F938F930E9472030F900F908EE204
:1011600091E01F910F910C9446031F910F910895E8
:1011700080911203982F9077903759F0982F92957D
:101180009F709F5F97709295907F8F78892B809347
:10119000120380911203829587701F928F9383E0D0
:1011A00092E09F938F930E947203809111038B7F33
:1011B0008F7E809311030F900F900F900F9080E01F
:1011C00090E0892B21F087E690E00E94000085EFF7
:1011D00091E09F938F930E94720329980F900F9034
:1011E0006CE080E20C94FE14809112038F708630C4
:1011F00060F08CED91E09F938F930E9472030F90AB
:101200000F9088E191E00C944603089580914D037E
:101210001F928F9380914C031F928F9380914B0369
:101220001F928F938DEB91E09F938F930E94720397
:101230008091110384608093110380911203807860
:1012400080931203E0911403F09115038DB79EB7BC
:1012500008960FB6F8949EBF0FBE8DBF309709F069
:1012600009940895809113038F3F79F10E94380FFC
:1012700060930D0370930E0380930F0390931003FC
:1012800081EB91E09F938F930E94720390911303DF
:1012900080914D030F900F909817A1F01F929F938C
:1012A0001F928F9389E991E09F938F930E9472031D
:1012B0008091130380934D030F900F900F900F9028
:1012C0000F900F9084E191E025C00E943303613DAF
:1012D00077408105910500F180911103803618F463
:1012E00080E191E017C08AE891E09F938F930E947C
:1012F000720380911103877F809311030F900F90E9
:1013000080E090E0892B21F08AE690E00E940000C6
:1013100088E191E00C944603089581E891E09F9361
:101320008F930E9472030F900F9080E090E0892BC2
:1013300021F088E090E00E9400008FEF809313037B
:101340008091110388608093110328E143E06FEFDF
:1013500080E00E94491561E00E94AF120C94AF0337
:1013600080914B038F3F99F086E791E09F938F9395
:101370000E9472030F900F9080E090E0892B21F083
:1013800087E090E00E94000080E191E020C00E9490
:101390003303613D774081059105D8F080911103B9
:1013A000803618F48CE091E012C088E691E09F93BB
:1013B0008F930E9472030F900F9080E090E0892B32
:1013C00021F089E690E00E94000088E091E00C9412
:1013D0004603089580E691E09F938F930E947203E5
:1013E0000F900F9080914B038F3FE1F480E090E0ED
:1013F000892B21F086E090E00E94000084E591E0D6
:101400009F938F930E94720323E043E06FEF80E08D
:101410000E94491561E172E00E94BB120F900F908B
:101420000C94AF0308950E943303613D774081051A
:10143000910520F48091110381FF089580914C0360
:101440008F3FC1F087E491E09F938F930E947203D6
:10145000809111038E7F809311030F900F9080E095
:1014600090E0892B21F085E090E00E9400008CE064
:1014700091E021C080911103803658F483E291E01D
:101480009F938F930E9472030F900F9088E191E0D9
:1014900012C087E391E09F938F930E9472030F9095
:1014A0000F9080E090E0892B21F088E690E00E9488
:1014B000000088E091E00C94460389E191E09F935D
:1014C0008F930E9472030F900F9080E090E0892B21
:1014D00021F084E090E00E94000080911103897F58
:1014E0008160809311038FEF80934D0380934C03B1
:1014F00027E043E06FEF0E94491561E172E00E942E
:10150000BB120C94AF03CF93219A229ACFB7F894D1
:1015100080917A02811124C0ECEBF4E08491E0ED3B
:10152000F4E09491E82FF0E0EE0FFF1FE855FB4F39
:10153000A591B491EC91E92321F461E08AE00E9445
:10154000B20E8AE00E9498168CB580618CBD8CB575
:1015500080648CBD8DE00E9498168BE00E949816E6
:1015600080917A028F5F80937A02CFBF29982A9A5E
:101570006EE080E20E94FE1465E070E080E090E0A2
:101580000E94FE0E63E083E20E94FE146FE584E297
:101590000E94FE146CE485E20E94FE1467E286E27B
:1015A0000E94FE1463E780E50E94FE1466E08DE36E
:1015B0000E94FE1421E041E060E070E086E00E94BD
:1015C000CC14C82F21E041E060E070E085E00E948B
:1015D000CC148C3409F049C0C73209F046C062E02F
:1015E00082E20E94FE1460E081E20E94FE1463E049
:1015F0008CE30E94FE148FEF8093030120E045E00E
:1016000063E071E08BE20E94CC1420E045E063E0EF
:1016100071E08AE20E94CC1420E045E063E071E0D2
:1016200080E30E94CC1482EE0E941C1581EE0E9481
:101630001C1560E787E20E94FE1488E091E09F930A
:101640008F930E9472038091110380618093110334
:1016500080914B030F900F908F3FC1F00E94B60412
:10166000811114C088E091E013C084EF90E09F9353
:101670008F930E9472030F900F9080E090E0892B6F
:1016800089F387E690E00E940000ECCF88E191E0CA
:10169000CF910C9446038AEE90E09F938F930E9423
:1016A0007203E1E1F3E08081877F8F7E8083109277
:1016B0000D0310920E0310920F03109210030F905F
:1016C0000F9043E050E060E070E08BE493E00C9416
:1016D000C4271F920F920FB60F9211240F900FBEC6
:1016E0000F901F901895CF92DF92EF92FF920F9379
:1016F0001F93CF93DF936C017A018B01C0E0D0E0A0
:10170000CE15DF0589F0D8016D918D01D601ED91DF
:10171000FC910190F081E02DC6010995892B11F40F
:101720007E0102C02196ECCFC701DF91CF911F91BE
:101730000F91FF90EF90DF90CF900895FC01918D75
:10174000828D981761F0828DDF01A80FB11D5D9623
:101750008C91928D9F5F9F73928F90E008958FEF91
:101760009FEF0895FC01918D828D981731F0828D45
:10177000E80FF11D858D90E008958FEF9FEF08959C
:10178000FC01918D228D892F90E0805C9F4F821B00
:1017900091098F73992708958EE493E00E94C00BFE
:1017A00021E0892B09F420E0822F0895FC01848D2B
:1017B000DF01A80FB11DA35ABF4F2C91848D90E07B
:1017C00001968F739927848FA689B7892C93A08956
:1017D000B1898C9180648C93938D848D981306C00D
:1017E0000288F389E02D80818F7D80830895EF92B8
:1017F000FF920F931F93CF93DF93EC0181E0888FCB
:101800009B8D8C8D981305C0E889F989808185FDB1
:1018100024C0F62E0B8D10E00F5F1F4F0F731127A2
:10182000E02E8C8DE8120CC00FB607FCFACFE889C9
:10183000F989808185FFF5CFCE010E94D60BF1CFCB
:101840008B8DFE01E80FF11DE35AFF4FF0820B8FE5
:10185000EA89FB898081806207C0EE89FF89608305
:10186000E889F98980818064808381E090E0DF915C
:10187000CF911F910F91FF90EF900895CF93DF9339
:10188000EC01888D8823C9F0EA89FB89808185FD78
:1018900005C0A889B9898C9186FD0FC00FB607FCD9
:1018A000F5CF808185FFF2CFA889B9898C9185FF1A
:1018B000EDCFCE010E94D60BE7CFDF91CF910895F7
:1018C00080E090E0892B29F00E94CC0B81110C94D0
:1018D000000008953FB7F8948091030390910403AA
:1018E000A0910503B091060326B5A89B05C02F3F24
:1018F00019F00196A11DB11D3FBFBA2FA92F982F36
:101900008827820F911DA11DB11DBC01CD0142E0B0
:10191000660F771F881F991F4A95D1F7089508957C
:1019200085ED8093BC008091BC0084FDFCCF1092BB
:10193000D80208954091B202262F30E0240F311DC5
:1019400021323105DCF42091D8022430C9F4FC01A5
:1019500080E090E0861758F43091B2022191DC01CA
:10196000A057BD4FA30FB11D2C930196F3CF8091CB
:10197000B202680F6093B20280E0089581E008959A
:1019800082E0089508958FEF9FEF08958FEF9FEF06
:10199000089580918F0290E0919581959109089525
:1019A000CF93DF9300D0CDB7DEB7CB01642F49834F
:1019B0005A830E949A0C4981842F5A81952F0F9047
:1019C0000F90DF91CF910895CF93DF931F92CDB702
:1019D000DEB7698361E0CE0101960E949A0C81E036
:1019E00090E00F90DF91CF9108950E94D21DCF9289
:1019F000DF92EF92FF92CF93DF93EC018C8182957F
:101A000086958770873029F4CF80D884E984FA845A
:101A10000CC0811107C0CE0107960E94431F6B01C5
:101A20007C0103C0C12CD12C76018D818931C9F193
:101A30008B3109F46FC0883109F0B5C0C0928B02B8
:101A4000D0928C02E0928D02F0928E0220E030E083
:101A500048EC52E4C701B6010E9403270E94431BD1
:101A60008EE991E00E94EC278091EE0387708862F6
:101A70008093EE038091EF03806E8093EF03C0921A
:101A8000F203D092F303E092F403F092F50382E0C4
:101A90008093F6038BEE93E00E947C1782E691E040
:101AA00032C0C0928702D0928802E0928902F092FE
:101AB0008A0220E030E048EC52E4C701B6010E94FF
:101AC00003270E94431B8FE991E00E94EC2780913D
:101AD000EE03877088628093EE038091EF03806E3F
:101AE0008093EF03C092F203D092F303E092F403E9
:101AF000F092F50382E08093F6038BEE93E00E9470
:101B00007C178CE691E00E94B915C701B6010E94CE
:101B1000951749C08C81829586958770823019F41B
:101B20004F8158850AC0811106C0CE0107960E94D8
:101B3000471FAC0102C040E050E028EE33E0DA017C
:101B40000E94431A609383027093840280938502FB
:101B500090938602CA016AE070E00E940D1A84EA3E
:101B600091E00E94EC2740918302509184026091A1
:101B70008502709186028091EF038F71806A809355
:101B8000EF038091EE03877080628093EE034093B1
:101B9000F2035093F3036093F4037093F5038BEE19
:101BA00093E00E947C172091870230918802409137
:101BB000890250918A0260918B0270918C0280910F
:101BC0008D0290918E020E94641A60937F0270933E
:101BD000800280938102909382022EEF3FEF4FEFBD
:101BE0005FEB0E94D11A60937B0270937C0280931A
:101BF0007D0290937E0287E791E00E946A1584E956
:101C000091E00E94B9156D8170E080E090E04AE0BB
:101C10000E9478158CEA91E00E94B915C701B601BF
:101C20000E94951787E791E0DF91CF91FF90EF90A9
:101C3000DF90CF900C946A15EF92FF920F931F9351
:101C4000CF93DF93CDB7DEB7A1970FB6F894DEBF81
:101C50000FBECDBF7C01CB01BA01F701118210820A
:101C6000138212821582148242E0420F8E010F5FAE
:101C70001F4F0E94F61D009769F0FC0101900020A3
:101C8000E9F73197AF01481B590BBC01C7010E940E
:101C9000691803C0C7010E943E18A1960FB6F894B8
:101CA000DEBF0FBECDBFDF91CF911F910F91FF908F
:101CB000EF9008951F920F920FB60F9211242F9359
:101CC0003F934F935F936F937F938F939F93AF93C4
:101CD000BF93EF93FF938EE493E00E94D60BFF91A6
:101CE000EF91BF91AF919F918F917F916F915F9194
:101CF0004F913F912F910F900FBE0F901F9018950D
:101D00001F920F920FB60F9211242F938F939F93D0
:101D1000EF93FF93E0915E03F0915F038081E09188
:101D20006403F091650382FD12C090818091670386
:101D30008F5F8F7320916803821751F0E0916703E2
:101D4000F0E0E25BFC4F958F8093670301C08081D8
:101D5000FF91EF919F918F912F910F900FBE0F9058
:101D60001F90189590E0FC01E450FC4F3491FC0169
:101D7000EA53FB4F2491FC01EE54FB4FE491EE2318
:101D800009F43BC0332339F1333091F038F431306A
:101D9000A9F0323001F584B58F7D12C0373091F053
:101DA0003830A1F03430B9F4809180008F7D03C0C9
:101DB000809180008F77809380000DC084B58F77ED
:101DC00084BD09C08091B0008F7703C08091B000BE
:101DD0008F7D8093B000F0E0EE0FFF1FE256FB4FC7
:101DE000A591B4918FB7F894EC91611103C020953F
:101DF0002E2301C02E2B2C938FBF08958F929F927C
:101E0000AF92BF92CF92DF92EF92FF926B017C0173
:101E10000E946A0C4B015C01C114D104E104F1047D
:101E2000F1F00E946A0CDC01CB0188199909AA091A
:101E3000BB09883E9340A105B10570F321E0C21AA9
:101E4000D108E108F10888EE880E83E0981EA11CF5
:101E5000B11CC114D104E104F10419F7DDCFFF90E6
:101E6000EF90DF90CF90BF90AF909F908F900895AC
:101E70002FB7F8946091FF027091000380910103E5
:101E8000909102032FBF08958F929F92AF92BF92BD
:101E9000CF92DF92EF92FF92CF93DF9361E087E0E2
:101EA0000E94B20EC5E0D0E0C12CD12C7601809109
:101EB0001C0120E4829FC001112480937C0080914A
:101EC0007A00806480937A0080917A0086FDFCCF4E
:101ED000809178002091790090E0922BBC01990FBD
:101EE000880B990B0E94A4269B01AC01C701B60187
:101EF0000E94651A6B017C0162E370E080E090E073
:101F00000E94FE0E219799F620E030E040EA50E46E
:101F1000C701B6010E94D11A20E030E040E250E44F
:101F20000E94032720E030E040E85AE30E940327A4
:101F30004B015C0124EA30E74DED5FE30E94791B21
:101F400087FF2CC020912101309122014091230173
:101F500050912401C501B4010E94641A2091250109
:101F60003091260140912701509128010E94D11AF9
:101F700020911D0130911E0140911F0150912001BF
:101F80000E94651A9B01AC0160E070E080E291E480
:101F90000E947E1B0E94431BEB0102C0CFEFDFEFCC
:101FA00020918B0230918C0240918D0250918E02D3
:101FB000C501B4010E94641A20917B0230917C0219
:101FC00040917D0250917E020E94D11A27E238E8AA
:101FD00046E250E40E94651A9B01AC0160E070E0AB
:101FE00080E291E40E947E1B0E94431B6B017C01F6
:101FF00084EB91E00E94B91542E0C501B4010E9452
:10200000BB158DEB91E00E94B9158AEC91E00E941E
:10201000B915CF3F8FEFD80729F48FEC91E00E94DC
:10202000B91503C0CE010E94DA1784ED91E00E9439
:10203000B91582EC91E00E94B915C6010E94DA1729
:1020400084ED91E00E94B91588ED91E00E94B915E8
:102050000E94380F4AE00E94781580E192E00E94C9
:10206000B9158091510487708862809351048091E2
:102070005204806E809352048092550490925604CC
:10208000A0925704B092580482E0809359048EE4E1
:1020900094E00E947C17809131048F71806480935A
:1020A0003104809130048770806180933004D09334
:1020B0003504C09334048DE294E00E947C17809133
:1020C00010048F7180648093100480910F048770D6
:1020D000806180930F04D0921404C09213048CE0AA
:1020E00094E00E947C1780E192E00E94B915C090B4
:1020F0008302D0908402E0908502F09086020E94D4
:10210000380F4B015C010E94380FDC01CB018819AC
:102110009909AA09BB098C159D05AE05BF0520F4D8
:10212000A8950E94F704EFCFDF91CF91FF90EF9039
:10213000DF90CF90BF90AF909F908F9008951F92A7
:102140000F920FB60F9211242F933F938F939F936B
:10215000AF93BF938091FF0290910003A091010380
:10216000B09102033091FE0223E0230F2D3720F4BB
:102170000196A11DB11D05C026E8230F0296A11DE1
:10218000B11D2093FE028093FF0290930003A09361
:102190000103B09302038091030390910403A09183
:1021A0000503B09106030196A11DB11D80930303A1
:1021B00090930403A0930503B0930603BF91AF91DE
:1021C0009F918F913F912F910F900FBE0F901F9075
:1021D00018951F920F920FB60F9211242F933F93D1
:1021E0004F935F936F937F938F939F93AF93BF931F
:1021F000EF93FF93E0912B01F0912C010995FF9152
:10220000EF91BF91AF919F918F917F916F915F916E
:102210004F913F912F910F900FBE0F901F901895E7
:102220001F920F920FB60F9211242F933F934F934B
:102230005F936F937F938F939F93AF93BF93EF932E
:10224000FF93E0912901F0912A010995FF91EF9107
:10225000BF91AF919F918F917F916F915F914F91BE
:102260003F912F910F900FBE0F901F9018951F92C6
:102270000F920FB60F9211242F933F934F935F93BA
:102280006F937F938F939F93AF93BF93EF93FF933E
:102290008091B900887F803609F49CC068F5883247
:1022A00009F45BC090F4803109F454C038F48823F9
:1022B00009F4F6C0883009F44DC0F6C0883109F43D
:1022C0004CC0803209F45DC0EFC0803409F468C0AE
:1022D00048F4803309F455C0883309F0E5C0809391
:1022E000D702D8C0803509F44FC0883509F45DC0E5
:1022F000883409F0D9C0D6C0883909F4C7C0A8F419
:10230000883709F467C038F4883609F463C0803729
:1023100009F460C0C9C0883809F4B8C0803909F42C
:102320005FC0803809F0C0C05BC0803B09F486C044
:1023300038F4803A09F466C0883A09F47FC0B4C022
:10234000803C09F4A7C0883C09F4A4C0883B09F488
:102350008AC0AAC08091FD0210C09091FC028091B9
:10236000FB02981770F5E091FC0281E08E0F8093DC
:10237000FC02F0E0E552FD4F80818093BB0085ECCC
:1023800086C08093D7028EC0E091FC0281E08E0F60
:102390008093FC028091BB00F0E0E552FD4F80830A
:1023A0009091FC028091FB026EC0E091FC0281E002
:1023B0008E0F8093FC028091BB00F0E0E552FD4F50
:1023C00080838091DA0281116DC081E08093D9020F
:1023D00084EA61C083E08093D8021092D602CFCF06
:1023E0008091D602803208F051C0E091D60281E09F
:1023F0008E0F8093D6028091BB00F0E0EA54FD4F2F
:102400008083BDCF85EC8093BC001092D802809170
:10241000D602803230F4E091D602F0E0EA54FD4F6B
:1024200010826091D60270E0E091B402F091B502A2
:1024300086EB92E009951092D60236C084E0809334
:10244000D8021092B3021092B202E091B002F09161
:10245000B10209958091B202811105C081E080939B
:10246000B20210929002E091B30281E08E0F80934D
:10247000B302F0E0E057FD4F80818093BB00909164
:10248000B3028091B202981708F479CF85E880935F
:10249000BC000AC085EC8093BC001092D80204C036
:1024A0001092D7020E94900CFF91EF91BF91AF91D3
:1024B0009F918F917F916F915F914F913F912F915C
:1024C0000F900FBE0F901F90189510921C0187E07F
:1024D0000E94981661E087E00E94B20E87E791E0C3
:1024E0000E946A158BEE91E00E94B91560918B02F3
:1024F00070918C0280918D0290918E0242E00E9438
:10250000BB1584EF91E00E94B9158CE691E00E9422
:10251000B91560918702709188028091890290912B
:102520008A0242E00E94BB1580E092E00E946A1598
:1025300082E092E00E94B91560918302709184025A
:1025400080918502909186024AE00E9478158FE082
:1025500092E00E94581587E791E00C946A15FC01FF
:10256000838187708860838384818F718062848394
:102570006783CF0108950F931F93CF93DF93EC01EF
:102580006115710561F0FB0101900020E9F73197B9
:10259000E61BF70BE931F10518F0E9E101C0E0E0D5
:1025A0000E2F10E0C80123E0880F991F2A95E1F74C
:1025B0009B819770892B8B838C818F718C83EE2309
:1025C00029F0A801CE0107960E94E71DFE01E00F49
:1025D000F11F1782CE01DF91CF911F910F910895C6
:1025E0004F925F926F927F928F929F92AF92BF9223
:1025F000CF92DF92EF92FF920F931F93CF93DF93CF
:10260000CDB7DEB7A5970FB6F894DEBF0FBECDBF2E
:102610001F861E86198A188A1B8A1A8A7E018EE0F6
:10262000E80EF11C40E050E061E172E0C7010E9459
:1026300069188EE991E00E94D427682F70E080E04D
:1026400090E00E94A22620E030E048EC52E40E9494
:10265000D11A2B013C0160938B0270938C02809302
:102660008D0290938E028FE991E00E94D427682F0B
:1026700070E080E090E00E94A22620E030E048EC8C
:1026800052E40E94D11A4B015C016093870270935F
:1026900088028093890290938A029B01AC01C30156
:1026A000B2010E94641A60937F027093800280934B
:1026B0008102909382022EEF3FEF4FEF5FEB0E947B
:1026C000D11A60937B0270937C0280937D02909379
:1026D0007E0284EA91E00E94D427282F30E0A0E116
:1026E000B7E20E9440282B013C0160938302709363
:1026F0008402809385029093860222E0B501A401B2
:10270000CE0180960E941C0E40918B0250918C024B
:1027100060918D0270918E0222E0CE014A960E9455
:102720001C0E1D8A1C8A1F8A1E8A198E188E42E072
:1027300050E063E172E0CE0144960E9469184E8D2C
:102740005F8D6A8D7B8DCE0144960E941018811199
:1027500004C0CE0144960E943E1864E172E0CE01AE
:1027600044960E9450188C014CA15DA168A179A1EA
:102770000E941018811103C0C8010E943E1862E136
:1027800072E0C8010E9450188C012AE0FE013196C7
:102790006F01AF01C301B2010E94C31FF601019096
:1027A0000020E9F73197AF014C195D09B601C80166
:1027B0000E941018811103C0C8010E943E180E1516
:1027C0001F0579F0F801608171816115710531F0A3
:1027D00044815581C7010E94691803C0C7010E9446
:1027E0003E188C899D890E94AB1E8A8D9B8D0E940C
:1027F000AB1E88A199A10E94AB1E2BE043E06FEFB6
:1028000080E00E94491566E172E00E94BB120E94BE
:10281000A7042CE043E06FEF80E00E94491561E2DD
:1028200072E00E94BB120E94A70445E252E06EE1F2
:1028300081E00E9467174BE252E066E182E00E946D
:10284000671748E352E066E184E00E94671747E4B7
:1028500052E06EE183E00E9467174E855F8567E175
:102860008EEF0E94671781E592E00E94B9158E8570
:102870009F850E94AB1EA5960FB6F894DEBF0FBED3
:10288000CDBFDF91CF911F910F91FF90EF90DF901F
:10289000CF90BF90AF909F908F907F906F905F9000
:1028A0004F900895CF9380E090E0892B21F08CE049
:1028B00090E00E9400002FE043E06FEF80E00E9474
:1028C000491561E172E00E94BB1280917204877029
:1028D000806180937204809173048F71806C809307
:1028E000730481E080937604109277048FE694E07D
:1028F0000E94A7048FE00E94A41741E152E061E129
:102900008FEF0E946717C0914C0326E043E06FEF02
:1029100080E00E9449156C2F0E94AF120E94A7040C
:1029200086E00E94A417CF910C94F012CF9380916F
:10293000170381FD2FC00E94521480E194E09F9301
:102940008F930E9472030F900F9080E090E0892B8C
:1029500021F089E090E00E940000809117038160DF
:1029600080931703C4E02AE143E06FEF80E00E9408
:10297000491562E00E94AF120E94A7048BE10E94F9
:10298000A417811102C0C15071F7809117038260B2
:1029900080931703CF91089591E59CBD91E09DBD73
:1029A0002A98E3E2F0E03197F1F78EBD00000DB414
:1029B00007FEFDCF8EB5FB019FEF4150C8F02223EB
:1029C00061F09EBD00000DB407FEFDCF8EB5611510
:1029D000710599F380833196F0CFDF0111968081E4
:1029E0008EBD00000DB407FEFDCF8EB5FD01E5CF15
:1029F0002A9AE3E2F0E03197F1F70895CF93DF935D
:102A00001F92CDB7DEB7698320E041E0BE016F5F62
:102A10007F4F0E94CC140F90DF91CF9108956FE00B
:102A200080E20E94FE1460912D016F3F19F08AE24E
:102A30000E94FE14299A089520E040E060E070E0D2
:102A40000C94CC140F931F93CF93DF93EC018881E8
:102A50009981009729F02A813B812617370788F44E
:102A60008B016F5F7F4F0E94081D009761F0998373
:102A700088831B830A832C813D81232B11F4FC0165
:102A8000108281E001C080E0DF91CF911F910F9112
:102A90000895EFE6F4E090914B039183828366837F
:102AA000258347708481807E482B4483CF0108951D
:102AB000009769F0FC0101900020E9F73197AF0120
:102AC000481B590BBC018EE493E00C94730B80E01F
:102AD00090E00895CF93DF930E945815EC018FE0AA
:102AE00092E00E9458158C0F9D1FDF91CF910895A1
:102AF0008F929F92AF92BF920F931F93CF93DF93CA
:102B0000CDB7DEB7A1970FB6F894DEBF0FBECDBF2D
:102B100019A2423008F44AE08E010F5D1F4F842E47
:102B2000912CA12CB12CA50194010E94211AE62F11
:102B3000B901CA0101501109EA3014F4E05D01C085
:102B4000E95CD801EC93232B242B252B61F7C801DA
:102B50000E945815A1960FB6F894DEBF0FBECDBFE8
:102B6000DF91CF911F910F91BF90AF909F908F9069
:102B700008950C9458154F925F926F927F928F92A6
:102B80009F92AF92BF92CF92DF92EF92FF926B0132
:102B90007C01B42E9B01AC010E94CE1B882319F04E
:102BA00086E692E027C026013701E89477F82FEFF8
:102BB0003FEF4FE75FE7C301B2010E94CE1B8111D7
:102BC0000DC02FEF3FEF4FE75FE7C301B2010E9457
:102BD0009D2618161CF48AE692E00CC02FEF3FEFFA
:102BE0004FE75FE4C701B6010E94791B181684F411
:102BF0008EE692E0FF90EF90DF90CF90BF90AF9085
:102C00009F908F907F906F905F904F900C9458158D
:102C10002FEF3FEF4FE75FECC701B6010E949D2603
:102C200087FDE6CF20E030E0A901C701B6010E9490
:102C30009D2687FF11C0E0914E03F0914F03019054
:102C4000F081E02D6DE28EE493E009954C01F7FAF6
:102C5000F094F7F8F09402C0812C912CA12C60E044
:102C600070E080E09FE3AB1441F020E030E040E210
:102C700051E40E94D11AA394F6CF9B01AC01C70185
:102C8000B6010E94651A2B013C010E944A1B6B0190
:102C90007C010E94A2269B01AC01C301B2010E94EB
:102CA000641A2B013C014AE0C701B6010E94781565
:102CB0007C01E80CF91CBB2031F082E792E00E9415
:102CC0005815E80EF91EDB2CDD2021F120E030E064
:102CD00040E251E4C301B2010E9403272B013C01F1
:102CE0000E944A1B4B01A12CB12C4AE0C501B40142
:102CF0000E947815E80EF91EC501B4010E94A226B3
:102D00009B01AC01C301B2010E94641A2B013C017A
:102D1000DA94DACFC701FF90EF90DF90CF90BF90A9
:102D2000AF909F908F907F906F905F904F9008959D
:102D300090E0FC01EA53FB4F2491FC01EE54FB4F61
:102D40008491882399F090E0880F991FFC01E85541
:102D5000FB4FA591B491FC01E256FB4F85919491F4
:102D60008FB7F894EC91E22BEC938FBF08950F93FB
:102D70001F93CF93DF93EC018C81829586958770AA
:102D800091F44B8146954695469550E0BE01695FAA
:102D90007F4F88E193E00E94E71DEB81E695E69581
:102DA000E695F0E077C0813031F48F814AE068E148
:102DB00073E090E007C0823041F44AE068E173E0DC
:102DC0008F8198850E948C1F68C0833041F44AE04F
:102DD00068E173E08F8198850E94E51F5EC08430B2
:102DE00051F46F81788589859A852AE048E153E01E
:102DF0000E94971F52C0853051F46F817885898574
:102E00009A852AE048E153E00E94C31F46C08730FC
:102E100071F42B85293008F028E06F817885898549
:102E20009A8508E113E042E00E94F61D36C0863024
:102E3000A1F520E0EB81E695E695E6952E1738F5AD
:102E4000E22FF0E0AF01440F551FDA01A85EBC4F3E
:102E5000EC0FFD1F8781082E000C990B34E095952F
:102E600087953A95E1F78F708A3010F4805D01C044
:102E7000895C8C93DA01A75EBC4F87818F708A30A2
:102E800010F4805D01C0895C8C932F5FD3CFF0E09C
:102E9000EE0FFF1FE85EFC4F108288E193E0DF91A8
:102EA000CF911F910F9108958091940482958695FA
:102EB0008770813019F4809197040895811105C0BD
:102EC00087E994E00E94471F089580E00895CF931A
:102ED000DF93262F8F3F11F0EA0102C0C4E7D2E052
:102EE00040E0682F80E00E944915BE010E94BB129D
:102EF000DF91CF910C94A704FC0180914B03818357
:102F00009481907F916094838091170380FF03C028
:102F1000CF010C94A70487E894E09F938F930E94BD
:102F200072030F900F9080E00895CF93DF9342E0FB
:102F30000E94BB15EC018FE092E00E9458158C0FA7
:102F40009D1FDF91CF910895CF92DF92EF92FF9274
:102F5000CF93DF93D82F0E94380F6B017C0181E063
:102F6000D11180E080939504C0E00E94380FAB013E
:102F7000BC014C195D096E097F09403D5740610550
:102F8000710580F4C1110EC0A8950E94F7049091BC
:102F900094049770933049F7C1E0809195048D13A4
:102FA000E3CFE3CF8C2FDF91CF91FF90EF90DF90B5
:102FB000CF900895CF92DF92EF92FF92CF93DF935D
:102FC0006C01990FEE08FF08F7FE1FC0E0914E0359
:102FD000F0914F030190F081E02D6DE28EE493E0DB
:102FE0000995EC0166277727CB016C197D098E09BD
:102FF0009F094AE00E9478158C0F9D1FDF91CF91A9
:10300000FF90EF90DF90CF9008954AE0C701B6019E
:10301000DF91CF91FF90EF90DF90CF900C947815D7
:10302000EF92FF920F931F93CF93DF93FC012481C4
:1030300035816115710511F480E019C04115510504
:10304000A9F07B01EC018A01020F131FB8010E9455
:103050002215882389F3288139818C819D81B701CC
:10306000820F931F0E94E01D1D830C8381E0DF917E
:10307000CF911F910F91FF90EF900895CF93DF9321
:10308000EC0188819981009711F00E94AB1E198292
:1030900018821D821C821B821A82DF91CF910895B3
:1030A000CF93DF93EC016115710561F0FB01019095
:1030B0000020E9F73197AF01461B570B0E9410180B
:1030C000811103C0CE010E943E18CE01DF91CF9145
:1030D0000895EF92FF920F931F93CF93DF93EC012C
:1030E0007B018A01BA010E942215811104C0CE0120
:1030F0000E943E1807C01D830C83B7018881998107
:103100000E94E01DCE01DF91CF911F910F91FF90A2
:10311000EF900895789484B5826084BD84B5816011
:1031200084BD85B5826085BD85B5816085BD809192
:103130006E00816080936E0010928100809181000A
:103140008260809381008091810081608093810002
:10315000809180008160809380008091B1008460C4
:103160008093B1008091B00081608093B000809125
:103170007A00846080937A0080917A0082608093E4
:103180007A0080917A00816080937A0080917A0041
:10319000806880937A001092C100A89580E090E04A
:1031A000892B11F00E940000E0915E03F0915F0313
:1031B00082E08083E0915A03F0915B031082E091FA
:1031C0005C03F0915D0380E1808310926603E091DF
:1031D0006203F091630386E08083E0916003F091E5
:1031E0006103808180618083E0916003F0916103DD
:1031F000808188608083E0916003F0916103808129
:1032000080688083E0916003F091610380818F7D0D
:1032100080838FE594E09F938F930E947203809147
:1032200017038D7F809317030F900F9080E090E03D
:10323000892B51F082E594E09F938F930E94720353
:103240000E9400000F900F9041E050E063E071E0B9
:1032500086E193E00E94C4276FEF81E090E00E9436
:10326000EC27809112038F78809312031092080349
:10327000109207038EE291E00E94460386E994E1F2
:1032800090931503809314031F921F921F921F9215
:103290008DE194E09F938F930E9472030E94380FF8
:1032A0000F900F900F900F900F900F900E94380F7B
:1032B0000E94F704A8958091110382FFF7CF85E45F
:1032C00094E09F938F930E9472030E9465120F9067
:1032D0000F908091110382FB882780F91F928F93B2
:1032E0008DE294E09F938F930E947203A8950F90B4
:1032F0000F900F900F90A8950E94F7040E94440F22
:103300000E94600CF8CFCF93DF93FC0110821182F2
:103310001282148215821682DC0117968AE1ED0171
:1033200019928A95E9F782E08383DF91CF9108951E
:10333000CF93DF93EEE4F3E01382128288EE93E002
:10334000A0E0B0E084839583A683B7832CE331E0CB
:103350003183208325EC30E03587248724EC30E06E
:103360003787268720EC30E0318B208B21EC30E052
:10337000338B228B22EC30E0358B248B26EC30E033
:10338000378B268B118E128E138E148EE1EBF4E0A8
:103390001382128284839583A683B7838CE491E0A1
:1033A0009183808380E994E00E9483198FE694E002
:1033B0000E9483198EE494E00E948319EEE4F4E005
:1033C00081E08683D6E2D5838DE294E00E94831962
:1033D000EDE2F4E082E08683C5E2C5838DEB94E004
:1033E0000E948319EDEBF4E083E08683D5838CE0C3
:1033F00094E00E948319ECE0F4E084E08683C583C6
:103400008BEE93E00E948319EBEEF3E08EEF868360
:1034100080E38583DF91CF91089597FB072E16F403
:10342000009407D077FD09D00E944A1A07FC05D006
:103430003EF4909581959F4F0895709561957F4FCB
:103440000895A1E21A2EAA1BBB1BFD010DC0AA1FE5
:10345000BB1FEE1FFF1FA217B307E407F50720F0FD
:10346000A21BB30BE40BF50B661F771F881F991F78
:103470001A9469F760957095809590959B01AC01C1
:10348000BD01CF0108950E944028B7FF0895821B17
:10349000930B0895AA1BBB1B51E107C0AA1FBB1FBA
:1034A000A617B70710F0A61BB70B881F991F5A95D0
:1034B000A9F780959095BC01CD010895EE0FFF1FEF
:1034C0000590F491E02D09945058BB27AA270E943B
:1034D0007C1A0C948A270E947C2738F00E9483274C
:1034E00020F039F49F3F19F426F40C9479270EF458
:1034F000E095E7FB0C947327E92F0E949B2758F374
:10350000BA17620773078407950720F079F4A6F5C8
:103510000C94BD270EF4E0950B2EBA2FA02D0B01B5
:10352000B90190010C01CA01A0011124FF27591B08
:1035300099F0593F50F4503E68F11A16F040A22F0E
:10354000232F342F4427585FF3CF4695379527957F
:10355000A795F0405395C9F77EF41F16BA0B620B7E
:10356000730B840BBAF09150A1F0FF0FBB1F661FC5
:10357000771F881FC2F70EC0BA0F621F731F841F08
:1035800048F4879577956795B795F7959E3F08F02E
:10359000B0CF9395880F08F09927EE0F97958795F0
:1035A00008950E94E51A0C948A270E94832758F0F8
:1035B0000E947C2740F029F45F3F29F00C94732788
:1035C00051110C94BE270C9479270E949B2768F315
:1035D0009923B1F3552391F3951B550BBB27AA27CC
:1035E00062177307840738F09F5F5F4F220F331F06
:1035F000441FAA1FA9F335D00E2E3AF0E0E832D0CE
:1036000091505040E695001CCAF72BD0FE2F29D0D0
:10361000660F771F881FBB1F261737074807AB07A2
:10362000B0E809F0BB0B802DBF01FF2793585F4F17
:103630003AF09E3F510578F00C9473270C94BE2706
:103640005F3FE4F3983ED4F3869577956795B795F9
:10365000F7959F5FC9F7880F911D9695879597F904
:103660000895E1E0660F771F881FBB1F621773077D
:103670008407BA0720F0621B730B840BBA0BEE1F92
:1036800088F7E09508950E944A1B6894B1110C9444
:10369000BE2708950E94A32788F09F5798F0B92F5E
:1036A0009927B751B0F0E1F0660F771F881F991F77
:1036B0001AF0BA95C9F714C0B13091F00E94BD2735
:1036C000B1E008950C94BD27672F782F8827B85F45
:1036D00039F0B93FCCF3869577956795B395D9F7CF
:1036E0003EF490958095709561957F4F8F4F9F4FD9
:1036F00008950E94DF2608F48FEF0895FA01EE0F77
:10370000FF1F309621053105A1F16115710561F4A6
:103710008038BFE39B0749F168949038810561F0D8
:103720008038BFEF9B0741F099234AF5FF3FE10541
:103730003105210519F1E8940894E795D901AA23E8
:1037400029F4AB2FBE2FF85FD0F310C0FF5F70F4E9
:10375000A695E0F7F73950F019F0FF3A38F49F7763
:103760009F930DD00F9007FC9058089546F00C944D
:10377000792760E070E080E89FE308954FE79F7746
:103780005F934F933F932F930E947E1C2F913F9105
:103790004F915F910E9403270C94DB1B0E94DF2650
:1037A000880B990B089529F416F00C9473270C9448
:1037B000BD270C9479270E94A327A8F39638A0F779
:1037C00007F80F92E8942BE33AEA48EB5FE70E9490
:1037D00019270F920F920F924DB75EB70F920E946A
:1037E000C61CE8E6F0E00E940D1C4F915F91EF913E
:1037F000FF91E595EE1FFF1F49F0FE57E068442753
:10380000EE0F441FFA95E1F74195550B0E94401CBD
:103810000F9007FE0C94341C0895DF93CF931F93F1
:103820000F93FF92EF92DF927B018C01689406C0A8
:10383000DA2EEF010E941627FE01E894A59125914A
:10384000359145915591A6F3EF010E947C1AFE0136
:103850009701A801DA9469F7DF90EF90FF900F913C
:103860001F91CF91DF9108959B01AC0160E070E062
:1038700080E89FE30C94D11A0C9473270C94FA1CE3
:103880000E94A327D8F39923C9F3940F511DA3F3E2
:103890009150504094F059F0882332F0660F771F12
:1038A000881F91505040C1F79E3F51052CF7880F5B
:1038B000911D9695879597F908955F3FACF0983ED6
:1038C0009CF0BB27869577956795B79508F4B1600E
:1038D0009395C1F7BB0F58F711F460FFE8CF6F5F06
:1038E0007F4F8F4F9F4FE3CF0C94BE2716F00C9461
:1038F000FA1C0C94792768940C9473270E94A327D0
:10390000A8F39923C1F3AEF3DF93CF931F930F93E3
:10391000FF92C92FDD2788232AF02197660F771F92
:10392000881FDAF720E030E040E85FEB9FE388395A
:1039300020F0803E38F021968F770E94651AE0E9EA
:10394000F0E004C00E94651AEDEBF0E00E940D1C4F
:103950008B01BE01EC01FB2E6F5771097595771F26
:10396000880B990B0E94A42628E132E741E35FE32C
:103970000E941627AF2D9801AE01FF900F911F9165
:10398000CF91DF910E947C1A0C948A27FA01DC0106
:10399000AA0FBB1F9B01AC01BF5728F42227332776
:1039A0004427507820C0B75190F4AB2F002446959F
:1039B00037952795011CA395D2F3002071F0220FB3
:1039C000331F441FB395DAF30ED00C94641A6130A0
:1039D0007105A0E88A07B94630F49B01AC0166275F
:1039E000772788279078309621F02083318342838F
:1039F000538308959F3F31F0915020F48795779538
:103A00006795B795880F911D9695879597F90895B5
:103A1000A0E0B0E0EEE0FDE10C940D28EC01009791
:103A200021F4CB010E94161EB8C0FC01E60FF71F5F
:103A30009C0122503109E217F30708F4ACC0D90108
:103A40000D911C91119706171707B0F0053011055D
:103A500008F49FC0C80104978617970708F499C017
:103A600002501109061B170B019311936D937C9360
:103A7000CF010E94AB1E8DC05B01A01AB10A4C01A0
:103A8000800E911EA091E004B091E10440E050E06E
:103A9000E12CF12C109709F44AC0A815B905D1F50D
:103AA0006D907C901197630182E0C80ED11CCA14FE
:103AB000DB0480F1A3014A195B096A0182E0C80EA8
:103AC000D11C1296BC9012971396AC91B5E0CB1610
:103AD000D10440F0B282A38351834083D9016D9316
:103AE0007C930AC00E5F1F4FC301800F911FF90125
:103AF00091838083EB2DFA2FE114F10431F0D7018B
:103B00001396FC93EE93129744C0F093E104E09374
:103B1000E0043FC08D919C9111974817590708F414
:103B2000AC017D0112960D90BC91A02DB3CF809178
:103B3000DE049091DF0488159905E1F446175707D4
:103B4000C8F48091320190913301009741F48DB710
:103B50009EB74091360150913701841B950BE817B1
:103B6000F907C8F4F093DF04E093DE04F9017183F0
:103B700060830FC0CB010E94161E7C01009759F094
:103B8000A801BE010E94D71DCE010E94AB1EC70135
:103B900004C0CE0102C080E090E0CDB7DEB7EEE019
:103BA0000C94292881E090E0F8940C944F28FB01B4
:103BB000DC0102C001900D9241505040D8F70895A9
:103BC000FB01DC0101900D920020E1F70895FB015B
:103BD000DC014150504048F001900D920020C9F79F
:103BE00001C01D9241505040E0F70895EF920F93AD
:103BF0001F93CF93DF93E80147FD02C034E001C07B
:103C000034E1E42F440FFF0BF7FF03C0F195E1957A
:103C1000F109E32E022F2E2FAE010E94FD21CE01CD
:103C2000DF91CF911F910F91EF900895CF93DF9384
:103C30008230910510F482E090E0E091E004F09190
:103C4000E10420E030E0C0E0D0E0309711F14081A5
:103C5000518148175907C0F04817590761F482810C
:103C60009381209719F09B838A832BC09093E10462
:103C70008093E00426C02115310519F0421753073F
:103C800018F49A01BE01DF01EF010280F381E02DFB
:103C9000DCCF2115310509F1281B390B2430310502
:103CA00090F412968D919C9113976115710521F0F6
:103CB000FB019383828304C09093E1048093E0042A
:103CC000FD01329644C0FD01E20FF31F81939193F1
:103CD000225031092D933C933AC02091DE0430915B
:103CE000DF04232B41F420913401309135013093CE
:103CF000DF042093DE04209132013091330121153D
:103D0000310541F42DB73EB740913601509137014E
:103D1000241B350BE091DE04F091DF04E217F3077A
:103D2000A0F42E1B3F0B2817390778F0AC014E5F2B
:103D30005F4F2417350748F04E0F5F1F5093DF0485
:103D40004093DE048193919302C0E0E0F0E0CF0164
:103D5000DF91CF9108950F931F93CF93DF93009737
:103D600009F48CC0FC013297138212820091E004A6
:103D70001091E1040115110581F420813181820F38
:103D8000931F2091DE043091DF042817390779F55D
:103D9000F093DF04E093DE0471C0D80140E050E00E
:103DA000AE17BF0750F412962D913C911397AD01B9
:103DB0002115310509F1D901F3CF9D01DA013383D2
:103DC000228360817181860F971F8217930769F4A0
:103DD000EC0128813981260F371F2E5F3F4F318339
:103DE00020838A819B8193838283452B29F4F093DE
:103DF000E104E093E00442C01396FC93EE93129723
:103E0000ED01499159919E01240F351FE217F307E7
:103E100071F480819181840F951F029611969C9375
:103E20008E938281938113969C938E931297E0E0F8
:103E3000F0E0D80112968D919C911397009719F09C
:103E4000F8018C01F6CF8D919C9198012E5F3F4F28
:103E5000820F931F2091DE043091DF042817390769
:103E600069F4309729F41092E1041092E00402C042
:103E7000138212821093DF040093DE04DF91CF914E
:103E80001F910F910895662777270C948B23FC01CF
:103E900088279927E89421912032E9F3293010F0FE
:103EA0002E30C8F32B3241F02D3239F4689404C01F
:103EB0000E94BB1F820F911D219120532A30C0F315
:103EC0001EF4909581959F4F08951F93FC019927AB
:103ED0008827BC01E89411911032E9F3193010F0F1
:103EE0001E30C8F31B3251F01D3249F4689406C0ED
:103EF0000E94A61F610F711D811D911D119110530C
:103F00001A30B0F33EF490958095709561957F4F8F
:103F10008F4F9F4F1F910895BB274A3031F499234B
:103F200022F4BDE2909581959F4F0C94E61FBB272C
:103F30002A3051F4992342F4BDE290958095709512
:103F400061957F4F8F4F9F4F0C94C41F592F482F5F
:103F5000372F262F660F771F881F991F660F771F31
:103F6000881F991F620F731F841F951F660F771F8D
:103F7000881F991F08957AE0979F902D879F802D25
:103F8000910D11240895BB27FA01A62F6217710520
:103F900081059105330B30FB66F0AA27660F771F6A
:103FA000881F991FAA1FA21710F0A21B63953850F3
:103FB000A9F7A05DAA3308F0A95DA19336F7B11166
:103FC000B1931082CA010C94F725BB27FB0155273A
:103FD000AA27880F991FAA1FA41710F0A41B839566
:103FE0005051B9F7A05DAA3308F0A95DA1930097DD
:103FF00079F7B111B1931192CB010C94F725AEE092
:10400000B0E0E5E0F0E20C9417288C01CA014EE024
:104010004C831A83098377FF02C060E070E8FB01DC
:104020003197FE83ED83A901BC01CE0101960E9468
:104030002B204D815E8157FD0AC02F8138854217A4
:1040400053070CF49A01F801E20FF31F10822E9629
:10405000E4E00C943328ACE0B0E0E1E3F0E20C944F
:1040600009287C016B018A01FC0117821682838179
:1040700081FFBDC1CE0101964C01F7019381F6018C
:1040800093FD859193FF81916F01882309F4ABC162
:10409000853239F493FD859193FF81916F018532CB
:1040A00029F4B70190E00E940726E7CF512C312C6C
:1040B00020E02032A0F48B3269F030F4803259F0E5
:1040C000833269F420612CC08D3239F0803339F4A9
:1040D000216026C02260246023C0286021C027FD03
:1040E00027C030ED380F3A3078F426FF06C0FAE0EA
:1040F0005F9E300D1124532E13C08AE0389E300D80
:104100001124332E20620CC08E3221F426FD6BC1A7
:10411000206406C08C3611F4206802C0883641F451
:10412000F60193FD859193FF81916F018111C1CFBC
:10413000982F9F7D9554933028F40C5F1F4FFFE319
:10414000F9830DC0833631F0833771F0833509F080
:104150005BC022C0F801808189830E5F1F4F442419
:104160004394512C540115C03801F2E06F0E711CBC
:10417000F801A080B18026FF03C0652D70E002C069
:104180006FEF7FEFC5012C870E94EC252C01830186
:104190002C852F77222E17C03801F2E06F0E711C8C
:1041A000F801A080B18026FF03C0652D70E002C039
:1041B0006FEF7FEFC5012C870E94E1252C012C8534
:1041C0002068222E830123FC1BC0832D90E048161B
:1041D0005906B0F4B70180E290E00E9407263A94B5
:1041E000F4CFF50127FC859127FE81915F01B7018E
:1041F00090E00E94072631103A94F1E04F1A5108DE
:104200004114510471F7E5C0843611F0893639F54F
:10421000F80127FF07C060817181828193810C5F63
:104220001F4F08C060817181072E000C880B990B0D
:104230000E5F1F4F2F76722E97FF09C090958095C5
:10424000709561957F4F8F4F9F4F2068722E2AE0A7
:1042500030E0A4010E943F26A82EA81844C085374C
:1042600029F42F7EB22E2AE030E025C0F22FF97F0C
:10427000BF2E8F36C1F018F4883579F0B4C080377E
:1042800019F0883721F0AFC02F2F2061B22EB4FE75
:104290000DC08B2D8460B82E09C024FF0AC09F2F4B
:1042A0009660B92E06C028E030E005C020E130E07D
:1042B00002C020E132E0F801B7FE07C060817181E1
:1042C000828193810C5F1F4F06C06081718180E005
:1042D00090E00E5F1F4FA4010E943F26A82EA81851
:1042E000FB2DFF777F2E76FE0BC0372D3E7FA5146A
:1042F00050F474FE0AC072FC08C0372D3E7E05C023
:10430000BA2C372D03C0BA2C01C0B52C34FF0DC018
:10431000FE01EA0DF11D8081803311F4397E09C060
:1043200032FF06C0B394B39404C0832F867809F09B
:10433000B39433FD13C030FF06C05A2CB31418F4E5
:10434000530C5B18B32CB31468F4B70180E290E00F
:104350003C870E940726B3943C85F5CFB31410F434
:104360003B1801C0312C34FF12C0B70180E390E04C
:104370003C870E9407263C8532FF17C031FD03C0F1
:1043800088E790E002C088E590E0B7010CC0832F79
:10439000867859F031FF02C08BE201C080E237FD20
:1043A0008DE2B70190E00E940726A51438F4B7010A
:1043B00080E390E00E9407265A94F7CFAA94F40174
:1043C000EA0DF11D8081B70190E00E940726A1103F
:1043D000F5CF332009F451CEB70180E290E00E947E
:1043E00007263A94F6CFF7018681978102C08FEFB6
:1043F0009FEF2C96E2E10C9425284F925F926F92EA
:104400007F929F92AF92BF92CF92DF92EF92FF92F4
:104410000F931F93CF93DF93CDB7DEB729970FB6D6
:10442000F894DEBF0FBECDBF6A01122FB02E2BE372
:10443000201720F0FF24F394F00E02C0BCE3FB2E03
:104440000F2D27E0AE014F5F5F4F0E94E824AC01C3
:104450008981982F9970913031F0E1FC06C0E0FE1F
:1044600006C090E205C09DE203C09BE201C090E05F
:10447000EE2DE07183FF3CC0911102C083E001C0CA
:1044800084E0811718F4212F281B01C020E0E111DE
:104490000BC0F601822F30E2882319F0319381504E
:1044A000FBCFC20ED11C20E0992329F0D6019C93AA
:1044B000F60131966F01C6010396E2FE0AC03EE4A2
:1044C000D6013C9341E411964C93119712963C937C
:1044D00006C03EE6F601308341E641833283FC01AB
:1044E000322F40E2332309F442C041933150FACFD6
:1044F00082FF44C0911102C083E001C084E08117B3
:1045000018F4212F281B01C020E0E1110BC0F60197
:10451000822F30E2882319F031938150FBCFC20EF5
:10452000D11C20E0992329F0D6019C93F601319605
:104530006F01C6010396E2FE0BC039E4D6013C933D
:104540003EE411963C93119736E412963C9307C0D3
:1045500039E6F60130833EE6318336E63283FC01EC
:10456000322F40E2332319F041933150FBCFFC014D
:10457000E20FF11D10828EEF9FEFB7C0F1E09111B5
:1045800001C0F0E06F2F70E01416150624F49A01B4
:104590002F5F3F4F02C021E030E0260F371FBB20C6
:1045A00029F06B2D70E06F5F7F4F02C060E070E01C
:1045B000260F371F612F70E0261737071CF4121BD8
:1045C000212F01C020E03E2D387159F4D601322F41
:1045D00060E2332319F06D933150FBCFC20ED11C32
:1045E00020E0FF2331F0D6019C93B6016F5F7F4F2F
:1045F0006B01E1110BC0F601922F30E3992319F002
:1046000031939150FBCFC20ED11C20E09F2D940F0F
:104610003A81782F7071A72E84FF03C0313309F4DB
:104620009150191624F4993018F098E001C091E0E7
:10463000E42F852F57FF02C0E0E080E06E2F782F37
:10464000E0E0F0E0AEE29A2E3A01691A71082A0120
:10465000461A570A0B2D10E01195019511096F3F6D
:104660008FEF780729F4D6019C92C60101966C0160
:104670004617570784F0661677066CF47F01E40C42
:10468000F51CA1E0B0E0AC0FBD1FEA0EFB1ED70188
:104690001196BC9002C090E3B92E61507109319619
:1046A000C60101967C016017710724F0D601BC9207
:1046B0006C01D5CF6417750741F4363320F43533D8
:1046C00021F4A11002C081E3B82EF601B082F701F7
:1046D000822F90E2882319F091938150FBCFF7014C
:1046E000E20FF11D108280E090E029960FB6F89459
:1046F000DEBF0FBECDBFDF91CF911F910F91FF9015
:10470000EF90DF90CF90BF90AF909F907F906F9091
:104710005F904F900895A0E0B0E0E1E9F3E20C94DF
:104720000D28EC017B016115710519F0DB018D93FA
:104730009C938E010F5F1F4F7880872D90E00E9421
:10474000C025892B11F0E801F4CFBDE27B1205C032
:104750000F5F1F4F7980C1E008C0EBE27E1204C0FA
:104760008E010E5F1F4F7980C0E06801F1E0CF1A23
:10477000D10843E050E062EE74E0C6010E94C92512
:10478000892BF1F4680122E0C20ED11C45E050E013
:104790006DED74E0C6010E94C925892B21F46801E2
:1047A00087E0C80ED11CE114F10419F0D701CD92B5
:1047B000DC92C111FFC060E070E080E89FE703C1B8
:1047C00043E050E06AED74E0C6010E94C925892BE0
:1047D00051F4E114F10409F4F2C00E5F1F4FF70128
:1047E00011830083ECC0680160E070E0CB0100E061
:1047F00010E0F601D0EDD70DDA3058F52C2F2260FD
:10480000622E2C2F2870C2FF05C0211128C00F5F17
:104810001F4F25C0222311F001501109A5E0B0E07F
:104820009B01AC010E94FE274B015C01880C991C86
:10483000AA1CBB1CC501B4016D0F711D811D911D0A
:104840006839A9E97A078A07A9E19A0740F0C660A2
:1048500005C0DE3F51F4C3FD44C0C8606C2EBFEFFD
:10486000CB1ADB0A7080C62DC4CF2D2F2F7D2531AA
:10487000C1F540814D3211F4C06106C04B3221F0C8
:10488000319621E030E006C03296D60111964C9167
:1048900022E030E0A0EDA40FAA3018F0E21BF30BE9
:1048A00020C040E050E04038BCE05B075CF49A0177
:1048B000220F331F220F331F420F531F440F551F68
:1048C0004A0F511D3196DF0111972C91A0EDA20FD7
:1048D000AA3048F3C4FF03C0519541955109040F14
:1048E000151FC1FF07C0E114F10421F03197D70172
:1048F000ED93FC930E94A226C370C33019F06B01A4
:104900007C0106C06B017C01F7FAF094F7F8F09493
:1049100020E030E0A901C701B6010E949D2688234E
:1049200009F445C017FF06C0119501951109C9EF9B
:10493000D4E002C0C1E1D5E05E01B8E1AB1AB10834
:104940004601BE2DAF2D90E2E92EF12C0E151F056C
:1049500084F0FE012591359145915491B4018B2F3E
:104960009A2F0E9403274B01B82FA92F0E191F0958
:10497000EDCF2497F594E794CA15DB0539F7640168
:10498000EB2EFA2E8E2D880F8F2D881F8F3F49F02A
:1049900020E030E0A901C701B6010E949D268111E7
:1049A00006C082E290E09093E3048093E204C701A2
:1049B000B60109C060E070E080E89FEF04C060E0ED
:1049C00070E080EC9FE7CDB7DEB7EEE00C942928CD
:1049D000283008F027E03327DA01990F311D87FDD1
:1049E000916000966105710539F432602E5F3D9348
:1049F00030E32A95E1F708959F3F30F08038710544
:104A0000610509F03C5F3C5F3D93913008F08068A0
:104A1000911DDF93CF931F930F93FF92EF92192F66
:104A2000987F9695E92F96959695E90FFF27E1597E
:104A3000FA4F99273327EE24FF24A701E7010590B9
:104A40000894079428F4360FE71EF81E491F511DDD
:104A5000660F771F881F991F0694A1F7059007948A
:104A600028F4E70EF81E491F561FC11D770F881F37
:104A7000991F661F0694A1F70590079428F4F80E75
:104A8000491F561FC71FD11D880F991F661F771F0B
:104A90000694A1F70590079420F4490F561FC71FED
:104AA000D81F990F661F771F881F0694A9F7849156
:104AB0001095177041F0D695C79557954795F7947F
:104AC000E7941A95C1F7E5E1F5E068941590159122
:104AD00035916591959105907FE27395E118F10A02
:104AE000430B560BC90BD009C0F7E10CF11E431F55
:104AF000561FC91FD01D7EF4703311F48A95E6CF7E
:104B0000E894015030F0080F0AF40027021708F467
:104B1000202F2395022F7A3328F079E37D932A956D
:104B2000E9F710C07D932A9589F6069497956795C5
:104B3000379517951794E118F10A430B560BC90BDB
:104B4000D00998F023957E9173957A3308F070E33D
:104B50007C932013B8F77E9170617D9330F083953C
:104B600071E37D9370E32A95E1F71124EF90FF90B4
:104B70000F911F91CF91DF91992787FD909508950F
:104B800091110C947027803219F089508550C8F724
:104B90000895FB01DC014150504088F08D91813433
:104BA0001CF08B350CF4805E659161341CF06B3524
:104BB0000CF4605E861B611171F3990B0895881BDC
:104BC000FCCFFC010590615070400110D8F7809532
:104BD00090958E0F9F1F0895FC01615070400190C9
:104BE0000110D8F7809590958E0F9F1F0895DC01D6
:104BF000FC01672F71917723E1F7329704C07C9114
:104C00006D9370836291AE17BF07C8F308950F9339
:104C10001F93CF93DF93FB01238121FD03C08FEF0F
:104C20009FEF28C022FF16C046815781248135811D
:104C30004217530744F4A081B1819D012F5F3F4F7C
:104C4000318320838C93268137812F5F3F4F3783B9
:104C5000268310C0EB01092F182F0084F185E02D69
:104C60000995892BE1F68E819F8101969F838E8322
:104C7000812F902FDF91CF911F910F910895FA010D
:104C8000AA27283051F1203181F1E8946F936E7F8B
:104C90006E5F7F4F8F4F9F4FAF4FB1E03ED0B4E07C
:104CA0003CD0670F781F891F9A1FA11D680F791FBD
:104CB0008A1F911DA11D6A0F711D811D911DA11DCE
:104CC00020D009F468943F912AE0269F11243019DE
:104CD000305D3193DEF6CF010895462F4770405D79
:104CE0004193B3E00FD0C9F7F6CF462F4F70405D28
:104CF0004A3318F0495D31FD4052419302D0A9F783
:104D0000EACFB4E0A6959795879577956795BA957C
:104D1000C9F700976105710508959B01AC010A2E42
:104D200006945795479537952795BA95C9F7620F19
:104D3000731F841F951FA01D08950E94DF2608F48D
:104D400081E00895E89409C097FB3EF49095809522
:104D5000709561957F4F8F4F9F4F9923A9F0F92F41
:104D600096E9BB279395F695879577956795B795BF
:104D7000F111F8CFFAF4BB0F11F460FF1BC06F5FA5
:104D80007F4F8F4F9F4F16C0882311F096E911C0B7
:104D9000772321F09EE8872F762F05C0662371F0D8
:104DA00096E8862F70E060E02AF09A95660F771FEC
:104DB000881FDAF7880F9695879597F90895990FC8
:104DC0000008550FAA0BE0E8FEEF16161706E807D5
:104DD000F907C0F012161306E407F50798F0621BF6
:104DE000730B840B950B39F40A2661F0232B242BCB
:104DF000252B21F408950A2609F4A140A6958FEFEA
:104E0000811D811D08950E9416270C948A270E94F7
:104E10007C2738F00E94832720F0952311F00C9412
:104E200073270C94792711240C94BE270E949B278A
:104E300070F3959FC1F3950F50E0551F629FF001ED
:104E4000729FBB27F00DB11D639FAA27F00DB11D06
:104E5000AA1F649F6627B00DA11D661F829F22278F
:104E6000B00DA11D621F739FB00DA11D621F839F16
:104E7000A00D611D221F749F3327A00D611D231FEC
:104E8000849F600D211D822F762F6A2F11249F573A
:104E900050409AF0F1F088234AF0EE0FFF1FBB1F3D
:104EA000661F771F881F91505040A9F79E3F5105FC
:104EB00080F00C9473270C94BE275F3FE4F3983E78
:104EC000D4F3869577956795B795F795E7959F5FA6
:104ED000C1F7FE2B880F911D9695879597F9089538
:104EE00099278827089597F99F6780E870E060E028
:104EF00008959FEF80EC089500240A941616170673
:104F000018060906089500240A94121613061406BA
:104F100005060895092E0394000C11F4882352F01D
:104F2000BB0F40F4BF2B11F460FF04C06F5F7F4FD5
:104F30008F4F9F4F089557FD9058440F551F59F0BC
:104F40005F3F71F04795880F97FB991F61F09F3F76
:104F500079F087950895121613061406551FF2CF9F
:104F60004695F1DF08C0161617061806991FF1CFEF
:104F700086957105610508940895E894BB27662716
:104F80007727CB0197F90895DC01CB01FC01F99952
:104F9000FECF06C0F2BDE1BDF89A319600B40D9285
:104FA00041505040B8F70895F999FECF92BD81BDA8
:104FB000F89A992780B50895DC01A40FB51F4150D8
:104FC000504048F0CB01840F951F2E910E94ED2791
:104FD00041505040D0F70895262FF999FECF92BD49
:104FE00081BDF89A019700B4021639F01FBA20BDAE
:104FF0000FB6F894FA9AF99A0FBE08950E944028C5
:10500000A59F900DB49F900DA49F800D911D11241C
:1050100008952F923F924F925F926F927F928F925C
:105020009F92AF92BF92CF92DF92EF92FF920F9337
:105030001F93CF93DF93CDB7DEB7CA1BDB0B0FB641
:10504000F894DEBF0FBECDBF09942A8839884888FE
:105050005F846E847D848C849B84AA84B984C88494
:10506000DF80EE80FD800C811B81AA81B981CE0F8B
:10507000D11D0FB6F894DEBF0FBECDBFED01089570
:10508000A29FB001B39FC001A39F700D811D112489
:10509000911DB29F700D811D1124911D0895F894EA
:0250A000FFCF40
:1050A200FFFFFF00FCE1A8A8B8089008EA09B009D0
:1050B2008D0932090609F4085D0A130A012B8726B5
:1050C20040A470DD3FE85412C08F0C8F0CFF4B0BD5
:1050D200830A0000E404800000000000F70B730B59
:1050E200C00B9E0BB20B3E0C00000000E40CD00C77
:1050F200C90CC60CC30CC20C4F4B004E41434B00B3
:1051020021007634303070706D3A200076313030C4
:10511200303070706D20002D2D2D2D2D2D2D2D2D2B
:105122002D2D2D2D2D2D2D2D2D2D2D2D2D2D2D2DAD
:105132002D2D2D00496E636F6D696E67206D65734D
:10514200736167652E747970653A20002056616C30
:105152007565200053454E303135393A00562020CE
:1051620020202020202020202000434F323A003CE3
:105172003430300070706D00202020202020205418
:10518200696D6520706F696E743A007634303070E4
:10519200706D20005620202020202020202020007A
:1051A2005600534C4545505F54494D453A20000D39
:1051B2000A003A303A00434F322073656E736F72C1
:1051C20000312E3500566F6C74730050504D2D34E3
:1051D20030302F313030300050504D2D3430302FA0
:1051E2003130203030300054656D702D636F6D703A
:1051F200004D472D3831312044656D6F73747261F3
:1052020074696F6E0A006E616E00696E66006F7679
:0A52120066002E00322E312E31000E
:00000001FF
